:020000040800F2
:1000000000000520AD1E0008C91D0008CB1D00081A
:10001000CD1D0008CF1D0008D11D00080000000004
:1000200000000000000000000000000041A90008DE
:10003000D31D000800000000E1A9000845AA00083F
:10004000FD1E0008FD1E0008FD1E0008FD1E000824
:10005000FD1E0008FD1E0008FD1E0008FD1E000814
:10006000FD1E0008FD1E0008FD1E0008FD1E000804
:10007000FD1E0008FD1E0008FD1E0008FD1E0008F4
:10008000FD1E0008FD1E0008FD1E0008FD1E0008E4
:10009000FD1E0008FD1E0008FD1E0008FD1E0008D4
:1000A000FD1E0008FD1E0008FD1E0008FD1E0008C4
:1000B000FD1E0008FD1E0008FD1E0008FD1E0008B4
:1000C000FD1E0008FD1E0008FD1E0008FD1E0008A4
:1000D000FD1E0008FD1E0008FD1E0008FD1E000894
:1000E000FD1E0008FD1E0008FD1E0008FD1E000884
:1000F000FD1E0008FD1E0008FD1E0008FD1E000874
:10010000FD1E0008FD1E0008FD1E0008FD1E000863
:10011000FD1E0008FD1E0008D51D0008FD1E00087C
:10012000FD1E0008FD1E0008FD1E0008FD1E000843
:10013000FD1E0008FD1E0008FD1E0008FD1E000833
:10014000FD1E0008FD1E0008FD1E0008FD1E000823
:10015000FD1E0008FD1E0008FD1E0008FD1E000813
:10016000FD1E0008FD1E0008FD1E0008FD1E000803
:10017000FD1E0008FD1E0008FD1E00080000000016
:10018000FD1E0008FD1E0008FD1E0008FD1E0008E3
:10019000FD1E0008FD1E0008FD1E0008FD1E0008D3
:1001A000E11D0008FD1E0008ED1D0008FD1E0008F1
:1001B000FD1E0008FD1E0008FD1E0008FD1E0008B3
:0801C000FD1E0008FD1E0008F1
:1001D00010B5054C237833B9044B13B10448AFF381
:1001E00000800123237010BD4003002000000000A8
:1001F0003480030808B5034B1BB103490348AFF330
:10020000008008BD00000000440300203480030883
:1002100001F0FF01102A2BDB10F0070F08D010F8B7
:10022000013B013A8B422DD010F0070F42B3F6D1BB
:10023000F0B441EA012141EA014122F007047FF0D4
:1002400000070023F0E80256083C85EA010586EA2B
:10025000010685FA47F5A3FA87F586FA47F6A5FA67
:1002600087F68EB9EED1F0BC01F0FF0102F0070273
:1002700032B110F8013B013A83EA010313B1F8D11E
:100280000020704701387047002D06BF35460338FF
:10029000073815F0010F07D1013015F4807F02BF38
:1002A000013015F4C03F0130F0BC0138704700BF89
:1002B00081F0004102E000BF83F0004330B54FEA17
:1002C00041044FEA430594EA050F08BF90EA020F84
:1002D0001FBF54EA000C55EA020C7FEA645C7FEA17
:1002E000655C00F0E2804FEA5454D4EB5555B8BF3A
:1002F0006D420CDD2C4480EA020281EA030382EAAB
:10030000000083EA010180EA020281EA0303362D3C
:1003100088BF30BD11F0004F4FEA01314FF4801C0F
:100320004CEA113102D0404261EB410113F0004F21
:100330004FEA03334CEA133302D0524263EB4303D8
:1003400094EA050F00F0A780A4F10104D5F1200E76
:100350000DDB02FA0EFC22FA05F2801841F10001D1
:1003600003FA0EF2801843FA05F359410EE0A5F1A5
:1003700020050EF1200E012A03FA0EFC28BF4CF0D6
:10038000020C43FA05F3C01851EBE37101F000458C
:1003900007D54FF0000EDCF1000C7EEB00006EEB99
:1003A0000101B1F5801F1BD3B1F5001F0CD3490823
:1003B0005FEA30004FEA3C0C04F101044FEA44527A
:1003C00012F5800F80F09A80BCF1004F08BF5FEA01
:1003D000500C50F1000041EB045141EA050130BDE1
:1003E0005FEA4C0C404141EB0101013C28BFB1F5F3
:1003F000801FE9D291F0000F04BF01460020B1FA3E
:1004000081F308BF2033A3F10B03B3F120020CDA10
:100410000C3208DD02F1140CC2F10C0201FA0CF0EE
:1004200021FA02F10CE002F11402D8BFC2F1200C53
:1004300001FA02F120FA0CFCDCBF41EA0C01904009
:10044000E41AA2BF01EB0451294330BD6FEA040452
:100450001F3C1CDA0C340EDC04F11404C4F120023D
:1004600020FA04F001FA02F340EA030021FA04F34F
:1004700045EA030130BDC4F10C04C4F1200220FAA6
:1004800002F001FA04F340EA0300294630BD21FAE4
:1004900004F0294630BD94F0000F83F4801306BFAA
:1004A00081F480110134013D4EE77FEA645C18BF9E
:1004B0007FEA655C29D094EA050F08BF90EA020F35
:1004C00005D054EA000C04BF1946104630BD91EA2D
:1004D000030F1EBF0021002030BD5FEA545C05D130
:1004E0004000494128BF41F0004130BD14F580046F
:1004F0003CBF01F5801130BD01F0004545F0FE41E3
:1005000041F470014FF0000030BD7FEA645C1ABF17
:10051000194610467FEA655C1CBF0B46024650EA4E
:10052000013406BF52EA033591EA030F41F400217A
:1005300030BD00BF90F0000F04BF0021704730B500
:100540004FF4806404F132044FF000054FF00001D5
:1005500050E700BF90F0000F04BF0021704730B596
:100560004FF4806404F1320410F0004548BF40426B
:100570004FF000013EE700BF42004FEAE2014FEAC0
:1005800031014FEA02701FBF12F07F4393F07F4F9B
:1005900081F06051704732F07F4208BF704793F09E
:1005A0007F4F04BF41F40021704730B54FF46074B1
:1005B00001F0004521F000411CE700BF50EA0102B4
:1005C00008BF704730B54FF000050AE050EA01025D
:1005D00008BF704730B511F0004502D5404261EBCD
:1005E00041014FF4806404F132045FEA915C3FF40E
:1005F000D8AE4FF003025FEADC0C18BF03325FEAAB
:10060000DC0C18BF033202EBDC02C2F1200300FA5B
:1006100003FC20FA02F001FA03FE40EA0E0021FA80
:1006200002F11444BDE600BF70B54FF0FF0C4CF46E
:10063000E06C1CEA11541DBF1CEA135594EA0C0F20
:1006400095EA0C0F00F0DEF82C4481EA030621EA5B
:100650004C5123EA4C5350EA013518BF52EA033596
:1006600041F4801143F4801338D0A0FB02CE4FF048
:100670000005E1FB02E506F00042E0FB03E54FF078
:100680000006E1FB03569CF0000F18BF4EF0010E70
:10069000A4F1FF04B6F5007F64F5407404D25FEA6C
:1006A0004E0E6D4146EB060642EAC62141EA55511F
:1006B0004FEAC52040EA5E504FEACE2EB4F1FD0C61
:1006C00088BFBCF5E06F1ED8BEF1004F08BF5FEADF
:1006D000500E50F1000041EB045170BD06F0004691
:1006E00046EA010140EA020081EA0301B4EB5C043E
:1006F000C2BFD4EB0C0541EA045170BD41F4801136
:100700004FF0000E013C00F3AB8014F1360FDEBF5A
:10071000002001F0004170BDC4F10004203C35DA36
:100720000C341BDC04F11404C4F1200500FA05F3B9
:1007300020FA04F001FA05F240EA020001F000425A
:1007400021F0004110EBD37021FA04F642EB0601D0
:100750005EEA430E08BF20EAD37070BDC4F10C04FA
:10076000C4F1200500FA04F320FA05F001FA04F2BE
:1007700040EA020001F0004110EBD37041F10001AA
:100780005EEA430E08BF20EAD37070BDC4F12005B5
:1007900000FA05F24EEA020E20FA04F301FA05F21D
:1007A00043EA020321FA04F001F0004121FA04F2C5
:1007B00020EA020000EBD3705EEA430E08BF20EA95
:1007C000D37070BD94F0000F0FD101F000464000CF
:1007D00041EB010111F4801F08BF013CF7D041EA51
:1007E000060195F0000F18BF704703F00046520055
:1007F00043EB030313F4801F08BF013DF7D043EA26
:100800000603704794EA0C0F0CEA135518BF95EADB
:100810000C0F0CD050EA410618BF52EA4306D1D162
:1008200081EA030101F000414FF0000070BD50EA81
:10083000410606BF1046194652EA430619D094EA0B
:100840000C0F02D150EA013613D195EA0C0F05D1F5
:1008500052EA03361CBF104619460AD181EA030149
:1008600001F0004141F0FE4141F470014FF0000001
:1008700070BD41F0FE4141F4780170BD70B54FF09C
:10088000FF0C4CF4E06C1CEA11541DBF1CEA13551C
:1008900094EA0C0F95EA0C0F00F0A7F8A4EB0504FE
:1008A00081EA030E52EA03354FEA013100F08880F5
:1008B0004FEA03334FF0805545EA131343EA1263BE
:1008C0004FEA022245EA111545EA10654FEA002673
:1008D0000EF000419D4208BF964244F1FD0404F52C
:1008E000407402D25B084FEA3202B61A65EB030588
:1008F0005B084FEA32024FF480104FF4002CB6EB45
:10090000020E75EB030E22BFB61A754640EA0C00C4
:100910005B084FEA3202B6EB020E75EB030E22BF04
:10092000B61A754640EA5C005B084FEA3202B6EB45
:10093000020E75EB030E22BFB61A754640EA9C0004
:100940005B084FEA3202B6EB020E75EB030E22BFD4
:10095000B61A754640EADC0055EA060E18D04FEA92
:10096000051545EA16754FEA06164FEAC30343EA32
:1009700052734FEAC2025FEA1C1CC0D111F4801FFF
:100980000BD141EA00014FF000004FF0004CB6E7F8
:1009900011F4801F04BF01430020B4F1FD0C88BF97
:1009A000BCF5E06F3FF6AFAEB5EB030C04BFB6EBA2
:1009B000020C5FEA500C50F1000041EB045170BD95
:1009C0000EF0004E4EEA113114EB5C04C2BFD4EBC2
:1009D0000C0541EA045170BD41F480114FF0000E46
:1009E000013C90E645EA060E8DE60CEA135594EAC2
:1009F0000C0F08BF95EA0C0F3FF43BAF94EA0C0FC5
:100A00000AD150EA01347FF434AF95EA0C0F7FF439
:100A100025AF104619462CE795EA0C0F06D152EA8D
:100A200003353FF4FDAE1046194622E750EA410671
:100A300018BF52EA43067FF4C5AE50EA41047FF482
:100A40000DAF52EA43057FF4EBAE12E74FF0FF3CE7
:100A500006E000BF4FF0010C02E000BF4FF0010CB8
:100A60004DF804CD4FEA410C7FEA6C5C4FEA430C31
:100A700018BF7FEA6C5C1BD001B050EA410C0CBF80
:100A800052EA430C91EA030F02BF90EA020F0020E2
:100A9000704710F1000F91EA030F58BF994208BF49
:100AA00090422CBFD8176FEAE37040F00100704706
:100AB0004FEA410C7FEA6C5C02D150EA013C07D15D
:100AC0004FEA430C7FEA6C5CD6D152EA033CD3D0A8
:100AD0005DF8040B704700BF8446104662468C46A2
:100AE0001946634600E000BF01B5FFF7B7FF0028D5
:100AF00048BF10F1000F01BD4DF808EDFFF7F4FFFE
:100B00000CBF012000205DF808FB00BF4DF808ED88
:100B1000FFF7EAFF34BF012000205DF808FB00BFAB
:100B20004DF808EDFFF7E0FF94BF012000205DF8CD
:100B300008FB00BF4DF808EDFFF7CEFF94BF012082
:100B400000205DF808FB00BF4DF808EDFFF7C4FF7B
:100B500034BF012000205DF808FB00BF4FEA410CC4
:100B60007FEA6C5C02D150EA013C0AD14FEA430CA7
:100B70007FEA6C5C02D152EA033C02D14FF00000E4
:100B800070474FF0010070474FEA410212F5001222
:100B900015D211D56FF47873B3EB625212D94FEAC4
:100BA000C12343F0004343EA505311F0004F23FAAE
:100BB00002F018BF404270474FF00000704750EA03
:100BC000013005D111F0004008BF6FF000407047C0
:100BD0004FF00000704700BF4A0011D212F500121A
:100BE00011D20DD56FF47873B3EB62520ED44FEA85
:100BF000C12343F0004343EA505323FA02F0704705
:100C00004FF00000704750EA013002D14FF0FF3042
:100C100070474FF0000070474FEA4102B2F1E043E5
:100C200024BFB3F5001CDCF1FE5C0DD901F0004CD3
:100C30004FEAC0024CEA5070B2F1004F40EB830023
:100C400008BF20F00100704711F0804F21D113F14F
:100C50003872BCBF01F00040704741F480114FEA88
:100C60005252C2F11802C2F1200C10FA0CF320FA11
:100C700002F018BF40F001004FEAC1234FEAD3232E
:100C800003FA0CFC40EA0C0023FA02F34FEA430398
:100C9000CCE77FEA625307D150EA01331EBF4FF021
:100CA000FE4040F44000704701F0004040F0FE403C
:100CB00040F40000704700BF7BB972B90029BEBF85
:100CC00000204FF0004106E008BF00281CBF6FF075
:100CD00000414FF0FF3000F0D3B9ADF1080C6DE9E1
:100CE00004CE002909DB002B1ADB00F04DF8DDF8FB
:100CF00004E0DDE9022304B07047404261EB4101AA
:100D0000002B1BDB00F040F8DDF804E0DDE90223F6
:100D100004B0404261EB4101524263EB4303704730
:100D2000524263EB430300F02FF8DDF804E0DDE905
:100D3000022304B0404261EB41017047524263EB31
:100D4000430300F021F8DDF804E0DDE9022304B0FC
:100D5000524263EB4303704753B94AB9002908BFB5
:100D600000281CBF4FF0FF314FF0FF3000F088B972
:100D7000ADF1080C6DE904CE00F006F8DDF804E0F2
:100D8000DDE9022304B070472DE9F047089D8E4647
:100D900004468846002B4AD18A42174662D9B2FAE5
:100DA00082F64EB1C6F1200301FA06F820FA03F3E9
:100DB000B74043EA0808B4404FEA174E1FFA87FCD1
:100DC000B8FBFEF1230C0EFB118843EA084301FB3C
:100DD0000CF29A4209D9FB1801F1FF3080F0EA8049
:100DE0009A4240F2E78002393B449A1AA3B2B2FB1E
:100DF000FEF00EFB102243EA024300FB0CFC9C4574
:100E000009D9FB1800F1FF3280F0D6809C4540F2F2
:100E1000D3803B44023840EA0140A3EB0C0300219D
:100E20001DB1F3400022C5E90032BDE8F0878B42D6
:100E300005D90DB1C5E9000100210846F5E7B3FA6F
:100E400083F1002946D1734502D3824200F2058125
:100E5000841A6EEB030201209046002DE5D0C5E90F
:100E60000048E2E7002A00F09080B2FA82F6002EF5
:100E700040F0A4808A1A030C4FEA174E80B2BCB22D
:100E80000121B2FBFEFC0EFB1C2243EA024304FBE1
:100E90000CF29A4207D9FB180CF1FF3802D29A42A1
:100EA00000F2E080C4469B1AB3FBFEF20EFB123345
:100EB00040EA034302FB04F49C4207D9FB1802F109
:100EC000FF3002D29C4200F2CA8002461B1B42EA5B
:100ED0000C40A5E7C1F120068B4022FA06F71F431C
:100EE0000EFA01F420FA06F32EFA06FE4FEA17492D
:100EF000234300FA01F81FFA87FCBEFBF9F01C0C33
:100F000009FB10EE44EA0E4400FB0CFEA64502FA73
:100F100001F209D93C1900F1FF3A80F09C80A64506
:100F200040F2998002383C44A4EB0E041FFA83FE81
:100F3000B4FBF9F309FB13444EEA044403FB0CFC35
:100F4000A44508D93C1903F1FF3E80F08280A445F6
:100F50007FD9023B3C4443EA0040A4EB0C04A0FBD5
:100F600002EC64457346E14662D35FD05DB1B8EBF5
:100F7000030264EB090404FA06F622FA01F31E43A5
:100F8000CC40C5E9006400214FE7B1FBF2FC010C45
:100F900041EA0E4180B240EA01423B4638463C46B7
:100FA000B846BE462026B1FBF7F1A2EB080241EAA3
:100FB0000C4166E7014618E710462CE7C6F120020F
:100FC0002EFA02F3B740B14020FA02F24FEA174E70
:100FD0000A43B3FBFEF8BCB20EFB1833110C41EA16
:100FE000034108FB04F9B04089454FEA104380B241
:100FF0003ED9791808F1FF3C01D289451FD8A1EBF1
:101000000901B1FBFEF909FB04F80EFB191192B2BC
:1010100042EA0142424529D2BA1809F1FF31C4D24D
:101020004245C2D2A9F102013A44BEE7F0459DD241
:10103000BEEB02036CEB070C0138E14696E7A7EB29
:1010400009094944A8F1020CB1FBFEF909FB04F8B7
:10105000DBE773467FE7504666E70846FDE63B441C
:10106000023A33E7ACF1020C3B441CE749469CE7EB
:10107000A1EB0901C446B1FBFEF909FB04F8C4E782
:10108000704700BF014900200AF056BE392300080E
:101090002DE9F0472A4D002400262A4FAA462DEDBF
:1010A000028BF0EE088AB1EE048A0FF28C09D9E9BE
:1010B000008920460134FFF74DFA42464B46FFF7C0
:1010C000B3FA32463B46FFF7AFFAFFF7A5FD00EE55
:1010D000100A34F081FAF0EE487AE0EE287A17EE42
:1010E000900AFFF749FA0022174BFFF79DFAFFF726
:1010F00073FDB4F5807F05F8010BDAD1134D144C64
:101100002B6814485A6A144B1A8000222368D1189D
:101110000132C9B2C82A1AF8011000F8011BF6D131
:10112000013301221020DBB223600C4B1A7009F04E
:1011300017F8E5E7AFF30080182D4454FB21194060
:101140005F0300200000703F008039407C050020D4
:1011500060040020640400205C0300205E03002083
:1011600010B594B01022002102240AA836F026F807
:101170001422002103A836F021F81D4B192108A8DC
:101180001A6C42F080521A641B6C03F08053019376
:10119000019B184B1A6842F440421A6001221B68F6
:1011A00003F440430293029B4FF48033CDE90823BC
:1011B0004FF48003CDE90E434FF4D873CDE91244C8
:1011C000CDE9101307F0C0FE07F02AFC0F23002022
:1011D0000721CDE903344FF4A053CDE905034FF4C3
:1011E000805303A8079308F097F814B010BD00BF10
:1011F000003802400070004030B54FF480738FB06B
:101200004FF080720E4D06939F23099201220093A6
:1012100000230446694628460593CDE90A2341F296
:101220008832CDE90733CDE90C3307F05FFD41F299
:1012300088322146284607F023FE0FB030BD00BF9C
:10124000C805002000B54FF4807391B04FF0407294
:10125000EF2808934FF0EB0302A90D4802934FF4D7
:10126000406309934FF4005305934FF00003CDE919
:101270000A3214BF0A2206220F9307926A46CDE96A
:101280000D33CDE9003307F075FD11B05DF804FBB7
:10129000C80500202DE980489DB0102200210125BD
:1012A0000FA84FF0104935F089FF002406F008FB25
:1012B000C64B0FA8ADF83C501294CDE9109306F040
:1012C0001DFB17230FA88DF83D508DF844308DF885
:1012D0004A5006F013FB042006F000FBBFF34F8FCB
:1012E000BFF36F8FBA4AC2F85042BFF34F8FBFF3BC
:1012F0006F8F536943F400335361BFF34F8FBFF3D4
:101300006F8FC2F88440BFF34F8FD2F8803043F61E
:10131000E074C3F3C900C3F34E335B0103EA040670
:10132000014646EA81750139C2F86052F9D2203B84
:1013300013F1200FF2D1BFF34F8F536943F4803381
:101340005361BFF34F8FBFF36F8F06F01FFA002476
:10135000FFF706FF142200210FA835F02FFF9D4B49
:1013600010219D481A6B01274FF010084FF0030B16
:1013700042F010024FF4805A984D4FF004091A635E
:101380001A6B974E02F010020192019A1A6B42F00A
:1013900002021A631A6B02F002020292029A1A6B9C
:1013A00042F001021A631A6B02F001020392039ADF
:1013B0001A6B42F040021A631A6B02F04002049268
:1013C000049A1A6B42F400721A631A6B02F40072E8
:1013D0000592059A1A6B42F008021A631A6B02F022
:1013E00008020692069A1A6B42F004021A631A6BFC
:1013F00002F004020792079A1A6B42F480621A63A1
:101400001A6B02F480620892089A1A6B42F020026A
:101410001A631A6B02F020020992099A1A6B42F4BD
:1014200080721A631A6B02F480720A920A9A1A6B1B
:1014300042F080021A6300221B6B03F080030B93BF
:101440000B9B06F0A7FD01220821664806F0A2FDCD
:1014500001224FF48051644806F09CFD0022402197
:10146000624806F097FD0FA95B48CDE90F87CDE9EB
:10147000114B06F00BFC4FF400430FA95C4811948C
:10148000CDE90F3406F002FC08230FA95548CDE939
:101490000F37CDE9114406F0F9FB0FA95248CDE909
:1014A0000FA7CDE9114406F0F1FB40220FA94F48E8
:1014B000CDE90F27CDE9114B06F0E8FB4D484E4929
:1014C000848001600762C0E9054406F043FA4B4995
:1014D0002846C5E90014C5E90244C5E90A44C5E93E
:1014E0000C4406F0D6FA39462846454D06F088FBEE
:1014F00040234FF4C07243493046B460F461B46293
:10150000C6E905324FF40062C6E9082A4FF0020A24
:101510000722C6E900140FA9CDF854A0C6E9039824
:10152000CDE90FA2CDE91192CDE913BA08F04AFA3C
:1015300029464FF6FF7230460094C5E90078C5E9A8
:10154000027408F05FFA384606F044F929464FF66F
:10155000FF723046C5E900A8C5E9027408F052FAE6
:10156000082329464FF6FF723046C5E900B8C5E9A1
:10157000023408F047FA4FF40C734FF6FF72294615
:1015800000933046009BAF60EB60C5E9009808F01F
:1015900039FA40F22B7130461B4D08F052FA4FF0E9
:1015A000204343F2D202642040F215261A6006F06E
:1015B00011F9164B164A28462C62C5E90023C5E9E5
:1015C0000247C5E90444C5E9064423E01B000003C3
:1015D00000ED00E000380240000402401007002047
:1015E0004805002000280240002002400018024068
:1015F00000000240500700200030024000B00240CE
:101600002C050020400100A0BC06002068474020B7
:10161000005C004006F0FFFD2146284607F022F856
:1016200021462846524D07F043F8342221460FA8A0
:1016300035F0C4FD4F4B2821352040F2352C2C616C
:10164000AC8685F83640C5E900340923C5E90513A1
:101650000B23C5E9070340F21B132846C5E90963BC
:1016600040F21D13C5E90244C5E90BC307F0C4F8F5
:10167000FF214FF4806E4FF4F0724FF488732846C8
:101680000F941A93ADF86C408DF86E403A4DCDE949
:1016900014140521CDE916E14FF04041CDE91024A5
:1016A000CDE9181222460FA9CDE9123A07F06FF9D9
:1016B0003248334B0462C0E90037C0E902984FF466
:1016C000A0634FF01808C0E90644C0E9048307F09E
:1016D000BBFA0FA8FFF790FD9DF83C00FFF7B2FDA5
:1016E0005C2006F0DBF800F0DFFB2022214610A88A
:1016F00035F064FD234B0FA928460E94AC600F977C
:1017000011971597C5E900344FF6FF73CDE90C44E6
:10171000C5E90334C5E9054408F070FB0CA9284667
:101720000E94CDE90C4408F0BDFB00F0E9FB00F09D
:10173000E6FB3C21284608F0DBF908F087FC124A5A
:101740002146124808F0BCFC114B124A2146186091
:10175000114808F0B5FC114B114A21461860114898
:1017600008F0AEFC104B186008F08AFCFEE700BFE2
:1017700014060020006801407C050020C8050020F8
:10178000001000A00004014098B303089110000865
:101790004405002074B303080F1F00084005002013
:1017A00050B30308213A00083C0500200268034BAF
:1017B0009A4201D105F0FCBF704700BF0010004005
:1017C000704700000D4B82B00F216FF001001A6CC2
:1017D00042F080521A641A6C02F080520092009A11
:1017E0005A6C42F480425A6400225B6C03F48043DA
:1017F0000193019B02B006F011B800BF003802400F
:10180000026882B0084B9A420BD1D3F8302803F516
:10181000006342F480521A631B6B03F480530193FC
:10182000019B02B0704700BF003002400E4B07B56D
:1018300002689A4215D1A3F5F04305215A201A6B8C
:1018400042F400021A6300221B6B03F400030193AD
:10185000019B05F0E3FF5A2003B05DF804EB06F0AE
:101860000FB803B05DF804FB00B0024010B5A8B09B
:1018700004461422002102A835F0A0FC8422002195
:1018800007A835F09BFC2268174B9A422AD14FF4E7
:10189000803307A8079307F00BFE08B1FFF790FF0E
:1018A000124C4FF4C07201211148236B43F08003A6
:1018B0002363236B03F080030093009B1223CDE985
:1018C00002230323CDE90413042302A9069306F09F
:1018D000DDF9236C43F400032364236C03F4000359
:1018E0000193019B28B010BD005C0040003802400D
:1018F000001C0240026808B5094B9A420FD1094A00
:1019000080210948136C23F40003136406F0A2FA43
:101910004FF480710448BDE8084006F09BBA08BD4A
:10192000005C004000380240001C024070B5B0B0BE
:101930000446142200210AA835F040FC842200212C
:101940000FA835F03BFC22686B4B9A4240F0D180E7
:101950000823052001240F934FF4C073149302232E
:10196000CDE915304FF400330FA8CDE9194307F046
:101970009FFD08B1FFF724FF604B002402250E26CF
:101980005A6C0AA95E4842F080625A645A6C02F0AE
:1019900080620192019A1A6B42F010021A631A6B6C
:1019A00002F010020292029A1A6B42F040021A638D
:1019B0001A6B02F040020392039A1A6B42F400720F
:1019C0001A631A6B02F400720492049A1A6B42F0C2
:1019D00008021A631A6B02F008020592059A1A6B44
:1019E00042F004021A631A6B02F004020692069A8D
:1019F0001A6B42F480621A631A6B02F480620792D7
:101A0000079A1A6B42F480721A631A6B02F480729E
:101A10000892089A1A6B42F001021A631B6B0E9629
:101A200003F001030993099B7023CDE90C44CDE930
:101A30000A3506F02BF94FF400530AA931480E96E7
:101A4000CDE90A35CDE90C4406F020F94AF67C636D
:101A50000AA92D480E96CDE90A35CDE90C4406F0C9
:101A600015F940230AA929480E96CDE90A35CDE992
:101A70000C4406F00BF94FF480630AA924480E9633
:101A8000CDE90A35CDE90C4406F000F9F7230AA99F
:101A900020480E96CDE90A35CDE90C4406F0F6F85B
:101AA0004FF480530AA91748CDE90A350923CDE937
:101AB0000C440E9306F0EAF84FF48C430AA916483A
:101AC0000E96CDE90A35CDE90C4406F0DFF8042383
:101AD0000AA912480E96CDE90A35CDE90C4406F064
:101AE000D5F858202246052105F098FE582005F02B
:101AF000C7FE30B070BD00BF006801400038024032
:101B0000001002400018024000240240000C024075
:101B1000000802400028024000200240000002406D
:101B2000142200212DE9F0418AB004460DEB020099
:101B300035F044FB22682C4B9A4251D12B4B0225A5
:101B4000032409269A6B4FF0040805A9284842F09F
:101B5000020200279A639A6B02F002020192019A34
:101B60001A6B42F010021A631A6B02F01002029212
:101B7000029A1A6B42F002021A631A6B02F0020216
:101B80000392039A1A6B42F008021A631B6B03F06C
:101B900008030493049BCDE90585CDE9084606F0CA
:101BA00075F8402305A91348CDE905350A23CDE989
:101BB0000774099306F06AF805A90E480996CDE95D
:101BC0000585CDE9077406F061F84FF4605305A967
:101BD00009480996CDE90535CDE9077406F056F8B0
:101BE0000AB0BDE8F08100BF001000A0003802403C
:101BF0000010024000040240000C024010B588B002
:101C000004461422002103A835F0D8FA2268114BAB
:101C10009A421DD103F59A3303A90F485A6C42F03A
:101C200002025A645A6C02F002020192019A1A6B83
:101C300042F004021A63C0221B6B03F004030293F8
:101C4000029B0223CDE903230323079306F01EF82A
:101C500008B010BD0004014000080240F0B50023A8
:101C600087B00393294B1E68002E4DD10122022715
:101C700003250C241A6001A9254B26489A6B42F0D3
:101C800001029A639B6B03F001030093009B4FF6E4
:101C90008373CDE90454CDE9013705F0F7FF48F22D
:101CA000331301A91C480594CDE90137CDE903653B
:101CB00005F0ECFF4CF2037301A918480594CDE937
:101CC0000137CDE9036505F0E1FF4FF63F0301A9B8
:101CD00013480594CDE90137CDE9036505F0D6FF3A
:101CE000282301A90F480594CDE90137CDE9036503
:101CF00005F0CCFF082301A90B480594CDE9013775
:101D0000CDE9036505F0C2FF07B0F0BD7407002000
:101D1000003802400010024000180240000C02404F
:101D200000140240001C024000080240214B1A6CC3
:101D300042F0100270B588B01A641B6C054601A908
:101D400003A803F010030293029B07F093FB069B8A
:101D50004BBB07F07FFB184E184B336040F2E73364
:101D6000F360174BB0FBF3F3013B30467360002385
:101D70003361B360B36108F011F8044680B93046AE
:101D800007F078FE044658B9362005F079FD0F2D8E
:101D90000DD822462946362005F040FD094B1D602E
:101DA000204608B070BD07F055FB4000D3E7012482
:101DB000F6E700BF0038024078070020001000401E
:101DC00040420F00500000207047FEE7FEE7FEE7AC
:101DD000FEE77047014807F0E8BE00BF7807002023
:101DE000014806F077BD00BF14060020014805F049
:101DF0007CBE00BF100700200120704708B535F0F9
:101E000091FA162303604FF0FF3008BD08B535F096
:101E100089FA16230360FEE770B50D4614460E4698
:101E2000731B9C4201DC204670BDAFF3008006F8B6
:101E3000010BF5E770B50D4614460E46731B9C4228
:101E400001DC204670BD16F8010BAFF30080F5E70A
:101E50004FF0FF3070474FF4005300204B60704745
:101E600001207047002070470B4A0346116810B5E7
:101E700009B90A491160106809490A4C0344091B51
:101E80008B4206D935F04EFA0C2303604FF0FF3039
:101E900010BD1360FCE700BFC4070020D88F0120ED
:101EA00000000520000A000070470000DFF834D071
:101EB000002103E00C4B5B58435004310B480C4BA2
:101EC00042189A42F6D30B4A02E0002342F8043B40
:101ED000094B9A42F9D305F071FB35F029FAFFF767
:101EE000D9F970470000052034E7030800000020FE
:101EF0003801002040030020D88F0120FEE7704702
:101F000008B501F055F9BDE8084001F0D7B801F077
:101F100051B9406870474160704700004FF0E022BF
:101F2000D2F8FC3D43F08073C2F8FC3D054B064AF5
:101F3000D3F8B01F0A43C3F8B02F1A6842F0010269
:101F40001A607047001000E055CEACC5521A02EB83
:101F50005302B2FBF3F07047014B5868704700BF63
:101F6000001000E0704710B504460C2133F0EAF988
:101F7000204610BD036810B51B69044631B198476F
:101F8000A26863689B1A0344636010BD9847A06011
:101F9000FBE70000024B7020024A1360DB68184721
:101FA00024000020C8070020704710B50446042113
:101FB00033F0C8F9204610BD73B50E4E0D461446D9
:101FC000336813B9002002B070BD1B6970209847B8
:101FD0000028F7D03368702001AA0DF106015B6973
:101FE0009847BDF8043001202B60BDF8063023600F
:101FF000E9E700BFC80700207FB501238DF817204F
:102000004FF47A72CDE901320DF1170200920A46BF
:102010000146054806F06EF910B1034806F050F984
:1020200007B05DF804FB00BFBC0600207FB50023AD
:102030000A464FF47A718DF817300123CDE901314A
:102040000DF1170100910146054806F02DFA10B177
:10205000034806F035F99DF8170007B05DF804FB5A
:10206000BC06002010B1032809D07047084B10218E
:1020700008481A68B2FA82F2520905F08BBF044B85
:1020800040210548DA68B2FA82F25209F5E700BF4A
:10209000CC070020000402400018024010B10328C1
:1020A00009D07047084B102108481A68003A18BF39
:1020B000012205F06FBF044B40210548DA68003A61
:1020C00018BF0122F5E700BFCC0700200004024042
:1020D0000018024010B1032804D0704710210348B3
:1020E00005F05DBF40210248FAE700BF000402404E
:1020F0000018024008B530B1032809D00020431E63
:102100005842584108BD1021034805F03DFFF6E74D
:1021100040210248F9E700BF0004024000180240D5
:1021200070B5084D00240126E0B2FFF7E3FF18B1B7
:102130002B68012B18BF2E6001340435052CF3D118
:1021400070BD00BFCC070020012380F8781080F814
:1021500079307047704700207047000041640039B3
:10216000024B18BF01211970704700BF97820120F0
:10217000704700207047836B0BB1084618477047C3
:102180004FF6FF707047406803689B6918477047B7
:102190007047704738B5044601F062F90849236872
:1021A0002046084DD3F8903098470023284684F8FD
:1021B0004A30FFF7B3FE0123256184F8703038BD43
:1021C000000000C0DC07002001F0EEB801F0F2B81A
:1021D00070B501F06FF910490023C1F88430BFF3E6
:1021E0004F8FD1F8803043F6E074C3F3C900C3F3D6
:1021F0004E335B0103EA0406024646EA8275013A61
:10220000C1F87452F9D2203B13F1200FF2D1BFF381
:102210004F8FBFF36F8F70BD00ED00E001F04CB940
:1022200001F09EB801F06EBA01F076BA01F0A2B8E2
:1022300010B5044619F022FA23682046D3F8BC30C2
:10224000BDE81040184718F034BC10B5044684218E
:1022500033F078F8204610BD90F834100D4B10B5CF
:1022600090F878401A788C4209D03AB90A490B4A5A
:1022700008881488108001220C801A7010BD002A72
:10228000FCD0064A0449148808880C80108000227B
:10229000F3E700BF908201208E8201208C82012012
:1022A00070B50D46194635B9094B40F2FF21094A70
:1022B000094834F0C5FCC0E90F52003A074B18BF7B
:1022C00001221A700368BDE87040D3F890301847B7
:1022D000B3800308EB80030839810308968201204C
:1022E00008B5094B1B888B4203D8084B1B889342C7
:1022F00005D9074BA321074A074834F0A1FC074B37
:102300001980074B1A8008BD8C8201208E82012023
:102310007E810308E181030839810308928201204C
:1023200094820120034690F87A0018B15868036837
:102330001B68184770470000014608B5034B186832
:1023400001B1012119F0B4F9012008BD98820120E2
:10235000034B00225A609A60024A1A60704700BF1D
:10236000DC070020C4B303080121002208B5084699
:1023700007F0AEFF0A4B186028B90A4B28210A4A19
:102380000A4834F05DFC00220421012008F06AF8BC
:10239000074B186018B9074B2C21034AF0E708BD1A
:1023A000EC070020248203086D8203089C82030846
:1023B000E8070020E9820308024B4FF0FF3118685C
:1023C00007F0DEBFEC070020014B186808F014B8D6
:1023D000EC070020024B0021186807F0D1BF00BFB6
:1023E000EC070020FFF7F0BF0023034803491A461B
:1023F000006808F07DB800BFE80700200800002052
:1024000013B50023074C01A91A46206808F0B2F85A
:102410004FF0FF33002201A9206808F0ABF802B0AA
:1024200010BD00BFE807002003685B6C184701205F
:10243000704703689B6A1847FEE700000E4B82B0A6
:102440001A6B42F400021A631A6B02F40002019242
:10245000019A1A6942F400021A611A6922F4000210
:102460001A61064B064A1A61064A5A614FF08062A9
:10247000054B9A6002B070470038024010070020F8
:10248000152700083924000800E100E040F2EF3091
:1024900070470000054B4FF080620360044BC3F8A7
:1024A0008820BFF34F8FBFF36F8F7047F0B40308DE
:1024B00000E100E010B504464FF45A61FFF7EAFF6F
:1024C000204632F03FFF204610BD000008B50A2824
:1024D00009D8DFE800F006100E08080808101010F0
:1024E0001000022008BD054B9021054A054834F034
:1024F000A7FB0020F6E70120F4E700BF2B830308C9
:10250000468303089183030838B50C46887FFFF79C
:10251000DDFF174BA58AE28A586342EA054221692A
:102520005A64628BD963521B1A642568082D0ED138
:102530009A611A6158620F4A207F42EA0062DA61AA
:10254000E2681A620C4A5961D9601A6038BD0022EB
:10255000D8611A61E1680A0A4809C1F3C40102F4AA
:10256000784200F4FC6002430A439A63034AECE7B2
:1025700000B0024009000100012302000123030012
:1025800008B50B280BD8DFE800F00612100A0A0A7B
:102590000A0808080808022008BD0520FCE7054BCA
:1025A0006F21054A054834F04BFB0020F4E7012079
:1025B000F2E700BF2B830308DC8303089183030841
:1025C0002DE9F04191F81D800C464046FFF7D8FFF9
:1025D000A77F05463846FFF7D3FF06463846FFF784
:1025E00075FFA18A628B434B521A1A649A61228B3F
:1025F000521A1A61E28A586342EA014221695A6416
:102600006268D963DA602068802828D0227F0FD8DA
:10261000202866D0402864D004281AD045EA0265F4
:10262000344BB84545F40035DD6160D0324A44E0B2
:10263000B0F5807F04D0B0F5007FEFD12F4800E0E7
:102640002F4840EA0262DA61E2681A625E6259610A
:1026500032E045EA026242F40032DA61F6E7A0684D
:10266000021DDA62227F45EA026545F40035DD612C
:102670005E625961017841B1012921D0214B4FF4AB
:102680008D71214A214834F0DBFADA69418822F45D
:102690007F42013922F0100242EA01220121DA616F
:1026A000144BDA6942F02002DA61DA699206FCD44E
:1026B00010229A600029B9D0154A1A60BDE8F0814D
:1026C000B2F1FF01DA69408822F47F4218BF01218C
:1026D000013822F0100242EA002242F01002DA61D0
:1026E000DEE745EA0262034B42F40032B5E742F20C
:1026F0000132E2E700B002400123010009000200BC
:102700000A0002002684030840840308918303081A
:1027100001230200024B1B68586803685B69184775
:102720009882012070B504460A4B0C3000262546DD
:10273000602260602672667245F8203B294619F0D7
:102740000BF904F55A63EE6024359D42FBD1204617
:1027500070BD00BFF0B40308034B1A68D207FCD465
:1027600023229A60704700BF00B00240094B5A69AB
:10277000D2030AD5BFF34F8F08440029A0EB010212
:1027800004DCBFF34F8FBFF36F8F70472039C3F85E
:102790006822F2E700ED00E030B5104C2568ED0747
:1027A000FCD423250904FF2BA56041F001014FF063
:1027B000020565636164E0630AD00949656241EA24
:1027C0000363E361074B22626061E060236030BD18
:1027D000E561039BA363044BF8E700BF00B0024030
:1027E00009000100010002000100030030B50F4C98
:1027F0002568ED07FCD423251204FF2BA56042F0C9
:1028000001024FF0020565636264E063E16008D095
:102810001B0643F00213E361054B656260612360B0
:1028200030BD044BE3610123F9E700BF00B0024073
:1028300001000200020002FF30B50B4C2568ED07D5
:10284000FCD4232512041B06A56042F001020225D8
:1028500043F4003365636264E063E160E361034B6A
:1028600065626061236030BD00B00240010002007B
:102870004069704790F844007047036B23B9C06A01
:10288000003818BF012070470120704780687047EA
:10289000043010B50C460FC884E80F0010BD704717
:1028A00008B5034A40F21221024B034834F0C8F93C
:1028B0007E840308D19D0308D984030810B504461B
:1028C000482132F03FFD204610BD00002DE9F043C5
:1028D0001D46ADF51F7D436B06460F469046BDF87D
:1028E0009842002B35D0002203A8DFF8A490CDE950
:1028F00001320FF00DFF4FF4F4725021249024A800
:1029000009F0BBFE4246394624A80AF005FE012123
:1029100024A809F0ADFF022324A88DF8D8300AF0CE
:1029200048F82B9B419AA342BDF89C7228BF2346CE
:102930009742A4EB030428BF174603EB4308640047
:10294000479B9F4209D824A809F0B4FF24A809F0A6
:10295000E1FE0DF51F7DBDE8F083012201A924A849
:102960000AF070F8736B03EB0800984201D8254415
:10297000E6E759789A78C90009EA022201F4FC6175
:102980000A4313F8031B42EAD10225F8022BECE7B5
:1029900000F8FFFF0A4A02600022C0E90522C0E9F0
:1029A0000722C0E90922C0E90B22C0E90D12C0E9E3
:1029B0000F2280F84420C0E90322C0E901227047B9
:1029C00040B5030810B40C4611461A46036B3BB1E0
:1029D000036C806BE41A20445DF8044B34F0F6BBC2
:1029E000C06AF8E7036B10B573B1036C826BC91A48
:1029F0005318525C98785C780004DB7840EA042035
:102A0000104340EA036010BDC36A5858FBE7036BEC
:102A100043B1036CC91A836B5A18585C527840EA68
:102A200002207047C36A585A7047000070B50446C8
:102A3000006B0D461646D8B1E36B934208D20923CA
:102A40000D4A65210D4884F844300D4B34F0F8F8F8
:102A50000368DB689847206B3246A16B03681B69EB
:102A6000984710B90D2384F84430A06B256470BDDD
:102A7000E06A0844FBE700BF43850308D9840308E4
:102A8000308503082DE9F843436904462BB9234BED
:102A9000AA21234A234834F0D3F808228169FFF79A
:102AA000C5FFA16943F2300646F26437043120467F
:102AB000FFF798FFA3691844A36A00F108029A423D
:102AC00006D3012300206361236AA361BDE8F88374
:102AD000636909300822013320F001012046636157
:102AE000A161FFF7A3FFD4F8189020464946FFF7ED
:102AF0008EFF09F1020180462046FFF788FF09F1A9
:102B0000040105462046FFF76DFFB045D2D1BD4216
:102B1000D0D10028CED00120D8E700BF858503089A
:102B2000CE850308D98403082DE9F04F0446ADF59E
:102B30001F7D8A461646816908229846FFF776FF70
:102B4000A7692046391DFFF74DFF07F1080102462E
:102B500005462046FFF76AFF636B074633B93C4BD7
:102B600040F2AB113B4A3C4834F06AF8002203A81B
:102B7000CDE901320FF0CCFD4FF4F47250212490D6
:102B800024A809F07AFD2A46394624A80AF0C4FC94
:102B9000012124A809F06CFE022324A88DF8D83066
:102BA00009F007FFBAF90250479BAB4229D3BAF9A3
:102BB00000904FEA4808BAF804702B9B08FB0566A2
:102BC0004F44BAF80250DFF894B03FB29F4228BF9A
:102BD0001F46BAF8063009EB490A1D44419B2DB245
:102BE0009D4228BF1D46479B9D4210D824A809F04E
:102BF00061FE24A809F08EFD01200DF51F7DBDE8C2
:102C0000F08F012201A924A809F01CFFCCE70122C2
:102C100001A924A809F016FF626B49465244B94243
:102C200002F1030201D34644DDE712F8020C12F868
:102C3000013CC0000BEA032300F4FC60034312F8DC
:102C4000030C43EAD00326F811300131E7E700BF57
:102C50000186030857860308D984030800F8FFFF9C
:102C60000129036838BF0121DB6A70B50D460446AF
:102C70009847A84204D223682046DB6A9847054655
:102C80006B1EE6691022204606EB031606F10801CA
:102C9000FFF7CCFE06F110012046FFF7A3FE236AE2
:102CA000043B0344C4E9055370BD000000214822E1
:102CB0002DE9F0410446816180F84410FFF7B6FE2B
:102CC000A6690423624A31462046FFF77BFE40B1E5
:102CD0000323604AF22184F844305F4B5F4833F0AD
:102CE000AFFF06F1080104235D4A2046A161FFF70A
:102CF00069FE30B10423574AFA2184F84430594B15
:102D0000ECE706F10C010423574A2046A161FFF7C6
:102D100059FE074638B105234E4A40F2011184F8A6
:102D20004430524BDAE706F110012046FFF75AFE15
:102D3000054620B94E4B40F20711464ACEE706F150
:102D4000140804234B4A20464146FFF73BFE002867
:102D500049D0062384F844300423474A06F1180179
:102D60002046FFF72FFE00283FD0072384F8443089
:102D70004544424F0C2220462946FFF757FE05F1F5
:102D8000080604233A4620463146FFF71BFE94F816
:102D90004430002848D0002B48D1A36AAB4249D820
:102DA00005F10C0304352046A3612946FFF71AFEFE
:102DB0003044294660622046FFF714FE0644042290
:102DC00020463146FFF732FE04232D4A3146204685
:102DD000FFF7F8FD002838D10123E6616361A3699C
:102DE0002362BDE8F0810127B6E7002FC0D006F1CD
:102DF00020012046FFF7F6FD4FF47A7306F130010B
:102E0000B0FBF3F060602046FFF7ECFD06F14001F7
:102E1000A0602046FFF7E6FD06F14401E060204691
:102E2000FFF7E0FD2061A3E7002BB9D00A2384F867
:102E30004430D6E7291D2046FFF7D4FD85190C2222
:102E400020462946FFF7F2FD99E70B23EFE700BF85
:102E5000B1860308CF860308B6860308D984030821
:102E6000FC86030801870308198703081E870308E7
:102E70003487030840870308458703084A87030807
:102E80004F870308C0E90A2100220263FFF70EBF43
:102E900010B5002304460846E3620B6821639B6873
:102EA0009847A0622046BDE81040FFF7FFBE70B40F
:102EB000BDF80C50BDF810602AB123B1CDE903561E
:102EC00070BCFFF703BD70BC704700002DE9F04FE8
:102ED0009946436985B004460F4690462BB9294B65
:102EE0007721294A294833F0ABFE08228169FFF790
:102EF0009DFDA66920463146FFF789FDB11C83463A
:102F00002046FFF784FD311D82462046FFF76AFD0B
:102F100006F10801A36A05460A189A4226D243F22E
:102F200030039B4517D146F264339A4513D190B1D3
:102F30000246A1612046FFF779FD0E9B01462A4615
:102F40002046CDF80080CDE901933B46FFF7AFFF67
:102F5000636901336361A3692B4405B90833013305
:102F6000626A23F001039342A36109D10123012086
:102F70006361236AA36180F0010005B0BDE8F08FB2
:102F80000020F8E78585030854870308D9840308DF
:102F9000012070470C2070470C2303FB0100083010
:102FA00070470C2303FB0100083070470120704775
:102FB00042F6FC50704742F6FC5303FB0100083018
:102FC000704742F6FC5303FB0100083070470120B4
:102FD00070471020704700EB01100830704700EB7D
:102FE000011008307047084600F09CBE034B10B536
:102FF0000446036016F08EFB204610BDE8B50308BA
:1030000010B50446FFF7F2FF1421204632F09AF97A
:10301000204610BD034B10B50446036016F07AFB42
:10302000204610BDB4B5030810B50446FFF7F2FF03
:1030300042F60461204632F085F9204610BD0000BA
:10304000034B10B50446036016F064FB204610BD28
:1030500080B5030810B50446FFF7F2FF182120469B
:1030600032F070F9204610BD094B10B504460360DC
:1030700000F538503030FFF7B9FF04F12C00FFF7AE
:10308000C9FF04F11400FFF7DBFF204610BD00BFAD
:103090001CB6030808B50248FFF7E6FF08BD00BFED
:1030A000C816002010B50446FFF7DEFF42F6A471F3
:1030B000204632F047F9204610BD00002DE9F341CB
:1030C00000F04CFD0024054600F04CFD234601466F
:1030D00022462846009423F071F8274B274A2046C1
:1030E000274D1A6003F0E0FE264B274A27489A60D6
:1030F00022F0CCFF2B68BFF35B8FDB0736D428466A
:1031000032F022F990B3224C224F234B04F11400E9
:1031100007F1180604F12C0823606060C4F80880E9
:10312000E760266116F0F8FA1C4B4046636116F022
:10313000F3FA1B4B3846E36216F0EEFA04F500533F
:10314000184A03F64460C3F8302E03F035FF2246D8
:1031500007F11401304603F025FF304600F0E2FD90
:10316000114833F08BFD284632F0FAF80F4802B0D0
:10317000BDE8F041FFF70EB8FC8201207408002082
:10318000C416002094080020780800200C000020BD
:10319000C8160020F84400201CB6030880B50308B8
:1031A000B4B50308E8B5030895300008F00700201F
:1031B00070470000014817F0E6BC00BFF007002090
:1031C00070B5264E264B274C3046274D2360FFF71F
:1031D000A9FA284628F004F9244820F0E1F9244B04
:1031E00000224FF4807123481A8683F858205A66CB
:1031F00083F870205A67DC60C3E912121E49C3E9E4
:103200001A121E49C3E91E011D491E48C3F8801049
:103210001D490B604FF4F071C3E90422C3E9062293
:10322000C3E90822C3E90A22C3E90E22C3E9102236
:10323000C3E91422C3E91722C3E9016501801348D9
:1032400083F8342001804FF48871114801801148BF
:10325000018011490A70114A1A6070BD20090020CE
:10326000ECB30308C0160020940800207808002062
:10327000F0070020000001010100000100044400EB
:10328000160014008C820120988201209282012075
:103290008E820120948201209082012004B40308D0
:1032A0000148FFF7F7B800BF200900200020704751
:1032B00081807047C18070470181704741817047AC
:1032C0007047704770477047704710B4C4880368F0
:1032D000121B84885B6D091B12B25DF8044B09B2A6
:1032E00018474FF6FF7383814FF0FF330362136873
:1032F000C36110607047002070478B888380012075
:103300007047704780F82610704790F82600704785
:1033100010B50022B1F90840B1F90A1002804280CC
:103320008480C18010BD0022028042808280C280E1
:1033300070470177704780ED080A704780F82410C5
:10334000704780F82510704701207047983070470B
:103350008C3070478430704770477047704700006A
:10336000034B902283F85A2383F85823704700BFF9
:1033700000E100E0094A0A49D3680A48C3F30A0396
:10338000013B9BB20B801169C1F30A010139018035
:103390001364536B43F001035363704700680140AB
:1033A0006E4600206C460020014BD3F8AC007047FD
:1033B00000680140024B0122C3F8AC105A6270470A
:1033C00000680140124A5369DB0370B51ED5002323
:1033D000C2F88430BFF34F8FD2F8803043F6E074E8
:1033E000C3F3C900C3F34E335B0103EA040601468D
:1033F00046EA81750139C2F87452F9D2203B13F1C3
:10340000200FF2D1BFF34F8FBFF36F8F70BD00BF9E
:1034100000ED00E070473823002201FB0333C25463
:1034200090F838300BB9036C83647047704780F8AC
:103430004C10704710B504462C2131F083FF204614
:1034400010BD10B50446582131F07CFF204610BD58
:1034500010B50446BC2131F075FF204610BD0000B8
:1034600038B5044617F07BFB23689D6E1EF0E0FD27
:1034700001462046A8472368084A2046D3F88C50C6
:103480000023A2F57F31A847054B064A5A60064A39
:103490001A649A644FF4FF225A6438BD00F807C0DA
:1034A000304700208847002000F40BC017F03EBBD7
:1034B00017F048BB17F003BB17F085BC90F8252028
:1034C00012B103685B6918477047000008B531B155
:1034D000044B40F29711044A044833F0B1FB90F8D2
:1034E000390008BDAF870308C38703085089030864
:1034F00010B531B1064B40F29111064A064833F03F
:103500009FFB406811460368BDE810401B6B1847DD
:10351000AF870308928903085089030808B529B1C9
:10352000034B7A21034A044833F08AFB006908BD43
:10353000AF870308438B03085089030808B529B1F6
:10354000054B8321054A064833F07AFB41618160CF
:10355000C0E9063208BD00BFAF870308FB8C030833
:103560005089030810B5044629B1274BA421274AE6
:10357000274833F065FB052A34D8DFE802F0032939
:103580002F34393E406803681B69984750B34FF0A9
:10359000FF31606D06F040FE0023012294F83E10DA
:1035A00084F83B3084F83920A360636101B1226262
:1035B00084F83E306362E36A2BB90123206D84F8FE
:1035C0003A3006F019FF606DBDE8104006F054BEB9
:1035D000002380F8393084F83E3003E00362002392
:1035E0008360436110BD0362002383604361F2E79F
:1035F000002380F839300123EDE7003B18BF012399
:1036000080F83D30EEE700BFAF870308BA8E0308AD
:103610005089030890F825201AB190F8242002B1AF
:103620001860704770B50446164629B1314BE72142
:10363000314A324833F004FB90F8393033B1304B23
:103640001B6893F86B20436913444361E36A002BC2
:103650004DD0E169D4E905325343A2684A4393420D
:1036600020D2236A002B42D04FF0FF31606D06F06C
:10367000D3FD236A0BB10023E362E36AFBB90125A2
:10368000606D06F0F9FD94F839300BB9236A3BB14F
:10369000E36A2BB90123206D84F83A3006F0ACFEC2
:1036A000284670BD94F84C000028DDD09B1AB3FB6F
:1036B000F1F2994298BF02F1FF326262D4E7002230
:1036C00094F83C50A3623046E262E2682261A2684C
:1036D0000132A260336333685B699847002DCED115
:1036E00094F83D30002BCBD184F83950C8E7012540
:1036F000C9E700BFAF87030891900308508903080A
:1037000098820120034B4FF080629A604FF08072E4
:103710009A60704700E100E0084B4FF08062C3F808
:103720008820BFF34F8FBFF36F8F4FF08072C3F8C5
:103730008820BFF34F8FBFF36F8F704700E100E029
:1037400038B5034690F8380038BB01229860D8603D
:103750009A634FF4807258619A874FF4F0729861BF
:10376000D861186258629862D8621863586383F807
:103770003E00CA864FF4887281F834000A870863D5
:103780009A6C186102F5FF24D3E9101529448C4284
:103790000AD9084B5821084A03E0084B40F2F511BA
:1037A000074A084833F04CFA1A6302F57F329C64EA
:1037B0005A6338BDEF9303082F940308359203082A
:1037C0006592030850890308002370B5124E054620
:1037D0008380124B0360336893F858200AB1D86C89
:1037E00000B998680368DB6A98473368B0FA80F4D8
:1037F000D86C640930B10368DB6A9847002808BFB9
:1038000044F001042CB9064B2C21064A064833F03B
:1038100017FA284670BD00BF9882012030B6030811
:10382000D5950308339603086C96030870B5254EAA
:103830003568BFF35B8F15F0010540D1304631F09C
:1038400083FD00283BD0204C204B04F1340025613F
:10385000E584A562A585C4E90035C4E9025520F0D8
:1038600084F904F1580019F02FFD194B2046A36587
:10387000184B40F8843BFFF7A7FF174B1748C4F8D5
:1038800084302433C4F89050C4F88C304FF4C8030B
:10389000C4F89C50C4F8A850C4E928350023C4F8E3
:1038A000AC30C4F8B030C4F8B430C4F8B8300C4B05
:1038B000C4F8983033F0E2F9304631F051FD024857
:1038C00070BD00BF7046002074460020F8D4030885
:1038D00050B60308C8B60308ACD403085D3300082B
:1038E0008CD4030838B5184C23685BB3174B184ABF
:1038F0001B6C11888B4216D1164B0025198805F0D8
:1039000073F8236893F86A2083F87C50013283F8B7
:103910006A20FEF769FD206817F0B0FE2846BDE872
:103920003840FEF79FBB05F05FF824682368204607
:103930001B6A98470123002084F87C30BDE838409A
:10394000FEF7ACBB38BD00BF988201200068014083
:103950006E4600206C4600202DE9F74304464FF4E4
:10396000707894F83A304FF0FF31002B31D0606D11
:1039700006F052FC276BA36ABB4200D1676B266A34
:10398000656856B32B68314628465B6A9847002322
:10399000236284F83B30606D06F06EFC2B684FF4B8
:1039A000F0723946CDF8008028465E694FF488737E
:1039B000B0474FF0FF310646606D06F02DFC94F8DD
:1039C0003B30E3B1002384F83B30606D06F054FCDB
:1039D000C7E7206D06F0D4FCC3E7636A002BDAD09A
:1039E0002B682846D3E909939847616A0144284621
:1039F000C847A368626A66621344A360CBE7E762C4
:103A00005EB12B6828469B6A984701380023E06026
:103A100084F83C6084F83A30D7E70120F6E70000EC
:103A2000014808B5FFF798FF3047002003680422DB
:103A300070B504465E6A00230D46B0474FF0FF3173
:103A4000606D06F0E9FB382303FB0542D16A09B13A
:103A50000021D16203FB0545012385F83B3000239B
:103A600085F83930606DBDE8704006F005BC38B5AA
:103A700000EB810304460D46114658680368DB6875
:103A8000984729462046FFF7D1FF38BD70B50D464F
:103A90001146044600EB85025068026896681A4693
:103AA000B04729462046FFF7C1FF70BD38B516491B
:103AB00000251648FEF76EFF154C164B01202A46CE
:103AC000294623604FF48073A564A38784F84C00D3
:103AD00084F83E50C4E91055C4E91455C4E90155B1
:103AE000C4E90355C4E90555C4E90755C4E90955B6
:103AF000C4E90B55C4E90D5506F0EAFB20652846DC
:103B000006F046FB606538BDD0470020884700209E
:103B10003047002014B70308704710B5044604214D
:103B200031F010FC204610BD08B5032913D8DFE89A
:103B300001F002060A0E03F003FA006808BD03F064
:103B4000FFF94068FAE703F0FBF98068F6E703F055
:103B5000F7F9C068F2E70020F0E70000004870477E
:103B600060B703080D20704713B5002451B10368F6
:103B700001AA01948DF803409C680DF10303A0474E
:103B800002B010BD0846FBE7C0897047008A704745
:103B9000C088704780887047807A00F07F00704747
:103BA000807AC00970470020704700009FED010A2D
:103BB000704700BF00000000704710B504460821A0
:103BC00031F0C0FB204610BD7047704700F5987378
:103BD0000868496803C37047704770474160704781
:103BE00070477047064BC0F84801C0F84C310023BD
:103BF000C0F8503100F5A273C0F84031704700BFE3
:103C000021400008012303727047704710B44168D7
:103C10000346C2689B68541001EB6200D20748BF9C
:103C20000A595DF8044B48BFD3581847034640680B
:103C300030B19A681AB9D86800F0010070470120C5
:103C4000704710B504460C2131F07CFB204610BDB6
:103C500010B50446102131F075FB204610BD10B59B
:103C600004464FF4AE7131F06DFB204610BD10B527
:103C70001EF0DEF90368BDE81040DB6B184710B595
:103C80000446D0F8400158B10368DB68984738B162
:103C9000D4F8400103689B6898470023C4F840317A
:103CA00010BD0000044B1B6893F858200AB1D86C73
:103CB00000B99868704700BF98820120F8B5174690
:103CC00004460E461EF0C4FA124B00251C6029461D
:103CD000114B2360114BC4E95135114B1868C4E9ED
:103CE00053550368C4E94F559B68C4E95576984716
:103CF000284603F0D9F8FFF7D5FF29F01CFAFFF7A3
:103D0000D1FF29F093FAFFF7CDFF29F09BFA204667
:103D1000F8BD00BFEC82012094B803087CB803080A
:103D200098820120064BC0F84801C0F84C310023AE
:103D3000C0F8503100F5A273C0F84031704700BFA1
:103D400021400008064BC0F84801C0F84C31002360
:103D5000C0F8503100F5A273C0F84031704700BF81
:103D6000D93E0008064BC0F84801C0F84C3100238A
:103D7000C0F8503100F5A273C0F84031704700BF61
:103D80008D3D000803685B6A184700002DE9F14F7C
:103D9000D0E9556A0746B06803681B6A984742F243
:103DA0005F13984205D8444BA321444A444832F05B
:103DB00047FF706803681B6A98470F2803D8414B78
:103DC000A4213E4AF2E7F06803681B6A98470B2873
:103DD00003D83D4BA521394AE8E7DFF8F4901EF0FF
:103DE00027F904301EF062F9D9F8000010B1036819
:103DF000DB689847D9F8000010B103681B68984742
:103E0000DFF8D080D8F8000010B103685B699847EC
:103E1000D7F83C0110B103685B689847D8F80000F8
:103E200010B103681B689847D7F83C0110B10368CC
:103E30009B6898470021F068FFF7A4FF4FF0000B44
:103E4000224B0446C0F804B0594680F808B003601D
:103E5000B06803685B6A9847054603F0A3FB706887
:103E6000594603685B6A98470646294603F078FB83
:103E7000331DC7F83C612846C9F80040C8F8005017
:103E8000CAF800302B68C6F808A0DB68EE639847D4
:103E9000336830461B6898472146284620F096FB39
:103EA000236820461B699847236820465B6901B058
:103EB000BDE8F04F184700BFCE9603085C97030893
:103EC0002E9803087598030818990308E8B80308A2
:103ED000E0820120DC8201202DE9F14FD0E9556A12
:103EE0000746B06803681B6A9847B0F5C26F05D2F1
:103EF000434BA321434A444832F0A2FE7068036852
:103F00001B6A98470F2803D8404BA4213D4AF2E78B
:103F1000F06803681B6A98470B2803D83C4BA5211F
:103F2000384AE8E7DFF8F0901EF082F804301EF01F
:103F3000BDF8D9F8000010B10368DB689847D9F8DC
:103F4000000010B103681B689847DFF8D080D8F8EC
:103F5000000010B103685B699847D7F83C0110B1C5
:103F600003685B689847D8F8000010B103681B68C5
:103F70009847D7F83C0110B103689B689847002127
:103F8000F068FFF7FFFE4FF0000B224B0446C0F82D
:103F900004B0594680F808B00360B06803685B6AF3
:103FA0009847054603F06EFA7068594603685B6AE5
:103FB00098470646294603F0EBF9331DC7F83C61E4
:103FC0002846C9F80040C8F80050CAF800302B68ED
:103FD000C6F808A0DB68EE639847336830461B6874
:103FE00098472146284620F0F1FA236820461B69AD
:103FF0009847236820465B6901B0BDE8F04F184739
:10400000CE960308BB9903082E98030875980308F9
:1040100018990308E8B80308E0820120DC82012037
:104020002DE9F14FD0E9556A0746B06803681B6A6D
:10403000984742F6FB53984205D8444BA321444A83
:10404000444832F0FDFD706803681B6A98470F28EA
:1040500003D8414BA4213E4AF2E7F06803681B6A8B
:1040600098470B2803D83D4BA521394AE8E7DFF8EC
:10407000F4901DF0DDFF04301EF018F8D9F80000B0
:1040800010B10368DB689847D9F8000010B10368E5
:104090001B689847DFF8D080D8F8000010B103689B
:1040A0005B699847D7F83C0110B103685B68984793
:1040B000D8F8000010B103681B689847D7F83C0196
:1040C00010B103689B6898470021F068FFF75AFE1B
:1040D0004FF0000B224B0446C0F804B0594680F85C
:1040E00008B00360B06803685B6A9847054602F051
:1040F000E9FF7068594603685B6A98470646294697
:1041000002F084FF331DC7F83C612846C9F800401F
:10411000C8F80050CAF800302B68C6F808A0DB6861
:10412000EE639847336830461B6898472146284617
:1041300020F04CFA236820461B69984723682046E4
:104140005B6901B0BDE8F04F184700BFCE96030889
:104150008D9A03082E980308759803081899030888
:10416000E8B80308E0820120DC820120406A704741
:10417000806A704770470B888A889BB2D20A10B554
:104180004C88C16943EA044351F82200184410BD29
:1041900010B50446BAB1107B68B1537BD27A1B02CA
:1041A00003F4E0631A43236A03EB82031A888A420A
:1041B00002D193F9020010BD05D80138043380B252
:1041C0000028F3D1F7E70020F5E710B504462C21CD
:1041D00031F0B8F8204610BD30B58BB00446BDF8BC
:1041E00060500895BDF85C5007959DF850500695B5
:1041F0009DF84C5005959DF8485004959DF8445005
:1042000003959DF8405002959DF83C500195BDF8EE
:10421000385000951FF066FD064B20462360159B25
:10422000E361169B2362199B63621A9BA3620BB026
:1042300030BD00BF0CB90308806A704770477047F3
:1042400070477047704780F82C10704710B40368AF
:10425000046BD3F8A430624361435DF8044B184704
:10426000D0ED0C7A0368F8EEE77A10B420EE270A56
:10427000D3F8A440B5EEC00AF1EE10FA1ADBB6EEA0
:10428000007A30EE070ABDEEC07A17EE101A60EE23
:10429000A70AF5EEC00AF1EE10FA1EDBF6EE007A80
:1042A00070EEA70AFDEEE07A17EE902A23465DF83D
:1042B000044B1847BDEEC07AF8EEC76A17EE103A05
:1042C000013B30EE660AF7EE086A30EE260ABDEED4
:1042D000C00A10EE101A1944D9E7FDEEE07AB8EEE4
:1042E000E77A17EE903A013B70EEC70AB7EE087A0C
:1042F00070EE870AFDEEE00A10EE902A1A44D5E728
:1043000010B40368046BD3F8B03062435DF8044B1B
:104310001847D0ED0C7A0368F8EEE77A10B427EE70
:10432000800AD3F8B040B5EEC00AF1EE10FA0BDB0C
:10433000F6EE007A30EE270AFDEEC07A17EE902AEC
:1043400023465DF8044B1847FDEEC07AB8EEE77AD5
:1043500017EE903A013B30EE470AB7EE087A30EE9E
:10436000070ABDEEC00A10EE102A1A44E8E710B49E
:104370000368446BD3F8BC30624361435DF8044B7F
:104380001847D0ED0D7A0368F8EEE77A10B420EE06
:10439000270AD3F8BC40B5EEC00AF1EE10FA1ADBDA
:1043A000B6EE007A30EE070ABDEEC07A17EE101AAC
:1043B00060EEA70AF5EEC00AF1EE10FA1EDBF6EE8B
:1043C000007A70EEA70AFDEEE07A17EE902A2346F7
:1043D0005DF8044B1847BDEEC07AF8EEC76A17EED9
:1043E000103A013B30EE660AF7EE086A30EE260A14
:1043F000BDEEC00A10EE101A1944D9E7FDEEE07ABE
:10440000B8EEE77A17EE903A013B70EEC70AB7EEC6
:10441000087A70EE870AFDEEE00A10EE902A1A4440
:10442000D5E710B40368446BD3F8C03062435DF83D
:10443000044B1847D0ED0D7A0368F8EEE77A10B414
:1044400027EE800AD3F8C040B5EEC00AF1EE10FAAC
:104450000BDBF6EE007A30EE270AFDEEC07A17EE9F
:10446000902A23465DF8044B1847FDEEC07AB8EE5B
:10447000E77A17EE903A013B30EE470AB7EE087A3A
:1044800030EE070ABDEEC00A10EE102A1A44E8E723
:10449000D0F82C31026B002B07DB02EB430090FBC2
:1044A000F2F000EBD070401070476FF0010101FB9B
:1044B0000320013890FBF2F000EBD0704010404236
:1044C0007047D0ED4B7A90ED0C0AF8EEE77AB8EE33
:1044D000C00A87EE800A7047D0F82C017047D0F8E8
:1044E0003031026B002B07DB02EB430090FBF2F054
:1044F00000EBD070401070476FF0010101FB03200A
:10450000013890FBF2F000EBD07040104042704751
:10451000D0ED4C7A90ED0C0AF8EEE77AB8EEC00ACE
:1045200087EE800A7047D0F830017047D0F83431F8
:10453000426B002B07DB02EB430090FBF2F000EB39
:10454000D070401070476FF0010101FB032001386B
:1045500090FBF2F000EBD070401040427047D0ED7D
:104560004D7A90ED0D0AF8EEE77AB8EEC00A87EEC4
:10457000800A7047D0F834017047D0F83831426B68
:10458000002B07DB02EB430090FBF2F000EBD07056
:10459000401070476FF0010101FB0320013890FBD0
:1045A000F2F000EBD070401040427047D0ED4E7AF0
:1045B00090ED0D0AF8EEE77AB8EEC00A87EE800AB1
:1045C0007047D0F838017047036870B50446D3F8D7
:1045D00088300D46164698472368324629462046BD
:1045E000D3F89030BDE8704018470368D3F8943092
:1045F00018470368D3F8D43018470368D3F8E0307D
:1046000018470368002A10B4D3F8A430046B0EDBFB
:1046100004EB420292FBF4F101EBD1714910B0F9C5
:104620001E215DF8044B013A0A44494218476FF0D5
:10463000010101FB0241013991FBF4F101EBD17160
:1046400049104942EBE70368D3F83C311847026B45
:1046500003685143D3F8483118470368D3F844310D
:104660001847D0ED0C7A0368F8EEE77AD3F84821C2
:1046700027EE800AB5EEC00AF1EE10FA08DBF6EE7E
:10468000007A30EE270AFDEEC07A17EE901A104736
:10469000FDEEC07AB8EEE77A17EE903A013B30EEC5
:1046A000470AB7EE087A30EE070ABDEEC00A10EEF0
:1046B000101A1944EBE7C0F83C1170470368D3F8AF
:1046C00050311847036810B5D3F85C310446984759
:1046D0000028236B07DB03EB400090FBF3F000EBBB
:1046E000D070401010BD6FF0010202FB00300138A5
:1046F00090FBF3F000EBD07040104042F2E703680B
:10470000D3F858311847036810B50446D3F85C3124
:10471000984707EE900A94ED0C0AF8EEE77AB8EEA7
:10472000C00A87EE800A10BDD0F83C017047026BCA
:1047300003685143D3F868311847D0ED0C7A036809
:10474000F8EEE77AD3F8682127EE800AB5EEC00AC2
:10475000F1EE10FA08DBF6EE007A30EE270AFDEEF5
:10476000C07A17EE901A1047FDEEC07AB8EEE77ADD
:1047700017EE903A013B30EE470AB7EE087A30EE7A
:10478000070ABDEEC00A10EE101A1944EBE7C0F894
:1047900040117047036810B5D3F874310446984748
:1047A0000028236B07DB03EB400090FBF3F000EBEA
:1047B000D070401010BD6FF0010202FB00300138D4
:1047C00090FBF3F000EBD07040104042F2E703683A
:1047D00010B50446D3F87431984707EE900A94ED6B
:1047E0000C0AF8EEE77AB8EEC00A87EE800A10BD30
:1047F000D0F8400170470846704703680029026BF3
:10480000D3F8843110B504460EDB02EB410191FB75
:10481000F2F101EBD171491009B220469847D4E971
:104820004F2302FB003010BD6FF0010000FB01219F
:10483000013991FBF2F101EBD17149104942EBE7EB
:10484000006B7047406B70470368D3F848311847D6
:104850000368D3F85C311847026B03685143D3F8FF
:1048600014311847036870B5D3F818510446D0F8CE
:104870004461D3F8803198472B4656F820102046E3
:10488000BDE870401847D0F84831B0F91E0119440E
:10489000081A7047C1627047C06A704701207047AC
:1048A00070477047C06B18B10368D3F88030184761
:1048B000704730B5B2F81A11B2F91441B2F940504C
:1048C0002144B2F842204480521A002185800180A0
:1048D000C28030BD10B54280BDF90840BDF90C2042
:1048E00004808280C38010BD0B680846D3F8D430A2
:1048F00018470B680846D3F8E0301847B1F914019F
:104900007047B1F81431B1F81A21B1F842001344DC
:10491000C01A00B27047B1F916017047B1F81631EC
:10492000B1F81821B1F840001344C01A00B2704722
:104930000B6808461146D3F81431184730B5B2F960
:104940001651B2F81841B2F840102C44B2F9422086
:104950000580091B0024C2804480818030BD028014
:104960008380BDF90020BDF904304280C3807047C8
:104970000B680846D3F8EC3018470B680846D3F8A4
:10498000F8301847B1F916017047B1F81631B1F88F
:104990001821B1F840001344C01A00B27047B1F9B1
:1049A00014017047B1F81431B1F81A21B1F842007E
:1049B0001344C01A00B270470B6808461146D3F87A
:1049C0001831184730B585B00368044601816D463B
:1049D0000146D3F884303C342846984795E80700D0
:1049E00084E8070005B030BD30B585B003680446E3
:1049F00041816D460146D3F884303C3428469847BF
:104A000095E8070084E8070005B030BD0022028069
:104A100042808280C280704780F8361070470368F9
:104A200070B504461B6B15469847236820462946F7
:104A30005B6EBDE87040184700207047806C70477F
:104A400070477047704770477047704770477047AE
:104A5000704770477047704770477047704770479E
:104A60007047704730B444680346C2689B6855106D
:104A700004EB6200D20748BF625930BC48BFD3582C
:104A800018470346406830B19A681AB9D86800F0F0
:104A9000010070470120704710B504464C2130F0EA
:104AA00051FC204610BD10B5044640F26C4130F078
:104AB00049FC204610BD10B50446402130F042FCB0
:104AC000204610BD10B50446402130F03BFC204686
:104AD00010BD10B50446102130F034FC204610BD46
:104AE00038B503460846D3E90C540B68D3F88C302C
:104AF0009847294602462046BDE8384019F070BB69
:104B000038B503460846D3E90C540B68D3F8943003
:104B10009847294602462046BDE8384019F060BB58
:104B200000F52863994270B504460D4603D11DF087
:104B30007FFAFFF707F904F69C439D4203D12368EF
:104B40002046DB6A984704F61C539D4203D1236834
:104B500020461B6B984704F69C539D4203D1236863
:104B600020465B6B984704F5875314339D4203D16D
:104B7000236820469B6B984704F6FC239D4203D193
:104B800023682046DB6B984704F678339D4203D1B7
:104B9000236820461B6C984704F648639D4203D166
:104BA000236820465B6C984704F6C8639D4203D196
:104BB000236820469B6C984704F648739D4203D1B6
:104BC00023682046DB6C984704F6F4339D4203D1FA
:104BD000236820461B6D984704F6F4739D4203D169
:104BE000236820465B6D984704F5835314339D4238
:104BF00005D1236820469B6DBDE87040184770BD05
:104C000008B590F82C300BB1FEF758FC08BD08B57C
:104C1000FEF754FC08BD00000A1E10B503DBB0F916
:104C20001E41944206DC084B40F23961074A0848AD
:104C300032F006F80368D0F84441D3F88031984741
:104C400054F8200010BD00BF5F9B0308829B03083F
:104C5000D19B03080B1E10B5044603DBB0F91E21DF
:104C60009A4206DC074B40F23361074A074831F0AD
:104C7000E7FF0368D3F884319847D4E94F2302FB58
:104C8000003010BD5F9B03082E9C0308D19B0308D6
:104C9000036870B55E6B0446114B8DB21B682BB96F
:104CA000104B6C21104A114831F0CAFF1049828D17
:104CB0000988914203D80F4B6D210B4AF3E713F893
:104CC00012200D4B1B6853F8220003681B6B98479A
:104CD000291A3346204609B2BDE87040184700BF84
:104CE000F08201207D9C0308BF9C0308FA9C030806
:104CF000F4820120419D0308F882012000224FF038
:104D0000FF318260C0E900217047036870B5044636
:104D10001B6B154698472368204629465B6BBDE808
:104D20007040184770B504461D46BDF91060FFF786
:104D3000ECFF2368294620469B6B98472368314641
:104D40002046DB6BBDE87040184700004FF48071CF
:104D500000228184054982620160C0E90122C0E924
:104D60000322C0E90522C0E90722704700D30308E7
:104D70000022C0E90122C0E90322C0E90522C0E9FE
:104D800007224FF480728284014A0260704700BF9C
:104D900074B9030810B504462622002132F00EFA39
:104DA0002046FFF7E5FF044B20462360FF2384F8ED
:104DB00026300023A36210BD18DC030837B501AB11
:104DC00015461FF08DF800282A4601994FEA401435
:104DD0004FF0200004DB1FF0A2F8204403B030BDE8
:104DE0001FF09DF8201AF9E770B5B0F81A310E4699
:104DF000B0F91441B0F842502344ED1A2DB22C44BE
:104E0000691ED0E94D32013CD21AF01AFFF7D6FFE5
:104E1000C0EB441070BD38B504460D46B4F81631E9
:104E2000B4F818110B44B4F84010C91AD0E94B0279
:104E300009B2121A281A0139FFF7C0FFB4F9163166
:104E400000EB431038BD000010B5044626220021B7
:104E500032F0B4F92046FFF78BFF0A4B4FF47F0284
:104E600020462360084BA3624FF6FF73A3850023FF
:104E7000C4E90C324FF0FF322387E363C4E9102307
:104E800010BD00BF88DB03086CB8030810B50446EA
:104E9000FFF7DAFF024B204623600023A36410BD16
:104EA0004CBB030810B504462622002132F086F9D7
:104EB0002046FFF75DFF00232046A36284F82C30D4
:104EC000012384F82430044B23604FF6FF73E385FD
:104ED000238684F8323010BD80DC030810B5044608
:104EE000FFF7E0FF034B204623604FF6FF73A386D6
:104EF00010BD00BF14DB030810B4C46B4A01B4EB4F
:104F0000411F04D05DF8044BC26318F0D1BB5DF8BB
:104F1000044B70472DE9F04F0446C1B000251FF047
:104F2000A9F9A046E14B04F16C0904F19807E56387
:104F3000012648F8403B4046FFF72CFF4846FFF764
:104F400029FFC8213846DFF884B319F0E5F8D84BBB
:104F50002946C722C4F8983004F5F27338460BF19D
:104F6000240AC4E97565C4E97735FFF76FF9D14BB9
:104F7000C4F8983004F204531846329318F0A4F998
:104F80000A23C4F83465C4F83835CB4B84F83C6543
:104F9000C4F8043504F24453C4F830551846C4F834
:104FA0004055339318F090F90A23C4F8746584F8D7
:104FB0007C65C4F87835C14BC4F87055C4F84435E5
:104FC00004F28453C4F880551846349318F07CF9E1
:104FD000BB4B04F5B762C4F8B055C4F884354FF044
:104FE000020310461E92A4F8B435FFF74FFF04F2F7
:104FF000046210461F92FFF749FF04F5CA6210468B
:105000002092FFF743FF04F29C6210462192FFF7C3
:105010003DFF04F5DD6210462292FFF737FF04F2F0
:10502000347210460C9218F023FB04F2A47210465E
:105030003192FEF7C9FB04F5F762C4F8A4B7104635
:10504000C4F8ACA7C4F8B0570D9218F011FB04F6E1
:10505000280210463092FEF7B7FB04F63C02C4F873
:1050600028B81046C4F830A8C4F834580E9218F086
:10507000FFFA04F6AC0210462F92FEF7A5FB04F5EA
:105080000C62C4F8ACB81046C4F8B4A8C4F8B85858
:105090000F9218F0EDFA04F5136210462E92FEF707
:1050A00093FB04F64412C4F830B94FF4887B1046E1
:1050B000C4F838A9C4F83C594FF07F4A079214F05D
:1050C00037FE04F6542210460892FFF73FFE04F51F
:1050D000286210462392FFF7E5FE04F6B42210463C
:1050E0001292FFF7B1FE04F6FC2210462492FFF75D
:1050F000D9FE04F5336210461392FFF7A5FE04F6BD
:10510000783210462592FFF7CDFE04F6AC321046F9
:105110001492FFF799FE04F6F43210462692FFF738
:10512000C1FE04F6284210461592FFF78DFE04F5E5
:10513000476210460992FFF709FE04F69C421046AA
:105140002792FFF7CBFE04F6D44210461692FFF7E3
:105150007BFE04F61C5210462892FFF7BFFE04F6B1
:10516000545210461792FFF76FFE04F69C521046F9
:105170002992FFF7B3FE04F6D45210461892FFF7B7
:1051800063FE04F61C6210460A92FFF7DFFD04F688
:10519000486210462A92FFF7A1FE04F568621046A5
:1051A0001992FFF751FE04F6C86210462B92FFF7E2
:1051B00095FE04F5706210461A92FFF745FE04F65C
:1051C000487210462C92FFF789FE04F5786210466B
:1051D0001B92FFF739FE04F6C87210461092FFF7D3
:1051E000B5FD04F6F47210462D92FFF777FE04F534
:1051F00081520C3210460B92FFF726FE04F58352C3
:10520000143210461C92FFF74DFE04F58552083209
:1052100010461192FFF73AFE04F5875214321046F9
:105220001D921AF027FB04F50053264A04F58D5011
:105230004FF4E151C3F8CC4DC3F8C82D0830224AD1
:10524000C3F8D45DC3F8D02D1BF036FA2A46404689
:105250004FF4F0732946CDF800B0FFF763FD231D2E
:105260004146C4F868A01846359314F0DAFE4FF4AE
:10527000F0732A4648462946CDF800B0FFF752FDA4
:105280004946201DC4F894A014F0CBFEFA224FF436
:10529000E17338460F2100922A464FF0FF3BFFF79B
:1052A00041FD314638462A4612E000BF8CBD030856
:1052B00048D70308DCBB0308DCB9030894BA030829
:1052C0008CDA030874BD0308214B0008ACD4030832
:1052D000FFF77AF938462B462A462946009518F0FA
:1052E000CDFE2B4638462A462946009518F0EDFD9E
:1052F00038464FF482722946FFF739F8D4F834154E
:1053000028204FF04608324684F83C65484304F5AF
:10531000895984F82A850028C4F830B509F11009A4
:10532000B8BF4042C4F8380518F05AFF3299C4F8A3
:1053300038053846C4F8346518F0D2FDD4F8741531
:10534000324684F87C65480184F86A85C4F870B5F3
:105350000028DFF8AC80B8BF4042C4F8780518F0E8
:105360003FFF3399C4F878053846C4F8746536AE03
:1053700018F0B6FD1C4B38463499C4F8B0354FF0E0
:105380000203A4F8B43518F0ABFD39460F27201DF1
:1053900014F047FEFA223C2339461E980097FFF787
:1053A000C1FCD4F8B8351E993046D3F88430C4F81F
:1053B000E8B5A4F8EC55984704F2F45396E80700D2
:1053C00083E80700D8F800302BB9084B6021084A61
:1053D000084831F035FC084B1B880F2B12D8074BBF
:1053E0006121034AF4E700BF16BCC4FF7D9C03089B
:1053F0007F9D0308FA9C0308F4820120419D030865
:10540000F0820120D24B394604F58A5A186801F01F
:1054100087FDD04A03460A2148460AF1040A20F0D3
:105420002DFC1023C4F800963EA9DFF830931E9897
:10543000ADF8FC30CDF8F8901AF006F81E99201D52
:1054400014F0EFFD3C23FA221F9819460097FFF74E
:1054500069FCD4F804361F993046D3F88430C4F878
:1054600034B6A4F83856984704F5C86396E80700A0
:1054700083E80700D8F80030002BA6D0B64A13887E
:105480000D2BACD9B24B0D21186801F049FDB14A82
:1054900003460A21504620F0F1FB0E233EA91F9837
:1054A000C4F84CA604F58A5AADF8FC30CDF8F89053
:1054B00019F0CAFF1F99201D14F0B3FDFA225023E2
:1054C000782120980AF1180A0097FFF72BFCD4F8EE
:1054D000503620993046D3F88430C4F880B6A4F80A
:1054E0008456984704F28C6396E8070083E8070027
:1054F000D8F80030002B3FF468AF974A13880B2B85
:105500007FF66DAF924B0B21186801F009FD914AAF
:1055100003460A21504620F0B1FB4FF00C013EA893
:10552000C4F898A6ADF8FC1004F58B5A01462098F3
:10553000CDF8F89019F088FF2099201D14F071FD26
:10554000FA225023C82121980AF10C0A0097FFF78C
:10555000E9FBD4F89C3621993046D3F88430C4F85E
:10556000CCB6A4F8D056984704F5DB6396E807005C
:1055700083E80700D8F80030002B3FF426AF764AC6
:105580001388092B7FF62BAF714B0921186801F0A6
:10559000C7FC704A03460C21504620F06FFB4FF0C9
:1055A0000A00C4F8E4A6ADF8FC003EA8CDF8F890D7
:1055B0000146219819F048FF2199201D14F031FD72
:1055C000FA2250234FF48C7122980097FFF7AAFB20
:1055D000D4F8E83622993046D3F88430A4F81C5722
:1055E00004F58C55C4F818B7984704F224730435B1
:1055F00096E8070083E80700D8F80030002B3FF456
:10560000E4AE554A1388072B7FF6E9AE504B0721CD
:105610000F26DFF84CB1186840F2D75A01F080FC31
:105620004C4A03460A2128464BF6C05720F026FB79
:105630004FF00800C4F830570025ADF8FC003EA834
:10564000CDF8F8904FF0FA080146229819F0FCFEC8
:105650002299201DDFF80C9114F0E3FC40F2C713EF
:105660003146A1220C980096FFF75CFB319960222D
:105670000C98C4F8B0B7A4F8B4A7C4F85C172946CE
:1056800018F00CF960224FF461510C9818F011F9E0
:1056900002210C98FFF730FC29460C9818F014F9F9
:1056A0000C99201D84F8595714F0BBFC4FF4E1739A
:1056B00031466F220D980096FFF734FB3099602237
:1056C0000D98C4F83498A4F83878C4F8E01729463F
:1056D00018F0E4F860224FF461510D9818F0E9F8E1
:1056E00002210D98FFF708FC29460D9818F0ECF8F8
:1056F0000D99201D84F8DD5714F093FC33462A469B
:105700005A210E98CDF80080FFF70CFB2F992A46FE
:105710000E98C4F8B8B804F5375BA4F8BCA84FF0ED
:10572000FF3AC4F86418602118F0B8F84FF4FA5240
:1057300060210E9818F0BDF802210E980BF1080BAD
:10574000FFF7DAFB29460E9818F0BEF80E990BE029
:10575000FC820120D5AF0308F48201206CB8030855
:10576000BBBB00FF00BBBBFF201D84F8615814F0D9
:1057700058FC33462A4678210F98CDF80080FFF771
:10578000D1FA2E992A460F98C4F83C994FF0020995
:10579000A4F840790527C4F8E818602118F07EF8CD
:1057A0004FF4FA5260210F9818F083F802210F98F5
:1057B000FFF7A2FB29460F9818F086F80F99201DD5
:1057C00084F8E55814F02DFC2A464FF49C71079894
:1057D000FFF79BFA4FF00C010B233CAAADF8F41035
:1057E000ADF8F8101421ADF8F030732301913EA903
:1057F000079800913DA90295CDE903530B4603217B
:1058000014F006FA2946079813F0C1FF2D210798D6
:1058100013F095FF3146079836AE13F09BFFCA4947
:10582000079813F0AEFF1221079813F0A4FF294642
:10583000079813F09AFF43460A2227210898CDF8CB
:105840000080FFF76FFA2A4629462398FFF75DFA92
:105850004FF006013DA83EAAADF8F8100146239886
:10586000ADF8F49019F04BFE23990898C4F8A8BA43
:1058700014F0D7FB04221C211298FFF746FA304699
:105880001299C4F8E4AAA4F8E85A19F043FB129953
:1058900001F13C0396E8070083E807004FF017008A
:1058A000AA4BADF8FC003EA83E930146129819F0B1
:1058B000CBFD1299089814F0B4FB302229462498A5
:1058C000FFF723FA3DA83EAAADF8F49001462498CC
:1058D000ADF8F87019F013FE24990898C4F824BBA9
:1058E00014F09FFB34220C211398FFF70EFA304678
:1058F0001399C4F860ABA4F8645B19F00BFB13991F
:1059000001F13C0396E8070083E807008F4B3EA8AF
:105910003E93162301461398ADF8FC3019F094FD20
:105920001399089814F07DFB602229462598FFF70B
:10593000ECF93DA83EAAADF8F49001462598ADF8E3
:10594000F87019F0DCFD25990898C4F8A0BB14F094
:1059500068FB65220C211498FFF7D7F9304614999B
:10596000C4F8DCABA4F8E05B19F0D4FA149901F1A7
:105970003C0396E8070083E80700744B3EA83E937B
:10598000152301461498ADF8FC3019F05DFD14990B
:10599000089814F046FB902229462698FFF7B5F99F
:1059A0003DA83EAAADF8F49001462698ADF8F870EF
:1059B00019F0A5FD26990898C4F81CBC14F031FB19
:1059C00094220C211598FFF7A0F930461599C4F8D8
:1059D00058ACA4F85C5C19F09DFA159901F13C03F0
:1059E00096E8070083E807004FF01400574BADF826
:1059F000FC003EA83E930146159819F025FD159927
:105A0000089814F00EFBDDE9070113F07BFF434615
:105A10000A2227210998CDF80080FFF783F92A464A
:105A20002946279884F8955CFFF76FF93DA83EAAB0
:105A3000A4F8D07C01462798ADF8F490ADF8F87042
:105A400019F05DFD27990998C4F8C4BC14F0E9FA6F
:105A5000042222211698FFF758F930461699C4F807
:105A600004ADA4F8085D19F055FA169901F13C034C
:105A700096E8070083E80700344B3EA83E931323C3
:105A800001461698ADF8FC3019F0DEFC169909981D
:105A900014F0C7FA302229462898FFF736F93DA8B6
:105AA0003EAAA4F8507D01462898ADF8F490ADF8D0
:105AB000F87019F024FD28990998C4F844BD14F031
:105AC000B0FA34221C211798FFF71FF930461799B6
:105AD000C4F884ADA4F8885D19F01CFA179901F197
