:020000040800F2
:1000000000000520F91D0008151D0008171D000837
:10001000191D00081B1D00081D1D00080000000020
:10002000000000000000000000000000719E0008B9
:100030001F1D000800000000119F0008759F0008A8
:10004000491E0008491E0008491E0008491E0008F4
:10005000491E0008491E0008491E0008491E0008E4
:10006000491E0008491E0008491E0008491E0008D4
:10007000491E0008491E0008491E0008491E0008C4
:10008000491E0008491E0008491E0008491E0008B4
:10009000491E0008491E0008491E0008491E0008A4
:1000A000491E0008491E0008491E0008491E000894
:1000B000491E0008491E0008491E0008491E000884
:1000C000491E0008491E0008491E0008491E000874
:1000D000491E0008491E0008491E0008491E000864
:1000E000491E0008491E0008491E0008491E000854
:1000F000491E0008491E0008491E0008491E000844
:10010000491E0008491E0008491E0008491E000833
:10011000491E0008491E0008211D0008491E00084C
:10012000491E0008491E0008491E0008491E000813
:10013000491E0008491E0008491E0008491E000803
:10014000491E0008491E0008491E0008491E0008F3
:10015000491E0008491E0008491E0008491E0008E3
:10016000491E0008491E0008491E0008491E0008D3
:10017000491E0008491E0008491E00080000000032
:10018000491E0008491E0008491E0008491E0008B3
:10019000491E0008491E0008491E0008491E0008A3
:1001A0002D1D0008491E0008391D0008491E0008C1
:1001B000491E0008491E0008491E0008491E000883
:0801C000491E0008491E000859
:1001D00010B5054C237833B9044B13B10448AFF381
:1001E00000800123237010BD4003002000000000A8
:1001F0003471030808B5034B1BB103490348AFF33F
:10020000008008BD00000000440300203471030892
:1002100001F0FF01102A2BDB10F0070F08D010F8B7
:10022000013B013A8B422DD010F0070F42B3F6D1BB
:10023000F0B441EA012141EA014122F007047FF0D4
:1002400000070023F0E80256083C85EA010586EA2B
:10025000010685FA47F5A3FA87F586FA47F6A5FA67
:1002600087F68EB9EED1F0BC01F0FF0102F0070273
:1002700032B110F8013B013A83EA010313B1F8D11E
:100280000020704701387047002D06BF35460338FF
:10029000073815F0010F07D1013015F4807F02BF38
:1002A000013015F4C03F0130F0BC0138704700BF89
:1002B00081F0004102E000BF83F0004330B54FEA17
:1002C00041044FEA430594EA050F08BF90EA020F84
:1002D0001FBF54EA000C55EA020C7FEA645C7FEA17
:1002E000655C00F0E2804FEA5454D4EB5555B8BF3A
:1002F0006D420CDD2C4480EA020281EA030382EAAB
:10030000000083EA010180EA020281EA0303362D3C
:1003100088BF30BD11F0004F4FEA01314FF4801C0F
:100320004CEA113102D0404261EB410113F0004F21
:100330004FEA03334CEA133302D0524263EB4303D8
:1003400094EA050F00F0A780A4F10104D5F1200E76
:100350000DDB02FA0EFC22FA05F2801841F10001D1
:1003600003FA0EF2801843FA05F359410EE0A5F1A5
:1003700020050EF1200E012A03FA0EFC28BF4CF0D6
:10038000020C43FA05F3C01851EBE37101F000458C
:1003900007D54FF0000EDCF1000C7EEB00006EEB99
:1003A0000101B1F5801F1BD3B1F5001F0CD3490823
:1003B0005FEA30004FEA3C0C04F101044FEA44527A
:1003C00012F5800F80F09A80BCF1004F08BF5FEA01
:1003D000500C50F1000041EB045141EA050130BDE1
:1003E0005FEA4C0C404141EB0101013C28BFB1F5F3
:1003F000801FE9D291F0000F04BF01460020B1FA3E
:1004000081F308BF2033A3F10B03B3F120020CDA10
:100410000C3208DD02F1140CC2F10C0201FA0CF0EE
:1004200021FA02F10CE002F11402D8BFC2F1200C53
:1004300001FA02F120FA0CFCDCBF41EA0C01904009
:10044000E41AA2BF01EB0451294330BD6FEA040452
:100450001F3C1CDA0C340EDC04F11404C4F120023D
:1004600020FA04F001FA02F340EA030021FA04F34F
:1004700045EA030130BDC4F10C04C4F1200220FAA6
:1004800002F001FA04F340EA0300294630BD21FAE4
:1004900004F0294630BD94F0000F83F4801306BFAA
:1004A00081F480110134013D4EE77FEA645C18BF9E
:1004B0007FEA655C29D094EA050F08BF90EA020F35
:1004C00005D054EA000C04BF1946104630BD91EA2D
:1004D000030F1EBF0021002030BD5FEA545C05D130
:1004E0004000494128BF41F0004130BD14F580046F
:1004F0003CBF01F5801130BD01F0004545F0FE41E3
:1005000041F470014FF0000030BD7FEA645C1ABF17
:10051000194610467FEA655C1CBF0B46024650EA4E
:10052000013406BF52EA033591EA030F41F400217A
:1005300030BD00BF90F0000F04BF0021704730B500
:100540004FF4806404F132044FF000054FF00001D5
:1005500050E700BF90F0000F04BF0021704730B596
:100560004FF4806404F1320410F0004548BF40426B
:100570004FF000013EE700BF42004FEAE2014FEAC0
:1005800031014FEA02701FBF12F07F4393F07F4F9B
:1005900081F06051704732F07F4208BF704793F09E
:1005A0007F4F04BF41F40021704730B54FF46074B1
:1005B00001F0004521F000411CE700BF50EA0102B4
:1005C00008BF704730B54FF000050AE050EA01025D
:1005D00008BF704730B511F0004502D5404261EBCD
:1005E00041014FF4806404F132045FEA915C3FF40E
:1005F000D8AE4FF003025FEADC0C18BF03325FEAAB
:10060000DC0C18BF033202EBDC02C2F1200300FA5B
:1006100003FC20FA02F001FA03FE40EA0E0021FA80
:1006200002F11444BDE600BF70B54FF0FF0C4CF46E
:10063000E06C1CEA11541DBF1CEA135594EA0C0F20
:1006400095EA0C0F00F0DEF82C4481EA030621EA5B
:100650004C5123EA4C5350EA013518BF52EA033596
:1006600041F4801143F4801338D0A0FB02CE4FF048
:100670000005E1FB02E506F00042E0FB03E54FF078
:100680000006E1FB03569CF0000F18BF4EF0010E70
:10069000A4F1FF04B6F5007F64F5407404D25FEA6C
:1006A0004E0E6D4146EB060642EAC62141EA55511F
:1006B0004FEAC52040EA5E504FEACE2EB4F1FD0C61
:1006C00088BFBCF5E06F1ED8BEF1004F08BF5FEADF
:1006D000500E50F1000041EB045170BD06F0004691
:1006E00046EA010140EA020081EA0301B4EB5C043E
:1006F000C2BFD4EB0C0541EA045170BD41F4801136
:100700004FF0000E013C00F3AB8014F1360FDEBF5A
:10071000002001F0004170BDC4F10004203C35DA36
:100720000C341BDC04F11404C4F1200500FA05F3B9
:1007300020FA04F001FA05F240EA020001F000425A
:1007400021F0004110EBD37021FA04F642EB0601D0
:100750005EEA430E08BF20EAD37070BDC4F10C04FA
:10076000C4F1200500FA04F320FA05F001FA04F2BE
:1007700040EA020001F0004110EBD37041F10001AA
:100780005EEA430E08BF20EAD37070BDC4F12005B5
:1007900000FA05F24EEA020E20FA04F301FA05F21D
:1007A00043EA020321FA04F001F0004121FA04F2C5
:1007B00020EA020000EBD3705EEA430E08BF20EA95
:1007C000D37070BD94F0000F0FD101F000464000CF
:1007D00041EB010111F4801F08BF013CF7D041EA51
:1007E000060195F0000F18BF704703F00046520055
:1007F00043EB030313F4801F08BF013DF7D043EA26
:100800000603704794EA0C0F0CEA135518BF95EADB
:100810000C0F0CD050EA410618BF52EA4306D1D162
:1008200081EA030101F000414FF0000070BD50EA81
:10083000410606BF1046194652EA430619D094EA0B
:100840000C0F02D150EA013613D195EA0C0F05D1F5
:1008500052EA03361CBF104619460AD181EA030149
:1008600001F0004141F0FE4141F470014FF0000001
:1008700070BD41F0FE4141F4780170BD70B54FF09C
:10088000FF0C4CF4E06C1CEA11541DBF1CEA13551C
:1008900094EA0C0F95EA0C0F00F0A7F8A4EB0504FE
:1008A00081EA030E52EA03354FEA013100F08880F5
:1008B0004FEA03334FF0805545EA131343EA1263BE
:1008C0004FEA022245EA111545EA10654FEA002673
:1008D0000EF000419D4208BF964244F1FD0404F52C
:1008E000407402D25B084FEA3202B61A65EB030588
:1008F0005B084FEA32024FF480104FF4002CB6EB45
:10090000020E75EB030E22BFB61A754640EA0C00C4
:100910005B084FEA3202B6EB020E75EB030E22BF04
:10092000B61A754640EA5C005B084FEA3202B6EB45
:10093000020E75EB030E22BFB61A754640EA9C0004
:100940005B084FEA3202B6EB020E75EB030E22BFD4
:10095000B61A754640EADC0055EA060E18D04FEA92
:10096000051545EA16754FEA06164FEAC30343EA32
:1009700052734FEAC2025FEA1C1CC0D111F4801FFF
:100980000BD141EA00014FF000004FF0004CB6E7F8
:1009900011F4801F04BF01430020B4F1FD0C88BF97
:1009A000BCF5E06F3FF6AFAEB5EB030C04BFB6EBA2
:1009B000020C5FEA500C50F1000041EB045170BD95
:1009C0000EF0004E4EEA113114EB5C04C2BFD4EBC2
:1009D0000C0541EA045170BD41F480114FF0000E46
:1009E000013C90E645EA060E8DE60CEA135594EAC2
:1009F0000C0F08BF95EA0C0F3FF43BAF94EA0C0FC5
:100A00000AD150EA01347FF434AF95EA0C0F7FF439
:100A100025AF104619462CE795EA0C0F06D152EA8D
:100A200003353FF4FDAE1046194622E750EA410671
:100A300018BF52EA43067FF4C5AE50EA41047FF482
:100A40000DAF52EA43057FF4EBAE12E74FF0FF3CE7
:100A500006E000BF4FF0010C02E000BF4FF0010CB8
:100A60004DF804CD4FEA410C7FEA6C5C4FEA430C31
:100A700018BF7FEA6C5C1BD001B050EA410C0CBF80
:100A800052EA430C91EA030F02BF90EA020F0020E2
:100A9000704710F1000F91EA030F58BF994208BF49
:100AA00090422CBFD8176FEAE37040F00100704706
:100AB0004FEA410C7FEA6C5C02D150EA013C07D15D
:100AC0004FEA430C7FEA6C5CD6D152EA033CD3D0A8
:100AD0005DF8040B704700BF8446104662468C46A2
:100AE0001946634600E000BF01B5FFF7B7FF0028D5
:100AF00048BF10F1000F01BD4DF808EDFFF7F4FFFE
:100B00000CBF012000205DF808FB00BF4DF808ED88
:100B1000FFF7EAFF34BF012000205DF808FB00BFAB
:100B20004DF808EDFFF7E0FF94BF012000205DF8CD
:100B300008FB00BF4DF808EDFFF7CEFF94BF012082
:100B400000205DF808FB00BF4DF808EDFFF7C4FF7B
:100B500034BF012000205DF808FB00BF4FEA410CC4
:100B60007FEA6C5C02D150EA013C0AD14FEA430CA7
:100B70007FEA6C5C02D152EA033C02D14FF00000E4
:100B800070474FF0010070474FEA410212F5001222
:100B900015D211D56FF47873B3EB625212D94FEAC4
:100BA000C12343F0004343EA505311F0004F23FAAE
:100BB00002F018BF404270474FF00000704750EA03
:100BC000013005D111F0004008BF6FF000407047C0
:100BD0004FF00000704700BF4A0011D212F500121A
:100BE00011D20DD56FF47873B3EB62520ED44FEA85
:100BF000C12343F0004343EA505323FA02F0704705
:100C00004FF00000704750EA013002D14FF0FF3042
:100C100070474FF0000070474FEA4102B2F1E043E5
:100C200024BFB3F5001CDCF1FE5C0DD901F0004CD3
:100C30004FEAC0024CEA5070B2F1004F40EB830023
:100C400008BF20F00100704711F0804F21D113F14F
:100C50003872BCBF01F00040704741F480114FEA88
:100C60005252C2F11802C2F1200C10FA0CF320FA11
:100C700002F018BF40F001004FEAC1234FEAD3232E
:100C800003FA0CFC40EA0C0023FA02F34FEA430398
:100C9000CCE77FEA625307D150EA01331EBF4FF021
:100CA000FE4040F44000704701F0004040F0FE403C
:100CB00040F40000704700BF7BB972B90029BEBF85
:100CC00000204FF0004106E008BF00281CBF6FF075
:100CD00000414FF0FF3000F0D3B9ADF1080C6DE9E1
:100CE00004CE002909DB002B1ADB00F04DF8DDF8FB
:100CF00004E0DDE9022304B07047404261EB4101AA
:100D0000002B1BDB00F040F8DDF804E0DDE90223F6
:100D100004B0404261EB4101524263EB4303704730
:100D2000524263EB430300F02FF8DDF804E0DDE905
:100D3000022304B0404261EB41017047524263EB31
:100D4000430300F021F8DDF804E0DDE9022304B0FC
:100D5000524263EB4303704753B94AB9002908BFB5
:100D600000281CBF4FF0FF314FF0FF3000F088B972
:100D7000ADF1080C6DE904CE00F006F8DDF804E0F2
:100D8000DDE9022304B070472DE9F047089D8E4647
:100D900004468846002B4AD18A42174662D9B2FAE5
:100DA00082F64EB1C6F1200301FA06F820FA03F3E9
:100DB000B74043EA0808B4404FEA174E1FFA87FCD1
:100DC000B8FBFEF1230C0EFB118843EA084301FB3C
:100DD0000CF29A4209D9FB1801F1FF3080F0EA8049
:100DE0009A4240F2E78002393B449A1AA3B2B2FB1E
:100DF000FEF00EFB102243EA024300FB0CFC9C4574
:100E000009D9FB1800F1FF3280F0D6809C4540F2F2
:100E1000D3803B44023840EA0140A3EB0C0300219D
:100E20001DB1F3400022C5E90032BDE8F0878B42D6
:100E300005D90DB1C5E9000100210846F5E7B3FA6F
:100E400083F1002946D1734502D3824200F2058125
:100E5000841A6EEB030201209046002DE5D0C5E90F
:100E60000048E2E7002A00F09080B2FA82F6002EF5
:100E700040F0A4808A1A030C4FEA174E80B2BCB22D
:100E80000121B2FBFEFC0EFB1C2243EA024304FBE1
:100E90000CF29A4207D9FB180CF1FF3802D29A42A1
:100EA00000F2E080C4469B1AB3FBFEF20EFB123345
:100EB00040EA034302FB04F49C4207D9FB1802F109
:100EC000FF3002D29C4200F2CA8002461B1B42EA5B
:100ED0000C40A5E7C1F120068B4022FA06F71F431C
:100EE0000EFA01F420FA06F32EFA06FE4FEA17492D
:100EF000234300FA01F81FFA87FCBEFBF9F01C0C33
:100F000009FB10EE44EA0E4400FB0CFEA64502FA73
:100F100001F209D93C1900F1FF3A80F09C80A64506
:100F200040F2998002383C44A4EB0E041FFA83FE81
:100F3000B4FBF9F309FB13444EEA044403FB0CFC35
:100F4000A44508D93C1903F1FF3E80F08280A445F6
:100F50007FD9023B3C4443EA0040A4EB0C04A0FBD5
:100F600002EC64457346E14662D35FD05DB1B8EBF5
:100F7000030264EB090404FA06F622FA01F31E43A5
:100F8000CC40C5E9006400214FE7B1FBF2FC010C45
:100F900041EA0E4180B240EA01423B4638463C46B7
:100FA000B846BE462026B1FBF7F1A2EB080241EAA3
:100FB0000C4166E7014618E710462CE7C6F120020F
:100FC0002EFA02F3B740B14020FA02F24FEA174E70
:100FD0000A43B3FBFEF8BCB20EFB1833110C41EA16
:100FE000034108FB04F9B04089454FEA104380B241
:100FF0003ED9791808F1FF3C01D289451FD8A1EBF1
:101000000901B1FBFEF909FB04F80EFB191192B2BC
:1010100042EA0142424529D2BA1809F1FF31C4D24D
:101020004245C2D2A9F102013A44BEE7F0459DD241
:10103000BEEB02036CEB070C0138E14696E7A7EB29
:1010400009094944A8F1020CB1FBFEF909FB04F8B7
:10105000DBE773467FE7504666E70846FDE63B441C
:10106000023A33E7ACF1020C3B441CE749469CE7EB
:10107000A1EB0901C446B1FBFEF909FB04F8C4E782
:10108000704700BF014900200AF0EEB8FD220008B9
:101090002DE9F047284D00240026284FAA462DEDC3
:1010A000028BF0EE088AB1EE048A0FF28409D9E9C6
:1010B000008920460134FFF74DFA42464B46FFF7C0
:1010C000B3FA32463B46FFF7AFFAFFF7A5FD00EE55
:1010D000100A33F001FBF0EE487AE0EE287A17EEC2
:1010E000900AFFF749FA0022154BFFF79DFAFFF728
:1010F00073FDB4F5807F05F8010BDAD1114C124D68
:10110000236800221148D1180132C9B2C82A1AF83E
:10111000011000F8011BF6D101331020DBB223606F
:1011200001232B7008F0B4FAEAE700BFAFF30080A8
:10113000182D4454FB2119405D0300200000703F2E
:1011400000803940600400205C030020640400201B
:1011500010B594B01022002102240AA835F0AEF890
:101160001422002103A835F0A9F81D4B192108A865
:101170001A6C42F080521A641B6C03F08053019386
:10118000019B184B1A6842F440421A6001221B6806
:1011900003F440430293029B4FF48033CDE90823CC
:1011A0004FF48003CDE90E434FF4D873CDE91244D8
:1011B000CDE9101307F058FA06F0C2FF0F23002004
:1011C0000721CDE903344FF4A053CDE905034FF4D3
:1011D000805303A8079307F02FFC14B010BD00BF85
:1011E000003802400070004030B54FF480738FB07B
:1011F0004FF080720E4D06939F23099201220093B7
:1012000000230446694628460593CDE90A2341F2A6
:101210008832CDE90733CDE90C3307F0F7F841F216
:1012200088322146284607F0BBF90FB030BD00BF19
:101230007C05002000B54FF4807391B04FF04072F0
:10124000EF2808934FF0EB0302A90D4802934FF4E7
:10125000406309934FF4005305934FF00003CDE929
:101260000A3214BF0A2206220F9307926A46CDE97A
:101270000D33CDE9003307F00DF911B05DF804FB33
:101280007C0500202DE980489BB01022002101251B
:101290000DA84FF0104935F011F8002405F0A0FE1C
:1012A000C74B0DA8ADF834501094CDE90E9305F05E
:1012B000B5FE17230DA88DF835508DF83C308DF80C
:1012C000425005F0ABFE042005F098FEBFF34F8FAF
:1012D000BFF36F8FBB4AC2F85042BFF34F8FBFF3CB
:1012E0006F8F536943F400335361BFF34F8FBFF3E4
:1012F0006F8FC2F88440BFF34F8FD2F8803043F62F
:10130000E074C3F3C900C3F34E335B0103EA040680
:10131000014646EA81750139C2F86052F9D2203B94
:1013200013F1200FF2D1BFF34F8F536943F4803391
:101330005361BFF34F8FBFF36F8F05F0B7FD0024EC
:10134000FFF706FF142200210DA834F0B7FF9E4BD3
:1013500010219E481A6B01274FF010084FF0030B25
:1013600042F010024FF4805A994D4FF004091A636D
:101370001A6B984E02F010020292029A1A6B42F017
:1013800002021A631A6B02F002020392039A1A6BAA
:1013900042F001021A631A6B02F001020492049AED
:1013A0001A6B42F040021A631A6B02F04002059277
:1013B000059A1A6B42F400721A631A6B02F40072F7
:1013C0000692069A1A6B42F008021A631A6B02F030
:1013D00008020792079A1A6B42F004021A631A6B0A
:1013E00002F004020892089A1A6B42F480621A63AF
:1013F0001A6B02F480620992099A1A6B42F0200279
:101400001A631A6B02F020020A920A9A1A6B42F4CB
:1014100080721A631A6B02F480720B920B9A1A6B29
:1014200042F080021A6300221B6B03F080030C93CE
:101430000C9B06F03FF901220821674806F03AF9B3
:1014400001224FF48051654806F034F90022C02192
:10145000634806F02FF900224021624806F02AF97D
:101460000DA95A48CDE90D87CDE90F4B05F09EFF38
:1014700008230DA95848CDE90D37CDE90F4405F0F3
:1014800095FF0DA95548CDE90DA7CDE90F4405F00D
:101490008DFFC0220DA95248CDE90D27CDE90F4B94
:1014A00005F084FF40220DA94E48CDE90D27CDE976
:1014B0000F4B05F07BFF4C484C498480016007626C
:1014C000C0E9054405F0D6FD49492846C5E90014A0
:1014D000C5E90244C5E90A44C5E90C4405F069FEC2
:1014E00039462846434D05F01BFF40234FF4C07298
:1014F00041493046B460F461B462C6E905324FF444
:101500000062C6E9082A4FF0020A0722C6E9001461
:101510000DA9CDF84CA0C6E90398CDE90DA2CDE9FF
:101520000F92CDE911BA07F0DDFD29464FF6FF72A3
:1015300030460194C5E90078C5E9027407F0F2FD70
:10154000384605F0D7FC29464FF6FF723046C5E90C
:1015500000A8C5E9027407F0E5FD082329464FF607
:10156000FF723046C5E900B8C5E9023407F0DAFD7C
:101570004FF40C734FF6FF72294601933046019BDE
:10158000AF60EB60C5E9009807F0CCFD40F22B712D
:1015900030461A4D07F0E5FD4FF0204343F2D202EA
:1015A000642040F215261A6005F0A4FC144B154A7D
:1015B00028462C62C5E90023C5E9024724E000BFA4
:1015C0001B00000300ED00E0003802400004024070
:1015D000C4060020480500200028024000200240E8
:1015E00000080240001802400407002000300240BA
:1015F00000B002402C050020400100A07006002031
:1016000068474020005C0040C5E90444C5E9064441
:1016100006F091F92146284606F0B4FB21462846FB
:10162000404D06F0D5FB342221460DEB020034F08C
:1016300045FE3D4B2821352040F2352C2C61AC86EF
:1016400085F83640C5E900340923C5E905130B23A5
:10165000C5E9070340F21B132846C5E9096340F2B8
:101660001D13C5E90244C5E90BC306F055FCFF2173
:101670004FF4806E4FF4F0724FF4887328460D9447
:101680001893ADF864408DF86640CDE91214052139
:10169000CDE914E14FF04041CDE90E24CDE9161219
:1016A00022460DA9CDE9103A06F001FD1F48204B56
:1016B0000462C0E90037C0E902984FF4A0634FF01C
:1016C0001808C0E90644C0E9048306F04DFE0DA8E1
:1016D000FFF78AFD9DF83400FFF7ACFD5C2005F0B4
:1016E0006DFC00F087FB00F0B1FB00F0AEFB07F0F3
:1016F00045FF104A2146104807F07AFF0F4B104A69
:10170000214618600F4807F073FF0F4B0F4A214620
:1017100018600F4807F06CFF0E4B186007F048FF89
:10172000FEE700BFC8050020006801407C050020DE
:10173000001000A098A5030891100008440500209F
:1017400074A503085B1E00084005002050A503088F
:10175000E53900083C0500200268034B9A4201D19C
:1017600005F0B6BB704700BF001000407047000096
:101770000D4B82B00F216FF001001A6C42F08052C5
:101780001A641A6C02F080520092009A5A6C42F469
:1017900080425A6400225B6C03F480430193019BF6
:1017A00002B005F0CBBB00BF00380240026882B037
:1017B000084B9A420BD1D3F8302803F5006342F46A
:1017C00080521A631B6B03F480530193019B02B098
:1017D000704700BF003002400E4B07B502689A42C6
:1017E00015D1A3F5F04305215A201A6B42F40002EB
:1017F0001A6300221B6B03F400030193019B05F0A5
:101800009DFB5A2003B05DF804EB05F0C9BB03B0A3
:101810005DF804FB00B0024010B5A8B004461422E5
:10182000002102A834F04AFD8422002107A834F0E8
:1018300045FD2268174B9A422AD14FF4803307A8FE
:10184000079307F0C5F908B1FFF790FF124C4FF46A
:10185000C07201211148236B43F080032363236B83
:1018600003F080030093009B1223CDE9022303239E
:10187000CDE90413042302A9069305F097FD236C18
:1018800043F400032364236C03F400030193019BDE
:1018900028B010BD005C004000380240001C02402F
:1018A000026808B5094B9A420FD1094A80210948BC
:1018B000136C23F40003136405F05CFE4FF4807195
:1018C0000448BDE8084005F055BE08BD005C004076
:1018D00000380240001C024070B5B0B0044614222B
:1018E00000210AA834F0EAFC842200210FA834F079
:1018F000E5FC22686B4B9A4240F0D180082305201A
:1019000001240F934FF4C07314930223CDE91530D3
:101910004FF400330FA8CDE9194307F059F908B186
:10192000FFF724FF604B002402250E265A6C0AA9FB
:101930005E4842F080625A645A6C02F08062019202
:10194000019A1A6B42F010021A631A6B02F010022D
:101950000292029A1A6B42F040021A631A6B02F06A
:1019600040020392039A1A6B42F400721A631A6BD4
:1019700002F400720492049A1A6B42F008021A638D
:101980001A6B02F008020592059A1A6B42F00402E3
:101990001A631A6B02F004020692069A1A6B42F45A
:1019A00080621A631A6B02F480620792079A1A6BBC
:1019B00042F480721A631A6B02F480720892089AD9
:1019C0001A6B42F001021A631B6B0E9603F00103BF
:1019D0000993099B7023CDE90C44CDE90A3505F044
:1019E000E5FC4FF400530AA931480E96CDE90A35BB
:1019F000CDE90C4405F0DAFC4AF67C630AA92D48CF
:101A00000E96CDE90A35CDE90C4405F0CFFC402314
:101A10000AA929480E96CDE90A35CDE90C4405F00E
:101A2000C5FC4FF480630AA924480E96CDE90A3517
:101A3000CDE90C4405F0BAFCF7230AA920480E961C
:101A4000CDE90A35CDE90C4405F0B0FC4FF48053E4
:101A50000AA91748CDE90A350923CDE90C440E93AC
:101A600005F0A4FC4FF48C430AA916480E96CDE964
:101A70000A35CDE90C4405F099FC04230AA9124863
:101A80000E96CDE90A35CDE90C4405F08FFC5820BF
:101A90002246052105F052FA582005F081FA30B0AF
:101AA00070BD00BF006801400038024000100240D5
:101AB0000018024000240240000C024000080240CE
:101AC00000280240002002400000024014220021B1
:101AD0002DE9F0418AB004460DEB020034F0EEFB34
:101AE00022682C4B9A4251D12B4B02250324092604
:101AF0009A6B4FF0040805A9284842F0020200271B
:101B00009A639A6B02F002020192019A1A6B42F0F8
:101B100010021A631A6B02F010020292029A1A6BF8
:101B200042F002021A631A6B02F002020392039A55
:101B30001A6B42F008021A631B6B03F0080304934C
:101B4000049BCDE90585CDE9084605F02FFC40232F
:101B500005A91348CDE905350A23CDE90774099392
:101B600005F024FC05A90E480996CDE90585CDE9C7
:101B7000077405F01BFC4FF4605305A9094809964A
:101B8000CDE90535CDE9077405F010FC0AB0BDE8D4
:101B9000F08100BF001000A0003802400010024099
:101BA00000040240000C0240F0B5002387B003930C
:101BB000294B1E68002E4DD10122022703250C243B
:101BC0001A6001A9254B26489A6B42F001029A63DC
:101BD0009B6B03F001030093009B4FF68373CDE9E9
:101BE0000454CDE9013705F0E1FB48F2331301A9B4
:101BF0001C480594CDE90137CDE9036505F0D6FB16
:101C00004CF2037301A918480594CDE90137CDE9D9
:101C1000036505F0CBFB4FF63F0301A9134805947C
:101C2000CDE90137CDE9036505F0C0FB282301A903
:101C30000F480594CDE90137CDE9036505F0B6FB02
:101C4000082301A90B480594CDE90137CDE90365C7
:101C500005F0ACFB07B0F0BD2807002000380240BB
:101C60000010024000180240000C02400014024024
:101C7000001C024000080240214B1A6C42F0100286
:101C800070B588B01A641B6C054601A903A803F05F
:101C900010030293029B06F07DFF069B4BBB06F0F0
:101CA00069FF184E184B336040F2E733F360174B6F
:101CB000B0FBF3F3013B3046736000233361B36044
:101CC000B36107F0A1FB044680B9304607F062FA21
:101CD000044658B9362005F063F90F2D0DD8224679
:101CE0002946362005F02AF9094B1D60204608B028
:101CF00070BD06F03FFF4000D3E70124F6E700BFC8
:101D0000003802402C0700200010004040420F0025
:101D1000500000207047FEE7FEE7FEE7FEE7704751
:101D2000014807F079BA00BF2C070020014806F0EF
:101D300061B900BFC8050020014805F066BA00BFC0
:101D4000C40600200120704708B534F06BFB162351
:101D500003604FF0FF3008BD08B534F063FB162375
:101D60000360FEE770B50D4614460E46731B9C4299
:101D700001DC204670BDAFF3008006F8010BF5E7EB
:101D800070B50D4614460E46731B9C4201DC20467E
:101D900070BD16F8010BAFF30080F5E74FF0FF3090
:101DA00070474FF4005300204B607047012070478C
:101DB000002070470B4A0346116810B509B90A495B
:101DC0001160106809490A4C0344091B8B4206D96B
:101DD00034F028FB0C2303604FF0FF3010BD13607C
:101DE000FCE700BF78070020C0820120000005202A
:101DF000000A000070470000DFF834D0002103E043
:101E00000C4B5B58435004310B480C4B42189A4220
:101E1000F6D30B4A02E0002342F8043B094B9A42F6
:101E2000F9D304F05BFF34F003FBFFF72BFA7047A4
:101E3000000005209CDA0308000000203801002083
:101E400040030020BC820120FEE7704708B501F086
:101E500091F9BDE8084001F013B901F08DB940686F
:101E600070474160704700004FF0E022D2F8FC3D1F
:101E700043F08073C2F8FC3D054B064AD3F8B01F0F
:101E80000A43C3F8B02F1A6842F001021A60704783
:101E9000001000E055CEACC5521A02EB5302B2FB63
:101EA000F3F07047014B5868704700BF001000E026
:101EB000704710B504460C2132F0C4FA204610BD1C
:101EC000036810B51B69044631B19847A26863687E
:101ED0009B1A0344636010BD9847A060FBE70000B5
:101EE000024B7020024A1360DB6818472400002070
:101EF0007C070020704710B50446042132F0A2FA96
:101F0000204610BD73B50E4E0D461446336813B906
:101F1000002002B070BD1B69702098470028F7D0E0
:101F20003368702001AA0DF106015B699847BDF87E
:101F3000043001202B60BDF806302360E9E700BFC4
:101F40007C0700207FB501238DF817204FF47A72AB
:101F5000CDE901320DF1170200920A46014605480B
:101F600005F058FD10B1034805F03AFD07B05DF8E3
:101F700004FB00BF700600207FB500230A464FF423
:101F80007A718DF817300123CDE901310DF1170178
:101F900000910146054805F017FE10B1034805F011
:101FA0001FFD9DF8170007B05DF804FB70060020C8
:101FB000032823D8DFE800F0020B131A104B10217E
:101FC00010481A68B2FA82F2520905F073BB0C4B42
:101FD00040215A68B2FA82F252090B48F5E7084BE1
:101FE00080219A68B2FA82F25209F6E7044B402146
:101FF0000648DA68B2FA82F25209E6E7704700BF93
:10200000800700200004024000080240001802403F
:10201000032823D8DFE800F0020B131A104B10211D
:1020200010481A68003A18BF012205F043BB0C4B58
:1020300040215A68003A18BF01220B48F5E7084BC7
:1020400080219A68003A18BF0122F6E7044B40212C
:102050000648DA68003A18BF0122E6E7704700BF79
:1020600080070020000402400008024000180240DF
:1020700003280FD8DFE800F00206090B10210648FC
:1020800005F01DBB40210548FAE78021FBE7402110
:102090000348F5E7704700BF000402400008024013
:1020A0000018024008B5032813D8DFE800F0020A40
:1020B0000D0F1021084805F0F7FA431E5842584109
:1020C00008BD40210548F6E78021FBE74021044890
:1020D000F1E70020F1E700BF0004024000080240E1
:1020E0000018024070B5084D00240126E0B2FFF749
:1020F000D9FF18B12B68012B18BF2E6001340435AD
:10210000052CF3D170BD00BF80070020012380F8AB
:10211000781080F8793070477047002070470000D1
:1021200041640039024B18BF01211970704700BF8C
:102130007B750120704700207047836B0BB1084608
:10214000184770474FF6FF707047406803689B69F7
:10215000184770477047704738B5044601F062F978
:10216000084923682046084DD3F89030984700234B
:10217000284684F84A30FFF777FE0123256184F86A
:10218000703038BD000000C09007002001F0EEB8AC
:1021900001F0F2B870B501F06FF910490023C1F8F1
:1021A0008430BFF34F8FD1F8803043F6E074C3F32F
:1021B000C900C3F34E335B0103EA0406024646EA54
:1021C0008275013AC1F87452F9D2203B13F1200F05
:1021D000F2D1BFF34F8FBFF36F8F70BD00ED00E002
:1021E00001F04CB901F09EB801F06EBA01F076BA78
:1021F00001F0A2B810B5044618F0BCFE23682046D2
:10220000D3F8BC30BDE81040184718F0CEB810B570
:102210000446842132F016F9204610BD90F834109F
:102220000D4B10B590F878401A788C4209D03AB925
:102230000A490B4A08881488108001220C801A7001
:1022400010BD002AFCD0064A0449148808880C8076
:1022500010800022F3E700BF747501207275012021
:102260007075012070B50D46194635B9094B40F21D
:10227000FF21094A094833F063FDC0E90F52003AD3
:10228000074B18BF01221A700368BDE87040D3F8ED
:1022900090301847B3710308EB71030839720308D3
:1022A0007A75012008B5094B1B888B4203D8084B6F
:1022B0001B88934205D9074BA321074A074833F0EF
:1022C0003FFD074B1980074B1A8008BD7075012030
:1022D000727501207E720308E172030839720308E7
:1022E0007675012078750120034690F87A0018B1C0
:1022F000586803681B68184770470000014608B516
:10230000034B186801B1012118F04EFE012008BDF1
:102310007C750120034B00225A609A60024A1A60C1
:10232000704700BF90070020C4A5030801210022C8
:1023300008B5084607F064FA0A4B186028B90A4B3A
:1023400028210A4A0A4833F0FBFC0022042101201C
:1023500007F020FB074B186018B9074B2C21034AE4
:10236000F0E708BDA0070020247303086D7303087D
:102370009C7303089C070020E9730308024B4FF08D
:10238000FF31186807F094BAA0070020014B1868C5
:1023900007F0CABAA0070020024B0021186807F016
:1023A00087BA00BFA0070020FFF7F0BF0023034853
:1023B00003491A46006807F033BB00BF9C070020A2
:1023C0000800002013B50023074C01A91A46206815
:1023D00007F068FB4FF0FF33002201A9206807F0E7
:1023E00061FB02B010BD00BF9C07002003685B6C5E
:1023F00018470120704703689B6A1847FEE70000F2
:102400000E4B82B01A6B42F400021A631A6B02F48C
:1024100000020192019A1A6942F400021A611A69D3
:1024200022F400021A61064B064A1A61064A5A61F2
:102430004FF08062054B9A6002B07047003802404E
:10244000C4060020D9260008FD23000800E100E0B2
:1024500040F2EF3070470000054B4FF080620360A0
:10246000044BC3F88820BFF34F8FBFF36F8F7047C3
:10247000F0A6030800E100E010B504464FF45A61ED
:10248000FFF7EAFF204631F0DDFF204610BD0000D7
:1024900008B50A2809D8DFE800F006100E08080879
:1024A000081010101000022008BD054B9021054AAD
:1024B000054833F045FC0020F6E70120F4E700BFB3
:1024C0002B740308467403089174030838B50C464E
:1024D000887FFFF7DDFF174BA58AE28A586342EA3F
:1024E000054221695A64628BD963521B1A642568BC
:1024F000082D0ED19A611A6158620F4A207F42EA74
:102500000062DA61E2681A620C4A5961D9601A60A5
:1025100038BD0022D8611A61E1680A0A4809C1F38E
:10252000C40102F4784200F4FC6002430A439A6357
:10253000034AECE700B00240090001000123020059
:102540000123030008B50B280BD8DFE800F00612C2
:10255000100A0A0A0A0808080808022008BD05200F
:10256000FCE7054B6F21054A054833F0E9FB0020E5
:10257000F4E70120F2E700BF2B740308DC740308C2
:10258000917403082DE9F04191F81D800C464046F6
:10259000FFF7D8FFA77F05463846FFF7D3FF06466B
:1025A0003846FFF775FFA18A628B434B521A1A64B3
:1025B0009A61228B521A1A61E28A586342EA0142F6
:1025C00021695A646268D963DA602068802828D05B
:1025D000227F0FD8202866D0402864D004281AD043
:1025E00045EA0265344BB84545F40035DD6160D0FD
:1025F000324A44E0B0F5807F04D0B0F5007FEFD1DF
:102600002F4800E02F4840EA0262DA61E2681A626D
:102610005E62596132E045EA026242F40032DA61F8
:10262000F6E7A068021DDA62227F45EA026545F4FA
:102630000035DD615E625961017841B1012921D027
:10264000214B4FF48D71214A214833F079FBDA692F
:10265000418822F47F42013922F0100242EA01222D
:102660000121DA61144BDA6942F02002DA61DA6999
:102670009206FCD410229A600029B9D0154A1A603B
:10268000BDE8F081B2F1FF01DA69408822F47F42AF
:1026900018BF0121013822F0100242EA002242F064
:1026A0001002DA61DEE745EA0262034B42F40032CF
:1026B000B5E742F20132E2E700B002400123010037
:1026C000090002000A00020026750308407503088D
:1026D0009174030801230200024B1B6858680368C9
:1026E0005B6918477C75012070B504460A4B0C30B5
:1026F00000262546602260602672667245F8203BFF
:10270000294618F0A5FD04F55A63EE6024359D4274
:10271000FBD1204670BD00BFF0A60308034B1A682A
:10272000D207FCD423229A60704700BF00B0024059
:10273000094B5A69D2030AD5BFF34F8F08440029C9
:10274000A0EB010204DCBFF34F8FBFF36F8F704724
:102750002039C3F86822F2E700ED00E030B5104CF4
:102760002568ED07FCD423250904FF2BA56041F063
:1027700001014FF0020565636164E0630AD0094915
:10278000656241EA0363E361074B22626061E060D6
:10279000236030BDE561039BA363044BF8E700BFF2
:1027A00000B0024009000100010002000100030026
:1027B00030B50F4C2568ED07FCD423251204FF2B00
:1027C000A56042F001024FF0020565636264E063B8
:1027D000E16008D01B0643F00213E361054B65621C
:1027E0006061236030BD044BE3610123F9E700BF62
:1027F00000B0024001000200020002FF30B50B4CA5
:102800002568ED07FCD4232512041B06A56042F0C1
:102810000102022543F4003365636264E063E16012
:10282000E361034B65626061236030BD00B002402C
:10283000010002004069704790F844007047036B44
:1028400023B9C06A003818BF0120704701207047C3
:1028500080687047043010B50C460FC884E80F003C
:1028600010BD704708B5034A40F21221024B0348DD
:1028700033F066FA7E7503086D900308D975030876
:1028800010B50446482131F0DDFD204610BD0000A2
:102890002DE9F0431D46ADF51F7D436B06460F46FF
:1028A0009046BDF89842002B35D0002203A8DFF8EF
:1028B000A490CDE901320FF0C3F94FF4F472502126
:1028C000249024A809F071F94246394624A80AF058
:1028D000BBF8012124A809F063FA022324A88DF88B
:1028E000D83009F0FEFA2B9B419AA342BDF89C72A6
:1028F00028BF23469742A4EB030428BF174603EBE7
:1029000043086400479B9F4209D824A809F06AFA4B
:1029100024A809F097F90DF51F7DBDE8F083012289
:1029200001A924A809F026FB736B03EB0800984269
:1029300001D82544E6E759789A78C90009EA0222C5
:1029400001F4FC610A4313F8031B42EAD10225F8A3
:10295000022BECE700F8FFFF0A4A02600022C0E900
:102960000522C0E90722C0E90922C0E90B22C0E91B
:102970000D12C0E90F2280F84420C0E90322C0E90B
:102980000122704740A7030810B40C4611461A46AE
:10299000036B3BB1036C806BE41A20445DF8044B7D
:1029A00033F094BCC06AF8E7036B10B573B1036CE5
:1029B000826BC91A5318525C98785C780004DB78F3
:1029C00040EA0420104340EA036010BDC36A58582F
:1029D000FBE7036B43B1036CC91A836B5A18585C4D
:1029E000527840EA02207047C36A585A7047000084
:1029F00070B50446006B0D461646D8B1E36B9342A2
:102A000008D209230D4A65210D4884F844300D4B46
:102A100033F096F90368DB689847206B3246A16B68
:102A200003681B69984710B90D2384F84430A06BE4
:102A3000256470BDE06A0844FBE700BF43760308E5
:102A4000D9750308307603082DE9F8434369044635
:102A50002BB9234BAA21234A234833F071F90822CA
:102A60008169FFF7C5FFA16943F2300646F264377A
:102A700004312046FFF798FFA3691844A36A00F1C8
:102A800008029A4206D3012300206361236AA361EE
:102A9000BDE8F883636909300822013320F00101A1
:102AA00020466361A161FFF7A3FFD4F81890204688
:102AB0004946FFF78EFF09F1020180462046FFF7E5
:102AC00088FF09F1040105462046FFF76DFFB04578
:102AD000D2D1BD42D0D10028CED00120D8E700BF4E
:102AE00085760308CE760308D97503082DE9F04FE3
:102AF0000446ADF51F7D8A46164681690822984630
:102B0000FFF776FFA7692046391DFFF74DFF07F154
:102B10000801024605462046FFF76AFF636B074639
:102B200033B93C4B40F2AB113B4A3C4833F008F917
:102B3000002203A8CDE901320FF082F84FF4F472BD
:102B40005021249024A809F030F82A46394624A8B8
:102B500009F07AFF012124A809F022F9022324A810
:102B60008DF8D83009F0BDF9BAF90250479BAB4255
:102B700029D3BAF900904FEA4808BAF804702B9BA1
:102B800008FB05664F44BAF80250DFF894B03FB234
:102B90009F4228BF1F46BAF8063009EB490A1D4478
:102BA000419B2DB29D4228BF1D46479B9D4210D898
:102BB00024A809F017F924A809F044F801200DF51C
:102BC0001F7DBDE8F08F012201A924A809F0D2F9E8
:102BD000CCE7012201A924A809F0CCF9626B49468F
:102BE0005244B94202F1030201D34644DDE712F830
:102BF000020C12F8013CC0000BEA032300F4FC6055
:102C0000034312F8030C43EAD00326F811300131D4
:102C1000E7E700BF0177030857770308D975030872
:102C200000F8FFFF0129036838BF0121DB6A70B596
:102C30000D4604469847A84204D223682046DB6A22
:102C4000984705466B1EE6691022204606EB0316E0
:102C500006F10801FFF7CCFE06F110012046FFF750
:102C6000A3FE236A043B0344C4E9055370BD00007E
:102C7000002148222DE9F0410446816180F844108A
:102C8000FFF7B6FEA6690423624A31462046FFF7E5
:102C90007BFE40B10323604AF22184F844305F4B4D
:102CA0005F4833F04DF806F1080104235D4A2046E1
:102CB000A161FFF769FE30B10423574AFA2184F875
:102CC0004430594BECE706F10C010423574A2046E7
:102CD000A161FFF759FE074638B105234E4A40F27D
:102CE000011184F84430524BDAE706F11001204616
:102CF000FFF75AFE054620B94E4B40F20711464AEF
:102D0000CEE706F1140804234B4A20464146FFF75C
:102D10003BFE002849D0062384F844300423474A68
:102D200006F118012046FFF72FFE00283FD00723A9
:102D300084F844304544424F0C2220462946FFF790
:102D400057FE05F1080604233A4620463146FFF7B0
:102D50001BFE94F84430002848D0002B48D1A36AC9
:102D6000AB4249D805F10C0304352046A36129463E
:102D7000FFF71AFE3044294660622046FFF714FE32
:102D80000644042220463146FFF732FE04232D4A32
:102D900031462046FFF7F8FD002838D10123E661CF
:102DA0006361A3692362BDE8F0810127B6E7002FC4
:102DB000C0D006F120012046FFF7F6FD4FF47A73EC
:102DC00006F13001B0FBF3F060602046FFF7ECFD48
:102DD00006F14001A0602046FFF7E6FD06F1440140
:102DE000E0602046FFF7E0FD2061A3E7002BB9D0AB
:102DF0000A2384F84430D6E7291D2046FFF7D4FD86
:102E000085190C2220462946FFF7F2FD99E70B238E
:102E1000EFE700BFB1770308CF770308B677030861
:102E2000D9750308FC7703080178030819780308AB
:102E30001E780308347803084078030845780308AF
:102E40004A7803084F780308C0E90A210022026388
:102E5000FFF70EBF10B5002304460846E3620B6877
:102E600021639B689847A0622046BDE81040FFF7A9
:102E7000FFBE70B4BDF80C50BDF810602AB123B18C
:102E8000CDE9035670BCFFF703BD70BC704700006E
:102E90002DE9F04F9946436985B004460F469046A8
:102EA0002BB9294B7721294A294832F049FF0822BA
:102EB0008169FFF79DFDA66920463146FFF789FD30
:102EC000B11C83462046FFF784FD311D8246204613
:102ED000FFF76AFD06F10801A36A05460A189A423F
:102EE00026D243F230039B4517D146F264339A450C
:102EF00013D190B10246A1612046FFF779FD0E9BE8
:102F000001462A462046CDF80080CDE901933B4694
:102F1000FFF7AFFF636901336361A3692B4405B910
:102F200008330133626A23F001039342A36109D19C
:102F3000012301206361236AA36180F0010005B0D1
:102F4000BDE8F08F0020F8E7857603085478030881
:102F5000D9750308012070470C2070470C2303FB30
:102F60000100083070470C2303FB01000830704754
:102F70000120704742F26010704742F2601303FB79
:102F800001000830704742F2601303FB0100083073
:102F90007047012070471020704700EB0110083087
:102FA000704700EB011008307047084600F098BEEB
:102FB000034B10B50446036015F044FE204610BDD7
:102FC000E8A7030810B50446FFF7F2FF14212046D6
:102FD00031F038FA204610BD034B10B504460360AB
:102FE00015F030FE204610BDB4A7030810B5044606
:102FF000FFF7F2FF42F26811204631F023FA204633
:1030000010BD0000034B10B50446036015F01AFE16
:10301000204610BD80A7030810B50446FFF7F2FF55
:103020001821204631F00EFA204610BD094B10B58C
:103030000446036000F506501430FFF7B9FF04F1B1
:103040002C00FFF7C9FF04F11400FFF7DBFF204657
:1030500010BD00BF1CA8030808B50248FFF7E6FF33
:1030600008BD00BF7C16002010B50446FFF7DEFF48
:1030700042F20831204631F0E5F9204610BD00004B
:103080002DE9F34100F048FD0024054600F048FD1D
:103090002346014622462846009422F00FF9284B89
:1030A000284A2046284D1A6003F0BEF9274B284ACB
:1030B00028489A6022F06AF82B68BFF35B8FDB0721
:1030C00037D4284631F0C0F998B3234C234B04F190
:1030D000140004F12C08236000F506576060C4F862
:1030E000088007F11806E760266115F0ADFD1C4B5E
:1030F0004046636115F0A8FD1A4B3846E36215F0AF
:10310000A3FD04F50053184A03F5D470C3F89421C5
:1031100003F0CAFB224607F11401304603F0BAFB64
:10312000304600F0DDFD114832F028FE284631F02F
:1031300097F90F4802B0BDE8F041FFF70DB800BFA6
:10314000E07501202808002078160020480800209B
:103150002C0800200C0000207C1600201CA803086E
:1031600080A70308B4A70308E8A70308593000089C
:10317000A407002070470000014817F080B900BF85
:10318000A407002070B5264E264B274C3046274D0D
:103190002360FFF7A9FA284627F0A2F924481FF078
:1031A00087FA244B00224FF4807123481A8683F853
:1031B00058205A6683F870205A67DC60C3E91212FF
:1031C0001E49C3E91A121E49C3E91E011D491E48C2
:1031D000C3F880101D490B604FF4F071C3E904225D
:1031E000C3E90622C3E90822C3E90A22C3E90E2281
:1031F000C3E91022C3E91422C3E91722C3E9016518
:103200000180134883F8342001804FF488711148FD
:1032100001801148018011490A70114A1A6070BD7D
:10322000D4080020ECA503087416002048080020EC
:103230002C080020A407002000000101010000016B
:103240000004440016001400707501207C750120F4
:103250007675012072750120787501207475012042
:1032600004A603080148FFF7F7B800BFD408002000
:103270000020704781807047C1807047018170478E
:10328000418170477047704770477047704710B46E
:10329000C4880368121B84885B6D091B12B25DF839
:1032A000044B09B218474FF6FF7383814FF0FF3389
:1032B00003621368C36110607047002070478B88F9
:1032C000838001207047704780F82610704790F87F
:1032D0002600704710B50022B1F90840B1F90A1074
:1032E000028042808480C18010BD00220280428022
:1032F0008280C28070470177704780ED080A70476E
:1033000080F82410704780F825107047012070471E
:10331000983070478C3070478430704770477047E2
:1033200070470000034B902283F85A2383F85823F8
:10333000704700BF00E100E0094A0A49D3680A4823
:10334000C3F30A03013B9BB20B801169C1F30A016D
:10335000013901801364536B43F0010353637047D9
:10336000006801408639002084390020014BD3F8E1
:10337000AC00704700680140024B0122C3F8AC105A
:103380005A62704700680140124A5369DB0370B506
:103390001ED50023C2F88430BFF34F8FD2F880309F
:1033A00043F6E074C3F3C900C3F34E335B0103EA91
:1033B0000406014646EA81750139C2F87452F9D211
:1033C000203B13F1200FF2D1BFF34F8FBFF36F8F6C
:1033D00070BD00BF00ED00E070473823002201FB04
:1033E0000333C25490F838300BB9036C83647047D0
:1033F000704780F84C10704710B504462C2131F00E
:1034000021F8204610BD10B50446582131F01AF8B5
:10341000204610BD10B50446BC2131F013F82046FB
:1034200010BD000038B5044617F015F823689D6EEE
:103430001DF086FE01462046A8472368084A20461C
:10344000D3F88C500023A2F57F31A847054B064ADC
:103450005A60064A1A649A644FF4FF225A6438BDCF
:1034600000F807C0483A0020A03A002000F40BC042
:1034700016F0D8BF16F0E2BF16F09DBF17F01FB9C7
:1034800090F8252012B103685B6918477047000067
:1034900008B531B1044B40F29711044A044832F0A8
:1034A0004FFC90F8390008BDAF780308C3780308D3
:1034B000507A030810B531B1064B40F29111064A1B
:1034C000064832F03DFC406811460368BDE81040F4
:1034D0001B6B1847AF780308927A0308507A0308E9
:1034E00008B529B1034B7A21034A044832F028FC7D
:1034F000006908BDAF780308437C0308507A0308CD
:1035000008B529B1054B8321054A064832F018FC5D
:1035100041618160C0E9063208BD00BFAF78030891
:10352000FB7D0308507A030810B5044629B1274BE8
:10353000A421274A274832F003FC052A34D8DFE8C3
:1035400002F003292F34393E406803681B6998470D
:1035500050B34FF0FF31606D06F0F6F80023012202
:1035600094F83E1084F83B3084F83920A3606361FE
:1035700001B1226284F83E306362E36A2BB9012311
:10358000206D84F83A3006F0CFF9606DBDE8104048
:1035900006F00AB9002380F8393084F83E3003E0A1
:1035A000036200238360436110BD036200238360D4
:1035B0004361F2E7002380F839300123EDE7003B57
:1035C00018BF012380F83D30EEE700BFAF78030855
:1035D000BA7F0308507A030890F825201AB190F8B2
:1035E000242002B11860704770B50446164629B110
:1035F000314BE721314A324832F0A2FB90F83930A2
:1036000033B1304B1B6893F86B204369134443611B
:10361000E36A002B4DD0E169D4E905325343A26837
:103620004A43934220D2236A002B42D04FF0FF310D
:10363000606D06F089F8236A0BB10023E362E36A48
:10364000FBB90125606D06F0AFF894F839300BB97D
:10365000236A3BB1E36A2BB90123206D84F83A3029
:1036600006F062F9284670BD94F84C000028DDD0C1
:103670009B1AB3FBF1F2994298BF02F1FF326262EA
:10368000D4E7002294F83C50A3623046E262E2683C
:103690002261A2680132A260336333685B69984794
:1036A000002DCED194F83D30002BCBD184F8395089
:1036B000C8E70125C9E700BFAF7803089181030877
:1036C000507A03087C750120034B4FF080629A60AA
:1036D0004FF080729A60704700E100E0084B4FF0B5
:1036E0008062C3F88820BFF34F8FBFF36F8F4FF016
:1036F0008072C3F88820BFF34F8FBFF36F8F70477E
:1037000000E100E038B5034690F8380038BB0122EC
:103710009860D8609A634FF4807258619A874FF42A
:10372000F0729861D861186258629862D862186322
:10373000586383F83E00CA864FF4887281F83400DB
:103740000A8708639A6C186102F5FF24D3E9101503
:1037500029448C420AD9084B5821084A03E0084BF7
:1037600040F2F511074A084832F0EAFA1A6302F506
:103770007F329C645A6338BDEF8403082F850308A9
:103780003583030865830308507A0308002370B566
:10379000124E05468380124B0360336893F858201D
:1037A0000AB1D86C00B998680368DB6A9847336837
:1037B000B0FA80F4D86C640930B10368DB6A9847CA
:1037C000002808BF44F001042CB9064B2C21064AFE
:1037D000064832F0B5FA284670BD00BF7C7501205E
:1037E00030A80308D5860308338703086C870308CD
:1037F00070B5254E3568BFF35B8F15F0010540D1DC
:10380000304630F021FE00283BD0204C204B04F104
:1038100034002561E584A562A585C4E90035C4E9C5
:1038200002551FF02AFA04F1580019F0C9F9194B92
:103830002046A365184B40F8843BFFF7A7FF174BC2
:103840001748C4F884302433C4F89050C4F88C303E
:103850004FF4C803C4F89C50C4F8A850C4E92835F4
:103860000023C4F8AC30C4F8B030C4F8B430C4F8A5
:10387000B8300C4BC4F8983032F080FA304630F053
:10388000EFFD024870BD00BF883900208C39002050
:1038900064CA030850A80308C8A8030818CA030884
:1038A00021330008F8C9030838B5184C23685BB306
:1038B000174B184A1B6C11888B4216D1164B0025EA
:1038C000198804F021FC236893F86A2083F87C505F
:1038D000013283F86A20FEF769FD206817F04AFB81
:1038E0002846BDE83840FEF763BB04F00DFC2468B1
:1038F000236820461B6A98470123002084F87C3007
:10390000BDE83840FEF784BB38BD00BF7C750120A0
:103910000068014086390020843900202DE9F743F2
:1039200004464FF4707894F83A304FF0FF31002B92
:1039300031D0606D05F008FF276BA36ABB4200D150
:10394000676B266A656856B32B68314628465B6A02
:1039500098470023236284F83B30606D05F024FF14
:103960002B684FF4F0723946CDF8008028465E6926
:103970004FF48873B0474FF0FF310646606D05F095
:10398000E3FE94F83B30E3B1002384F83B30606DF4
:1039900005F00AFFC7E7206D05F08AFFC3E7636AF9
:1039A000002BDAD02B682846D3E909939847616A3F
:1039B00001442846C847A368626A66621344A3604C
:1039C000CBE7E7625EB12B6828469B6A98470138CF
:1039D0000023E06084F83C6084F83A30D7E70120A7
:1039E000F6E70000014808B5FFF798FF483A0020C5
:1039F0000368042270B504465E6A00230D46B04792
:103A00004FF0FF31606D05F09FFE382303FB054248
:103A1000D16A09B10021D16203FB0545012385F874
:103A20003B30002385F83930606DBDE8704005F00B
:103A3000BBBE38B500EB810304460D4611465868FD
:103A40000368DB68984729462046FFF7D1FF38BD59
:103A500070B50D461146044600EB850250680268B9
:103A600096681A46B04729462046FFF7C1FF70BD49
:103A700038B5164900251648FEF76EFF154C164B53
:103A800001202A46294623604FF48073A564A3874A
:103A900084F84C0084F83E50C4E91055C4E914552C
:103AA000C4E90155C4E90355C4E90555C4E90755FE
:103AB000C4E90955C4E90B55C4E90D5505F0A0FE4C
:103AC0002065284605F0FCFD606538BDE83A002019
:103AD000A03A0020483A002014A90308704710B506
:103AE0000446042130F0AEFC204610BD08B5032981
:103AF0000FD8DFE801F00A02060A02F0E1FC406894
:103B000008BD02F0DDFC8068FAE702F0D9FC00682D
:103B1000F6E70020F4E700000048704760A90308BA
:103B20000920704713B5002451B1036801AA01941C
:103B30008DF803409C680DF10303A04702B010BD4F
:103B40000846FBE7C0897047008A7047C088704705
:103B500080887047807A00F07F007047807AC009C3
:103B600070470020704700009FED010A704700BFBA
:103B700000000000704710B50446082130F062FCD8
:103B8000204610BD7047704700F598730868496873
:103B900003C3704770477047416070477047704774
:103BA000064BC0F84801C0F84C310023C0F8503132
:103BB00000F5A273C0F84031704700BFDD3F000838
:103BC000012303727047704710B441680346C2680E
:103BD0009B68541001EB6200D20748BF0A595DF898
:103BE000044B48BFD35818470346406830B19A6821
:103BF0001AB9D86800F0010070470120704710B56D
:103C000004460C2130F01EFC204610BD10B50446C1
:103C1000102130F017FC204610BD10B504464FF4BB
:103C2000AE7130F00FFC204610BD10B51DF088FAC3
:103C30000368BDE81040DB6B184710B50446D0F8A8
:103C4000400158B10368DB68984738B1D4F84001A7
:103C500003689B6898470023C4F8403110BD0000FA
:103C6000044B1B6893F858200AB1D86C00B99868C7
:103C7000704700BF7C750120F8B5174604460E4614
:103C80001DF06EFB124B00251C602946114B236072
:103C9000114BC4E95135114B1868C4E953550368F9
:103CA000C4E94F559B68C4E955769847284602F009
:103CB000BBFBFFF7D5FF28F0BEFAFFF7D1FF28F0D6
:103CC00035FBFFF7CDFF28F03DFB2046F8BD00BFD8
:103CD000D075012044AA03082CAA03087C75012092
:103CE000064BC0F84801C0F84C310023C0F85031F1
:103CF00000F5A273C0F84031704700BFDD3F0008F7
:103D0000064BC0F84801C0F84C310023C0F85031D0
:103D100000F5A273C0F84031704700BF953E00081F
:103D2000064BC0F84801C0F84C310023C0F85031B0
:103D300000F5A273C0F84031704700BF493D00084C
:103D400003685B6A184700002DE9F14FD0E9556A16
:103D50000746B06803681B6A984742F25F139842AF
:103D600005D8444BA321444A444831F0E9FF706828
:103D700003681B6A98470F2803D8414BA4213E4A89
:103D8000F2E7F06803681B6A98470B2803D83D4B9D
:103D9000A521394AE8E7DFF8F4901DF0D1F90430A5
:103DA0001DF00CFAD9F8000010B10368DB689847E1
:103DB000D9F8000010B103681B689847DFF8D0807D
:103DC000D8F8000010B103685B699847D7F83C0148
:103DD00010B103685B689847D8F8000010B1036819
:103DE0001B689847D7F83C0110B103689B68984757
:103DF0000021F068FFF7A4FF4FF0000B224B0446B0
:103E0000C0F804B0594680F808B00360B068036891
:103E10005B6A9847054602F0D9FE70685946036808
:103E20005B6A98470646294602F0AEFE331DC7F886
:103E30003C612846C9F80040C8F80050CAF8003074
:103E40002B68C6F808A0DB68EE63984733683046F5
:103E50001B689847214628461FF040FC23682046EF
:103E60001B699847236820465B6901B0BDE8F04FA5
:103E7000184700BFCE8703085C8803082E89030813
:103E800075890308188A030898AA0308C4750120D5
:103E9000C07501202DE9F14FD0E9556A0746B06899
:103EA00003681B6A9847B0F5BE6F05D2434BA32148
:103EB000434A444831F044FF706803681B6A9847DE
:103EC0000F2803D8404BA4213D4AF2E7F06803686D
:103ED0001B6A98470B2803D83C4BA521384AE8E7D2
:103EE000DFF8F0901DF02CF904301DF067F9D9F8D7
:103EF000000010B10368DB689847D9F8000010B1E2
:103F000003681B689847DFF8D080D8F8000010B12C
:103F100003685B699847D7F83C0110B103685B6898
:103F20009847D8F8000010B103681B689847D7F885
:103F30003C0110B103689B6898470021F068FFF7C7
:103F4000FFFE4FF0000B224B0446C0F804B0594668
:103F500080F808B00360B06803685B6A984705465C
:103F600002F0A4FD7068594603685B6A98470646EC
:103F7000294602F021FD331DC7F83C612846C9F8E7
:103F80000040C8F80050CAF800302B68C6F808A0F6
:103F9000DB68EE639847336830461B6898472146D4
:103FA00028461FF09BFB236820461B69984723681F
:103FB00020465B6901B0BDE8F04F1847CE87030883
:103FC000BB8A03082E89030875890308188A030829
:103FD00098AA0308C4750120C07501202DE9F14F8E
:103FE000D0E9556A0746B06803681B6A9847B0F580
:103FF0004F6F05D2434BA321434A444831F0A0FE02
:10400000706803681B6A98470F2803D8404BA421A7
:104010003D4AF2E7F06803681B6A98470B2803D80B
:104020003C4BA521384AE8E7DFF8F0901DF088F80E
:1040300004301DF0C3F8D9F8000010B10368DB6844
:104040009847D9F8000010B103681B689847DFF85B
:10405000D080D8F8000010B103685B699847D7F8A2
:104060003C0110B103685B689847D8F8000010B1B4
:1040700003681B689847D7F83C0110B103689B6838
:1040800098470021F068FFF75BFE4FF0000B224BD2
:104090000446C0F804B0594680F808B00360B06820
:1040A00003685B6A9847054602F052FC70685946FF
:1040B00003685B6A98470646294602F01FFC331DD9
:1040C000C7F83C612846C9F80040C8F80050CAF853
:1040D00000302B68C6F808A0DB68EE6398473368A9
:1040E00030461B689847214628461FF0F7FA236898
:1040F00020461B699847236820465B6901B0BDE8EC
:10410000F04F1847CE8703088D8B03082E890308CC
:1041100075890308188A030898AA0308C475012042
:10412000C0750120406A7047806A704770470B88ED
:104130008A889BB2D20A10B54C88C16943EA04430D
:1041400051F82200184410BD10B50446BAB1107BD6
:1041500068B1537BD27A1B0203F4E0631A43236AEB
:1041600003EB82031A888A4202D193F9020010BD40
:1041700005D80138043380B20028F3D1F7E70020D6
:10418000F5E710B504462C2130F05CF9204610BD4F
:1041900030B58BB00446BDF860500895BDF85C5052
:1041A00007959DF8505006959DF84C5005959DF843
:1041B000485004959DF8445003959DF84050029551
:1041C0009DF83C500195BDF8385000951EF012FE48
:1041D000064B20462360159BE361169B2362199BC7
:1041E00063621A9BA3620BB030BD00BFBCAA030878
:1041F000806A70477047704770477047704780F813
:104200002C10704710B40368046BD3F8A4306243D9
:1042100061435DF8044B1847D0ED0C7A0368F8EE63
:10422000E77A10B420EE270AD3F8A440B5EEC00A0E
:10423000F1EE10FA1ADBB6EE007A30EE070ABDEEA8
:10424000C07A17EE101A60EEA70AF5EEC00AF1EE7A
:1042500010FA1EDBF6EE007A70EEA70AFDEEE07AA9
:1042600017EE902A23465DF8044B1847BDEEC07A3E
:10427000F8EEC76A17EE103A013B30EE660AF7EE29
:10428000086A30EE260ABDEEC00A10EE101A194474
:10429000D9E7FDEEE07AB8EEE77A17EE903A013B07
:1042A00070EEC70AB7EE087A70EE870AFDEEE00AF4
:1042B00010EE902A1A44D5E710B40368046BD3F8C3
:1042C000B03062435DF8044B1847D0ED0C7A0368B8
:1042D000F8EEE77A10B427EE800AD3F8B040B5EED6
:1042E000C00AF1EE10FA0BDBF6EE007A30EE270A88
:1042F000FDEEC07A17EE902A23465DF8044B18476E
:10430000FDEEC07AB8EEE77A17EE903A013B30EE58
:10431000470AB7EE087A30EE070ABDEEC00A10EE83
:10432000102A1A44E8E710B40368446BD3F8BC3091
:10433000624361435DF8044B1847D0ED0D7A036882
:10434000F8EEE77A10B420EE270AD3F8BC40B5EEB9
:10435000C00AF1EE10FA1ADBB6EE007A30EE070A68
:10436000BDEEC07A17EE101A60EEA70AF5EEC00A8D
:10437000F1EE10FA1EDBF6EE007A70EEA70AFDEE03
:10438000E07A17EE902A23465DF8044B1847BDEEFD
:10439000C07AF8EEC76A17EE103A013B30EE660AB3
:1043A000F7EE086A30EE260ABDEEC00A10EE101ACB
:1043B0001944D9E7FDEEE07AB8EEE77A17EE903AC5
:1043C000013B70EEC70AB7EE087A70EE870AFDEE81
:1043D000E00A10EE902A1A44D5E710B40368446B43
:1043E000D3F8C03062435DF8044B1847D0ED0D7A26
:1043F0000368F8EEE77A10B427EE800AD3F8C040DD
:10440000B5EEC00AF1EE10FA0BDBF6EE007A30EEF4
:10441000270AFDEEC07A17EE902A23465DF8044B7A
:104420001847FDEEC07AB8EEE77A17EE903A013BF6
:1044300030EE470AB7EE087A30EE070ABDEEC00A42
:1044400010EE102A1A44E8E7D0F82C31026B002B4A
:1044500007DB02EB430090FBF2F000EBD070401062
:1044600070476FF0010101FB0320013890FBF2F06F
:1044700000EBD070401040427047D0ED4B7A90ED89
:104480000C0AF8EEE77AB8EEC00A87EE800A7047A9
:10449000D0F82C017047D0F83031026B002B07DBCD
:1044A00002EB430090FBF2F000EBD070401070473D
:1044B0006FF0010101FB0320013890FBF2F000EBEB
:1044C000D070401040427047D0ED4C7A90ED0C0A0D
:1044D000F8EEE77AB8EEC00A87EE800A7047D0F8A7
:1044E00030017047D0F83431426B002B07DB02EB10
:1044F000430090FBF2F000EBD070401070476FF07B
:10450000010101FB0320013890FBF2F000EBD070B9
:10451000401040427047D0ED4D7A90ED0D0AF8EE14
:10452000E77AB8EEC00A87EE800A7047D0F8340107
:104530007047D0F83831426B002B07DB02EB4300A9
:1045400090FBF2F000EBD070401070476FF001016B
:1045500001FB0320013890FBF2F000EBD07040101B
:1045600040427047D0ED4E7A90ED0D0AF8EEE77AB2
:10457000B8EEC00A87EE800A7047D0F8380170475D
:10458000036870B50446D3F888300D461646984740
:104590002368324629462046D3F89030BDE8704063
:1045A00018470368D3F8943018470368D3F8D43019
:1045B00018470368D3F8E03018470368002A10B49E
:1045C000D3F8A430046B0EDB04EB420292FBF4F14F
:1045D00001EBD1714910B0F91E215DF8044B013A8D
:1045E0000A44494218476FF0010101FB02410139B9
:1045F00091FBF4F101EBD17149104942EBE70368FB
:10460000D3F83C311847026B03685143D3F8483163
:1046100018470368D3F844311847D0ED0C7A036883
:10462000F8EEE77AD3F8482127EE800AB5EEC00A03
:10463000F1EE10FA08DBF6EE007A30EE270AFDEE16
:10464000C07A17EE901A1047FDEEC07AB8EEE77AFE
:1046500017EE903A013B30EE470AB7EE087A30EE9B
:10466000070ABDEEC00A10EE101A1944EBE7C0F8B5
:104670003C1170470368D3F850311847036810B5F0
:10468000D3F85C31044698470028236B07DB03EB23
:10469000400090FBF3F000EBD070401010BD6FF0C5
:1046A000010202FB0030013890FBF3F000EBD07008
:1046B00040104042F2E70368D3F8583118470368C6
:1046C00010B50446D3F85C31984707EE900A94ED94
:1046D0000C0AF8EEE77AB8EEC00A87EE800A10BD41
:1046E000D0F83C017047026B03685143D3F868313E
:1046F0001847D0ED0C7A0368F8EEE77AD3F8682112
:1047000027EE800AB5EEC00AF1EE10FA08DBF6EEED
:10471000007A30EE270AFDEEC07A17EE901A1047A5
:10472000FDEEC07AB8EEE77A17EE903A013B30EE34
:10473000470AB7EE087A30EE070ABDEEC00A10EE5F
:10474000101A1944EBE7C0F840117047036810B520
:10475000D3F87431044698470028236B07DB03EB3A
:10476000400090FBF3F000EBD070401010BD6FF0F4
:10477000010202FB0030013890FBF3F000EBD07037
:1047800040104042F2E7036810B50446D3F8743194
:10479000984707EE900A94ED0C0AF8EEE77AB8EE27
:1047A000C00A87EE800A10BDD0F840017047084665
:1047B000704703680029026BD3F8843110B50446B2
:1047C0000EDB02EB410191FBF2F101EBD1714910DB
:1047D00009B220469847D4E94F2302FB003010BDB0
:1047E0006FF0010000FB0121013991FBF2F101EBB7
:1047F000D17149104942EBE7006B7047406B70473D
:104800000368D3F8483118470368D3F85C31184778
:10481000026B03685143D3F814311847036870B52D
:10482000D3F818510446D0F84461D3F88031984742
:104830002B4656F820102046BDE870401847D0F8A7
:104840004831B0F91E011944081A7047C162704717
:10485000C06A70470120704770477047C06B18B13D
:104860000368D3F880301847704730B5B2F81A1192
:10487000B2F91441B2F940502144B2F842204480C8
:10488000521A002185800180C28030BD10B542805F
:10489000BDF90840BDF90C2004808280C38010BDA2
:1048A0000B680846D3F8D43018470B680846D3F88D
:1048B000E0301847B1F914017047B1F81431B1F87C
:1048C0001A21B1F842001344C01A00B27047B1F97E
:1048D00016017047B1F81631B1F81821B1F840004F
:1048E0001344C01A00B270470B6808461146D3F84B
:1048F0001431184730B5B2F91651B2F81841B2F870
:1049000040102C44B2F942200580091B0024C280CB
:104910004480818030BD02808380BDF90020BDF9D4
:1049200004304280C38070470B680846D3F8EC30EF
:1049300018470B680846D3F8F8301847B1F9160144
:104940007047B1F81631B1F81821B1F8400013449E
:10495000C01A00B27047B1F914017047B1F81431B0
:10496000B1F81A21B1F842001344C01A00B27047DE
:104970000B6808461146D3F81831184730B585B092
:104980000368044601816D460146D3F884303C3407
:104990002846984795E8070084E8070005B030BD31
:1049A00030B585B00368044641816D460146D3F8B1
:1049B00084303C342846984795E8070084E807008F
:1049C00005B030BD0022028042808280C2807047E4
:1049D00080F836107047036870B504461B6B1546A7
:1049E00098472368204629465B6EBDE8704018470B
:1049F00000207047806C7047704770477047704761
:104A00007047000038B5084B04464FF4C675036084
:104A100015F1C00F05D063596019C43D1B68984754
:104A2000F6E7204638BD00BF24AF030838B5084B71
:104A300004464FF4BE75036015F1B80F05D06359F5
:104A40006019BC3D1B689847F6E7204638BD00BF9B
:104A50003CAF03087047704770470000064B10B525
:104A60000446036000F63820FFF7E0FF04F5E56038
:104A7000FFF7C8FF204610BD84AF03082DE9F041C1
:104A80001E4600F5E56304460D46994217460AD1D5
:104A90000B68284611469B689847236801463246B2
:104AA000DB6A2046984704F638239D420CD12B68D8
:104AB000394628469B689847236801463246204677
:104AC0001B6BBDE8F0411847BDE8F081032070473B
:104AD0000320704730B444680346C2689B68551091
:104AE00004EB6200D20748BF625930BC48BFD358BC
:104AF00018470346406830B19A681AB9D86800F080
:104B00000100704701207047F0B446680446C5684C
:104B1000A4686F1006EB6500ED0744BFF5592C59EA
:104B2000A446F0BC60470346406830B19A681AB9A1
:104B3000D86800F0010070470120704710B50446A6
:104B4000FFF760FF4FF4147120462FF07BFC2046E6
:104B500010BD10B50446FFF769FF4FF40E712046F3
:104B60002FF070FC204610BD10B504464C212FF0EC
:104B700069FC204610BD10B5044640F26C412FF090
:104B800061FC204610BD10B5044640212FF05AFCB0
:104B9000204610BD10B5044640212FF053FC20469E
:104BA00010BD10B5044610212FF04CFC204610BD5E
:104BB00010B5044610212FF045FC204610BD10B55D
:104BC0000446FFF74BFF4FF44F6120462FF03AFCAD
:104BD000204610BD38B503460846D3E90C540B688F
:104BE000D3F88C309847294602462046BDE8384025
:104BF00018F0EABB38B503460846D3E90C540B68F5
:104C0000D3F894309847294602462046BDE83840FC
:104C100018F0DABB70B540F22C7540F678160446F1
:104C200000F2946014F0BCF963596019C435D3F8EC
:104C300088309847B542F7D140F63C2504F6A410D9
:104C400014F0AEF963596019BC35D3F88830984731
:104C5000B5F5476FF6D170BD08B590F82C300BB1A3
:104C6000FEF70EFC08BD08B5FEF70AFC08BD000003
:104C70000A1E10B503DBB0F91E41944206DC084B56
:104C800040F23961074A084831F05AF80368D0F811
:104C90004441D3F88031984754F8200010BD00BF3C
:104CA0005F8C0308828C0308D18C03080B1E10B59F
:104CB000044603DBB0F91E219A4206DC074B40F2A2
:104CC0003361074A074831F03BF80368D3F8843171
:104CD0009847D4E94F2302FB003010BD5F8C0308D6
:104CE0002E8D0308D18C030808B58BB2022B05D991
:104CF000054B5421054A064831F022F8C42301FB34
:104D00000300043008BD00BF7D8D0308988D0308A3
:104D1000298E030808B58BB2022B05D9054B542107
:104D2000054A064831F00CF8BC2301FB03000430AF
:104D300008BD00BF7D8D0308888E0308298E0308F7
:104D4000036870B55E6B0446114B8DB21B682BB9BE
:104D5000104B6C21104A114830F0F2FF1049828D3F
:104D60000988914203D80F4B6D210B4AF3E713F8E2
:104D700012200D4B1B6853F8220003681B6B9847E9
:104D8000291A3346204609B2BDE87040184700BFD3
:104D9000D4750120198F03085B8F0308968F0308D1
:104DA000D8750120DD8F0308DC75012038B500F5CA
:104DB000B76304460D46994203D11CF0C1F9FEF7D2
:104DC0009FFF04F2EC54A54205D11CF0B9F9BDE8EF
:104DD0003840FEF7A5BF38BD00224FF0FF3182609A
:104DE000C0E900217047036870B504461B6B154687
:104DF00098472368204629465B6BBDE870401847FA
:104E000070B504461D46BDF91060FFF7ECFF23683E
:104E1000294620469B6B9847236831462046DB6B2A
:104E2000BDE87040184700000022C0E90122C0E937
:104E30000322C0E90522C0E907224FF48072828470
:104E4000014A0260704700BF24AB030810B5044656
:104E50002622002131F032FA2046FFF7E5FF044B0D
:104E600020462360FF2384F826300023A36210BD70
:104E700084CF030837B501AB15461EF0B9F80028FA
:104E80002A4601994FEA40144FF0200004DB1EF03F
:104E9000CEF8204403B030BD1EF0C9F8201AF9E75F
:104EA00070B5B0F81A310E46B0F91441B0F842505E
:104EB0002344ED1A2DB22C44691ED0E94D32013C39
:104EC000D21AF01AFFF7D6FFC0EB441070BD38B508
:104ED00004460D46B4F81631B4F818110B44B4F872
:104EE0004010C91AD0E94B0209B2121A281A013926
:104EF000FFF7C0FFB4F9163100EB431038BD0000D6
:104F000010B504462622002131F0D8F92046FFF7DB
:104F10008BFF00232046A36284F82C30012384F801
:104F20002430044B23604FF6FF73E385238684F817
:104F3000323010BDECCF030810B504462622002104
:104F400031F0BCF92046FFF76FFF0A4B4FF47F02A8
:104F500020462360084BA3624FF6FF73A38500230E
:104F6000C4E90C324FF0FF322387E363C4E9102316
:104F700010BD00BFF4CE03081CAA03082DE9F04FB2
:104F8000044695B000251EF0FDF9A146E04BE5630F
:104F900004F1980849F8403B4846FFF757FF04F1F1
:104FA0006C03012604F5CD6A18460693FFF74EFF01
:104FB000C8214046D74F18F0A3F9D74B2946C7223E
:104FC000C4F8983004F5F273404604F6781BC4E93F
:104FD0007735C4E97565FFF715F9D04BC4F89830FB
:104FE00004F204531846079317F0EAFD0A23C4F8A5
:104FF0003055C4F83835CA4BC4F84055C4F80435A8
:1050000004F24453C4F83465184684F83C650893A8
:1050100017F0D6FD0A23C4F87055C4F88055C4F8BB
:105020007835C04BC4F87465C4F8443504F2845331
:1050300084F87C651846099317F0C2FDBA4B04F555
:10504000B762C4F8B055C4F884354FF00203104677
:105050000492A4F8B435FFF753FF04F2EC52104663
:105060000592FFF74DFF04F5C46210460292FFF768
:1050700063FF504614F028F9AC4B04F5E562C4F820
:105080006876C4F8283704F22C700A9201F0BEFD4D
:1050900004F5FE6001F0BAFD04F6B40001F0B6FDBF
:1050A000584614F011F9A24B04F63822C4F8787966
:1050B000C4F8383A04F63C200B9201F0E5FD04F602
:1050C000F820271D01F0E0FD04F6B43001F0DCFD0E
:1050D00004F5476210460392FFF72EFF954B4FF4FD
:1050E00088722946C4F8703C4846934BC4F8B85CB3
:1050F000C4F8D03C914BC4F8DC5CC4F8D83C904B6D
:10510000C4F8EC5CC4F8E03C8E4BC4F8D44CC4F852
:10511000E83C4FF4F073C4F8E44C00922A46FFF7E1
:105120006FFE4FF07F4249463846A2664FF046096F
:1051300014F0F4FB4FF488724FF4F073294606988C
:1051400000922A46FFF75CFE4FF07F4206993846F0
:10515000C4F8942014F0E2FBC82340460A220F2131
:1051600000934FF4E173FFF74BFE2A464046314669
:10517000FFF706FA2B462A4629464046009518F0C6
:1051800070F82B462A4629464046009517F090FFB6
:10519000294640464FF48272FFF7C5F8D4F834151B
:1051A00028204FF0FF3284F82A954843C4F8302570
:1051B0003246002884F83C65B8BF4042C4F8380540
:1051C00018F002F90799C4F838054046C4F8346568
:1051D00017F079FFD4F874154FF0FF3284F86A9510
:1051E000480184F87C65C4F8702532460028B8BFB1
:1051F0004042C4F8780518F0E7F80899C4F8780533
:105200004046C4F8746517F05EFF4F4B404609995D
:10521000C4F8B0354FF00203A4F8B435994617F03E
:1052200052FF4146384604F54E6814F077FBDC2205
:105230000F210498FFF7D7FD0523ADF844904FF0F8
:10524000CD0912AA11A90498ADF8483019F088FACE
:105250000499384684F8EA95C4F8E08514F05EFBBA
:10526000DB227D210598FFF7BEFD4FF0020312AA55
:1052700011A9ADF8443005230598ADF8483019F070
:105280006FFA0599384684F81E9604F54D6984F83E
:105290001156C4F814860DF1300814F03FFBE122DA
:1052A0002C210298FFF79FFD4FF0FF3302994046F3
:1052B000C4F85036A4F8545618F05AFF04F25C6350
:1052C00098E8070083E80700204B12A90298129380
:1052D0001B23ADF84C3019F0E5F90299384614F06B
:1052E0001DFB4023CE227F21504600936423FFF70D
:1052F00087FD2946504614F06EFA3146504614F0A8
:10530000C9FA1349504614F0A3F90A21504621E086
:1053100084AF030888C7030828CB03088CAD0308B3
:105320008CAB030844AC03086CCE030824AF03081D
:105330003CAF0308FCAC030854AF03087D4A0008E7
:105340006CAF0308AD4D000816BCC4FF1CAA0308CF
:10535000E936020814F07FF90A21504614F07EF96C
:105360000321504614F0F2F82946504613F0B6FED9
:105370004FF04B030F22242184F8F236504614F0EC
:1053800065F84A460A99504614F09CFA2A4629467E
:10539000504614F04BF85146384614F0BFFA4022FC
:1053A0006423EF2158460092CE22FFF729FD2946BB
:1053B000584614F010FA3146584614F06BFA3C493E
:1053C000584614F045F90A21584614F044F90A21C8
:1053D000584614F043F90A21584614F0B7F8294604
:1053E000584613F07BFE4FF04B030F22242184F824
:1053F000023A584614F02AF84A460B99584614F0D7
:1054000061FA2A462946584614F010F8594638469B
:1054100014F084FA1823E12240F259110398009302
:105420007823FFF7EDFC4FF0FF3303994046C4F8B3
:10543000A03CD4F8703CA4F8A45C04F6BC45D3F8B6
:105440008430984704F6AC4398E8070083E80700E7
:10545000184B1B682BB9184B6021184A184830F0BC
:105460006FFC184B1B88032B03D8174B6121134A81
:10547000F4E7164B0321186801F012F8144A0346AA
:105480000A2128461FF07AFC124B12A903981293A6
:105490000423C4F8B85CADF84C3019F003F9384671
:1054A000039914F03BFA204615B0BDE8F08F00BF19
:1054B000E9360208D4750120198F03081B900308F0
:1054C000968F0308D8750120DD8F0308E075012051
:1054D000D6A103081CAA030870477047704770479D
:1054E000704770477047704770477047704770B497
:1054F00045680346C4689B68661005EB6400E407D2
:1055000044BFAC59E35870BC18470346406830B1FB
:105510009A681AB9D86800F00100704701207047F6
:1055200030B444680346C2689B68551004EB6200BF
:10553000D20748BF625930BC48BFD358184703460A
:10554000406830B19A681AB9D86800F00100704715
:105550000120704730B444680346C2689B68551008
:1055600004EB6200D20748BF625930BC48BFD35831
:1055700018470346406830B19A681AB9D86800F0F5
:10558000010070470120704790F82D3080F85C30A2
:10559000704710B5044664212EF054FF204610BD1C
:1055A00010B5044610212EF04DFF204610BD10B559
:1055B000044610212EF046FF204610BD10B50446CB
:1055C00010212EF03FFF204610BD10B504464FF4C9
:1055D000BE612EF037FF204610BD0146343091F8F1
:1055E0002C3013B1623119F0F4B96031FBE710B51A
:1055F0000446006B50B10368DB68984730B1206BFC
:1056000021460368BDE810409B68184710BD00F5AF
:10561000C8728A4202D10368DB6A1847704700F5F6
:105620004673994270B504460E46154603D1036889
:1056300011461B6B984704F20C439E4206D1236827
:10564000294620469B6BBDE87040184770BD00F5A9
:105650004673994270B504460E46154603D1036859
:1056600011465B6B984704F20C439E4206D12368B7
:1056700029462046DB6BBDE87040184770BD0B79AA
:1056800070B504460D4690F82C600BB916B170BD8C
:10569000002EFCD0B3FA83F320465B0984F82C304B
:1056A0002368D3F88C309847236820465B69984775
:1056B000002EECD02B79012BE9D123682046D3F8BA
:1056C0008830BDE87040184738B500F198030446AB
:1056D0000D46994203D11BF033FDFEF701FBCC349C
:1056E000A54205D11BF02CFDBDE83840FEF718BBE4
:1056F00038BD036870B504469B6B15469847236810
:1057000020462946DB6BBDE8704018470B8870B512
:105710000546A0F860301388044625F8623F284605
:105720001FF0E0FD064628461FF010FE31460246F7
:105730002046FFF7DEFF23682046D3F88C30BDE813
:10574000704018474FF47F43F7B5838540F201134B
:105750000025064683844FF6FF771A4B044626221F
:10576000294685620563ADF80470C0E90155C0E9BA
:105770000355C0E90555C0E9075546F8343B3046A6
:1057800030F09CFD3046FFF74FFB0F4B01A9304630
:105790006363BDF8043084F85C70A4F85A3019F0E3
:1057A00018F92A4629463046A4F86070A4F86270B9
:1057B000FFF719FB2046314614F0B0F8204603B03D
:1057C000F0BD00BFC0AF030860D003082DE9F04F63
:1057D000044697B000251DF0D5FD2646DE4B04F1AA
:1057E0006C0804F19807E5634FF4887A46F8403B6B
:1057F0003046FFF72BFB4046FFF728FB3846FFF704
:105800007FFB04F1CC03DFF8709304F1040B18461E
:105810000A93FFF775FB04F5807318460593FFF7AD
:105820008BFB04F5A47318460693FFF785FB04F57C
:10583000C87318460B93FFF785FF04F5FA731846F3
:105840000793FFF779FB04F50F7318460893FFF7EA
:1058500073FB04F5217318460993FFF76DFB04F5FC
:10586000337318460493FFF767FB04F54673C4F8D7
:10587000CC921846C4F81453029314F0FDFC04F2C1
:105880000C431846039314F0F7FC04F5A063184684
:105890000C93FFF751FB04F24C53C4F800951846E3
:1058A000C4F848550D93FFF747FBAC4B3046AC4A64
:1058B0002946C4F8B035AB4BC4F84C954FF07F493E
:1058C000C4F8B835A84BC4F8D8252A46C4F8C03562
:1058D000A64BC4F89455C4F8C835A54BC4F8B445D4
:1058E000C4F8D035C4F8E035A24BC4F8BC55C4F8B0
:1058F000E8354FF4F073C4F8C445C4F8CC55C4F887
:10590000D445C4F8DC55C4F8E445C4F8EC55CDF8EA
:1059100000A0FFF775FA31465846C4F8689013F0B6
:10592000FDFF4FF4F0732A4640462946CDF800A00B
:10593000FFF766FA41465846C4F8949013F0EEFF1C
:105940004FF0020A3846052604F5B668DC220F211E
:105950004FF0CD09FFF747FA14AA384613A9ADF85E
:105960004CA0ADF8506018F0FBFE39465846C4F81C
:10597000C0800EAF84F8CA9013F0D0FFDC227D21E6
:105980000A98FFF730FA14AA13A90A98ADF84CA0A8
:10599000ADF8506018F0E4FE0A995846C4F8F48057
:1059A0004FF0FF3884F8FE9013F0B8FFE1222C216D
:1059B0000598FFF718FA38460599C4F83081A4F81D
:1059C000345118F0D5FB04F59E73DFF8B0A197E8C9
:1059D000070083E80700152314A90598ADF8543093
:1059E000CDF850A018F05EFE0599584613F096FFCA
:1059F000E12297210698FFF7F6F938460699C4F890
:105A00007881A4F87C5118F0B3FB04F5C27397E8D1
:105A1000070083E80700092314A90698ADF854305D
:105A2000CDF850A018F03EFE0699584613F076FFC8
:105A3000032314AA13A90B98ADF84C30ADF85060AD
:105A4000FFF764FE2A46294604F5E270FFF7CBF91A
:105A500004F5B86312225921C4F8C03126230B98EB
:105A600000936623FFF7CCF90B99584613F056FFC5
:105A7000192207981146FFF7B6F938460799C4F876
:105A80002482A4F8285218F073FB04F50C7397E8ED
:105A9000070083E80700122314A90798ADF85430D3
:105AA000CDF850A018F0FEFD0799584613F036FFC8
:105AB000452219210898FFF796F938460899C4F845
:105AC0006C82A4F8705218F053FB04F51E7397E82B
:105AD000070083E807000F2314A90898ADF8543095
