:020000040800F2
:1000000000000520AD1E0008C91D0008CB1D00081A
:10001000CD1D0008CF1D0008D11D00080000000004
:1000200000000000000000000000000021B20008F5
:10003000D31D000800000000C1B2000825B300086D
:10004000FD1E0008FD1E0008FD1E0008FD1E000824
:10005000FD1E0008FD1E0008FD1E0008FD1E000814
:10006000FD1E0008FD1E0008FD1E0008FD1E000804
:10007000FD1E0008FD1E0008FD1E0008FD1E0008F4
:10008000FD1E0008FD1E0008FD1E0008FD1E0008E4
:10009000FD1E0008FD1E0008FD1E0008FD1E0008D4
:1000A000FD1E0008FD1E0008FD1E0008FD1E0008C4
:1000B000FD1E0008FD1E0008FD1E0008FD1E0008B4
:1000C000FD1E0008FD1E0008FD1E0008FD1E0008A4
:1000D000FD1E0008FD1E0008FD1E0008FD1E000894
:1000E000FD1E0008FD1E0008FD1E0008FD1E000884
:1000F000FD1E0008FD1E0008FD1E0008FD1E000874
:10010000FD1E0008FD1E0008FD1E0008FD1E000863
:10011000FD1E0008FD1E0008D51D0008FD1E00087C
:10012000FD1E0008FD1E0008FD1E0008FD1E000843
:10013000FD1E0008FD1E0008FD1E0008FD1E000833
:10014000FD1E0008FD1E0008FD1E0008FD1E000823
:10015000FD1E0008FD1E0008FD1E0008FD1E000813
:10016000FD1E0008FD1E0008FD1E0008FD1E000803
:10017000FD1E0008FD1E0008FD1E00080000000016
:10018000FD1E0008FD1E0008FD1E0008FD1E0008E3
:10019000FD1E0008FD1E0008FD1E0008FD1E0008D3
:1001A000E11D0008FD1E0008ED1D0008FD1E0008F1
:1001B000FD1E0008FD1E0008FD1E0008FD1E0008B3
:0801C000FD1E0008FD1E0008F1
:1001D00010B5054C237833B9044B13B10448AFF381
:1001E00000800123237010BD4003002000000000A8
:1001F0009C92030808B5034B1BB103490348AFF3B6
:10020000008008BD00000000440300209C92030809
:1002100001F0FF01102A2BDB10F0070F08D010F8B7
:10022000013B013A8B422DD010F0070F42B3F6D1BB
:10023000F0B441EA012141EA014122F007047FF0D4
:1002400000070023F0E80256083C85EA010586EA2B
:10025000010685FA47F5A3FA87F586FA47F6A5FA67
:1002600087F68EB9EED1F0BC01F0FF0102F0070273
:1002700032B110F8013B013A83EA010313B1F8D11E
:100280000020704701387047002D06BF35460338FF
:10029000073815F0010F07D1013015F4807F02BF38
:1002A000013015F4C03F0130F0BC0138704700BF89
:1002B00081F0004102E000BF83F0004330B54FEA17
:1002C00041044FEA430594EA050F08BF90EA020F84
:1002D0001FBF54EA000C55EA020C7FEA645C7FEA17
:1002E000655C00F0E2804FEA5454D4EB5555B8BF3A
:1002F0006D420CDD2C4480EA020281EA030382EAAB
:10030000000083EA010180EA020281EA0303362D3C
:1003100088BF30BD11F0004F4FEA01314FF4801C0F
:100320004CEA113102D0404261EB410113F0004F21
:100330004FEA03334CEA133302D0524263EB4303D8
:1003400094EA050F00F0A780A4F10104D5F1200E76
:100350000DDB02FA0EFC22FA05F2801841F10001D1
:1003600003FA0EF2801843FA05F359410EE0A5F1A5
:1003700020050EF1200E012A03FA0EFC28BF4CF0D6
:10038000020C43FA05F3C01851EBE37101F000458C
:1003900007D54FF0000EDCF1000C7EEB00006EEB99
:1003A0000101B1F5801F1BD3B1F5001F0CD3490823
:1003B0005FEA30004FEA3C0C04F101044FEA44527A
:1003C00012F5800F80F09A80BCF1004F08BF5FEA01
:1003D000500C50F1000041EB045141EA050130BDE1
:1003E0005FEA4C0C404141EB0101013C28BFB1F5F3
:1003F000801FE9D291F0000F04BF01460020B1FA3E
:1004000081F308BF2033A3F10B03B3F120020CDA10
:100410000C3208DD02F1140CC2F10C0201FA0CF0EE
:1004200021FA02F10CE002F11402D8BFC2F1200C53
:1004300001FA02F120FA0CFCDCBF41EA0C01904009
:10044000E41AA2BF01EB0451294330BD6FEA040452
:100450001F3C1CDA0C340EDC04F11404C4F120023D
:1004600020FA04F001FA02F340EA030021FA04F34F
:1004700045EA030130BDC4F10C04C4F1200220FAA6
:1004800002F001FA04F340EA0300294630BD21FAE4
:1004900004F0294630BD94F0000F83F4801306BFAA
:1004A00081F480110134013D4EE77FEA645C18BF9E
:1004B0007FEA655C29D094EA050F08BF90EA020F35
:1004C00005D054EA000C04BF1946104630BD91EA2D
:1004D000030F1EBF0021002030BD5FEA545C05D130
:1004E0004000494128BF41F0004130BD14F580046F
:1004F0003CBF01F5801130BD01F0004545F0FE41E3
:1005000041F470014FF0000030BD7FEA645C1ABF17
:10051000194610467FEA655C1CBF0B46024650EA4E
:10052000013406BF52EA033591EA030F41F400217A
:1005300030BD00BF90F0000F04BF0021704730B500
:100540004FF4806404F132044FF000054FF00001D5
:1005500050E700BF90F0000F04BF0021704730B596
:100560004FF4806404F1320410F0004548BF40426B
:100570004FF000013EE700BF42004FEAE2014FEAC0
:1005800031014FEA02701FBF12F07F4393F07F4F9B
:1005900081F06051704732F07F4208BF704793F09E
:1005A0007F4F04BF41F40021704730B54FF46074B1
:1005B00001F0004521F000411CE700BF50EA0102B4
:1005C00008BF704730B54FF000050AE050EA01025D
:1005D00008BF704730B511F0004502D5404261EBCD
:1005E00041014FF4806404F132045FEA915C3FF40E
:1005F000D8AE4FF003025FEADC0C18BF03325FEAAB
:10060000DC0C18BF033202EBDC02C2F1200300FA5B
:1006100003FC20FA02F001FA03FE40EA0E0021FA80
:1006200002F11444BDE600BF70B54FF0FF0C4CF46E
:10063000E06C1CEA11541DBF1CEA135594EA0C0F20
:1006400095EA0C0F00F0DEF82C4481EA030621EA5B
:100650004C5123EA4C5350EA013518BF52EA033596
:1006600041F4801143F4801338D0A0FB02CE4FF048
:100670000005E1FB02E506F00042E0FB03E54FF078
:100680000006E1FB03569CF0000F18BF4EF0010E70
:10069000A4F1FF04B6F5007F64F5407404D25FEA6C
:1006A0004E0E6D4146EB060642EAC62141EA55511F
:1006B0004FEAC52040EA5E504FEACE2EB4F1FD0C61
:1006C00088BFBCF5E06F1ED8BEF1004F08BF5FEADF
:1006D000500E50F1000041EB045170BD06F0004691
:1006E00046EA010140EA020081EA0301B4EB5C043E
:1006F000C2BFD4EB0C0541EA045170BD41F4801136
:100700004FF0000E013C00F3AB8014F1360FDEBF5A
:10071000002001F0004170BDC4F10004203C35DA36
:100720000C341BDC04F11404C4F1200500FA05F3B9
:1007300020FA04F001FA05F240EA020001F000425A
:1007400021F0004110EBD37021FA04F642EB0601D0
:100750005EEA430E08BF20EAD37070BDC4F10C04FA
:10076000C4F1200500FA04F320FA05F001FA04F2BE
:1007700040EA020001F0004110EBD37041F10001AA
:100780005EEA430E08BF20EAD37070BDC4F12005B5
:1007900000FA05F24EEA020E20FA04F301FA05F21D
:1007A00043EA020321FA04F001F0004121FA04F2C5
:1007B00020EA020000EBD3705EEA430E08BF20EA95
:1007C000D37070BD94F0000F0FD101F000464000CF
:1007D00041EB010111F4801F08BF013CF7D041EA51
:1007E000060195F0000F18BF704703F00046520055
:1007F00043EB030313F4801F08BF013DF7D043EA26
:100800000603704794EA0C0F0CEA135518BF95EADB
:100810000C0F0CD050EA410618BF52EA4306D1D162
:1008200081EA030101F000414FF0000070BD50EA81
:10083000410606BF1046194652EA430619D094EA0B
:100840000C0F02D150EA013613D195EA0C0F05D1F5
:1008500052EA03361CBF104619460AD181EA030149
:1008600001F0004141F0FE4141F470014FF0000001
:1008700070BD41F0FE4141F4780170BD70B54FF09C
:10088000FF0C4CF4E06C1CEA11541DBF1CEA13551C
:1008900094EA0C0F95EA0C0F00F0A7F8A4EB0504FE
:1008A00081EA030E52EA03354FEA013100F08880F5
:1008B0004FEA03334FF0805545EA131343EA1263BE
:1008C0004FEA022245EA111545EA10654FEA002673
:1008D0000EF000419D4208BF964244F1FD0404F52C
:1008E000407402D25B084FEA3202B61A65EB030588
:1008F0005B084FEA32024FF480104FF4002CB6EB45
:10090000020E75EB030E22BFB61A754640EA0C00C4
:100910005B084FEA3202B6EB020E75EB030E22BF04
:10092000B61A754640EA5C005B084FEA3202B6EB45
:10093000020E75EB030E22BFB61A754640EA9C0004
:100940005B084FEA3202B6EB020E75EB030E22BFD4
:10095000B61A754640EADC0055EA060E18D04FEA92
:10096000051545EA16754FEA06164FEAC30343EA32
:1009700052734FEAC2025FEA1C1CC0D111F4801FFF
:100980000BD141EA00014FF000004FF0004CB6E7F8
:1009900011F4801F04BF01430020B4F1FD0C88BF97
:1009A000BCF5E06F3FF6AFAEB5EB030C04BFB6EBA2
:1009B000020C5FEA500C50F1000041EB045170BD95
:1009C0000EF0004E4EEA113114EB5C04C2BFD4EBC2
:1009D0000C0541EA045170BD41F480114FF0000E46
:1009E000013C90E645EA060E8DE60CEA135594EAC2
:1009F0000C0F08BF95EA0C0F3FF43BAF94EA0C0FC5
:100A00000AD150EA01347FF434AF95EA0C0F7FF439
:100A100025AF104619462CE795EA0C0F06D152EA8D
:100A200003353FF4FDAE1046194622E750EA410671
:100A300018BF52EA43067FF4C5AE50EA41047FF482
:100A40000DAF52EA43057FF4EBAE12E74FF0FF3CE7
:100A500006E000BF4FF0010C02E000BF4FF0010CB8
:100A60004DF804CD4FEA410C7FEA6C5C4FEA430C31
:100A700018BF7FEA6C5C1BD001B050EA410C0CBF80
:100A800052EA430C91EA030F02BF90EA020F0020E2
:100A9000704710F1000F91EA030F58BF994208BF49
:100AA00090422CBFD8176FEAE37040F00100704706
:100AB0004FEA410C7FEA6C5C02D150EA013C07D15D
:100AC0004FEA430C7FEA6C5CD6D152EA033CD3D0A8
:100AD0005DF8040B704700BF8446104662468C46A2
:100AE0001946634600E000BF01B5FFF7B7FF0028D5
:100AF00048BF10F1000F01BD4DF808EDFFF7F4FFFE
:100B00000CBF012000205DF808FB00BF4DF808ED88
:100B1000FFF7EAFF34BF012000205DF808FB00BFAB
:100B20004DF808EDFFF7E0FF94BF012000205DF8CD
:100B300008FB00BF4DF808EDFFF7CEFF94BF012082
:100B400000205DF808FB00BF4DF808EDFFF7C4FF7B
:100B500034BF012000205DF808FB00BF4FEA410CC4
:100B60007FEA6C5C02D150EA013C0AD14FEA430CA7
:100B70007FEA6C5C02D152EA033C02D14FF00000E4
:100B800070474FF0010070474FEA410212F5001222
:100B900015D211D56FF47873B3EB625212D94FEAC4
:100BA000C12343F0004343EA505311F0004F23FAAE
:100BB00002F018BF404270474FF00000704750EA03
:100BC000013005D111F0004008BF6FF000407047C0
:100BD0004FF00000704700BF4A0011D212F500121A
:100BE00011D20DD56FF47873B3EB62520ED44FEA85
:100BF000C12343F0004343EA505323FA02F0704705
:100C00004FF00000704750EA013002D14FF0FF3042
:100C100070474FF0000070474FEA4102B2F1E043E5
:100C200024BFB3F5001CDCF1FE5C0DD901F0004CD3
:100C30004FEAC0024CEA5070B2F1004F40EB830023
:100C400008BF20F00100704711F0804F21D113F14F
:100C50003872BCBF01F00040704741F480114FEA88
:100C60005252C2F11802C2F1200C10FA0CF320FA11
:100C700002F018BF40F001004FEAC1234FEAD3232E
:100C800003FA0CFC40EA0C0023FA02F34FEA430398
:100C9000CCE77FEA625307D150EA01331EBF4FF021
:100CA000FE4040F44000704701F0004040F0FE403C
:100CB00040F40000704700BF7BB972B90029BEBF85
:100CC00000204FF0004106E008BF00281CBF6FF075
:100CD00000414FF0FF3000F0D3B9ADF1080C6DE9E1
:100CE00004CE002909DB002B1ADB00F04DF8DDF8FB
:100CF00004E0DDE9022304B07047404261EB4101AA
:100D0000002B1BDB00F040F8DDF804E0DDE90223F6
:100D100004B0404261EB4101524263EB4303704730
:100D2000524263EB430300F02FF8DDF804E0DDE905
:100D3000022304B0404261EB41017047524263EB31
:100D4000430300F021F8DDF804E0DDE9022304B0FC
:100D5000524263EB4303704753B94AB9002908BFB5
:100D600000281CBF4FF0FF314FF0FF3000F088B972
:100D7000ADF1080C6DE904CE00F006F8DDF804E0F2
:100D8000DDE9022304B070472DE9F047089D8E4647
:100D900004468846002B4AD18A42174662D9B2FAE5
:100DA00082F64EB1C6F1200301FA06F820FA03F3E9
:100DB000B74043EA0808B4404FEA174E1FFA87FCD1
:100DC000B8FBFEF1230C0EFB118843EA084301FB3C
:100DD0000CF29A4209D9FB1801F1FF3080F0EA8049
:100DE0009A4240F2E78002393B449A1AA3B2B2FB1E
:100DF000FEF00EFB102243EA024300FB0CFC9C4574
:100E000009D9FB1800F1FF3280F0D6809C4540F2F2
:100E1000D3803B44023840EA0140A3EB0C0300219D
:100E20001DB1F3400022C5E90032BDE8F0878B42D6
:100E300005D90DB1C5E9000100210846F5E7B3FA6F
:100E400083F1002946D1734502D3824200F2058125
:100E5000841A6EEB030201209046002DE5D0C5E90F
:100E60000048E2E7002A00F09080B2FA82F6002EF5
:100E700040F0A4808A1A030C4FEA174E80B2BCB22D
:100E80000121B2FBFEFC0EFB1C2243EA024304FBE1
:100E90000CF29A4207D9FB180CF1FF3802D29A42A1
:100EA00000F2E080C4469B1AB3FBFEF20EFB123345
:100EB00040EA034302FB04F49C4207D9FB1802F109
:100EC000FF3002D29C4200F2CA8002461B1B42EA5B
:100ED0000C40A5E7C1F120068B4022FA06F71F431C
:100EE0000EFA01F420FA06F32EFA06FE4FEA17492D
:100EF000234300FA01F81FFA87FCBEFBF9F01C0C33
:100F000009FB10EE44EA0E4400FB0CFEA64502FA73
:100F100001F209D93C1900F1FF3A80F09C80A64506
:100F200040F2998002383C44A4EB0E041FFA83FE81
:100F3000B4FBF9F309FB13444EEA044403FB0CFC35
:100F4000A44508D93C1903F1FF3E80F08280A445F6
:100F50007FD9023B3C4443EA0040A4EB0C04A0FBD5
:100F600002EC64457346E14662D35FD05DB1B8EBF5
:100F7000030264EB090404FA06F622FA01F31E43A5
:100F8000CC40C5E9006400214FE7B1FBF2FC010C45
:100F900041EA0E4180B240EA01423B4638463C46B7
:100FA000B846BE462026B1FBF7F1A2EB080241EAA3
:100FB0000C4166E7014618E710462CE7C6F120020F
:100FC0002EFA02F3B740B14020FA02F24FEA174E70
:100FD0000A43B3FBFEF8BCB20EFB1833110C41EA16
:100FE000034108FB04F9B04089454FEA104380B241
:100FF0003ED9791808F1FF3C01D289451FD8A1EBF1
:101000000901B1FBFEF909FB04F80EFB191192B2BC
:1010100042EA0142424529D2BA1809F1FF31C4D24D
:101020004245C2D2A9F102013A44BEE7F0459DD241
:10103000BEEB02036CEB070C0138E14696E7A7EB29
:1010400009094944A8F1020CB1FBFEF909FB04F8B7
:10105000DBE773467FE7504666E70846FDE63B441C
:10106000023A33E7ACF1020C3B441CE749469CE7EB
:10107000A1EB0901C446B1FBFEF909FB04F8C4E782
:10108000704700BF014900200BF0C6BA39230008A1
:101090002DE9F0472A4D002400262A4FAA462DEDBF
:1010A000028BF0EE088AB1EE048A0FF28C09D9E9BE
:1010B000008920460134FFF74DFA42464B46FFF7C0
:1010C000B3FA32463B46FFF7AFFAFFF7A5FD00EE55
:1010D000100A35F0B5FBF0EE487AE0EE287A17EE0C
:1010E000900AFFF749FA0022174BFFF79DFAFFF726
:1010F00073FDB4F5807F05F8010BDAD1134D144C64
:101100002B6814485A6A144B1A8000222368D1189D
:101110000132C9B2C82A1AF8011000F8011BF6D131
:10112000013301221020DBB223600C4B1A7009F04E
:1011300085FCE5E7AFF30080182D4454FB211940EE
:101140005F0300200000703F008039407C050020D4
:1011500060040020640400205C0300205E03002083
:1011600010B594B01022002102240AA837F05AF9D1
:101170001422002103A837F055F91D4B192108A8A6
:101180001A6C42F080521A641B6C03F08053019376
:10119000019B184B1A6842F440421A6001221B68F6
:1011A00003F440430293029B4FF48033CDE90823BC
:1011B0004FF48003CDE90E434FF4D873CDE91244C8
:1011C000CDE9101308F02EFB08F098F80F2300204B
:1011D0000721CDE903344FF4A053CDE905034FF4C3
:1011E000805303A8079308F005FD14B010BD00BF9D
:1011F000003802400070004030B54FF480738FB06B
:101200004FF080720E4D06939F23099201220093A6
:1012100000230446694628460593CDE90A2341F296
:101220008832CDE90733CDE90C3308F0CDF941F22E
:1012300088322146284608F091FA0FB030BD00BF31
:10124000C805002000B54FF4807391B04FF0407294
:10125000EF2808934FF0EB0302A90D4802934FF4D7
:10126000406309934FF4005305934FF00003CDE919
:101270000A3214BF0A2206220F9307926A46CDE96A
:101280000D33CDE9003308F0E3F911B05DF804FB4C
:10129000C80500202DE980489DB0102200210125BD
:1012A0000FA84FF0104937F0BDF8002406F076FF84
:1012B000C64B0FA8ADF83C501294CDE9109306F040
:1012C0008BFF17230FA88DF83D508DF844308DF813
:1012D0004A5006F081FF042006F06EFFBFF34F8FE7
:1012E000BFF36F8FBA4AC2F85042BFF34F8FBFF3BC
:1012F0006F8F536943F400335361BFF34F8FBFF3D4
:101300006F8FC2F88440BFF34F8FD2F8803043F61E
:10131000E074C3F3C900C3F34E335B0103EA040670
:10132000014646EA81750139C2F86052F9D2203B84
:1013300013F1200FF2D1BFF34F8F536943F4803381
:101340005361BFF34F8FBFF36F8F06F08DFE002404
:10135000FFF706FF142200210FA837F063F89D4B1A
:1013600010219D481A6B01274FF010084FF0030B16
:1013700042F010024FF4805A984D4FF004091A635E
:101380001A6B974E02F010020192019A1A6B42F00A
:1013900002021A631A6B02F002020292029A1A6B9C
:1013A00042F001021A631A6B02F001020392039ADF
:1013B0001A6B42F040021A631A6B02F04002049268
:1013C000049A1A6B42F400721A631A6B02F40072E8
:1013D0000592059A1A6B42F008021A631A6B02F022
:1013E00008020692069A1A6B42F004021A631A6BFC
:1013F00002F004020792079A1A6B42F480621A63A1
:101400001A6B02F480620892089A1A6B42F020026A
:101410001A631A6B02F020020992099A1A6B42F4BD
:1014200080721A631A6B02F480720A920A9A1A6B1B
:1014300042F080021A6300221B6B03F080030B93BF
:101440000B9B07F015FA01220821664807F010FAF5
:1014500001224FF48051644807F00AFA002240212B
:10146000624807F005FA0FA95B48CDE90F87CDE97F
:10147000114B07F079F84FF400430FA95C48119421
:10148000CDE90F3407F070F808230FA95548CDE9CE
:101490000F37CDE9114407F067F80FA95248CDE99D
:1014A0000FA7CDE9114407F05FF840220FA94F487C
:1014B000CDE90F27CDE9114B07F056F84D484E49BD
:1014C000848001600762C0E9054406F0B1FE4B4923
:1014D0002846C5E90014C5E90244C5E90A44C5E93E
:1014E0000C4406F044FF39462846454D06F0F6FF09
:1014F00040234FF4C07243493046B460F461B46293
:10150000C6E905324FF40062C6E9082A4FF0020A24
:101510000722C6E900140FA9CDF854A0C6E9039824
:10152000CDE90FA2CDE91192CDE913BA08F0B8FECA
:1015300029464FF6FF7230460094C5E90078C5E9A8
:10154000027408F0CDFE384606F0B2FD29464FF68B
:10155000FF723046C5E900A8C5E9027408F0C0FE74
:10156000082329464FF6FF723046C5E900B8C5E9A1
:10157000023408F0B5FE4FF40C734FF6FF722946A3
:1015800000933046009BAF60EB60C5E9009808F01F
:10159000A7FE40F22B7130461B4D08F0C0FE4FF005
:1015A000204343F2D202642040F215261A6006F06E
:1015B0007FFD164B164A28462C62C5E90023C5E973
:1015C0000247C5E90444C5E9064423E01B000003C3
:1015D00000ED00E000380240000402401007002047
:1015E0004805002000280240002002400018024068
:1015F00000000240500700200030024000B00240CE
:101600002C050020400100A0BC06002068474020B7
:10161000005C004007F06DFA2146284607F090FC78
:1016200021462846524D07F0B1FC342221460FA82E
:1016300036F0F8FE4F4B2821352040F2352C2C6136
:10164000AC8685F83640C5E900340923C5E90513A1
:101650000B23C5E9070340F21B132846C5E90963BC
:1016600040F21D13C5E90244C5E90BC307F032FD82
:10167000FF214FF4806E4FF4F0724FF488732846C8
:101680000F941A93ADF86C408DF86E403A4DCDE949
:1016900014140521CDE916E14FF04041CDE91024A5
:1016A000CDE9181222460FA9CDE9123A07F0DDFD67
:1016B0003248334B0462C0E90037C0E902984FF466
:1016C000A0634FF01808C0E90644C0E9048307F09E
:1016D00029FF0FA8FFF790FD9DF83C00FFF7B2FD32
:1016E0005C2006F049FD00F0DFFB2022214610A817
:1016F00036F098FE234B0FA928460E94AC600F9746
:1017000011971597C5E900344FF6FF73CDE90C44E6
:10171000C5E90334C5E9054408F0DEFF0CA92846F5
:101720000E94CDE90C4409F02BF800F0E9FB00F031
:10173000E6FB3C21284608F049FE09F0F5F8124A7C
:101740002146124809F02AF9114B124A2146186025
:10175000114809F023F9114B114A2146186011482C
:1017600009F01CF9104B186009F0F8F8FEE700BF0B
:1017700014060020006801407C050020C8050020F8
:10178000001000A0000401405CC60308911000088E
:101790004405002038C603080F1F0008400500203C
:1017A00014C60308213A00083C0500200268034BD8
:1017B0009A4201D106F06ABC704700BF0010004099
:1017C000704700000D4B82B00F216FF001001A6CC2
:1017D00042F080521A641A6C02F080520092009A11
:1017E0005A6C42F480425A6400225B6C03F48043DA
:1017F0000193019B02B006F07FBC00BF003802409D
:10180000026882B0084B9A420BD1D3F8302803F516
:10181000006342F480521A631B6B03F480530193FC
:10182000019B02B0704700BF003002400E4B07B56D
:1018300002689A4215D1A3F5F04305215A201A6B8C
:1018400042F400021A6300221B6B03F400030193AD
:10185000019B06F051FC5A2003B05DF804EB06F042
:101860007DBC03B05DF804FB00B0024010B5A8B029
:1018700004461422002102A836F0D4FD842200215F
:1018800007A836F0CFFD2268174B9A422AD14FF4B1
:10189000803307A8079308F079FA08B1FFF790FFA3
:1018A000124C4FF4C07201211148236B43F08003A6
:1018B0002363236B03F080030093009B1223CDE985
:1018C00002230323CDE90413042302A9069306F09F
:1018D0004BFE236C43F400032364236C03F40003E6
:1018E0000193019B28B010BD005C0040003802400D
:1018F000001C0240026808B5094B9A420FD1094A00
:1019000080210948136C23F40003136406F010FFD0
:101910004FF480710448BDE8084006F009BF08BDD7
:10192000005C004000380240001C024070B5B0B0BE
:101930000446142200210AA836F074FD84220021F6
:101940000FA836F06FFD22686B4B9A4240F0D180B1
:101950000823052001240F934FF4C073149302232E
:10196000CDE915304FF400330FA8CDE9194308F045
:101970000DFA08B1FFF724FF604B002402250E2664
:101980005A6C0AA95E4842F080625A645A6C02F0AE
:1019900080620192019A1A6B42F010021A631A6B6C
:1019A00002F010020292029A1A6B42F040021A638D
:1019B0001A6B02F040020392039A1A6B42F400720F
:1019C0001A631A6B02F400720492049A1A6B42F0C2
:1019D00008021A631A6B02F008020592059A1A6B44
:1019E00042F004021A631A6B02F004020692069A8D
:1019F0001A6B42F480621A631A6B02F480620792D7
:101A0000079A1A6B42F480721A631A6B02F480729E
:101A10000892089A1A6B42F001021A631B6B0E9629
:101A200003F001030993099B7023CDE90C44CDE930
:101A30000A3506F099FD4FF400530AA931480E9675
:101A4000CDE90A35CDE90C4406F08EFD4AF67C63FB
:101A50000AA92D480E96CDE90A35CDE90C4406F0C9
:101A600083FD40230AA929480E96CDE90A35CDE920
:101A70000C4406F079FD4FF480630AA924480E96C1
:101A8000CDE90A35CDE90C4406F06EFDF7230AA92D
:101A900020480E96CDE90A35CDE90C4406F064FDE8
:101AA0004FF480530AA91748CDE90A350923CDE937
:101AB0000C440E9306F058FD4FF48C430AA91648C7
:101AC0000E96CDE90A35CDE90C4406F04DFD042310
:101AD0000AA912480E96CDE90A35CDE90C4406F064
:101AE00043FD58202246052106F006FB582006F04B
:101AF00035FB30B070BD00BF0068014000380240C7
:101B0000001002400018024000240240000C024075
:101B1000000802400028024000200240000002406D
:101B2000142200212DE9F0418AB004460DEB020099
:101B300036F078FC22682C4B9A4251D12B4B02256F
:101B4000032409269A6B4FF0040805A9284842F09F
:101B5000020200279A639A6B02F002020192019A34
:101B60001A6B42F010021A631A6B02F01002029212
:101B7000029A1A6B42F002021A631A6B02F0020216
:101B80000392039A1A6B42F008021A631B6B03F06C
:101B900008030493049BCDE90585CDE9084606F0CA
:101BA000E3FC402305A91348CDE905350A23CDE917
:101BB0000774099306F0D8FC05A90E480996CDE9EB
:101BC0000585CDE9077406F0CFFC4FF4605305A9F5
:101BD00009480996CDE90535CDE9077406F0C4FC3E
:101BE0000AB0BDE8F08100BF001000A0003802403C
:101BF0000010024000040240000C024010B588B002
:101C000004461422002103A836F00CFC2268114B74
:101C10009A421DD103F59A3303A90F485A6C42F03A
:101C200002025A645A6C02F002020192019A1A6B83
:101C300042F004021A63C0221B6B03F004030293F8
:101C4000029B0223CDE903230323079306F08CFCB8
:101C500008B010BD0004014000080240F0B50023A8
:101C600087B00393294B1E68002E4DD10122022715
:101C700003250C241A6001A9254B26489A6B42F0D3
:101C800001029A639B6B03F001030093009B4FF6E4
:101C90008373CDE90454CDE9013706F065FC48F2C1
:101CA000331301A91C480594CDE90137CDE903653B
:101CB00006F05AFC4CF2037301A918480594CDE9CB
:101CC0000137CDE9036506F04FFC4FF63F0301A94C
:101CD00013480594CDE90137CDE9036506F044FCCE
:101CE000282301A90F480594CDE90137CDE9036503
:101CF00006F03AFC082301A90B480594CDE9013709
:101D0000CDE9036506F030FC07B0F0BD7407002094
:101D1000003802400010024000180240000C02404F
:101D200000140240001C024000080240214B1A6CC3
:101D300042F0100270B588B01A641B6C054601A908
:101D400003A803F010030293029B08F001F8069B1E
:101D50004BBB07F0EDFF184E184B336040F2E733F2
:101D6000F360174BB0FBF3F3013B30467360002385
:101D70003361B360B36108F07FFC044680B930463C
:101D800008F0E6FA044658B9362006F0E7F90F2DB8
:101D90000DD822462946362006F0AEF9094B1D60C3
:101DA000204608B070BD07F0C3FF4000D3E7012410
:101DB000F6E700BF0038024078070020001000401E
:101DC00040420F00500000207047FEE7FEE7FEE7AC
:101DD000FEE77047014808F056BB00BF78070020B7
:101DE000014807F0E5B900BF14060020014806F0DD
:101DF000EABA00BF100700200120704708B536F08E
:101E0000C5FB162303604FF0FF3008BD08B536F060
:101E1000BDFB16230360FEE770B50D4614460E4663
:101E2000731B9C4201DC204670BDAFF3008006F8B6
:101E3000010BF5E770B50D4614460E46731B9C4228
:101E400001DC204670BD16F8010BAFF30080F5E70A
:101E50004FF0FF3070474FF4005300204B60704745
:101E600001207047002070470B4A0346116810B5E7
:101E700009B90A491160106809490A4C0344091B51
:101E80008B4206D936F082FB0C2303604FF0FF3003
:101E900010BD1360FCE700BFC40700205092012072
:101EA00000000520000A000070470000DFF834D071
:101EB000002103E00C4B5B58435004310B480C4BA2
:101EC00042189A42F6D30B4A02E0002342F8043B40
:101ED000094B9A42F9D305F0DFFF36F05DFBFFF7BF
:101EE000D9F97047000005201CFC03080000002001
:101EF00038010020400300204C920120FEE770478B
:101F000008B501F055F9BDE8084001F0D7B801F077
:101F100051B9406870474160704700004FF0E022BF
:101F2000D2F8FC3D43F08073C2F8FC3D054B064AF5
:101F3000D3F8B01F0A43C3F8B02F1A6842F0010269
:101F40001A607047001000E055CEACC5521A02EB83
:101F50005302B2FBF3F07047014B5868704700BF63
:101F6000001000E0704710B504460C2134F01EFB51
:101F7000204610BD036810B51B69044631B198476F
:101F8000A26863689B1A0344636010BD9847A06011
:101F9000FBE70000024B7020024A1360DB68184721
:101FA00024000020C8070020704710B50446042113
:101FB00034F0FCFA204610BD73B50E4E0D461446A3
:101FC000336813B9002002B070BD1B6970209847B8
:101FD0000028F7D03368702001AA0DF106015B6973
:101FE0009847BDF8043001202B60BDF8063023600F
:101FF000E9E700BFC80700207FB501238DF817204F
:102000004FF47A72CDE901320DF1170200920A46BF
:102010000146054806F0DCFD10B1034806F0BEFDA0
:1020200007B05DF804FB00BFBC0600207FB50023AD
:102030000A464FF47A718DF817300123CDE901314A
:102040000DF1170100910146054806F09BFE10B105
:10205000034806F0A3FD9DF8170007B05DF804FBE8
:10206000BC06002010B1032809D07047084B10218E
:1020700008481A68B2FA82F2520906F0F9BB044B1A
:1020800040210548DA68B2FA82F25209F5E700BF4A
:10209000CC070020000402400018024010B10328C1
:1020A00009D07047084B102108481A68003A18BF39
:1020B000012206F0DDBB044B40210548DA68003AF6
:1020C00018BF0122F5E700BFCC0700200004024042
:1020D0000018024010B1032804D0704710210348B3
:1020E00006F0CBBB40210248FAE700BF00040240E3
:1020F0000018024008B530B1032809D00020431E63
:102100005842584108BD1021034806F0ABFBF6E7E2
:1021100040210248F9E700BF0004024000180240D5
:1021200070B5084D00240126E0B2FFF7E3FF18B1B7
:102130002B68012B18BF2E6001340435052CF3D118
:1021400070BD00BFCC070020012380F8781080F814
:1021500079307047704700207047000041640039B3
:10216000024B18BF01211970704700BF0B85012079
:10217000704700207047836B0BB1084618477047C3
:102180004FF6FF707047406803689B6918477047B7
:102190007047704738B5044601F062F90849236872
:1021A0002046084DD3F8903098470023284684F8FD
:1021B0004A30FFF7B3FE0123256184F8703038BD43
:1021C000000000C0DC07002001F0EEB801F0F2B81A
:1021D00070B501F06FF910490023C1F88430BFF3E6
:1021E0004F8FD1F8803043F6E074C3F3C900C3F3D6
:1021F0004E335B0103EA0406024646EA8275013A61
:10220000C1F87452F9D2203B13F1200FF2D1BFF381
:102210004F8FBFF36F8F70BD00ED00E001F04CB940
:1022200001F09EB801F06EBA01F076BA01F0A2B8E2
:1022300010B5044619F092FE23682046D3F8BC304E
:10224000BDE81040184719F0A4B810B50446842121
:1022500034F0ACF9204610BD90F834100D4B10B599
:1022600090F878401A788C4209D03AB90A490B4A5A
:1022700008881488108001220C801A7010BD002A72
:10228000FCD0064A0449148808880C80108000227B
:10229000F3E700BF048501200285012000850120AD
:1022A00070B50D46194635B9094B40F2FF21094A70
:1022B000094835F0F9FDC0E90F52003A074B18BF45
:1022C00001221A700368BDE87040D3F890301847B7
:1022D0004F93030887930308D59303080A850120C9
:1022E00008B5094B1B888B4203D8084B1B889342C7
:1022F00005D9074BA321074A074835F0D5FD074B01
:102300001980074B1A8008BD008501200285012035
:102310001A9403087D940308D593030806850120C9
:1023200008850120034690F87A0018B158680368C0
:102330001B68184770470000014608B5034B186832
:1023400001B1012119F024FE012008BD0C850120F6
:10235000034B00225A609A60024A1A60704700BF1D
:10236000DC07002088C603080121002208B50846C2
:1023700008F01CFC0A4B186028B90A4B28210A4AAD
:102380000A4835F091FD00220421012008F0D8FC14
:10239000074B186018B9074B2C21034AF0E708BD1A
:1023A000EC070020C094030809950308389503083A
:1023B000E807002092950308024B4FF0FF311868A0
:1023C00008F04CBCEC070020014B186808F082BCF8
:1023D000EC070020024B0021186808F03FBC00BF4A
:1023E000EC070020FFF7F0BF0023034803491A461B
:1023F000006808F0EBBC00BFE807002008000020E0
:1024000013B50023074C01A91A46206808F020FDE7
:102410004FF0FF33002201A9206808F019FD02B037
:1024200010BD00BFE807002003685B6C184701205F
:10243000704703689B6A1847FEE700000E4B82B0A6
:102440001A6B42F400021A631A6B02F40002019242
:10245000019A1A6942F400021A611A6922F4000210
:102460001A61064B064A1A61064A5A614FF08062A9
:10247000054B9A6002B070470038024010070020F8
:10248000152700083924000800E100E040F2EF3091
:1024900070470000054B4FF080620360044BC3F8A7
:1024A0008820BFF34F8FBFF36F8F7047B4C7030807
:1024B00000E100E010B504464FF45A61FFF7EAFF6F
:1024C000204634F073F8204610BD000008B50A28F5
:1024D00009D8DFE800F006100E08080808101010F0
:1024E0001000022008BD054B9021054A054835F033
:1024F000DBFC0020F6E70120F4E700BFD4950308D9
:10250000EF9503083A96030838B50C46887FFFF725
:10251000DDFF174BA58AE28A586342EA054221692A
:102520005A64628BD963521B1A642568082D0ED138
:102530009A611A6158620F4A207F42EA0062DA61AA
:10254000E2681A620C4A5961D9601A6038BD0022EB
:10255000D8611A61E1680A0A4809C1F3C40102F4AA
:10256000784200F4FC6002430A439A63034AECE7B2
:1025700000B0024009000100012302000123030012
:1025800008B50B280BD8DFE800F00612100A0A0A7B
:102590000A0808080808022008BD0520FCE7054BCA
:1025A0006F21054A054835F07FFC0020F4E7012043
:1025B000F2E700BFD4950308929603083A96030801
:1025C0002DE9F04191F81D800C464046FFF7D8FFF9
:1025D000A77F05463846FFF7D3FF06463846FFF784
:1025E00075FFA18A628B434B521A1A649A61228B3F
:1025F000521A1A61E28A586342EA014221695A6416
:102600006268D963DA602068802828D0227F0FD8DA
:10261000202866D0402864D004281AD045EA0265F4
:10262000344BB84545F40035DD6160D0324A44E0B2
:10263000B0F5807F04D0B0F5007FEFD12F4800E0E7
:102640002F4840EA0262DA61E2681A625E6259610A
:1026500032E045EA026242F40032DA61F6E7A0684D
:10266000021DDA62227F45EA026545F40035DD612C
:102670005E625961017841B1012921D0214B4FF4AB
:102680008D71214A214835F00FFCDA69418822F426
:102690007F42013922F0100242EA01220121DA616F
:1026A000144BDA6942F02002DA61DA699206FCD44E
:1026B00010229A600029B9D0154A1A60BDE8F0814D
:1026C000B2F1FF01DA69408822F47F4218BF01218C
:1026D000013822F0100242EA002242F01002DA61D0
:1026E000DEE745EA0262034B42F40032B5E742F20C
:1026F0000132E2E700B002400123010009000200BC
:102700000A000200DC960308F69603083A960308CE
:1027100001230200024B1B68586803685B69184775
:102720000C85012070B504460A4B0C300026254666
:10273000602260602672667245F8203B294619F0D7
:102740007BFD04F55A63EE6024359D42FBD12046A3
:1027500070BD00BFB4C70308034B1A68D207FCD48E
:1027600023229A60704700BF00B00240094B5A69AB
:10277000D2030AD5BFF34F8F08440029A0EB010212
:1027800004DCBFF34F8FBFF36F8F70472039C3F85E
:102790006822F2E700ED00E030B5104C2568ED0747
:1027A000FCD423250904FF2BA56041F001014FF063
:1027B000020565636164E0630AD00949656241EA24
:1027C0000363E361074B22626061E060236030BD18
:1027D000E561039BA363044BF8E700BF00B0024030
:1027E00009000100010002000100030030B50F4C98
:1027F0002568ED07FCD423251204FF2BA56042F0C9
:1028000001024FF0020565636264E063E16008D095
:102810001B0643F00213E361054B656260612360B0
:1028200030BD044BE3610123F9E700BF00B0024073
:1028300001000200020002FF30B50B4C2568ED07D5
:10284000FCD4232512041B06A56042F001020225D8
:1028500043F4003365636264E063E160E361034B6A
:1028600065626061236030BD00B00240010002007B
:102870004069704790F844007047036B23B9C06A01
:10288000003818BF012070470120704780687047EA
:10289000043010B50C460FC884E80F0010BD704717
:1028A00008B5034A40F21221024B034835F0FCFA06
:1028B0003497030894B003088F97030810B50446B3
:1028C000482133F073FE204610BD00002DE9F0438F
:1028D0001D46ADF51F7D436B06460F469046BDF87D
:1028E0009842002B35D0002203A8DFF8A490CDE950
:1028F000013210F07DFB4FF4F4725021249024A893
:102900000AF02BFB4246394624A80BF075FA012148
:1029100024A80AF01DFC022324A88DF8D8300AF060
:10292000B8FC2B9B419AA342BDF89C7228BF23465A
:102930009742A4EB030428BF174603EB4308640047
:10294000479B9F4209D824A80AF024FC24A80AF037
:1029500051FB0DF51F7DBDE8F083012201A924A8DC
:102960000AF0E0FC736B03EB0800984201D82544A1
:10297000E6E759789A78C90009EA022201F4FC6175
:102980000A4313F8031B42EAD10225F8022BECE7B5
:1029900000F8FFFF0A4A02600022C0E90522C0E9F0
:1029A0000722C0E90922C0E90B22C0E90D12C0E9E3
:1029B0000F2280F84420C0E90322C0E901227047B9
:1029C00004C8030810B40C4611461A46036B3BB109
:1029D000036C806BE41A20445DF8044B35F02ABD8B
:1029E000C06AF8E7036B10B573B1036C826BC91A48
:1029F0005318525C98785C780004DB7840EA042035
:102A0000104340EA036010BDC36A5858FBE7036BEC
:102A100043B1036CC91A836B5A18585C527840EA68
:102A200002207047C36A585A7047000070B50446C8
:102A3000006B0D461646D8B1E36B934208D20923CA
:102A40000D4A65210D4884F844300D4B35F02CFAC1
:102A50000368DB689847206B3246A16B03681B69EB
:102A6000984710B90D2384F84430A06B256470BDDD
:102A7000E06A0844FBE700BF069803088F97030845
:102A8000F39703082DE9F843436904462BB9234B18
:102A9000AA21234A234835F007FA08228169FFF763
:102AA000C5FFA16943F2300646F26437043120467F
:102AB000FFF798FFA3691844A36A00F108029A423D
:102AC00006D3012300206361236AA361BDE8F88374
:102AD000636909300822013320F001012046636157
:102AE000A161FFF7A3FFD4F8189020464946FFF7ED
:102AF0008EFF09F1020180462046FFF788FF09F1A9
:102B0000040105462046FFF76DFFB045D2D1BD4216
:102B1000D0D10028CED00120D8E700BF48980308C4
:102B2000919803088F9703082DE9F04F0446ADF5FF
:102B30001F7D8A461646816908229846FFF776FF70
:102B4000A7692046391DFFF74DFF07F1080102462E
:102B500005462046FFF76AFF636B074633B93C4BD7
:102B600040F2AB113B4A3C4835F09EF9002203A8E5
:102B7000CDE9013210F03CFA4FF4F4725021249068
:102B800024A80AF0EAF92A46394624A80BF034F9B9
:102B9000012124A80AF0DCFA022324A88DF8D830F9
:102BA0000AF077FBBAF90250479BAB4229D3BAF936
:102BB00000904FEA4808BAF804702B9B08FB0566A2
:102BC0004F44BAF80250DFF894B03FB29F4228BF9A
:102BD0001F46BAF8063009EB490A1D44419B2DB245
:102BE0009D4228BF1D46479B9D4210D824A80AF04D
:102BF000D1FA24A80AF0FEF901200DF51F7DBDE8E9
:102C0000F08F012201A924A80AF08CFBCCE7012255
:102C100001A924A80AF086FB626B49465244B942D6
:102C200002F1030201D34644DDE712F8020C12F868
:102C3000013CC0000BEA032300F4FC60034312F8DC
:102C4000030C43EAD00326F811300131E7E700BF57
:102C5000C49803081A9903088F97030800F8FFFF28
:102C60000129036838BF0121DB6A70B50D460446AF
:102C70009847A84204D223682046DB6A9847054655
:102C80006B1EE6691022204606EB031606F10801CA
:102C9000FFF7CCFE06F110012046FFF7A3FE236AE2
:102CA000043B0344C4E9055370BD000000214822E1
:102CB0002DE9F0410446816180F84410FFF7B6FE2B
:102CC000A6690423624A31462046FFF77BFE40B1E5
:102CD0000323604AF22184F844305F4B5F4835F0AB
:102CE000E3F806F1080104235D4A2046A161FFF7DD
:102CF00069FE30B10423574AFA2184F84430594B15
:102D0000ECE706F10C010423574A2046A161FFF7C6
:102D100059FE074638B105234E4A40F2011184F8A6
:102D20004430524BDAE706F110012046FFF75AFE15
:102D3000054620B94E4B40F20711464ACEE706F150
:102D4000140804234B4A20464146FFF73BFE002867
:102D500049D0062384F844300423474A06F1180179
:102D60002046FFF72FFE00283FD0072384F8443089
:102D70004544424F0C2220462946FFF757FE05F1F5
:102D8000080604233A4620463146FFF71BFE94F816
:102D90004430002848D0002B48D1A36AAB4249D820
:102DA00005F10C0304352046A3612946FFF71AFEFE
:102DB0003044294660622046FFF714FE0644042290
:102DC00020463146FFF732FE04232D4A3146204685
:102DD000FFF7F8FD002838D10123E6616361A3699C
:102DE0002362BDE8F0810127B6E7002FC0D006F1CD
:102DF00020012046FFF7F6FD4FF47A7306F130010B
:102E0000B0FBF3F060602046FFF7ECFD06F14001F7
:102E1000A0602046FFF7E6FD06F14401E060204691
:102E2000FFF7E0FD2061A3E7002BB9D00A2384F867
:102E30004430D6E7291D2046FFF7D4FD85190C2222
:102E400020462946FFF7F2FD99E70B23EFE700BF85
:102E50007499030892990308799903088F970308D6
:102E6000BF990308C4990308DC990308E199030892
:102E7000F7990308039A0308089A03080D9A0308B0
:102E8000129A0308C0E90A2100220263FFF70EBF6D
:102E900010B5002304460846E3620B6821639B6873
:102EA0009847A0622046BDE81040FFF7FFBE70B40F
:102EB000BDF80C50BDF810602AB123B1CDE903561E
:102EC00070BCFFF703BD70BC704700002DE9F04FE8
:102ED0009946436985B004460F4690462BB9294B65
:102EE0007721294A294834F0DFFF08228169FFF75A
:102EF0009DFDA66920463146FFF789FDB11C83463A
:102F00002046FFF784FD311D82462046FFF76AFD0B
:102F100006F10801A36A05460A189A4226D243F22E
:102F200030039B4517D146F264339A4513D190B1D3
:102F30000246A1612046FFF779FD0E9B01462A4615
:102F40002046CDF80080CDE901933B46FFF7AFFF67
:102F5000636901336361A3692B4405B90833013305
:102F6000626A23F001039342A36109D10123012086
:102F70006361236AA36180F0010005B0BDE8F08FB2
:102F80000020F8E748980308179A03088F9703086A
:102F9000012070470C2070470C2303FB0100083010
:102FA00070470C2303FB0100083070470120704775
:102FB00043F27000704743F2700303FB01000830D6
:102FC000704743F2700303FB010008307047012093
:102FD00070471020704700EB01100830704700EB7D
:102FE000011008307047084600F09CBE034B10B536
:102FF0000446036016F0FEFF204610BDACC803086F
:1030000010B50446FFF7F2FF1421204633F0CEFA44
:10301000204610BD034B10B50446036016F0EAFFCE
:10302000204610BD78C8030810B50446FFF7F2FF2C
:1030300043F27801204633F0B9FA204610BD000073
:10304000034B10B50446036016F0D4FF204610BDB4
:1030500044C8030810B50446FFF7F2FF18212046C4
:1030600033F0A4FA204610BD094B10B504460360A6
:1030700000F542502430FFF7B9FF04F12C00FFF7B0
:10308000C9FF04F11400FFF7DBFF204610BD00BFAD
:10309000E0C8030808B50248FFF7E6FF08BD00BF17
:1030A000C816002010B50446FFF7DEFF43F21821D2
:1030B000204633F07BFA204610BD00002DE9F34195
:1030C00000F04CFD0024054600F04CFD234601466F
:1030D00022462846009424F0A5F9274B274A20468B
:1030E000274D1A6004F0BCF8264B274A27489A60FF
:1030F00024F000F92B68BFF35B8FDB0736D428463A
:1031000033F056FA90B3224C224F234B04F11400B3
:1031100007F1180604F12C0823606060C4F80880E9
:10312000E760266116F068FF1C4B4046636116F0AD
:1031300063FF1B4B3846E36216F05EFF04F5405315
:10314000184A03F1B800C3F8A42004F011F922468C
:1031500007F11401304604F001F9304600F0E2FDB9
:10316000114834F0BFFE284633F02EFA0F4802B063
:10317000BDE8F041FFF70EB870850120740800200B
:10318000C416002094080020780800200C000020BD
:10319000C81600206C470020E0C8030844C8030894
:1031A00078C80308ACC8030895300008F007002071
:1031B00070470000014818F056B900BFF007002022
:1031C00070B5264E264B274C3046274D2360FFF71F
:1031D000A9FA284629F038FA244821F015FB244B97
:1031E00000224FF4807123481A8683F858205A66CB
:1031F00083F870205A67DC60C3E912121E49C3E9E4
:103200001A121E49C3E91E011D491E48C3F8801049
:103210001D490B604FF4F071C3E90422C3E9062293
:10322000C3E90822C3E90A22C3E90E22C3E9102236
:10323000C3E91422C3E91722C3E9016501801348D9
:1032400083F8342001804FF48871114801801148BF
:10325000018011490A70114A1A6070BD20090020CE
:10326000B0C60308C016002094080020780800208B
:10327000F0070020000001010100000100044400EB
:1032800016001400008501200C8501200685012010
:10329000028501200885012004850120C8C6030895
:1032A0000148FFF7F7B800BF200900200020704751
:1032B00081807047C18070470181704741817047AC
:1032C0007047704770477047704710B4C4880368F0
:1032D000121B84885B6D091B12B25DF8044B09B2A6
:1032E00018474FF6FF7383814FF0FF330362136873
:1032F000C36110607047002070478B888380012075
:103300007047704780F82610704790F82600704785
:1033100010B50022B1F90840B1F90A1002804280CC
:103320008480C18010BD0022028042808280C280E1
:1033300070470177704780ED080A704780F82410C5
:10334000704780F82510704701207047983070470B
:103350008C3070478430704770477047704700006A
:10336000034B902283F85A2383F85823704700BFF9
:1033700000E100E0094A0A49D3680A48C3F30A0396
:10338000013B9BB20B801169C1F30A010139018035
:103390001364536B43F001035363704700680140AB
:1033A000E2480020E0480020014BD3F8AC00704711
:1033B00000680140024B0122C3F8AC105A6270470A
:1033C00000680140124A5369DB0370B51ED5002323
:1033D000C2F88430BFF34F8FD2F8803043F6E074E8
:1033E000C3F3C900C3F34E335B0103EA040601468D
:1033F00046EA81750139C2F87452F9D2203B13F1C3
:10340000200FF2D1BFF34F8FBFF36F8F70BD00BF9E
:1034100000ED00E070473823002201FB0333C25463
:1034200090F838300BB9036C83647047704780F8AC
:103430004C10704710B504462C2133F0B7F82046E5
:1034400010BD10B50446582133F0B0F8204610BD29
:1034500010B50446BC2133F0A9F8204610BD000089
:1034600038B5044617F0EBFF23689D6E1FF014FF7C
:1034700001462046A8472368084A2046D3F88C50C6
:103480000023A2F57F31A847054B064A5A60064A39
:103490001A649A644FF4FF225A6438BD00F807C0DA
:1034A000A4490020FC49002000F40BC017F0AEBF77
:1034B00017F0B8BF17F073BF18F0F5B890F82520D3
:1034C00012B103685B6918477047000008B531B155
:1034D000044B40F29711044A044834F0E5FC90F89C
:1034E000390008BD729A0308869A0308139C0308E2
:1034F00010B531B1064B40F29111064A064834F03E
:10350000D3FC406811460368BDE810401B6B1847A8
:10351000729A0308559C0308139C030808B529B147
:10352000034B7A21034A044834F0BEFC006908BD0D
:10353000729A0308069E0308139C030808B529B174
:10354000054B8321054A064834F0AEFC4161816099
:10355000C0E9063208BD00BF729A0308BE9F030887
:10356000139C030810B5044629B1274BA421274A10
:10357000274834F099FC052A34D8DFE802F0032903
:103580002F34393E406803681B69984750B34FF0A9
:10359000FF31606D07F0AEFA0023012294F83E106F
:1035A00084F83B3084F83920A360636101B1226262
:1035B00084F83E306362E36A2BB90123206D84F8FE
:1035C0003A3007F087FB606DBDE8104007F0C2BAE3
:1035D000002380F8393084F83E3003E00362002392
:1035E0008360436110BD0362002383604361F2E79F
:1035F000002380F839300123EDE7003B18BF012399
:1036000080F83D30EEE700BF729A03087DA1030801
:10361000139C030890F825201AB190F8242002B1D9
:103620001860704770B50446164629B1314BE72142
:10363000314A324834F038FC90F8393033B1304BED
:103640001B6893F86B20436913444361E36A002BC2
:103650004DD0E169D4E905325343A2684A4393420D
:1036600020D2236A002B42D04FF0FF31606D07F06B
:1036700041FA236A0BB10023E362E36AFBB9012537
:10368000606D07F067FA94F839300BB9236A3BB1E3
:10369000E36A2BB90123206D84F83A3007F01AFB56
:1036A000284670BD94F84C000028DDD09B1AB3FB6F
:1036B000F1F2994298BF02F1FF326262D4E7002230
:1036C00094F83C50A3623046E262E2682261A2684C
:1036D0000132A260336333685B699847002DCED115
:1036E00094F83D30002BCBD184F83950C8E7012540
:1036F000C9E700BF729A030854A30308139C030888
:103700000C850120034B4FF080629A604FF080726D
:103710009A60704700E100E0084B4FF08062C3F808
:103720008820BFF34F8FBFF36F8F4FF08072C3F8C5
:103730008820BFF34F8FBFF36F8F704700E100E029
:1037400038B5034690F8380038BB01229860D8603D
:103750009A634FF4807258619A874FF4F0729861BF
:10376000D861186258629862D8621863586383F807
:103770003E00CA864FF4887281F834000A870863D5
:103780009A6C186102F5FF24D3E9101529448C4284
:103790000AD9084B5821084A03E0084B40F2F511BA
:1037A000074A084834F080FB1A6302F57F329C64B4
:1037B0005A6338BDB2A60308F2A60308F8A40308AA
:1037C00028A50308139C0308002370B5124E054674
:1037D0008380124B0360336893F858200AB1D86C89
:1037E00000B998680368DB6A98473368B0FA80F4D8
:1037F000D86C640930B10368DB6A9847002808BFB9
:1038000044F001042CB9064B2C21064A064834F03A
:103810004BFB284670BD00BF0C850120F4C803088F
:1038200098A80308F6A803082FA9030870B5254E29
:103830003568BFF35B8F15F0010540D1304632F09B
:10384000B7FE00283BD0204C204B04F1340025610A
:10385000E584A562A585C4E90035C4E9025521F0D7
:10386000B8FA04F158001AF09FF9194B2046A365E5
:10387000184B40F8843BFFF7A7FF174B1748C4F8D5
:1038800084302433C4F89050C4F88C304FF4C8030B
:10389000C4F89C50C4F8A850C4E928350023C4F8E3
:1038A000AC30C4F8B030C4F8B430C4F8B8300C4B05
:1038B000C4F8983034F016FB304632F085FE0248EA
:1038C00070BD00BFE4480020E848002000E803087D
:1038D00014C903088CC90308B4E703085D33000862
:1038E00094E7030838B5184C23685BB3174B184AA4
:1038F0001B6C11888B4216D1164B0025198805F0D8
:10390000E1FC236893F86A2083F87C50013283F845
:103910006A20FEF769FD206818F020FB2846BDE804
:103920003840FEF79FBB05F0CDFC24682368204695
:103930001B6A98470123002084F87C30BDE838409A
:10394000FEF7ACBB38BD00BF0C850120006801400C
:10395000E2480020E04800202DE9F74304464FF4F8
:10396000707894F83A304FF0FF31002B31D0606D11
:1039700007F0C0F8276BA36ABB4200D1676B266AC9
:10398000656856B32B68314628465B6A9847002322
:10399000236284F83B30606D07F0DCF82B684FF44D
:1039A000F0723946CDF8008028465E694FF488737E
:1039B000B0474FF0FF310646606D07F09BF894F872
:1039C0003B30E3B1002384F83B30606D07F0C2F870
:1039D000C7E7206D07F042F9C3E7636A002BDAD02E
:1039E0002B682846D3E909939847616A0144284621
:1039F000C847A368626A66621344A360CBE7E762C4
:103A00005EB12B6828469B6A984701380023E06026
:103A100084F83C6084F83A30D7E70120F6E70000EC
:103A2000014808B5FFF798FFA44900200368042265
:103A300070B504465E6A00230D46B0474FF0FF3173
:103A4000606D07F057F8382303FB0542D16A09B1CE
:103A50000021D16203FB0545012385F83B3000239B
:103A600085F83930606DBDE8704007F073B838B53F
:103A700000EB810304460D46114658680368DB6875
:103A8000984729462046FFF7D1FF38BD70B50D464F
:103A90001146044600EB85025068026896681A4693
:103AA000B04729462046FFF7C1FF70BD38B516491B
:103AB00000251648FEF76EFF154C164B01202A46CE
:103AC000294623604FF48073A564A38784F84C00D3
:103AD00084F83E50C4E91055C4E91455C4E90155B1
:103AE000C4E90355C4E90555C4E90755C4E90955B6
:103AF000C4E90B55C4E90D5507F058F82065284670
:103B000006F0B4FF606538BD444A0020FC4900203F
:103B1000A4490020D8C90308704710B50446042101
:103B200032F044FD204610BD08B5032913D8DFE864
:103B300001F002060A0E03F0DFFB006808BD03F087
:103B4000DBFB4068FAE703F0D7FB8068F6E703F099
:103B5000D3FBC068F2E70020F0E7000000487047A0
:103B600024CA03080D20704713B5002451B103681F
:103B700001AA01948DF803409C680DF10303A0474E
:103B800002B010BD0846FBE7C0897047008A704745
:103B9000C088704780887047807A00F07F00704747
:103BA000807AC00970470020704700009FED010A2D
:103BB000704700BF00000000704710B504460821A0
:103BC00032F0F4FC204610BD7047704700F5987342
:103BD0000868496803C37047704770474160704781
:103BE00070477047064BC0F84801C0F84C310023BD
:103BF000C0F8503100F5A273C0F84031704700BFE3
:103C000021400008012303727047704710B44168D7
:103C10000346C2689B68541001EB6200D20748BF9C
:103C20000A595DF8044B48BFD3581847034640680B
:103C300030B19A681AB9D86800F0010070470120C5
:103C4000704710B504460C2132F0B0FC204610BD80
:103C500010B50446102132F0A9FC204610BD10B565
:103C600004464FF4AE7132F0A1FC204610BD10B5F1
:103C70001FF012FB0368BDE81040DB6B184710B55E
:103C80000446D0F8400158B10368DB68984738B162
:103C9000D4F8400103689B6898470023C4F840317A
:103CA00010BD0000044B1B6893F858200AB1D86C73
:103CB00000B99868704700BF0C850120F8B5174619
:103CC00004460E461FF0F8FB124B00251C602946E7
:103CD000114B2360114BC4E95135114B1868C4E9ED
:103CE00053550368C4E94F559B68C4E95576984716
:103CF000284603F0B5FAFFF7D5FF2AF050FBFFF78F
:103D0000D1FF2AF0C7FBFFF7CDFF2AF0CFFB2046FB
:103D1000F8BD00BF6085012058CB030840CB0308E5
:103D20000C850120064BC0F84801C0F84C31002337
:103D3000C0F8503100F5A273C0F84031704700BFA1
:103D400021400008064BC0F84801C0F84C31002360
:103D5000C0F8503100F5A273C0F84031704700BF81
:103D6000D93E0008064BC0F84801C0F84C3100238A
:103D7000C0F8503100F5A273C0F84031704700BF61
:103D80008D3D000803685B6A184700002DE9F14F7C
:103D9000D0E9556A0746B06803681B6A984742F243
:103DA000F713984205D8444BA321444A444834F0C1
:103DB0007BF8706803681B6A98470F2803D8414B4B
:103DC000A4213E4AF2E7F06803681B6A98470B2873
:103DD00003D83D4BA521394AE8E7DFF8F4901FF0FE
:103DE0005BFA04301FF096FAD9F8000010B10368AE
:103DF000DB689847D9F8000010B103681B68984742
:103E0000DFF8D080D8F8000010B103685B699847EC
:103E1000D7F83C0110B103685B689847D8F80000F8
:103E200010B103681B689847D7F83C0110B10368CC
:103E30009B6898470021F068FFF7A4FF4FF0000B44
:103E4000224B0446C0F804B0594680F808B003601D
:103E5000B06803685B6A9847054604F011F870681B
:103E6000594603685B6A98470646294603F0E6FF11
:103E7000331DC7F83C612846C9F80040C8F8005017
:103E8000CAF800302B68C6F808A0DB68EE639847D4
:103E9000336830461B6898472146284621F0CAFC03
:103EA000236820461B699847236820465B6901B058
:103EB000BDE8F04F184700BF91A903081FAA0308E7
:103EC000F1AA030838AB0308DBAB0308ACCB03084B
:103ED00054850120508501202DE9F14FD0E9556A24
:103EE0000746B06803681B6A9847B0F5C26F05D2F1
:103EF000434BA321434A444833F0D6FF706803681C
:103F00001B6A98470F2803D8404BA4213D4AF2E78B
:103F1000F06803681B6A98470B2803D83C4BA5211F
:103F2000384AE8E7DFF8F0901FF0B6F904301FF0E8
:103F3000F1F9D9F8000010B10368DB689847D9F8A7
:103F4000000010B103681B689847DFF8D080D8F8EC
:103F5000000010B103685B699847D7F83C0110B1C5
:103F600003685B689847D8F8000010B103681B68C5
:103F70009847D7F83C0110B103689B689847002127
:103F8000F068FFF7FFFE4FF0000B224B0446C0F82D
:103F900004B0594680F808B00360B06803685B6AF3
:103FA0009847054603F0DCFE7068594603685B6A73
:103FB00098470646294603F059FE331DC7F83C6171
:103FC0002846C9F80040C8F80050CAF800302B68ED
:103FD000C6F808A0DB68EE639847336830461B6874
:103FE00098472146284621F025FC236820461B6976
:103FF0009847236820465B6901B0BDE8F04F184739
:1040000091A903087EAC0308F1AA030838AB0308A2
:10401000DBAB0308ACCB030854850120508501209D
:104020002DE9F14FD0E9556A0746B06803681B6A6D
:10403000984743F26F03984205D8444BA321444A62
:10404000444833F031FF706803681B6A98470F28B3
:1040500003D8414BA4213E4AF2E7F06803681B6A8B
:1040600098470B2803D83D4BA521394AE8E7DFF8EC
:10407000F4901FF011F904301FF04CF9D9F800004A
:1040800010B10368DB689847D9F8000010B10368E5
:104090001B689847DFF8D080D8F8000010B103689B
:1040A0005B699847D7F83C0110B103685B68984793
:1040B000D8F8000010B103681B689847D7F83C0196
:1040C00010B103689B6898470021F068FFF75AFE1B
:1040D0004FF0000B224B0446C0F804B0594680F85C
:1040E00008B00360B06803685B6A9847054603F050
:1040F00013FA7068594603685B6A98470646294672
:1041000003F06CF9331DC7F83C612846C9F800403C
:10411000C8F80050CAF800302B68C6F808A0DB6861
:10412000EE639847336830461B6898472146284617
:1041300021F080FB236820461B69984723682046AE
:104140005B6901B0BDE8F04F184700BF91A90308B3
:1041500050AD0308F1AA030838AB0308DBAB030832
:10416000ACCB03085485012050850120406A70477C
:10417000806A704770470B888A889BB2D20A10B554
:104180004C88C16943EA044351F82200184410BD29
:1041900010B50446BAB1107B68B1537BD27A1B02CA
:1041A00003F4E0631A43236A03EB82031A888A420A
:1041B00002D193F9020010BD05D80138043380B252
:1041C0000028F3D1F7E70020F5E710B504462C21CD
:1041D00032F0ECF9204610BD30B58BB00446BDF886
:1041E00060500895BDF85C5007959DF850500695B5
:1041F0009DF84C5005959DF8485004959DF8445005
:1042000003959DF8405002959DF83C500195BDF8EE
:104210003850009520F09AFE064B20462360159BEF
:10422000E361169B2362199B63621A9BA3620BB026
:1042300030BD00BFD0CB0308806A7047704770471D
:1042400070477047704780F82C10704710B40368AF
:10425000046BD3F8A430624361435DF8044B184704
:10426000D0ED0C7A0368F8EEE77A10B420EE270A56
:10427000D3F8A440B5EEC00AF1EE10FA1ADBB6EEA0
:10428000007A30EE070ABDEEC07A17EE101A60EE23
:10429000A70AF5EEC00AF1EE10FA1EDBF6EE007A80
:1042A00070EEA70AFDEEE07A17EE902A23465DF83D
:1042B000044B1847BDEEC07AF8EEC76A17EE103A05
:1042C000013B30EE660AF7EE086A30EE260ABDEED4
:1042D000C00A10EE101A1944D9E7FDEEE07AB8EEE4
:1042E000E77A17EE903A013B70EEC70AB7EE087A0C
:1042F00070EE870AFDEEE00A10EE902A1A44D5E728
:1043000010B40368046BD3F8B03062435DF8044B1B
:104310001847D0ED0C7A0368F8EEE77A10B427EE70
:10432000800AD3F8B040B5EEC00AF1EE10FA0BDB0C
:10433000F6EE007A30EE270AFDEEC07A17EE902AEC
:1043400023465DF8044B1847FDEEC07AB8EEE77AD5
:1043500017EE903A013B30EE470AB7EE087A30EE9E
:10436000070ABDEEC00A10EE102A1A44E8E710B49E
:104370000368446BD3F8BC30624361435DF8044B7F
:104380001847D0ED0D7A0368F8EEE77A10B420EE06
:10439000270AD3F8BC40B5EEC00AF1EE10FA1ADBDA
:1043A000B6EE007A30EE070ABDEEC07A17EE101AAC
:1043B00060EEA70AF5EEC00AF1EE10FA1EDBF6EE8B
:1043C000007A70EEA70AFDEEE07A17EE902A2346F7
:1043D0005DF8044B1847BDEEC07AF8EEC76A17EED9
:1043E000103A013B30EE660AF7EE086A30EE260A14
:1043F000BDEEC00A10EE101A1944D9E7FDEEE07ABE
:10440000B8EEE77A17EE903A013B70EEC70AB7EEC6
:10441000087A70EE870AFDEEE00A10EE902A1A4440
:10442000D5E710B40368446BD3F8C03062435DF83D
:10443000044B1847D0ED0D7A0368F8EEE77A10B414
:1044400027EE800AD3F8C040B5EEC00AF1EE10FAAC
:104450000BDBF6EE007A30EE270AFDEEC07A17EE9F
:10446000902A23465DF8044B1847FDEEC07AB8EE5B
:10447000E77A17EE903A013B30EE470AB7EE087A3A
:1044800030EE070ABDEEC00A10EE102A1A44E8E723
:10449000D0F82C31026B002B07DB02EB430090FBC2
:1044A000F2F000EBD070401070476FF0010101FB9B
:1044B0000320013890FBF2F000EBD0704010404236
:1044C0007047D0ED4B7A90ED0C0AF8EEE77AB8EE33
:1044D000C00A87EE800A7047D0F82C017047D0F8E8
:1044E0003031026B002B07DB02EB430090FBF2F054
:1044F00000EBD070401070476FF0010101FB03200A
:10450000013890FBF2F000EBD07040104042704751
:10451000D0ED4C7A90ED0C0AF8EEE77AB8EEC00ACE
:1045200087EE800A7047D0F830017047D0F83431F8
:10453000426B002B07DB02EB430090FBF2F000EB39
:10454000D070401070476FF0010101FB032001386B
:1045500090FBF2F000EBD070401040427047D0ED7D
:104560004D7A90ED0D0AF8EEE77AB8EEC00A87EEC4
:10457000800A7047D0F834017047D0F83831426B68
:10458000002B07DB02EB430090FBF2F000EBD07056
:10459000401070476FF0010101FB0320013890FBD0
:1045A000F2F000EBD070401040427047D0ED4E7AF0
:1045B00090ED0D0AF8EEE77AB8EEC00A87EE800AB1
:1045C0007047D0F838017047036870B50446D3F8D7
:1045D00088300D46164698472368324629462046BD
:1045E000D3F89030BDE8704018470368D3F8943092
:1045F00018470368D3F8D43018470368D3F8E0307D
:1046000018470368002A10B4D3F8A430046B0EDBFB
:1046100004EB420292FBF4F101EBD1714910B0F9C5
:104620001E215DF8044B013A0A44494218476FF0D5
:10463000010101FB0241013991FBF4F101EBD17160
:1046400049104942EBE70368D3F83C311847026B45
:1046500003685143D3F8483118470368D3F844310D
:104660001847D0ED0C7A0368F8EEE77AD3F84821C2
:1046700027EE800AB5EEC00AF1EE10FA08DBF6EE7E
:10468000007A30EE270AFDEEC07A17EE901A104736
:10469000FDEEC07AB8EEE77A17EE903A013B30EEC5
:1046A000470AB7EE087A30EE070ABDEEC00A10EEF0
:1046B000101A1944EBE7C0F83C1170470368D3F8AF
:1046C00050311847036810B5D3F85C310446984759
:1046D0000028236B07DB03EB400090FBF3F000EBBB
:1046E000D070401010BD6FF0010202FB00300138A5
:1046F00090FBF3F000EBD07040104042F2E703680B
:10470000D3F858311847036810B50446D3F85C3124
:10471000984707EE900A94ED0C0AF8EEE77AB8EEA7
:10472000C00A87EE800A10BDD0F83C017047026BCA
:1047300003685143D3F868311847D0ED0C7A036809
:10474000F8EEE77AD3F8682127EE800AB5EEC00AC2
:10475000F1EE10FA08DBF6EE007A30EE270AFDEEF5
:10476000C07A17EE901A1047FDEEC07AB8EEE77ADD
:1047700017EE903A013B30EE470AB7EE087A30EE7A
:10478000070ABDEEC00A10EE101A1944EBE7C0F894
:1047900040117047036810B5D3F874310446984748
:1047A0000028236B07DB03EB400090FBF3F000EBEA
:1047B000D070401010BD6FF0010202FB00300138D4
:1047C00090FBF3F000EBD07040104042F2E703683A
:1047D00010B50446D3F87431984707EE900A94ED6B
:1047E0000C0AF8EEE77AB8EEC00A87EE800A10BD30
:1047F000D0F8400170470846704703680029026BF3
:10480000D3F8843110B504460EDB02EB410191FB75
:10481000F2F101EBD171491009B220469847D4E971
:104820004F2302FB003010BD6FF0010000FB01219F
:10483000013991FBF2F101EBD17149104942EBE7EB
:10484000006B7047406B70470368D3F848311847D6
:104850000368D3F85C311847026B03685143D3F8FF
:1048600014311847036870B5D3F818510446D0F8CE
:104870004461D3F8803198472B4656F820102046E3
:10488000BDE870401847D0F84831B0F91E0119440E
:10489000081A7047C1627047C06A704701207047AC
:1048A00070477047C06B18B10368D3F88030184761
:1048B000704730B5B2F81A11B2F91441B2F940504C
:1048C0002144B2F842204480521A002185800180A0
:1048D000C28030BD10B54280BDF90840BDF90C2042
:1048E00004808280C38010BD0B680846D3F8D430A2
:1048F00018470B680846D3F8E0301847B1F914019F
:104900007047B1F81431B1F81A21B1F842001344DC
:10491000C01A00B27047B1F916017047B1F81631EC
:10492000B1F81821B1F840001344C01A00B2704722
:104930000B6808461146D3F81431184730B5B2F960
:104940001651B2F81841B2F840102C44B2F9422086
:104950000580091B0024C2804480818030BD028014
:104960008380BDF90020BDF904304280C3807047C8
:104970000B680846D3F8EC3018470B680846D3F8A4
:10498000F8301847B1F916017047B1F81631B1F88F
:104990001821B1F840001344C01A00B27047B1F9B1
:1049A00014017047B1F81431B1F81A21B1F842007E
:1049B0001344C01A00B270470B6808461146D3F87A
:1049C0001831184730B585B00368044601816D463B
:1049D0000146D3F884303C342846984795E80700D0
:1049E00084E8070005B030BD30B585B003680446E3
:1049F00041816D460146D3F884303C3428469847BF
:104A000095E8070084E8070005B030BD0022028069
:104A100042808280C280704780F8361070470368F9
:104A200070B504461B6B15469847236820462946F7
:104A30005B6EBDE8704018470020704700224FF0C1
:104A4000FF318260C0E900217047806C7047704779
:104A5000704770477047704770477047704770479E
:104A6000704770477047704770477047704770478E
:104A700070477047704770477047704730B444685C
:104A80000346C2689B68551004EB6200D20748BF1A
:104A9000625930BC48BFD35818470346406830B10C
:104AA0009A681AB9D86800F0010070470120704771
:104AB00030B444680346C2689B68551004EB62003A
:104AC000D20748BF625930BC48BFD3581847034685
:104AD000406830B19A681AB9D86800F00100704790
:104AE0000120704710B504464C2131F05FFD20468F
:104AF00010BD10B5044640F26C4131F057FD204620
:104B000010BD10B50446402131F050FD204610BDC7
:104B100010B50446402131F049FD204610BD10B5C6
:104B20000446102131F042FD204610BD10B5044668
:104B3000102131F03BFD204610BD38B50346084634
:104B4000D3E90C540B68D3F88C30984729460246B9
:104B50002046BDE8384019F0D7BF38B503460846AF
:104B6000D3E90C540B68D3F8943098472946024691
:104B70002046BDE8384019F0C7BF00F528639942C8
:104B800070B504460D4603D11EF086FBFFF7DAF838
:104B900004F618539D4203D123682046DB6A9847E8
:104BA00004F698539D4203D1236820461B6B984717
:104BB00004F618639D4203D1236820465B6B984737
:104BC00004F594531C339D4203D1236820469B6B0C
:104BD000984704F6FC239D4203D123682046DB6BF3
:104BE000984704F6F4339D4203D1236820461B6C9A
:104BF000984704F6C4639D4203D1236820469B6C0A
:104C0000984704F644739D4203D123682046DB6C29
:104C1000984704F6C4739D4203D1236820461B6D58
:104C2000984704F547639D4203D1236820465B6D96
:104C3000984704F5835310339D4203D123682046DF
:104C40009B6D984704F5875310339D4203D1236829
:104C50002046DB6D984704F533639D4203D12368FA
:104C600020461B6E984704F58E5314339D4203D1A2
:104C7000236820465B6E984704F58C531C339D4295
:104C800005D1236820469B6EBDE87040184770BD73
:104C900008B590F82C300BB1FEF710FC08BD08B534
:104CA000FEF70CFC08BD00F644128A4202D10368EC
:104CB0005B6C1847704700000A1E10B503DBB0F9A3
:104CC0001E41944206DC084B40F23961074A08480D
:104CD00033F0EAF80368D0F84441D3F880319847BC
:104CE00054F8200010BD00BF22AE030845AE0308F3
:104CF00094AE03080B1E10B5044603DBB0F91E2169
:104D00009A4206DC074B40F23361074A074833F00A
:104D1000CBF80368D3F884319847D4E94F2302FBDA
:104D2000003010BD22AE0308F1AE030894AE0308B4
:104D3000036870B55E6B0446114B8DB21B682BB9CE
:104D4000104B6C21104A114833F0AEF81049828D97
:104D50000988914203D80F4B6D210B4AF3E713F8F2
:104D600012200D4B1B6853F8220003681B6B9847F9
:104D7000291A3346204609B2BDE87040184700BFE3
:104D80006485012040AF030882AF0308BDAF03086C
:104D90006885012004B003086C850120036870B5A4
:104DA00004461B6B154698472368204629465B6BD3
:104DB000BDE87040184770B504461D46BDF9106047
:104DC000FFF7ECFF2368294620469B6B9847236832
:104DD00031462046DB6BBDE8704018474FF48071C8
:104DE00000228184054982620160C0E90122C0E994
:104DF0000322C0E90522C0E90722704708E603083C
:104E00000022C0E90122C0E90322C0E90522C0E96D
:104E100007224FF480728284014A0260704700BF0B
:104E200038CC030810B504462622002133F0FAFAE4
:104E30002046FFF7E5FF044B20462360FF2384F85C
:104E400026300023A36210BD00F1030837B501AB83
:104E5000154620F079F900282A4601994FEA4014B6
:104E60004FF0200004DB20F08EF9204403B030BD69
:104E700020F089F9201AF9E770B5B0F81A310E461A
:104E8000B0F91441B0F842502344ED1A2DB22C442D
:104E9000691ED0E94D32013CD21AF01AFFF7D6FF55
:104EA000C0EB441070BD38B504460D46B4F8163159
:104EB000B4F818110B44B4F84010C91AD0E94B02E9
:104EC00009B2121A281A0139FFF7C0FFB4F91631D6
:104ED00000EB431038BD000010B504462622002127
:104EE00033F0A0FA2046FFF78BFF0A4B4FF47F0206
:104EF00020462360084BA3624FF6FF73A38500236F
:104F0000C4E90C324FF0FF322387E363C4E9102376
:104F100010BD00BF70F0030830CB030810B5044685
:104F2000FFF7DAFF024B204623600023A36410BD85
:104F300010CE030810B504462622002133F072FA81
:104F40002046FFF75DFF00232046A36284F82C3043
:104F5000012384F82430044B23604FF6FF73E3856C
:104F6000238684F8323010BD68F1030813888386E5
:104F70001BF0F9BB10B50446FFF7DCFF034B2046DE
:104F800023604FF6FF73A38610BD00BFFCEF03083C
:104F900010B4C46B4A01B4EB411F04D05DF8044B5C
:104FA000C26318F0F5BF5DF8044B70472DE9F04F70
:104FB0000446C9B0002520F091FAA046DE4B04F16A
:104FC0006C0904F19807E563012648F8403B404628
:104FD000FFF728FF4846FFF725FFC8213846DFF8CE
:104FE00070B319F02DFDD54B2946C722C4F898306F
:104FF00004F5F27338460BF1240AC4E97565C4E977
:105000007735FFF723F9CE4BC4F8983004F20453F8
:1050100018463A9318F0C8FD0A23C4F83465C4F85A
:105020003835C84B84F83C65C4F8043504F2445361
:10503000C4F830551846C4F840553B9318F0B4FDF9
:105040000A23C4F8746584F87C65C4F87835BE4BCF
:10505000C4F87055C4F8443504F28453C4F880553C
:1050600018463C9318F0A0FDB84B04F5B762C4F89D
:10507000B055C4F884354FF0020310462692A4F8C8
:10508000B435FFF74BFF04F2046210462792FFF796
:1050900045FF04F5CA6210462892FFF73FFF04F26D
:1050A0009C6210462992FFF739FF04F5DD62104635
:1050B0002A92FFF733FF04F234721046119218F06F
:1050C00047FF04F2A47210463992FEF77DFB04F507
:1050D000F762C4F8A4B71046C4F8ACA7C4F8B05738
:1050E000129218F035FF04F6280210463892FEF7A7
:1050F0006BFB04F63C02C4F828B81046C4F830A88C
:10510000C4F83458139218F023FF04F6AC0210468A
:105110003792FEF759FB04F50C62C4F8ACB81046A0
:10512000C4F8B4A8C4F8B858149218F011FF04F5E4
:10513000136210463692FEF747FB04F64412C4F899
:1051400030B94FF4887B1046C4F838A9C4F83C59EC
:105150004FF07F4A079215F05BFA04F6542210468E
:105160000892FFF73BFE04F5286210462B92FFF7EA
:10517000E1FE04F6B42210461692FFF7ADFE04F6E7
:10518000FC2210462C92FFF7D5FE04F53362104640
:105190002D92FFF7CFFE04F6643210461792FFF708
:1051A0009BFE04F6AC3210461892FFF795FE04F60B
:1051B000F43210462E92FFF7BDFE04F62842104648
:1051C0001992FFF789FE04F5476210462F92FFF708
:1051D000B1FE04F6A44210461A92FFF77DFE04F6D3
:1051E000EC4210460992FFF7F9FD04F618521046FA
:1051F0003092FFF7BFFE04F5556210461B92FFF791
:105200006BFE04F6985210463192FFF7B3FE04F598
:105210005D6210461C92FFF75FFE04F618621046AE
:105220003292FFF7A7FE04F5656210461D92FFF764
:1052300053FE04F6986210460A92FFF7CFFD04F67B
:10524000C46210463392FFF795FE04F6FC621046E6
:105250001E92FFF741FE04F6447210463492FFF7A7
:1052600089FE04F67C7210461F92FFF735FE04F6A5
:10527000C47210463592FFF77DFE04F6FC721046AC
:105280002092FFF729FE04F5825213460433184694
:105290000B93FFF7A3FD04F58352103210462192C1
:1052A000FFF768FE04F58552083210460D92FFF7AD
:1052B00013FE04F58752103210462292FFF73AFE91
:1052C00004F589521346043318461593FFF726FE5A
:1052D00004F58B52103210460C92FFF77FFD04F557
:1052E0008C521C3210462392FFF744FE04F58E5276
:1052F000143210462492FFF73DFE04F590520C3212
:1053000010460E92FFF7E8FD04F592521432104653
:105310000F92FFF7E1FD04F594521C3210462592DE
:105320001BF0DCFB04F59652183210461092FFF782
:10533000D3FD04F500530DE068D0030850EA0308DC
:10534000A0CE0308A0CC030858CD030894ED0308B1
:10535000B4E70308684A04F59C504FF4E151C3F8E0
:10536000BC4FC3F8B82F1830644AC3F8C45FC3F801
:10537000C02F634AC3F8CC4FC3F8C82F614AC3F8A3
:10538000D45FC3F8D02F1CF0CBFA2A4640464FF426
:10539000F0732946CDF800B0FFF70DFD231D4146FF
:1053A000C4F868A018463D9315F0ABFA4FF4F073BB
:1053B0002A4648462946CDF800B0FFF7FCFC49468E
:1053C000201DC4F894A015F09CFAE6233846142258
:1053D0000F21009340F2B3134FF0FF3BFFF7EBFCBC
:1053E000314638462A46FFF7EFF838462B462A461C
:1053F0002946009519F0D6FA2B4638462A46294602
:10540000009519F0D2F938464FF482722946FEF71A
:10541000AEFFD4F8341528204FF04608324684F801
:105420003C65484304F5995984F82A850028C4F856
:1054300030B5B8BF4042C4F8380519F065FB3A9959
:10544000C4F838053846C4F8346519F0B9F9D4F809
:105450007415324684F87C65480184F86A85C4F87E
:1054600070B50028DFF8B880B8BF4042C4F87805AE
:1054700019F04AFB3B99C4F878053846C4F87465BE
:105480003EAE19F09DF9204B38463C99C4F8B03532
:105490004FF00203A4F8B43519F092F939460F27FA
:1054A000201D15F02EFAFA223C2339462698009743
:1054B000FFF781FCD4F8B83526993046D3F884300C
:1054C000C4F8E8B5A4F8EC55984704F2F45396E80C
:1054D000070083E80700D8F800302BB90B4B602198
:1054E0000B4A0C4832F0E0FC0B4B1B88152B19D8EB
:1054F0000A4B6121064AF4E738D003087B4B0008C9
:1055000050D00308A74C000816BCC4FF40AF0308E6
:1055100042B00308BDAF03086885012004B003084A
:1055200064850120D14B152104F5995A186801F0C2
:10553000D3FECF4A03460A2148460AF1140A21F055
:10554000D1FC1623C4F8009646A9DFF830932698BC
:10555000ADF81C31CDF818911BF0AAF82699201D42
:1055600015F0CFF93C23FA22279819460097FFF748
:1055700022FCD4F8043627993046D3F88430C4F896
:1055800034B6A4F83856984704F5C86396E807007F
:1055900083E80700D8F80030002B9FD0B54A138865
:1055A000132BA5D9B14B1321186801F095FEB04A11
:1055B00003460A21504621F095FC142346A927985A
:1055C000C4F84CA604F59A5AADF81C31CDF81891E0
:1055D0001BF06EF82799201D15F093F9FA2250233D
:1055E000782128980AF1080A0097FFF7E4FBD4F81D
:1055F000503628993046D3F88430C4F880B6A4F8E1
:105600008456984704F28C6396E8070083E8070005
:10561000D8F80030002B3FF461AF964A1388112B65
:105620007FF666AF914B1121186801F055FE904A44
:1056300003460A21504621F055FC122346A928981A
:10564000C4F898A604F59A5AADF81C31CDF8189113
:105650001BF02EF82899201D15F053F9FA2250233B
:10566000C82129980AF11C0A0097FFF7A4FBD4F877
:105670009C3629993046D3F88430C4F8CCB6A4F8C7
:10568000D056984704F5DB6396E8070083E80700E7
:10569000D8F80030002B3FF421AF764A13880F2B47
:1056A0007FF626AF714B3946186801F015FE704A37
:1056B00003460C21504621F015FC102346A92998D9
:1056C000C4F8E4A6ADF81C31CDF818911AF0F0FF3B
:1056D0002999201D15F015F9FA2250234FF48C71E9
:1056E0002A980097FFF767FBD4F8E8362A993046E6
:1056F000D3F88430A4F81C5704F59B55C4F818B7A8
:10570000984704F22473143596E8070083E80700ED
:10571000D8F80030002B3FF4E1AE564A13880D2B29
:105720007FF6E6AE514B0D21CB4640F2D7581868B4
:105730004BF6C05601F0D0FD4D4A03460A212846DB
:105740004D4F21F0CFFB0E2346A92A98C4F83057BD
:105750000025ADF81C3104F53E5ACDF818911AF029
:10576000A7FF2A99201D15F0CCF80F2240F2C7138D
:105770000F2111980AF1380A0092A122FFF71BFBB2
:10578000DFF8FC90399A29461198C4F8B097A4F82C
:10579000B487C4F85C27602218F0F0FC60224FF454
:1057A0006151119818F0F5FC02211198FFF7F0FBF8
:1057B0002946119818F0F8FC1199201D84F85957C2
:1057C00015F09FF80F224FF4E1730F211298009209
:1057D0006F22FFF7F0FA389A29461298C4F8347805
:1057E000A4F83868C4F8E027602218F0C7FC6022EB
:1057F0004FF46151129818F0CCFC02211298FFF777
:10580000C7FB2946129818F0CFFC1299201D84F886
:10581000DD5715F076F8FA220F235A2113980092DB
:105820002A46FFF7C8FA379A60211398C4F8B89847
:105830004FF00509A4F8BC884FF00208C4F86428AA
:105840002A4618F09BFC4FF4FA526021139818F086
:10585000A0FC02211398FFF79BFB2946139818F030
:10586000A3FC1399201D84F861580BE0708501207A
:1058700098C203086885012000BBBBFF30CB03083A
:10588000BBBB00FF15F03DF8FA220F2378211498D6
:1058900000922A46FFF78FFA369A60211498C4F8CE
:1058A0003C790C27A4F840693EAEC4F8E8282A46A3
:1058B00018F064FC4FF4FA526021149818F069FC57
:1058C00002211498FFF764FB2946149818F06CFC29
:1058D0001499201D84F8E55815F013F82A464FF462
:1058E0009C710798FFF75AFA4FF00B02732345A8F3
:1058F000ADF8102146AA03210295009244AAADF802
:105900001471ADF81871CDE90353142301930346C4
:10591000079814F0EDFD2946079814F0A8FB2D21F7
:10592000079814F07CFB0F21079814F083FBCE49F5
:10593000079814F096FB1221079814F08CFB294667
:10594000079814F082FB04F53F510798083114F0D2
:10595000C4FBFA2227210898134600920A22FFF777
:105960002AFA2A4629462B98FFF718FA4FF0060222
:1059700046A845A9ADF8182102462B98ADF8148128
:105980001AF0F1FE2B990898C4F8A8AA14F0B9FFF0
:1059900004221C211698FFF701FA4FF0FF301699E8
:1059A000C4F8E40A3046A4F8E85A1AF0E7FB169A5D
:1059B00002F13C0396E8070083E807001D2346A98F
:1059C0001698ADF81C31CDF818B11AF071FE169981
:1059D000089814F096FF302229462C98FFF7DEF93C
:1059E00046A845A9ADF8148102462C98ADF8189147
:1059F0001AF0B9FE2C990898C4F824AB14F081FF72
:105A0000C02229462D98FFF7C9F946A845A9ADF847
:105A1000148102462D98ADF818911AF0A4FE2D9924
:105A20000898C4F858AB14F06CFF34223946179824
:105A3000FFF7B4F94FF0FF301799C4F8940B3046D4
:105A4000A4F8985B1AF09AFB179A02F13C0396E8C7
:105A5000070083E807004FF01C0046A9CDF818B1F5
:105A6000ADF81C0117981AF023FE1799089814F046
:105A700048FFC42211211898FFF790F94FF0FF302A
:105A80001899C4F8DC0B3046A4F8E05B1AF076FBFA
:105A9000189A02F13C0396E8070083E807004FF0EC
:105AA000040046A9CDF818B1ADF81C0118981AF0F9
:105AB000FFFD1899089814F024FF602229462E98BB
:105AC000FFF76CF946A845A9ADF8148102462E9857
:105AD000ADF818911AF047FE2E990898C4F81CAC3E
