:020000040800F2
:1000000000000520791B0008951A0008971A0008BF
:10001000991A00089B1A00089D1A000800000000A9
:10002000000000000000000000000000E18C00085B
:100030009F1A000800000000818D0008E58D00086F
:10004000C91B0008C91B0008C91B0008C91B000800
:10005000C91B0008C91B0008C91B0008C91B0008F0
:10006000C91B0008C91B0008C91B0008C91B0008E0
:10007000C91B0008C91B0008C91B0008C91B0008D0
:10008000C91B0008C91B0008C91B0008C91B0008C0
:10009000C91B0008C91B0008C91B0008C91B0008B0
:1000A000C91B0008C91B0008C91B0008C91B0008A0
:1000B000C91B0008C91B0008C91B0008C91B000890
:1000C000C91B0008C91B0008C91B0008C91B000880
:1000D000C91B0008C91B0008C91B0008C91B000870
:1000E000C91B0008C91B0008C91B0008C91B000860
:1000F000C91B0008C91B0008C91B0008C91B000850
:10010000C91B0008C91B0008C91B0008C91B00083F
:10011000C91B0008C91B0008A11A0008C91B000858
:10012000C91B0008C91B0008C91B0008C91B00081F
:10013000C91B0008C91B0008C91B0008C91B00080F
:10014000C91B0008C91B0008C91B0008C91B0008FF
:10015000C91B0008C91B0008C91B0008C91B0008EF
:10016000C91B0008C91B0008C91B0008C91B0008DF
:10017000C91B0008C91B0008C91B000800000000BB
:10018000C91B0008C91B0008C91B0008C91B0008BF
:10019000C91B0008C91B0008C91B0008C91B0008AF
:1001A000AD1A0008C91B0008B91A0008C91B0008CD
:1001B000C91B0008C91B0008C91B0008C91B00088F
:0801C000C91B0008C91B00085F
:1001D00010B5054C237833B9044B13B10448AFF381
:1001E00000800123237010BD4003002000000000A8
:1001F0002C42030808B5034B1BB103490348AFF376
:10020000008008BD00000000440300202C420308C9
:1002100001F0FF01102A2BDB10F0070F08D010F8B7
:10022000013B013A8B422DD010F0070F42B3F6D1BB
:10023000F0B441EA012141EA014122F007047FF0D4
:1002400000070023F0E80256083C85EA010586EA2B
:10025000010685FA47F5A3FA87F586FA47F6A5FA67
:1002600087F68EB9EED1F0BC01F0FF0102F0070273
:1002700032B110F8013B013A83EA010313B1F8D11E
:100280000020704701387047002D06BF35460338FF
:10029000073815F0010F07D1013015F4807F02BF38
:1002A000013015F4C03F0130F0BC0138704700BF89
:1002B00081F0004102E000BF83F0004330B54FEA17
:1002C00041044FEA430594EA050F08BF90EA020F84
:1002D0001FBF54EA000C55EA020C7FEA645C7FEA17
:1002E000655C00F0E2804FEA5454D4EB5555B8BF3A
:1002F0006D420CDD2C4480EA020281EA030382EAAB
:10030000000083EA010180EA020281EA0303362D3C
:1003100088BF30BD11F0004F4FEA01314FF4801C0F
:100320004CEA113102D0404261EB410113F0004F21
:100330004FEA03334CEA133302D0524263EB4303D8
:1003400094EA050F00F0A780A4F10104D5F1200E76
:100350000DDB02FA0EFC22FA05F2801841F10001D1
:1003600003FA0EF2801843FA05F359410EE0A5F1A5
:1003700020050EF1200E012A03FA0EFC28BF4CF0D6
:10038000020C43FA05F3C01851EBE37101F000458C
:1003900007D54FF0000EDCF1000C7EEB00006EEB99
:1003A0000101B1F5801F1BD3B1F5001F0CD3490823
:1003B0005FEA30004FEA3C0C04F101044FEA44527A
:1003C00012F5800F80F09A80BCF1004F08BF5FEA01
:1003D000500C50F1000041EB045141EA050130BDE1
:1003E0005FEA4C0C404141EB0101013C28BFB1F5F3
:1003F000801FE9D291F0000F04BF01460020B1FA3E
:1004000081F308BF2033A3F10B03B3F120020CDA10
:100410000C3208DD02F1140CC2F10C0201FA0CF0EE
:1004200021FA02F10CE002F11402D8BFC2F1200C53
:1004300001FA02F120FA0CFCDCBF41EA0C01904009
:10044000E41AA2BF01EB0451294330BD6FEA040452
:100450001F3C1CDA0C340EDC04F11404C4F120023D
:1004600020FA04F001FA02F340EA030021FA04F34F
:1004700045EA030130BDC4F10C04C4F1200220FAA6
:1004800002F001FA04F340EA0300294630BD21FAE4
:1004900004F0294630BD94F0000F83F4801306BFAA
:1004A00081F480110134013D4EE77FEA645C18BF9E
:1004B0007FEA655C29D094EA050F08BF90EA020F35
:1004C00005D054EA000C04BF1946104630BD91EA2D
:1004D000030F1EBF0021002030BD5FEA545C05D130
:1004E0004000494128BF41F0004130BD14F580046F
:1004F0003CBF01F5801130BD01F0004545F0FE41E3
:1005000041F470014FF0000030BD7FEA645C1ABF17
:10051000194610467FEA655C1CBF0B46024650EA4E
:10052000013406BF52EA033591EA030F41F400217A
:1005300030BD00BF90F0000F04BF0021704730B500
:100540004FF4806404F132044FF000054FF00001D5
:1005500050E700BF90F0000F04BF0021704730B596
:100560004FF4806404F1320410F0004548BF40426B
:100570004FF000013EE700BF42004FEAE2014FEAC0
:1005800031014FEA02701FBF12F07F4393F07F4F9B
:1005900081F06051704732F07F4208BF704793F09E
:1005A0007F4F04BF41F40021704730B54FF46074B1
:1005B00001F0004521F000411CE700BF50EA0102B4
:1005C00008BF704730B54FF000050AE050EA01025D
:1005D00008BF704730B511F0004502D5404261EBCD
:1005E00041014FF4806404F132045FEA915C3FF40E
:1005F000D8AE4FF003025FEADC0C18BF03325FEAAB
:10060000DC0C18BF033202EBDC02C2F1200300FA5B
:1006100003FC20FA02F001FA03FE40EA0E0021FA80
:1006200002F11444BDE600BF70B54FF0FF0C4CF46E
:10063000E06C1CEA11541DBF1CEA135594EA0C0F20
:1006400095EA0C0F00F0DEF82C4481EA030621EA5B
:100650004C5123EA4C5350EA013518BF52EA033596
:1006600041F4801143F4801338D0A0FB02CE4FF048
:100670000005E1FB02E506F00042E0FB03E54FF078
:100680000006E1FB03569CF0000F18BF4EF0010E70
:10069000A4F1FF04B6F5007F64F5407404D25FEA6C
:1006A0004E0E6D4146EB060642EAC62141EA55511F
:1006B0004FEAC52040EA5E504FEACE2EB4F1FD0C61
:1006C00088BFBCF5E06F1ED8BEF1004F08BF5FEADF
:1006D000500E50F1000041EB045170BD06F0004691
:1006E00046EA010140EA020081EA0301B4EB5C043E
:1006F000C2BFD4EB0C0541EA045170BD41F4801136
:100700004FF0000E013C00F3AB8014F1360FDEBF5A
:10071000002001F0004170BDC4F10004203C35DA36
:100720000C341BDC04F11404C4F1200500FA05F3B9
:1007300020FA04F001FA05F240EA020001F000425A
:1007400021F0004110EBD37021FA04F642EB0601D0
:100750005EEA430E08BF20EAD37070BDC4F10C04FA
:10076000C4F1200500FA04F320FA05F001FA04F2BE
:1007700040EA020001F0004110EBD37041F10001AA
:100780005EEA430E08BF20EAD37070BDC4F12005B5
:1007900000FA05F24EEA020E20FA04F301FA05F21D
:1007A00043EA020321FA04F001F0004121FA04F2C5
:1007B00020EA020000EBD3705EEA430E08BF20EA95
:1007C000D37070BD94F0000F0FD101F000464000CF
:1007D00041EB010111F4801F08BF013CF7D041EA51
:1007E000060195F0000F18BF704703F00046520055
:1007F00043EB030313F4801F08BF013DF7D043EA26
:100800000603704794EA0C0F0CEA135518BF95EADB
:100810000C0F0CD050EA410618BF52EA4306D1D162
:1008200081EA030101F000414FF0000070BD50EA81
:10083000410606BF1046194652EA430619D094EA0B
:100840000C0F02D150EA013613D195EA0C0F05D1F5
:1008500052EA03361CBF104619460AD181EA030149
:1008600001F0004141F0FE4141F470014FF0000001
:1008700070BD41F0FE4141F4780170BD70B54FF09C
:10088000FF0C4CF4E06C1CEA11541DBF1CEA13551C
:1008900094EA0C0F95EA0C0F00F0A7F8A4EB0504FE
:1008A00081EA030E52EA03354FEA013100F08880F5
:1008B0004FEA03334FF0805545EA131343EA1263BE
:1008C0004FEA022245EA111545EA10654FEA002673
:1008D0000EF000419D4208BF964244F1FD0404F52C
:1008E000407402D25B084FEA3202B61A65EB030588
:1008F0005B084FEA32024FF480104FF4002CB6EB45
:10090000020E75EB030E22BFB61A754640EA0C00C4
:100910005B084FEA3202B6EB020E75EB030E22BF04
:10092000B61A754640EA5C005B084FEA3202B6EB45
:10093000020E75EB030E22BFB61A754640EA9C0004
:100940005B084FEA3202B6EB020E75EB030E22BFD4
:10095000B61A754640EADC0055EA060E18D04FEA92
:10096000051545EA16754FEA06164FEAC30343EA32
:1009700052734FEAC2025FEA1C1CC0D111F4801FFF
:100980000BD141EA00014FF000004FF0004CB6E7F8
:1009900011F4801F04BF01430020B4F1FD0C88BF97
:1009A000BCF5E06F3FF6AFAEB5EB030C04BFB6EBA2
:1009B000020C5FEA500C50F1000041EB045170BD95
:1009C0000EF0004E4EEA113114EB5C04C2BFD4EBC2
:1009D0000C0541EA045170BD41F480114FF0000E46
:1009E000013C90E645EA060E8DE60CEA135594EAC2
:1009F0000C0F08BF95EA0C0F3FF43BAF94EA0C0FC5
:100A00000AD150EA01347FF434AF95EA0C0F7FF439
:100A100025AF104619462CE795EA0C0F06D152EA8D
:100A200003353FF4FDAE1046194622E750EA410671
:100A300018BF52EA43067FF4C5AE50EA41047FF482
:100A40000DAF52EA43057FF4EBAE12E74FEA4102E5
:100A5000B2F1E04324BFB3F5001CDCF1FE5C0DD91C
:100A600001F0004C4FEAC0024CEA5070B2F1004F66
:100A700040EB830008BF20F00100704711F0804F69
:100A800021D113F13872BCBF01F00040704741F42E
:100A900080114FEA5252C2F11802C2F1200C10FA32
:100AA0000CF320FA02F018BF40F001004FEAC12316
:100AB0004FEAD32303FA0CFC40EA0C0023FA02F3BA
:100AC0004FEA4303CCE77FEA625307D150EA013390
:100AD0001EBF4FF0FE4040F44000704701F0004060
:100AE00040F0FE4040F40000704700BF7BB972B98F
:100AF0000029BEBF00204FF0004106E008BF0028DB
:100B00001CBF6FF000414FF0FF3000F0D3B9ADF1E2
:100B1000080C6DE904CE002909DB002B1ADB00F07C
:100B20004DF8DDF804E0DDE9022304B070474042EF
:100B300061EB4101002B1BDB00F040F8DDF804E025
:100B4000DDE9022304B0404261EB4101524263EB14
:100B500043037047524263EB430300F02FF8DDF884
:100B600004E0DDE9022304B0404261EB410170473B
:100B7000524263EB430300F021F8DDF804E0DDE9C5
:100B8000022304B0524263EB4303704753B94AB99E
:100B9000002908BF00281CBF4FF0FF314FF0FF3085
:100BA00000F088B9ADF1080C6DE904CE00F006F84C
:100BB000DDF804E0DDE9022304B070472DE9F047D9
:100BC000089D8E4604468846002B4AD18A42174625
:100BD00062D9B2FA82F64EB1C6F1200301FA06F8E4
:100BE00020FA03F3B74043EA0808B4404FEA174E2F
:100BF0001FFA87FCB8FBFEF1230C0EFB118843EAB9
:100C0000084301FB0CF29A4209D9FB1801F1FF30AD
:100C100080F0EA809A4240F2E78002393B449A1A17
:100C2000A3B2B2FBFEF00EFB102243EA024300FB2C
:100C30000CFC9C4509D9FB1800F1FF3280F0D680EE
:100C40009C4540F2D3803B44023840EA0140A3EB8C
:100C50000C0300211DB1F3400022C5E90032BDE8BC
:100C6000F0878B4205D90DB1C5E900010021084686
:100C7000F5E7B3FA83F1002946D1734502D38242E6
:100C800000F20581841A6EEB030201209046002DCC
:100C9000E5D0C5E90048E2E7002A00F09080B2FA0A
:100CA00082F6002E40F0A4808A1A030C4FEA174EF9
:100CB00080B2BCB20121B2FBFEFC0EFB1C2243EA57
:100CC000024304FB0CF29A4207D9FB180CF1FF38DF
:100CD00002D29A4200F2E080C4469B1AB3FBFEF2B5
:100CE0000EFB123340EA034302FB04F49C4207D993
:100CF000FB1802F1FF3002D29C4200F2CA80024689
:100D00001B1B42EA0C40A5E7C1F120068B4022FAEA
:100D100006F71F430EFA01F420FA06F32EFA06FE38
:100D20004FEA1749234300FA01F81FFA87FCBEFB7C
:100D3000F9F01C0C09FB10EE44EA0E4400FB0CFE1B
:100D4000A64502FA01F209D93C1900F1FF3A80F0F8
:100D50009C80A64540F2998002383C44A4EB0E04E6
:100D60001FFA83FEB4FBF9F309FB13444EEA044473
:100D700003FB0CFCA44508D93C1903F1FF3E80F0AD
:100D80008280A4457FD9023B3C4443EA0040A4EB67
:100D90000C04A0FB02EC64457346E14662D35FD0CD
:100DA0005DB1B8EB030264EB090404FA06F622FA1B
:100DB00001F31E43CC40C5E9006400214FE7B1FBBD
:100DC000F2FC010C41EA0E4180B240EA01423B468E
:100DD00038463C46B846BE462026B1FBF7F1A2EBAA
:100DE000080241EA0C4166E7014618E710462CE785
:100DF000C6F120022EFA02F3B740B14020FA02F207
:100E00004FEA174E0A43B3FBFEF8BCB20EFB183391
:100E1000110C41EA034108FB04F9B04089454FEA4F
:100E2000104380B23ED9791808F1FF3C01D28945C0
:100E30001FD8A1EB0901B1FBFEF909FB04F80EFB79
:100E4000191192B242EA0142424529D2BA1809F177
:100E5000FF31C4D24245C2D2A9F102013A44BEE7F1
:100E6000F0459DD2BEEB02036CEB070C0138E14666
:100E700096E7A7EB09094944A8F1020CB1FBFEF97A
:100E800009FB04F8DBE773467FE7504666E7084650
:100E9000FDE63B44023A33E7ACF1020C3B441CE76D
:100EA00049469CE7A1EB0901C446B1FBFEF909FBE9
:100EB00004F8C4E7704700BF0149002009F00CB9ED
:100EC0007D200008000000002DE9F047DFF894A025
:100ED00000240026204F55462DED028BB0EE088AE7
:100EE0000FF26C09D9E9008920460134FFF732FB83
:100EF00042464B46FFF798FB32463B46FFF794FBD2
:100F0000FFF7A4FD00EE100A31F0E6F820EE080A23
:100F1000B4F5807FAAEC010AE6D1104C104A0020FB
:100F2000236800EB03130130DBB2642805EB830375
:100F30001B6842F8043BF3D1236801332360236824
:100F400003F00303236007F0D7FAE7E7AFF300806D
:100F5000182D4454FB2119400000903F5C070020ED
:100F6000600700205C03002010B594B0102200211F
:100F700002240AA832F01EFA1422002103A832F03B
:100F800019FA1D4B192108A81A6C42F080521A64F4
:100F90001B6C03F080530193019B184B1A6842F4B9
:100FA00040421A6001221B6803F440430293029BF3
:100FB0004FF48033CDE908234FF48003CDE90E438D
:100FC0004FF4D873CDE91244CDE9101306F080FA3E
:100FD00005F0EAFF0F2300200721CDE903344FF489
:100FE000A053CDE905034FF4805303A8079306F0FF
:100FF00057FC14B010BD00BF003802400070004024
:1010000030B54FF480738FB04FF080720E4D069361
:101010009F23099201220093002304466946284633
:101020000593CDE90A2341F28832CDE90733CDE9B2
:101030000C3306F01FF941F288322146284606F0AB
:10104000E3F90FB030BD00BF4009002000B54FF4F8
:10105000807391B04FF04072EF2808934FF0EB038C
:1010600002A90D4802934FF4406309934FF40053D3
:1010700005934FF00003CDE90A3214BF0A2206227D
:101080000F9307926A46CDE90D33CDE9003306F0A0
:1010900035F911B05DF804FB400900202DE98048C6
:1010A0009BB01022002101250DA84FF0104932F00D
:1010B00081F9002404F0C8FEC74B0DA8ADF83450E8
:1010C0001094CDE90E9304F0DDFE17230DA88DF8E2
:1010D00035508DF83C308DF8425004F0D3FE04209A
:1010E00004F0C0FEBFF34F8FBFF36F8FBB4AC2F84F
:1010F0005042BFF34F8FBFF36F8F536943F40033F8
:101100005361BFF34F8FBFF36F8FC2F88440BFF3BB
:101110004F8FD2F8803043F6E074C3F3C900C3F3B5
:101120004E335B0103EA0406014646EA8175013944
:10113000C2F86052F9D2203B13F1200FF2D1BFF375
:101140004F8F536943F480335361BFF34F8FBFF325
:101150006F8F04F0DFFD0024FFF706FF142200214B
:101160000DA832F027F99E4B10219E481A6B0127DB
:101170004FF010084FF0030B42F010024FF4805A6A
:10118000994D4FF004091A631A6B984E02F0100241
:101190000292029A1A6B42F002021A631A6B02F070
:1011A00002020392039A1A6B42F001021A631A6B4D
:1011B00002F001020492049A1A6B42F040021A6390
:1011C0001A6B02F040020592059A1A6B42F4007203
:1011D0001A631A6B02F400720692069A1A6B42F0B6
:1011E00008021A631A6B02F008020792079A1A6B38
:1011F00042F480621A631A6B02F480620892089AC1
:101200001A6B42F020021A631A6B02F02002099254
:10121000099A1A6B42F480721A631A6B02F4807294
:101220000A920A9A1A6B42F080021A631A6B02F051
:1012300080020B920B9A1A6B42F004021A6300228E
:101240001B6B03F004030C930C9B05F067F9012260
:101250000821674805F062F901224FF48051654882
:1012600005F05CF90022C021634805F057F900221F
:101270004021624805F052F90DA95A48CDE90D8781
:10128000CDE90F4B04F0C6FF08230DA95848CDE95E
:101290000D37CDE90F4404F0BDFF0DA95548CDE948
:1012A0000DA7CDE90F4404F0B5FFC0220DA95248A7
:1012B000CDE90D27CDE90F4B04F0ACFF40220DA97D
:1012C0004E48CDE90D27CDE90F4B04F0A3FF4C4864
:1012D0004C49848001600762C0E9054404F0FEFDCA
:1012E00049492846C5E90014C5E90244C5E90A444C
:1012F000C5E90C4404F091FE39462846434D04F0FC
:1013000043FF40234FF4C07241493046B460F4615A
:10131000B462C6E905324FF40062C6E9082A4FF00C
:10132000020A0722C6E900140DA9CDF84CA0C6E9AF
:101330000398CDE90DA2CDE90F92CDE911BA06F0DF
:1013400005FE29464FF6FF7230460194C5E9007844
:10135000C5E9027406F01AFE384604F0FFFC29467F
:101360004FF6FF723046C5E900A8C5E9027406F0E1
:101370000DFE082329464FF6FF723046C5E900B836
:10138000C5E9023406F002FE4FF40C734FF6FF720B
:10139000294601933046019BAF60EB60C5E9009898
:1013A00006F0F4FD40F22B7130461A4D06F00DFEAA
:1013B0004FF0204343F2D202642040F215261A6017
:1013C00004F0CCFC144B154A28462C62C5E90023D6
:1013D000C5E9024724E000BF1B00000300ED00E068
:1013E0000038024000040240880A00200C09002056
:1013F000002802400020024000080240001802407D
:10140000C80A00200030024000B00240F00800206E
:10141000400100A0340A002068474020005C0040E2
:10142000C5E90444C5E9064405F0B9F92146284652
:1014300005F0DCFB21462846404D05F0FDFB34223B
:1014400021460DEB020031F0B5FF3D4B2821352040
:1014500040F2352C2C61AC8685F83640C5E9003465
:101460000923C5E905130B23C5E9070340F21B1344
:101470002846C5E9096340F21D13C5E90244C5E9E0
:101480000BC305F07DFCFF214FF4806E4FF4F0722A
:101490004FF4887328460D941893ADF864408DF886
:1014A0006640CDE912140521CDE914E14FF0404129
:1014B000CDE90E24CDE9161222460DA9CDE9103A48
:1014C00005F029FD1F48204B0462C0E90037C0E940
:1014D00002984FF4A0634FF01808C0E90644C0E931
:1014E000048305F075FE0DA8FFF78AFD9DF8340012
:1014F000FFF7ACFD5C2004F095FC00F03BFB00F036
:1015000065FB00F062FB06F06DFF104A21461048B3
:1015100006F0A2FF0F4B104A214618600F4806F054
:101520009BFF0F4B0F4A214618600F4806F094FFAF
:101530000E4B186006F070FFFEE700BF8C0900201C
:101540000068014040090020001000A0E873030873
:10155000C90E000808090020C4730308DB1B00083B
:1015600004090020A0730308653700080009002063
:101570000268034B9A4201D104F0DEBB704700BF02
:1015800000100040704700000D4B82B00F216FF03B
:1015900001001A6C42F080521A641A6C02F08052F8
:1015A0000092009A5A6C42F480425A6400225B6CAA
:1015B00003F480430193019B02B004F0F3BB00BF2E
:1015C00000380240026882B0084B9A420BD1D3F82F
:1015D000302803F5006342F480521A631B6B03F456
:1015E00080530193019B02B0704700BF003002405E
:1015F0000E4B07B502689A4215D1A3F5F0430521B9
:101600005A201A6B42F400021A6300221B6B03F487
:1016100000030193019B04F0C5FB5A2003B05DF861
:1016200004EB04F0F1BB03B05DF804FB00B0024032
:1016300010B5A8B004461422002102A831F0BAFE69
:101640008422002107A831F0B5FE2268174B9A4288
:101650002AD14FF4803307A8079306F0EDF908B1BB
:10166000FFF790FF124C4FF4C07201211148236B19
:1016700043F080032363236B03F080030093009BFC
:101680001223CDE902230323CDE90413042302A985
:10169000069304F0BFFD236C43F400032364236C22
:1016A00003F400030193019B28B010BD005C0040CF
:1016B00000380240001C0240026808B5094B9A42FB
:1016C0000FD1094A80210948136C23F400031364E5
:1016D00004F084FE4FF480710448BDE8084004F033
:1016E0007DBE08BD005C004000380240001C024086
:1016F00070B5ACB004461422002106A831F05AFEA1
:10170000842200210BA831F055FE2268484B9A42F2
:1017100040F08C800823052001240B934FF4C07304
:1017200010930223CDE911304FF400330BA8CDE91B
:10173000154306F081F908B1FFF724FF3D4B002463
:1017400002250E265A6C06A93B4842F080625A6474
:101750005A6C02F080620092009A1A6B42F01002FA
:101760001A631A6B02F010020192019A1A6B42F48A
:1017700000721A631A6B02F400720292029A1A6BD8
:1017800042F480621A631A6B02F480620392039A35
:101790001A6B42F040021A631A6B02F04002049284
:1017A000049A1A6B42F480721A631B6B03F4807301
:1017B0000593059B1023CDE90635CDE908440A962B
:1017C00004F028FD4EF6FF7306A91C480A96CDE9E1
:1017D0000635CDE9084404F01DFDF72306A9184895
:1017E0000A96CDE90635CDE9084404F013FD4FF41F
:1017F000805306A91348CDE906350923CDE90844ED
:101800000A9304F007FD4FF4464306A90E480A96D2
:10181000CDE90635CDE9084404F0FCFC5820224609
:10182000052104F0BFFA582004F0EEFA2CB070BD88
:1018300000680140003802400010024000240240CD
:10184000002802400018024000200240142200211B
:101850002DE9F0418AB004460DEB020031F0AAFDFB
:1018600022682C4B9A4251D12B4B02250324092686
:101870009A6B4FF0040805A9284842F0020200279D
:101880009A639A6B02F002020192019A1A6B42F07B
:1018900010021A631A6B02F010020292029A1A6B7B
:1018A00042F002021A631A6B02F002020392039AD8
:1018B0001A6B42F008021A631B6B03F008030493CF
:1018C000049BCDE90585CDE9084604F0A3FC40233F
:1018D00005A91348CDE905350A23CDE90774099315
:1018E00004F098FC05A90E480996CDE90585CDE9D7
:1018F000077404F08FFC4FF4605305A9094809965A
:10190000CDE90535CDE9077404F084FC0AB0BDE8E3
:10191000F08100BF001000A000380240001002401B
:1019200000040240000C0240F0B5002387B003938E
:10193000294B1E68002E4DD10122022703250C24BD
:101940001A6001A9254B26489A6B42F001029A635E
:101950009B6B03F001030093009B4FF68373CDE96B
:101960000454CDE9013704F055FC48F2331301A9C2
:101970001C480594CDE90137CDE9036504F04AFC24
:101980004CF2037301A918480594CDE90137CDE95C
:10199000036504F03FFC4FF63F0301A9134805948B
:1019A000CDE90137CDE9036504F034FC282301A912
:1019B0000F480594CDE90137CDE9036504F02AFC11
:1019C000082301A90B480594CDE90137CDE903654A
:1019D00004F020FC07B0F0BDEC0A00200038024003
:1019E0000010024000180240000C024000140240A7
:1019F000001C024000080240214B1A6C42F0100209
:101A000070B588B01A641B6C054601A903A803F0E1
:101A100010030293029B05F0F1FF069B4BBB05F000
:101A2000DDFF184E184B336040F2E733F360174B7D
:101A3000B0FBF3F3013B3046736000233361B360C6
:101A4000B36106F015FC044680B9304606F0D6FABC
:101A5000044658B9362004F0D7F90F2D0DD8224688
:101A60002946362004F09EF9094B1D60204608B037
:101A700070BD05F0B3FF4000D3E70124F6E700BFD7
:101A800000380240F00A00200010004040420F00E1
:101A9000400000207047FEE7FEE7FEE7FEE77047E4
:101AA000014806F0EDBA00BFF00A0020014805F039
:101AB000D5B900BF8C090020014804F0DABA00BF94
:101AC000880A00200120704708B531F027FD162351
:101AD00003604FF0FF3008BD08B531F01FFD16233D
:101AE0000360FEE770B50D4614460E46731B9C421C
:101AF00001DC204670BDAFF3008006F8010BF5E76E
:101B000070B50D4614460E46731B9C4201DC204600
:101B100070BD16F8010BAFF30080F5E74FF0FF3012
:101B200070474FF4005300204B607047012070470E
:101B3000002070470B4A0346116810B509B90A49DD
:101B40001160106809490A4C0344091B8B4206D9ED
:101B500031F0E4FC0C2303604FF0FF3010BD136044
:101B6000FCE700BF3C0B0020F086012000000520B0
:101B7000000A000070470000DFF834D0002103E0C5
:101B80000C4B5B58435004310B480C4B42189A42A3
:101B9000F6D30B4A02E0002342F8043B094B9A4279
:101BA000F9D303F0CFFF31F0BFFCFFF777FA7047AE
:101BB000000005207C9F0308000000202801002071
:101BC00040030020EC860120FEE7704708B501F0D5
:101BD00091F9BDE8084001F013B901F08DB94068F2
:101BE00070474160704700004FF0E022D2F8FC3DA2
:101BF00043F08073C2F8FC3D054B064AD3F8B01F92
:101C00000A43C3F8B02F1A6842F001021A60704705
:101C1000001000E055CEACC5521A02EB5302B2FBE5
:101C2000F3F07047014B5868704700BF001000E0A8
:101C3000704710B504460C2130F0C2F9204610BDA3
:101C4000036810B51B69044631B19847A268636800
:101C50009B1A0344636010BD9847A060FBE7000037
:101C6000024B7020024A1360DB6818471400002002
:101C7000400B0020704710B50446042130F0A0F955
:101C8000204610BD73B50E4E0D461446336813B989
:101C9000002002B070BD1B69702098470028F7D063
:101CA0003368702001AA0DF106015B699847BDF801
:101CB000043001202B60BDF806302360E9E700BF47
:101CC000400B00207FB501238DF817204FF47A7266
:101CD000CDE901320DF1170200920A46014605488E
:101CE00004F0CCFD10B1034804F0AEFD07B05DF880
:101CF00004FB00BF340A00207FB500230A464FF4DE
:101D00007A718DF817300123CDE901310DF11701FA
:101D100000910146054804F08BFE10B1034804F021
:101D200093FD9DF8170007B05DF804FB340A00200E
:101D3000032823D8DFE800F0020B131A104B102100
:101D400010481A68B2FA82F2520904F0E7BB0C4B51
:101D500040215A68B2FA82F252090B48F5E7084B63
:101D600080219A68B2FA82F25209F6E7044B4021C8
:101D70000648DA68B2FA82F25209E6E7704700BF15
:101D8000440B0020000402400008024000180240FA
:101D9000032823D8DFE800F0020B131A104B1021A0
:101DA00010481A68003A18BF012204F0B7BB0C4B68
:101DB00040215A68003A18BF01220B48F5E7084B4A
:101DC00080219A68003A18BF0122F6E7044B4021AF
:101DD0000648DA68003A18BF0122E6E7704700BFFC
:101DE000440B00200004024000080240001802409A
:101DF00003280FD8DFE800F00206090B102106487F
:101E000004F091BB40210548FAE78021FBE740211F
:101E10000348F5E7704700BF000402400008024095
:101E20000018024008B5032813D8DFE800F0020AC2
:101E30000D0F1021084804F06BFB431E5842584117
:101E400008BD40210548F6E78021FBE74021044812
:101E5000F1E70020F1E700BF000402400008024063
:101E60000018024070B5084D00240126E0B2FFF7CB
:101E7000D9FF18B12B68012B18BF2E60013404352F
:101E8000052CF3D170BD00BF440B0020012380F866
:101E9000781080F879307047704700207047000054
:101EA00041640039024B18BF01211970704700BF0F
:101EB000AB790120704700207047836B0BB1084657
:101EC000184770474FF6FF707047406803689B697A
:101ED000184770477047704738B5044601F062F9FB
:101EE000084923682046084DD3F8903098470023CE
:101EF000284684F84A30FFF777FE0123256184F8ED
:101F0000703038BD000000C0540B002001F0EEB866
:101F100001F0F2B870B501F06FF910490023C1F873
:101F20008430BFF34F8FD1F8803043F6E074C3F3B1
:101F3000C900C3F34E335B0103EA0406024646EAD6
:101F40008275013AC1F87452F9D2203B13F1200F87
:101F5000F2D1BFF34F8FBFF36F8F70BD00ED00E084
:101F600001F04CB901F09EB801F06EBA01F076BAFA
:101F700001F0A2B810B5044617F0F4F82368204623
:101F8000D3F8BC30BDE81040184716F006BB10B5BA
:101F90000446842130F014F8204610BD90F8341027
:101FA0000D4B10B590F878401A788C4209D03AB9A8
:101FB0000A490B4A08881488108001220C801A7084
:101FC00010BD002AFCD0064A0449148808880C80F9
:101FD00010800022F3E700BFA4790120A27901203C
:101FE000A079012070B50D46194635B9094B40F26C
:101FF000FF21094A094830F01FFFC0E90F52003A9B
:10200000074B18BF01221A700368BDE87040D3F86F
:1020100090301847AB420308E342030831430308FA
:10202000AA79012008B5094B1B888B4203D8084BBD
:102030001B88934205D9074BA321074A074830F074
:10204000FBFE074B1980074B1A8008BDA0790120C1
:10205000A279012076430308D943030831430308DA
:10206000A6790120A8790120034690F87A0018B1DA
:10207000586803681B68184770470000014608B598
:10208000034B186801B1012117F086F8012008BD43
:10209000AC790120034B00225A609A60024A1A6010
:1020A000704700BF540B0020147403080121002264
:1020B00008B5084606F0D8FA0A4B186028B90A4B4A
:1020C00028210A4A0A4830F0B7FE002204210120E4
:1020D00006F094FB074B186018B9074B2C21034AF4
:1020E000F0E708BD640B00201C44030865440308A6
:1020F00094440308600B0020E0440308024B4FF0B7
:10210000FF31186806F008BB640B0020014B18680B
:1021100006F03EBB640B0020024B0021186806F05D
:10212000FBBA00BF640B0020FFF7F0BF0023034899
:1021300003491A46006806F0A7BB00BF600B0020E9
:102140000400002013B50023074C01A91A4620689B
:1021500006F0DCFB4FF0FF33002201A9206806F0F7
:10216000D5FB02B010BD00BF600B002003685B6CA4
:1021700018470120704703689B6A1847FEE7000074
:102180000E4B82B01A6B42F400021A631A6B02F40F
:1021900000020192019A1A6942F400021A611A6956
:1021A00022F400021A61064B064A1A61064A5A6175
:1021B0004FF08062054B9A6002B0704700380240D1
:1021C000880A0020592400087D21000800E100E071
:1021D00040F2EF3070470000054B4FF08062036023
:1021E000044BC3F88820BFF34F8FBFF36F8F704746
:1021F0004075030800E100E010B504464FF45A6151
:10220000FFF7EAFF20462FF0DBFE204610BD00005E
:1022100008B50A2809D8DFE800F006100E080808FB
:10222000081010101000022008BD054B9021054A2F
:10223000054830F001FE0020F6E70120F4E700BF7A
:10224000224503083D4503088845030838B50C4678
:10225000887FFFF7DDFF174BA58AE28A586342EAC1
:10226000054221695A64628BD963521B1A6425683E
:10227000082D0ED19A611A6158620F4A207F42EAF6
:102280000062DA61E2681A620C4A5961D9601A6028
:1022900038BD0022D8611A61E1680A0A4809C1F311
:1022A000C40102F4784200F4FC6002430A439A63DA
:1022B000034AECE700B002400900010001230200DC
:1022C0000123030008B50B280BD8DFE800F0061245
:1022D000100A0A0A0A0808080808022008BD052092
:1022E000FCE7054B6F21054A054830F0A5FD0020AD
:1022F000F4E70120F2E700BF22450308D2450308B6
:10230000884503082DE9F04191F81D800C464046B0
:10231000FFF7D8FFA77F05463846FFF7D3FF0646ED
:102320003846FFF775FFA18A628B434B521A1A6435
:102330009A61228B521A1A61E28A586342EA014278
:1023400021695A646268D963DA602068802828D0DD
:10235000227F0FD8202866D0402864D004281AD0C5
:1023600045EA0265344BB84545F40035DD6160D07F
:10237000324A44E0B0F5807F04D0B0F5007FEFD161
:102380002F4800E02F4840EA0262DA61E2681A62F0
:102390005E62596132E045EA026242F40032DA617B
:1023A000F6E7A068021DDA62227F45EA026545F47D
:1023B0000035DD615E625961017841B1012921D0AA
:1023C000214B4FF48D71214A214830F035FDDA69F7
:1023D000418822F47F42013922F0100242EA0122B0
:1023E0000121DA61144BDA6942F02002DA61DA691C
:1023F0009206FCD410229A600029B9D0154A1A60BE
:10240000BDE8F081B2F1FF01DA69408822F47F4231
:1024100018BF0121013822F0100242EA002242F0E6
:102420001002DA61DEE745EA0262034B42F4003251
:10243000B5E742F20132E2E700B0024001230100B9
:10244000090002000A0002001C4603083646030881
:102450008845030801230200024B1B685868036883
:102460005B691847AC79012070B504460A4B0C3003
:1024700000262546602260602672667245F8203B81
:10248000294616F0DDFF04F55A63EE6024359D42BF
:10249000FBD1204670BD00BF40750308034B1A688E
:1024A000D207FCD423229A60704700BF00B00240DC
:1024B000094B5A69D2030AD5BFF34F8F084400294C
:1024C000A0EB010204DCBFF34F8FBFF36F8F7047A7
:1024D0002039C3F86822F2E700ED00E030B5104C77
:1024E0002568ED07FCD423250904FF2BA56041F0E6
:1024F00001014FF0020565636164E0630AD0094998
:10250000656241EA0363E361074B22626061E06058
:10251000236030BDE561039BA363044BF8E700BF74
:1025200000B00240090001000100020001000300A8
:1025300030B50F4C2568ED07FCD423251204FF2B82
:10254000A56042F001024FF0020565636264E0633A
:10255000E16008D01B0643F00213E361054B65629E
:102560006061236030BD044BE3610123F9E700BFE4
:1025700000B0024001000200020002FF30B50B4C27
:102580002568ED07FCD4232512041B06A56042F044
:102590000102022543F4003365636264E063E16095
:1025A000E361034B65626061236030BD00B00240AF
:1025B000010002004069704790F844007047036BC7
:1025C00023B9C06A003818BF012070470120704746
:1025D00080687047043010B50C460FC884E80F00BF
:1025E00010BD704708B5034A40F21221024B034860
:1025F00030F022FC74460308F45E0308CF4603085B
:1026000010B5044648212FF0DBFC204610BD000029
:102610002DE9F0431D46ADF51F7D436B06460F4681
:102620009046BDF89842002B35D0002203A8DFF871
:10263000A490CDE901320EF03BFA4FF4F472502130
:10264000249024A808F0E9F94246394624A809F064
:1026500033F9012124A808F0DBFA022324A88DF81D
:10266000D83008F076FB2B9B419AA342BDF89C72B0
:1026700028BF23469742A4EB030428BF174603EB69
:1026800043086400479B9F4209D824A808F0E2FA57
:1026900024A808F00FFA0DF51F7DBDE8F083012294
:1026A00001A924A808F09EFB736B03EB0800984275
:1026B00001D82544E6E759789A78C90009EA022248
:1026C00001F4FC610A4313F8031B42EAD10225F826
:1026D000022BECE700F8FFFF0A4A02600022C0E983
:1026E0000522C0E90722C0E90922C0E90B22C0E99E
:1026F0000D12C0E90F2280F84420C0E90322C0E98E
:10270000012270479075030810B40C4611461A4612
:10271000036B3BB1036C806BE41A20445DF8044BFF
:1027200030F050BEC06AF8E7036B10B573B1036CAC
:10273000826BC91A5318525C98785C780004DB7875
:1027400040EA0420104340EA036010BDC36A5858B1
:10275000FBE7036B43B1036CC91A836B5A18585CCF
:10276000527840EA02207047C36A585A7047000006
:1027700070B50446006B0D461646D8B1E36B934224
:1027800008D209230D4A65210D4884F844300D4BC9
:1027900030F052FB0368DB689847206B3246A16B30
:1027A00003681B69984710B90D2384F84430A06B67
:1027B000256470BDE06A0844FBE700BF38470308A2
:1027C000CF460308254703082DE9F843436904462B
:1027D0002BB9234BAA21234A234830F02DFB082292
:1027E0008169FFF7C5FFA16943F2300646F26437FD
:1027F00004312046FFF798FFA3691844A36A00F14B
:1028000008029A4206D3012300206361236AA36170
:10281000BDE8F883636909300822013320F0010123
:1028200020466361A161FFF7A3FFD4F8189020460A
:102830004946FFF78EFF09F1020180462046FFF767
:1028400088FF09F1040105462046FFF76DFFB045FA
:10285000D2D1BD42D0D10028CED00120D8E700BFD0
:102860007A470308C3470308CF4603082DE9F04F12
:102870000446ADF51F7D8A461646816908229846B2
:10288000FFF776FFA7692046391DFFF74DFF07F1D7
:102890000801024605462046FFF76AFF636B0746BC
:1028A00033B93C4B40F2AB113B4A3C4830F0C4FAE0
:1028B000002203A8CDE901320EF0FAF84FF4F472C9
:1028C0005021249024A808F0A8F82A46394624A8C4
:1028D00008F0F2FF012124A808F09AF9022324A8A5
:1028E0008DF8D83008F035FABAF90250479BAB4260
:1028F00029D3BAF900904FEA4808BAF804702B9B24
:1029000008FB05664F44BAF80250DFF894B03FB2B6
:102910009F4228BF1F46BAF8063009EB490A1D44FA
:10292000419B2DB29D4228BF1D46479B9D4210D81A
:1029300024A808F08FF924A808F0BCF801200DF5B0
:102940001F7DBDE8F08F012201A924A808F04AFAF2
:10295000CCE7012201A924A808F044FA626B494699
:102960005244B94202F1030201D34644DDE712F8B2
:10297000020C12F8013CC0000BEA032300F4FC60D7
:10298000034312F8030C43EAD00326F81130013157
:10299000E7E700BFF64703084C480308CF460308A3
:1029A00000F8FFFF0129036838BF0121DB6A70B519
:1029B0000D4604469847A84204D223682046DB6AA5
:1029C000984705466B1EE6691022204606EB031663
:1029D00006F10801FFF7CCFE06F110012046FFF7D3
:1029E000A3FE236A043B0344C4E9055370BD000001
:1029F000002148222DE9F0410446816180F844100D
:102A0000FFF7B6FEA6690423624A31462046FFF767
:102A10007BFE40B10323604AF22184F844305F4BCF
:102A20005F4830F009FA06F1080104235D4A2046A8
:102A3000A161FFF769FE30B10423574AFA2184F8F7
:102A40004430594BECE706F10C010423574A204669
:102A5000A161FFF759FE074638B105234E4A40F2FF
:102A6000011184F84430524BDAE706F11001204698
:102A7000FFF75AFE054620B94E4B40F20711464A71
:102A8000CEE706F1140804234B4A20464146FFF7DF
:102A90003BFE002849D0062384F844300423474AEB
:102AA00006F118012046FFF72FFE00283FD007232C
:102AB00084F844304544424F0C2220462946FFF713
:102AC00057FE05F1080604233A4620463146FFF733
:102AD0001BFE94F84430002848D0002B48D1A36A4C
:102AE000AB4249D805F10C0304352046A3612946C1
:102AF000FFF71AFE3044294660622046FFF714FEB5
:102B00000644042220463146FFF732FE04232D4AB4
:102B100031462046FFF7F8FD002838D10123E66151
:102B20006361A3692362BDE8F0810127B6E7002F46
:102B3000C0D006F120012046FFF7F6FD4FF47A736E
:102B400006F13001B0FBF3F060602046FFF7ECFDCA
:102B500006F14001A0602046FFF7E6FD06F14401C2
:102B6000E0602046FFF7E0FD2061A3E7002BB9D02D
:102B70000A2384F84430D6E7291D2046FFF7D4FD08
:102B800085190C2220462946FFF7F2FD99E70B2311
:102B9000EFE700BFA6480308C4480308AB48030892
:102BA000CF460308F1480308F64803080E49030816
:102BB0001349030829490308354903083A4903081A
:102BC0003F49030844490308C0E90A21002202637F
:102BD000FFF70EBF10B5002304460846E3620B68FA
:102BE00021639B689847A0622046BDE81040FFF72C
:102BF000FFBE70B4BDF80C50BDF810602AB123B10F
:102C0000CDE9035670BCFFF703BD70BC70470000F0
:102C10002DE9F04F9946436985B004460F4690462A
:102C20002BB9294B7721294A294830F005F9082288
:102C30008169FFF79DFDA66920463146FFF789FDB2
:102C4000B11C83462046FFF784FD311D8246204695
:102C5000FFF76AFD06F10801A36A05460A189A42C1
:102C600026D243F230039B4517D146F264339A458E
:102C700013D190B10246A1612046FFF779FD0E9B6A
:102C800001462A462046CDF80080CDE901933B4617
:102C9000FFF7AFFF636901336361A3692B4405B993
:102CA00008330133626A23F001039342A36109D11F
:102CB000012301206361236AA36180F0010005B054
:102CC000BDE8F08F0020F8E77A4703084949030878
:102CD000CF460308012070470C2070470C2303FBEC
:102CE0000100083070470C2303FB010008307047D7
:102CF0000120704742F2C810704742F2C81303FB2C
:102D000001000830704742F2C81303FB010008308D
:102D10007047012070471020704700EB0110083009
:102D2000704700EB011008307047084600F0E4BF20
:102D3000034B10B50446036014F0BCFE204610BDE2
:102D40003876030810B50446FFF7F2FF1421204639
:102D50002FF036F9204610BD034B10B50446036032
:102D600014F0A8FE204610BD0476030810B50446F2
:102D7000FFF7F2FF42F2D01120462FF021F9204652
:102D800010BD0000034B10B50446036014F092FE22
:102D9000204610BDD075030810B50446FFF7F2FFBA
:102DA000182120462FF00CF9204610BD094B10B514
:102DB0000446036000F507503C30FFF7B9FF04F10B
:102DC0002C00FFF7C9FF04F11400FFF7DBFF2046DA
:102DD00010BD00BF6C76030808B50248FFF7E6FF98
:102DE00008BD00BF401A002010B50446FFF7DEFF03
:102DF00042F2703120462FF0E3F8204610BD00006B
:102E00002DE9F34100F048FD0024054600F048FD9F
:102E10002346014622462846009420F00DF8274B11
:102E2000274A2046274D1A6002F00CFD264B274A00
:102E300027489A601FF068FF2B68BFF35B8FDB07A2
:102E400035D428462FF0BEF888B3224C224B04F12B
:102E5000140004F12C08214F00F50856236060602F
:102E6000C4F80880E760266114F026FE1C4B40463B
:102E7000636114F021FE1B4B3846E36214F01CFE24
:102E800004F50053184A03F50470C3F8FC2102F05E
:102E90005DFD2246311F304602F04EFD304600F007
:102EA0002BFF12482FF0E6FF28462FF097F8104826
:102EB00002B0BDE8F041FFF70FB800BF107A012063
:102EC000EC0B00203C1A00200C0C0020F00B002022
:102ED00008000020401A00206C7603083C3C0020CB
:102EE000D07503080476030838760308D92D000846
:102EF000680B002070470000014815F0B8BB00BF08
:102F0000680B002070B5264E264B274C3046274DC7
:102F10002360FFF7A9FA284625F0A0F824481DF001
:102F20005FFB244B00224FF4807123481A8683F8FC
:102F300058205A6683F870205A67DC60C3E9121281
:102F40001E49C3E91A121E49C3E91E011D491E4844
:102F5000C3F880101D490B604FF4F071C3E90422DF
:102F6000C3E90622C3E90822C3E90A22C3E90E2203
:102F7000C3E91022C3E91422C3E91722C3E901659A
:102F80000180134883F8342001804FF48871114880
:102F900001801148018011490A70114A1A6070BD00
:102FA000980C00203C740308381A00200C0C0020F8
:102FB000F00B0020680B002000000101010000015F
:102FC0000004440016001400A0790120AC7901200F
:102FD000A6790120A2790120A8790120A4790120F5
:102FE000547403080148FFF7F7B800BF980C00209D
:102FF0000020704781807047C18070470181704711
:10300000418170477047704770477047704710B4F0
:10301000C4880368121B84885B6D091B12B25DF8BB
:10302000044B09B218474FF6FF7383814FF0FF330B
:1030300003621368C36110607047002070478B887B
:10304000838001207047704780F82610704790F801
:103050002600704710B50022B1F90840B1F90A10F6
:10306000028042808480C18010BD002202804280A4
:103070008280C28070470177704780ED080A7047F0
:1030800080F82410704780F82510704701207047A1
:10309000983070478C307047843070477047704765
:1030A00070470000034B902283F85A2383F858237B
:1030B000704700BF00E100E0094A0A49D3680A48A6
:1030C000C3F30A03013B9BB20B801169C1F30A01F0
:1030D000013901801364536B43F00103536370475C
:1030E00000680140B23D0020B03D0020014BD3F804
:1030F000AC00704700680140024B0122C3F8AC10DD
:103100005A62704700680140124A5369DB0370B588
:103110001ED50023C2F88430BFF34F8FD2F8803021
:1031200043F6E074C3F3C900C3F34E335B0103EA13
:103130000406014646EA81750139C2F87452F9D293
:10314000203B13F1200FF2D1BFF34F8FBFF36F8FEE
:1031500070BD00BF00ED00E070473823002201FB86
:103160000333C25490F838300BB9036C8364704752
:10317000704780F84C10704710B504462C212EF093
:103180001FFF204610BD10B5044658212EF018FF31
:10319000204610BD10B50446BC212EF011FF20467C
:1031A00010BD000038B5044615F04DFA23689D6E39
:1031B0001BF0A8FF01462046A8472368084A20467E
:1031C000D3F88C500023A2F57F31A847054B064A5F
:1031D0005A60064A1A649A644FF4FF225A6438BD52
:1031E00000F807C0743E0020CC3E002000F40BC065
:1031F00015F010BA15F01ABA15F0D5B915F057BB7D
:1032000090F8252012B103685B69184770470000E9
:1032100008B531B1044B40F29711044A04482FF02D
:103220000BFE90F8390008BDA4490308B84903080B
:10323000454B030810B531B1064B40F29111064AD7
:1032400006482FF0F9FD406811460368BDE81040BC
:103250001B6B1847A4490308874B0308454B030819
:1032600008B529B1034B7A21034A04482FF0E4FD45
:10327000006908BDA4490308384D0308454B0308FD
:1032800008B529B1054B8321054A06482FF0D4FD26
:1032900041618160C0E9063208BD00BFA44903084E
:1032A000F04E0308454B030810B5044629B1274BDF
:1032B000A421274A27482FF0BFFD052A34D8DFE88C
:1032C00002F003292F34393E406803681B69984790
:1032D00050B34FF0FF31606D05F06AF90023012211
:1032E00094F83E1084F83B3084F83920A360636181
:1032F00001B1226284F83E306362E36A2BB9012394
:10330000206D84F83A3005F043FA606DBDE8104056
:1033100005F07EB9002380F8393084F83E3003E0B0
:10332000036200238360436110BD03620023836056
:103330004361F2E7002380F839300123EDE7003BD9
:1033400018BF012380F83D30EEE700BFA449030811
:10335000AF500308454B030890F825201AB190F8A8
:10336000242002B11860704770B50446164629B192
:10337000314BE721314A32482FF05EFD90F8393069
:1033800033B1304B1B6893F86B204369134443619E
:10339000E36A002B4DD0E169D4E905325343A268BA
:1033A0004A43934220D2236A002B42D04FF0FF3190
:1033B000606D05F0FDF8236A0BB10023E362E36A58
:1033C000FBB90125606D05F023F994F839300BB98C
:1033D000236A3BB1E36A2BB90123206D84F83A30AC
:1033E00005F0D6F9284670BD94F84C000028DDD0D1
:1033F0009B1AB3FBF1F2994298BF02F1FF3262626D
:10340000D4E7002294F83C50A3623046E262E268BE
:103410002261A2680132A260336333685B69984716
:10342000002DCED194F83D30002BCBD184F839500B
:10343000C8E70125C9E700BFA4490308865203086D
:10344000454B0308AC790120034B4FF080629A6032
:103450004FF080729A60704700E100E0084B4FF037
:103460008062C3F88820BFF34F8FBFF36F8F4FF098
:103470008072C3F88820BFF34F8FBFF36F8F704700
:1034800000E100E038B5034690F8380038BB01226F
:103490009860D8609A634FF4807258619A874FF4AD
:1034A000F0729861D861186258629862D8621863A5
:1034B000586383F83E00CA864FF4887281F834005E
:1034C0000A8708639A6C186102F5FF24D3E9101586
:1034D00029448C420AD9084B5821084A03E0084B7A
:1034E00040F2F511074A08482FF0A6FC1A6302F5CE
:1034F0007F329C645A6338BDE455030824560308A0
:103500002A5403085A540308454B0308002370B596
:10351000124E05468380124B0360336893F858209F
:103520000AB1D86C00B998680368DB6A98473368B9
:10353000B0FA80F4D86C640930B10368DB6A98474C
:10354000002808BF44F001042CB9064B2C21064A80
:1035500006482FF071FC284670BD00BFAC790120F1
:1035600080760308CA5703082858030861580308DF
:1035700070B5254E3568BFF35B8F15F0010540D15E
:1035800030462EF01FFD00283BD0204C204B04F18C
:1035900034002561E584A562A585C4E90035C4E948
:1035A00002551DF002FB04F1580017F001FC194B05
:1035B0002046A365184B40F8843BFFF7A7FF174B45
:1035C0001748C4F884302433C4F89050C4F88C30C1
:1035D0004FF4C803C4F89C50C4F8A850C4E9283577
:1035E0000023C4F8AC30C4F8B030C4F8B430C4F828
:1035F000B8300C4BC4F898302FF03CFC30462EF01D
:10360000EDFC024870BD00BFB43D0020B83D002075
:1036100028900308A076030818770308DC8F0308B6
:10362000A1300008BC8F030838B5184C23685BB381
:10363000174B184A1B6C11888B4216D1164B00256C
:10364000198803F095FC236893F86A2083F87C506E
:10365000013283F86A20FEF769FD206815F082FDCB
:103660002846BDE83840FEF763BB03F081FC2468C0
:10367000236820461B6A98470123002084F87C3089
:10368000BDE83840FEF784BB38BD00BFAC790120EF
:1036900000680140B23D0020B03D00202DE9F74315
:1036A00004464FF4707894F83A304FF0FF31002B15
:1036B00031D0606D04F07CFF276BA36ABB4200D160
:1036C000676B266A656856B32B68314628465B6A85
:1036D00098470023236284F83B30606D04F098FF24
:1036E0002B684FF4F0723946CDF8008028465E69A9
:1036F0004FF48873B0474FF0FF310646606D04F019
:1037000057FF94F83B30E3B1002384F83B30606D01
:1037100004F07EFFC7E7206D04F0FEFFC3E7636A95
:10372000002BDAD02B682846D3E909939847616AC1
:1037300001442846C847A368626A66621344A360CE
:10374000CBE7E7625EB12B6828469B6A9847013851
:103750000023E06084F83C6084F83A30D7E7012029
:10376000F6E70000014808B5FFF798FF743E002017
:103770000368042270B504465E6A00230D46B04714
:103780004FF0FF31606D04F013FF382303FB054257
:10379000D16A09B10021D16203FB0545012385F8F7
:1037A0003B30002385F83930606DBDE8704004F08F
:1037B0002FBF38B500EB810304460D46114658680B
:1037C0000368DB68984729462046FFF7D1FF38BDDC
:1037D00070B50D461146044600EB8502506802683C
:1037E00096681A46B04729462046FFF7C1FF70BDCC
:1037F00038B5164900251648FEF76EFF154C164BD6
:1038000001202A46294623604FF48073A564A387CC
:1038100084F84C0084F83E50C4E91055C4E91455AE
:10382000C4E90155C4E90355C4E90555C4E9075580
:10383000C4E90955C4E90B55C4E90D5504F014FF5A
:103840002065284604F070FE606538BD143F0020F6
:10385000CC3E0020743E002064770308704710B50A
:10386000044604212EF0ACFB204610BD08B5032908
:103870000FD8DFE801F00A02060A02F02FF84068CC
:1038800008BD02F02BF88068FAE702F027F800681C
:10389000F6E70020F4E7000000487047B07703081F
:1038A0000820704713B5002451B1036801AA0194A0
:1038B0008DF803409C680DF10303A04702B010BDD2
:1038C0000846FBE7C0897047008A7047C088704788
:1038D00080887047807A00F07F007047807AC00946
:1038E00070470020704700009FED010A704700BF3D
:1038F00000000000704710B5044608212EF060FB60
:10390000204610BD7047704700F5987308684968F5
:1039100003C37047704770474160704770477047F6
:10392000064BC0F84801C0F84C310023C0F85031B4
:1039300000F5A273C0F84031704700BF2D3B00086E
:10394000012303727047704710B441680346C26890
:103950009B68541001EB6200D20748BF0A595DF81A
:10396000044B48BFD35818470346406830B19A68A3
:103970001AB9D86800F0010070470120704710B5EF
:1039800004460C212EF01CFB204610BD10B5044649
:1039900010212EF015FB204610BD10B504464FF443
:1039A000AE712EF00DFB204610BD10B51BF0AAFB2A
:1039B0000368BDE81040DB6B184710B50446D0F82B
:1039C000400158B10368DB68984738B1D4F840012A
:1039D00003689B6898470023C4F8403110BD00007D
:1039E0002DE9F14FD0E9556A0746B06803681B6AB4
:1039F000984740F23B53984205D8444BA321444A90
:103A000044482FF019FA706803681B6A98470F281A
:103A100003D8414BA4213E4AF2E7F06803681B6AD1
:103A200098470B2803D83D4BA521394AE8E7DFF832
:103A3000F4901BF067FB04301BF089FBD9F8000001
:103A400010B10368DB689847D9F8000010B103682B
:103A50001B689847DFF8D080D8F8000010B10368E1
:103A60005B699847D7F83C0110B103685B689847D9
:103A7000D8F8000010B103681B689847D7F83C01DC
:103A800010B103689B689847F06800214FF0000B65
:103A900003685B6A9847224B0446C0F804B080F87C
:103AA00008B059460360B06803685B6A98470546EA
:103AB00002F03CF87068594603685B6A984706460E
:103AC000294602F011F8331DC7F83C612846C9F8B1
:103AD0000040C8F80050CAF800302B68C6F808A0AB
:103AE000DB68EE639847336830461B689847214689
:103AF00028461DF08BFD236820461B6998472368E4
:103B000020465B6901B0BDE8F04F1847C358030871
:103B100051590308235A03086A5A03080D5B030826
:103B2000D4780308F4790120F07901202DE9F14FD0
:103B3000D0E9556A0746B06803681B6A984742F2A5
:103B4000C713984205D8444BA321444A44482FF058
:103B500073F9706803681B6A98470F2803D8414BB4
:103B6000A4213E4AF2E7F06803681B6A98470B28D5
:103B700003D83D4BA521394AE8E7DFF8F4901BF064
:103B8000C1FA04301BF0E3FAD9F8000010B1036861
:103B9000DB689847D9F8000010B103681B689847A4
:103BA000DFF8D080D8F8000010B103685B6998474F
:103BB000D7F83C0110B103685B689847D8F800005B
:103BC00010B103681B689847D7F83C0110B103682F
:103BD0009B689847F06800214FF0000B03685B6A10
:103BE0009847224B0446C0F804B080F808B0594604
:103BF0000360B06803685B6A9847054601F0EAFE17
:103C00007068594603685B6A98470646294601F082
:103C1000BFFE331DC7F83C612846C9F80040C8F80C
:103C20000050CAF800302B68C6F808A0DB68EE63C5
:103C30009847336830461B689847214628461DF050
:103C4000E5FC236820461B699847236820465B698A
:103C500001B0BDE8F04F1847C3580308B05B030834
:103C6000235A03086A5A03080D5B0308D478030833
:103C7000F4790120F0790120044B1B6893F8582057
:103C80000AB1D86C00B99868704700BFAC790120C0
:103C9000F8B5174604460E461BF0FAFA124B0025FB
:103CA0001C602946114B2360114BC4E95135114B5F
:103CB0001868C4E953550368C4E94F559B68C4E9C3
:103CC00055769847284601F0BDFDFFF7D5FF26F051
:103CD00070F8FFF7D1FF26F0E7F8FFF7CDFF26F0E9
:103CE000EFF82046F8BD00BF007A01208078030875
:103CF00068780308AC790120064BC0F84801C0F889
:103D00004C310023C0F8503100F5A273C0F84031A7
:103D1000704700BF2D3B0008064BC0F84801C0F8B3
:103D20004C310023C0F8503100F5A273C0F8403187
:103D3000704700BFE1390008406A7047806A7047E9
:103D400070470B888A889BB2D20A10B54C88C1692B
:103D500043EA044351F82200184410BD10B504464C
:103D6000BAB1107B68B1537BD27A1B0203F4E063D3
:103D70001A43236A03EB82031A888A4202D193F919
:103D8000020010BD05D80138043380B20028F3D1F9
:103D9000F7E70020F5E710B504462C212EF010F9C6
:103DA000204610BD30B58BB00446BDF86050089574
:103DB000BDF85C5007959DF8505006959DF84C5005
:103DC00005959DF8485004959DF8445003959DF83D
:103DD000405002959DF83C500195BDF83850009533
:103DE0001CF0A0FF064B20462360159BE361169B49
:103DF0002362199B63621A9BA3620BB030BD00BFA4
:103E0000F8780308806A70477047704770477047BA
:103E1000704780F82C10704710B40368046BD3F817
:103E2000A430624361435DF8044B1847D0ED0C7A2F
:103E30000368F8EEE77A10B420EE270AD3F8A4401E
:103E4000B5EEC00AF1EE10FA1ADBB6EE007A30EEEB
:103E5000070ABDEEC07A17EE101A60EEA70AF5EE5B
:103E6000C00AF1EE10FA1EDBF6EE007A70EEA70A39
:103E7000FDEEE07A17EE902A23465DF8044B1847D2
:103E8000BDEEC07AF8EEC76A17EE103A013B30EE8D
:103E9000660AF7EE086A30EE260ABDEEC00A10EE9A
:103EA000101A1944D9E7FDEEE07AB8EEE77A17EE7A
:103EB000903A013B70EEC70AB7EE087A70EE870AB7
:103EC000FDEEE00A10EE902A1A44D5E710B403681C
:103ED000046BD3F8B03062435DF8044B1847D0ED63
:103EE0000C7A0368F8EEE77A10B427EE800AD3F86C
:103EF000B040B5EEC00AF1EE10FA0BDBF6EE007A38
:103F000030EE270AFDEEC07A17EE902A23465DF8C0
:103F1000044B1847FDEEC07AB8EEE77A17EE903AF8
:103F2000013B30EE470AB7EE087A30EE070ABDEEE5
:103F3000C00A10EE102A1A44E8E710B40368446B74
:103F4000D3F8BC30624361435DF8044B1847D0EDB1
:103F50000D7A0368F8EEE77A10B420EE270AD3F85A
:103F6000BC40B5EEC00AF1EE10FA1ADBB6EE007AEC
:103F700030EE070ABDEEC07A17EE101A60EEA70AFF
:103F8000F5EEC00AF1EE10FA1EDBF6EE007A70EEE6
:103F9000A70AFDEEE07A17EE902A23465DF8044B5F
:103FA0001847BDEEC07AF8EEC76A17EE103A013B2B
:103FB00030EE660AF7EE086A30EE260ABDEEC00A59
:103FC00010EE101A1944D9E7FDEEE07AB8EEE77A60
:103FD00017EE903A013B70EEC70AB7EE087A70EE22
:103FE000870AFDEEE00A10EE902A1A44D5E710B4D5
:103FF0000368446BD3F8C03062435DF8044B184744
:10400000D0ED0D7A0368F8EEE77A10B427EE800A57
:10401000D3F8C040B5EEC00AF1EE10FA0BDBF6EEB5
:10402000007A30EE270AFDEEC07A17EE902A23467A
:104030005DF8044B1847FDEEC07AB8EEE77A17EE4C
:10404000903A013B30EE470AB7EE087A30EE070AA5
:10405000BDEEC00A10EE102A1A44E8E7D0F82C3161
:10406000026B002B07DB02EB430090FBF2F000EB4E
:10407000D070401070476FF0010101FB0320013840
:1040800090FBF2F000EBD070401040427047D0ED52
:104090004B7A90ED0C0AF8EEE77AB8EEC00A87EE9C
:1040A000800A7047D0F82C017047D0F83031026B8D
:1040B000002B07DB02EB430090FBF2F000EBD0702B
:1040C000401070476FF0010101FB0320013890FBA5
:1040D000F2F000EBD070401040427047D0ED4C7AC7
:1040E00090ED0C0AF8EEE77AB8EEC00A87EE800A87
:1040F0007047D0F830017047D0F83431426B002B54
:1041000007DB02EB430090FBF2F000EBD0704010B5
:1041100070476FF0010101FB0320013890FBF2F0C2
:1041200000EBD070401040427047D0ED4D7A90EDDA
:104130000D0AF8EEE77AB8EEC00A87EE800A7047FB
:10414000D0F834017047D0F83831426B002B07DBD0
:1041500002EB430090FBF2F000EBD0704010704790
:104160006FF0010101FB0320013890FBF2F000EB3E
:10417000D070401040427047D0ED4E7A90ED0D0A5D
:10418000F8EEE77AB8EEC00A87EE800A7047D0F8FA
:1041900038017047036870B50446D3F888300D467F
:1041A000164698472368324629462046D3F8903071
:1041B000BDE8704018470368D3F894301847036887
:1041C000D3F8D43018470368D3F8E03018470368B1
:1041D000002A10B4D3F8A430046B0EDB04EB4202C7
:1041E00092FBF4F101EBD1714910B0F91E215DF899
:1041F000044B013A0A44494218476FF0010101FBA0
:104200000241013991FBF4F101EBD17149104942AE
:10421000EBE70368D3F83C311847026B036851435E
:10422000D3F8483118470368D3F844311847D0ED24
:104230000C7A0368F8EEE77AD3F8482127EE800A73
:10424000B5EEC00AF1EE10FA08DBF6EE007A30EEB9
:10425000270AFDEEC07A17EE901A1047FDEEC07ADD
:10426000B8EEE77A17EE903A013B30EE470AB7EE28
:10427000087A30EE070ABDEEC00A10EE101A194493
:10428000EBE7C0F83C1170470368D3F8503118478A
:10429000036810B5D3F85C31044698470028236BB7
:1042A00007DB03EB400090FBF3F000EBD070401015
:1042B00010BD6FF0010202FB0030013890FBF3F0FB
:1042C00000EBD07040104042F2E70368D3F8583159
:1042D0001847036810B50446D3F85C31984707EED9
:1042E000900A94ED0C0AF8EEE77AB8EEC00A87EE71
:1042F000800A10BDD0F83C017047026B036851433F
:10430000D3F868311847D0ED0C7A0368F8EEE77AF5
:10431000D3F8682127EE800AB5EEC00AF1EE10FA54
:1043200008DBF6EE007A30EE270AFDEEC07A17EED3
:10433000901A1047FDEEC07AB8EEE77A17EE903A81
:10434000013B30EE470AB7EE087A30EE070ABDEEC1
:10435000C00A10EE101A1944EBE7C0F8401170477C
:10436000036810B5D3F87431044698470028236BCE
:1043700007DB03EB400090FBF3F000EBD070401044
:1043800010BD6FF0010202FB0030013890FBF3F02A
:1043900000EBD07040104042F2E7036810B50446CD
:1043A000D3F87431984707EE900A94ED0C0AF8EEB2
:1043B000E77AB8EEC00A87EE800A10BDD0F8400157
:1043C00070470846704703680029026BD3F88431B0
:1043D00010B504460EDB02EB410191FBF2F101EB5B
:1043E000D171491009B220469847D4E94F2302FB06
:1043F000003010BD6FF0010000FB0121013991FB7D
:10440000F2F101EBD17149104942EBE7006B7047C3
:10441000406B70470368D3F8483118470368D3F8F6
:104420005C311847026B03685143D3F814311847C5
:10443000036870B5D3F818510446D0F84461D3F836
:10444000803198472B4656F820102046BDE8704032
:104450001847D0F84831B0F91E011944081A7047BE
:10446000C1627047C06A704701207047704770474B
:10447000C06B18B10368D3F880301847704730B567
:10448000B2F81A11B2F91441B2F940502144B2F80D
:1044900042204480521A002185800180C28030BDB4
:1044A00010B54280BDF90840BDF90C20048082801F
:1044B000C38010BD0B680846D3F8D43018470B688A
:1044C0000846D3F8E0301847B1F914017047B1F845
:1044D0001431B1F81A21B1F842001344C01A00B2E5
:1044E0007047B1F916017047B1F81631B1F81821CB
:1044F000B1F840001344C01A00B270470B68084678
:104500001146D3F81431184730B5B2F91651B2F844
:104510001841B2F840102C44B2F942200580091B22
:104520000024C2804480818030BD02808380BDF938
:104530000020BDF904304280C38070470B680846F4
:10454000D3F8EC3018470B680846D3F8F830184712
:10455000B1F916017047B1F81631B1F81821B1F868
:1045600040001344C01A00B27047B1F914017047FB
:10457000B1F81431B1F81A21B1F842001344C01A4D
:1045800000B270470B6808461146D3F81831184737
:1045900030B585B00368044601816D460146D3F805
:1045A00084303C342846984795E8070084E80700A3
:1045B00005B030BD30B585B00368044641816D4615
:1045C0000146D3F884303C342846984795E80700E4
:1045D00084E8070005B030BD00220280428082805E
:1045E000C280704780F836107047036870B5044683
:1045F0001B6B154698472368204629465B6EBDE82D
:104600007040184700207047806C704770477047B3
:10461000704770477047704730B444680346C268BB
:104620009B68551004EB6200D20748BF625930BC4A
:1046300048BFD35818470346406830B19A681AB942
:10464000D86800F0010070470120704710B504469B
:104650004C212DF0B5FC204610BD10B504464FF49A
:1046600037712DF0ADFC204610BD10B50446402139
:104670002DF0A6FC204610BD10B5044640212DF0BB
:104680009FFC204610BD10B5044610212DF098FC6B
:10469000204610BD38B503460846D3E90C540B68D4
:1046A000D3F88C309847294602462046BDE838406A
:1046B00016F082BF38B503460846D3E90C540B68A0
:1046C000D3F894309847294602462046BDE8384042
:1046D00016F072BF034B10B50446036019F060F882
:1046E000204610BD787D0308064B10B504460360D4
:1046F00019F056F842F2C81120462DF061FC204610
:1047000010BD00BF787D030808B590F82C300BB1C0
:10471000FEF776FD08BD08B5FEF772FD08BD000086
:104720000A1E10B503DBB0F91E41944206DC084BAB
:1047300040F23961074A08482EF07EFB0368D0F842
:104740004441D3F88031984754F8200010BD00BF91
:10475000825C0308A55C0308F45C03080B1E10B51B
:10476000044603DBB0F91E219A4206DC074B40F2F7
:104770003361074A07482EF05FFB0368D3F88431A2
:104780009847D4E94F2302FB003010BD825C030838
:10479000515D0308F45C0308036870B55E6B044662
:1047A000114B8DB21B682BB9104B6C21104A11486C
:1047B0002EF042FB1049828D0988914203D80F4B9D
:1047C0006D210B4AF3E713F812200D4B1B6853F8C9
:1047D000220003681B6B9847291A3346204609B20A
:1047E000BDE87040184700BF047A0120A05D0308AF
:1047F000E25D03081D5E0308087A0120645E030879
:104800000C7A012000F58760884208B505D11AF0BE
:1048100079FCBDE80840FFF77FBA08BD00224FF0E1
:10482000FF318260C0E900217047036870B504461B
:104830001B6B154698472368204629465B6BBDE8ED
:104840007040184770B504461D46BDF91060FFF76B
:10485000ECFF2368294620469B6B98472368314626
:104860002046DB6BBDE87040184700000022C0E91D
:104870000122C0E90322C0E90522C0E907224FF462
:1048800080728284014A0260704700BF6079030829
:1048900010B50446262200212EF08CFD2046FFF79D
:1048A000E5FF044B20462360FF2384F826300023D5
:1048B000A36210BDC094030837B501AB15461CF0C8
:1048C0002FFB00282A4601994FEA40144FF02000A0
:1048D00004DB1CF044FB204403B030BD1CF03FFB64
:1048E000201AF9E770B5B0F81A310E46B0F9144144
:1048F000B0F842502344ED1A2DB22C44691ED0E981
:104900004D32013CD21AF01AFFF7D6FFC0EB44102B
:1049100070BD38B504460D46B4F81631B4F8181118
:104920000B44B4F84010C91AD0E94B0209B2121A6C
:10493000281A0139FFF7C0FFB4F9163100EB431014
:1049400038BD000010B50446262200212EF032FDAD
:104950002046FFF78BFF0A4B4FF47F02204623606F
:10496000084BA3624FF6FF73A3850023C4E90C3202
:104970004FF0FF322387E363C4E9102310BD00BF6B
:1049800030940308587803082DE9F04F044695B099
:1049900000251CF08FFCA146D84B04F16C0A04F1F1
:1049A0009806E5634FF0010849F8403B4846FFF799
:1049B0006FFF5046FFF76CFF64213046D04F16F072
:1049C00097FDD04B63222946C4F8983004F5F27362
:1049D00030464FF4887BC4E97585C4E97735FFF725
:1049E0001BFAC94BC4F8983004F55D731846099357
:1049F00016F0DEF90A2384F8AC83C4F8A833C34B5D
:104A0000C4F8B053C4F8743304F56D73C4E9E858BE
:104A100018460A9316F0CCF90A2384F8EC83C4F8FC
:104A2000E833BB4BC4F8F053C4F8B43304F57D73DA
:104A3000C4E9F85818460B9316F0BAF9B54BC4F808
:104A4000F4334FF0020384F8203404F22443184670
:104A50000893FEF75BFDB04B26222946C4F82434A8
:104A60002433C4F83054C4F82C3404F58763184652
:104A700006932EF09FFC0698FFF7F8FEA74B84F8EC
:104A80005C84C4F838344FF6FF73C4F86054A4F85B
:104A90006634A4F8683484F86A3404F26C4384F809
:104AA000645418460793FFF74DFF04F2B4431846C9
:104AB0000393FFF747FF04F5A063C4F8B4741846E6
:104AC000C4F8FC540493FFF73DFF04F24C53C4F8C0
:104AD0000075C4F8485518460593FFF733FF04F5F1
:104AE00000538F4A4FF4E151C4F84C7504F5B3609C
:104AF000C4F89455271DC3E96E248A4AC3E970257A
:104B000018F044FE2A4648464FF4F0732946CDF883
:104B100000B0FFF797FE4FF07F4349463846A36643
:104B20004FF0FF3912F0DAFF2A4650464FF4F07387
:104B30002946CDF800B0FFF785FE4FF07F43514680
:104B40003846C4F894304FF0460A12F0C7FFC82325
:104B500030460B220F2100934FF4E17342F2107B99
:104B6000FFF770FE30462A4642F21071FFF712FB43
:104B700030462B462A462946009516F06AFC2B46FD
:104B800030462A462946009516F08AFB3046052213
:104B90006FF00401FFF7D1F90A23D4F8A41342F20D
:104BA000107284F8AC8303FB01F0C4F8A0930028D2
:104BB00084F89AA3B8BF4042C4F8A80316F0FCFCDE
:104BC0000999C4F8A8033046C4F8A4B316F073FBDF
:104BD000D4F8E4135A4684F8EC8381EAE170C4F80F
:104BE000E09384F8DAA3A0EBE170DFF85481C4F815
:104BF000E80316F0E1FC0A99C4E9F9B0304616F072
:104C00005AFB494B30460B99C4F830344CF2E2530E
:104C1000A4F83434089BC4F81C34032384F82034EB
:104C200016F049FB314638460CAE12F057FFDC2235
:104C30000F210698FFF7F9FD4FF0020312AA11A900
:104C4000ADF8443004230698ADF8483017F06AFDFB
:104C5000CD230699384684F86A3404F50653383370
:104C6000C4F8603412F03AFFE1222C210798FFF7D4
:104C7000DCFD07993046C4F89C94A4F8A05417F0C2
:104C800059FA04F5956396E8070083E807001223B4
:104C900012A90798ADF84C30CDF8488017F0E4FC25
:104CA0000799384612F01AFFE12296210398FFF780
:104CB000BCFDD4F8B43403993046D3F88430C4F83A
:104CC000E494A4F8E854984704F59E6396E8070036
:104CD00083E80700154B1A682AB9154B6021154A5D
:104CE00015482EF0A9F8DFF85CB0BBF80020102AB8
:104CF0002AD8124B61210F4AF2E700BF787D0308E2
:104D0000387B0308EC900308C87B0308C8790308C4
:104D1000807A0308B4930308DC8F030828950308FE
:104D2000607D03080548000816BCC4FF047A012012
:104D3000A05D0308A25E03081D5E0308645E03080D
:104D400058780308087A0120DFF81CA11021DAF84E
:104D5000000000F0B3FDC4F8FC04039817F064FCF5
:104D6000112212A90398ADF84C20CDF8488017F015
:104D70007BFC0399384684F8D95412F0AFFEE12247
:104D80004FF487710498FFF750FDD4F8002504997B
:104D90003046D2F88420C4F83095A4F834559047B2
:104DA00004F23C5C2F4B96E807008CE807001A6879
:104DB000002A92D0BBF800200E2A9AD90E21DAF8E8
:104DC000000000F07BFDC4F84805049817F02CFCA7
:104DD0000F2212A90498ADF84C20CDF8488017F0A6
:104DE00043FC0499384684F8255512F077FEE122F9
:104DF00094210598FFF719FDD4F84C250599304604
:104E0000D2F88420A4F8805504F5B165C4F87C95E7
:104E10009047144B96E807001B6885E80700002BB5
:104E20003FF45BAFBBF800300A2B7FF662AF0A217C
:104E3000DAF8000000F042FDC4F89405059817F078
:104E4000F3FB0B2312A90598ADF84C30CDF8488040
:104E500017F00AFC3846059912F040FE204615B0BE
:104E6000BDE8F08F047A0120107A01207047704766
:104E7000704770477047704730B444680346C26853
:104E80009B68551004EB6200D20748BF625930BCE2
:104E900048BFD35818470346406830B19A681AB9DA
:104EA000D86800F0010070470120704730B44468B2
:104EB0000346C2689B68551004EB6200D20748BFE6
:104EC000625930BC48BFD35818470346406830B1D8
:104ED0009A681AB9D86800F001007047012070473D
:104EE00090F82D3080F85C30704710B5044664218E
:104EF0002DF066F8204610BD10B5044610212DF0A7
:104F00005FF8204610BD10B5044610212DF058F86A
:104F1000204610BD10B5044640F23C512DF050F82B
:104F2000204610BD0146343091F82C3013B1623167
:104F300017F031BD6031FBE710B50446006B50B18E
:104F40000368DB68984730B1206B21460368BDE8F1
:104F500010409B68184710BD00F58A728A4202D142
:104F60000368DB6A184770470B7970B504460D4635
:104F700090F82C600BB916B170BD002EFCD0B3FABE
:104F800083F320465B0984F82C302368D3F88C30F7
:104F90009847236820465B699847002EECD02B7910
:104FA000012BE9D123682046D3F88830BDE8704052
:104FB00018479830884208B505D11AF0A3F8BDE823
:104FC0000840FEF799BE08BD036870B504469B6BA8
:104FD00015469847236820462946DB6BBDE870409C
:104FE00018470B8870B50546A0F860301388044652
:104FF00025F8623F28461DF033FF064628461DF07F
:1050000063FF314602462046FFF7DEFF2368204655
:10501000D3F88C30BDE87040184700004FF47F4350
:10502000F7B5838540F201130025064683844FF6C9
:10503000FF771A4B04462622294685620563ADF8A0
:105040000470C0E90155C0E90355C0E90555C0E940
:10505000075546F8343B30462EF0ACF93046FFF7A2
:1050600005FC0F4B01A930466363BDF8043084F89A
:105070005C70A4F85A3017F08EFC2A462946304658
:10508000A4F86070A4F86270FFF7CFFB20463146A9
:1050900012F024FD204603B0F0BD00BFAC7D030834
:1050A0009C9503082DE9F04F044693B000251CF0B1
:1050B00001F92646CE4B04F16C0B04F1980AE56326
:1050C00004F1CC0946F8403B3046FFF7E1FB584677
:1050D000FFF7DEFB2622294650462EF06BF950469C
:1050E000FFF7C4FB4FF0010304F58A78484684F8C3
:1050F000BC30C04BC4F8C050C4F898304FF6FF73B2
:1051000084F8C450A4F8C630A4F8C83084F8CA3073
:10511000FFF718FC4046FFF781FF04F5BC73B64F5C
:1051200018460693FFF70EFC04F5E0731846079344
:10513000FFF708FC04F5027318460893FFF702FC1A
:1051400004F5147318460493FFF7FCFB04F527736A
:10515000C4F850721846C4F89852029313F084F9B8
:1051600004F564731846039313F07EF904F2844344
:1051700018460593FFF7E6FB04F59A63C4F88474B8
:105180001846C4F8CC540993FFF7DCFB9B4B304620
:105190002A462946C4F81C35994BC4F8D074271DFB
:1051A000C4F82435974BC4F81855C4F82C35964BE1
:1051B000C4F82045C4F83435C4F82855C4F830453F
:1051C000C4F83855FFF731FB4FF4887230464FF47E
:1051D000F071FFF7F9FE4FF07F4331463846A36682
:1051E0000AAE12F07BFC58462A462946FFF71DFB03
:1051F0004FF4887258464FF4F071FFF7E5FE4FF018
:105200007F4359463846C4F894304FF0FF3B12F0C4
:1052100065FC5046DC220F21FFF707FB4FF002032D
:1052200010AA5046ADF83C304FF004030FA9ADF87A
:10523000403017F077FACD2351463846DFF8E0A129
:1052400084F8CA3004F21C53C4F8C03012F046FC93
:10525000E12248462C21FFF7E8FA49463046C4F8D7
:10526000FCB0A4F8005116F065FF04F5847396E8CD
:10527000070083E807000C23484610A9CDF840A09A
:10528000ADF8443017F0F0F94946384612F026FCE4
:105290004FF003024FF0040340460FA9ADF83C2045
:1052A00010AAADF84030FFF79CFE2A46294604F5C7
:1052B000A470FFF7BAFA04F22C5340461222C4F845
:1052C00044315921FFF7B1FA262240466621FFF703
:1052D0007BFE414638464FF0050912F0FFFB1922CC
:1052E00006981146DFF83C81FFF79FFA0699304691
:1052F000C4F8A8B1A4F8AC5116F01CFF04F5DA7399
:1053000096E8070083E80700092310A90698ADF87E
:105310004430CDF840A017F0A7F90699384612F0AE
:10532000DDFB452219210798FFF77FFA07993046E0
:10533000C4F8F0B1A4F8F45116F0FCFE04F5FE73C5
:1053400096E8070083E807004FF0060310A90798C6
:10535000ADF84430CDF840A017F086F907993846EB
:1053600012F0BCFB8E2219210898FFF75EFA08990B
:105370003046C4F838B2A4F83C5216F0DBFE04F50F
:10538000117396E8070083E8070010A90898CDF884
:1053900040A0ADF8449017F067F90899384612F02C
:1053A0009DFB16226A210498FFF73FFAD4F8503289
:1053B00004993046D3F88430C4F880B2A4F88452FB
:1053C000984704F5237396E8070083E80700D8F8A8
:1053D00000302BB90D4B60210D4A0E482DF02CFDED
:1053E0000D4B1B88072B1FD80C4B6121084AF4E793
:1053F0007C7E030828950308387B03084C7E03084D
:10540000B34F0008647E0308594F0008A05D0308ED
:10541000A25E03081D5E0308087A0120645E03088B
:1054200058780308047A01206E4B0721186800F0B1
:1054300045FAC4F89802049817F0F6F8082310A962
:105440000498ADF84430CDF840A017F00DF9049958
:10545000384612F043FB632259210298FFF7E5F921
:105460004FF007020FA84FF00601ADF8382010AB3F
:1054700002460EA8ADF8401001460298ADF83C90E7
:1054800013F04CF84FF496702B460B221021CDE907
:105490000050029812F049FF4FF47A7229460298A0
:1054A00012F0E9FD2946029812F0ADFD0299384646
:1054B00012F014FBAC2257210398FFF7B6F94FF016
:1054C00007024FF0060110AB0398ADF838200FAA81
:1054D000ADF840100EA9ADF83C9013F01FF84FF452
:1054E00096722B4610210398CDE900520B2212F040
:1054F0001CFF1F222946039812F0BDFD2946039880
:1055000012F081FD0399384612F0E8FA452257213E
:105510000598FFF78AF9D4F8843405993046D3F812
:105520008430C4F8B4B4A4F8B854984704F5986328
:1055300096E8070083E80700D8F80030002B3FF416
:1055400049AF294A1388032B7FF64EAF254E03211E
:10555000306800F0B3F9C4F8CC04059817F064F88B
:105560004FF0040310A90598ADF84430CDF840A0E1
:1055700017F07AF80599384612F0B0FA8E225721C2
:105580000998FFF752F9D8F80030C4F800B5A4F82C
:105590000455C4F80C55C4F810B5C4F81455002BC4
:1055A0003FF418AF104A1388012B7FF61DAF01217D
:1055B000306800F083F9C4F81805099817F034F83A
:1055C0004FF0020310A90998ADF84430CDF840A07F
:1055D00017F04AF83846099912F080FA204613B0BD
:1055E000BDE8F08F107A0120087A01207047000092
:1055F00030B5164D8FB02C68BFF35B8F14F00104EB
:1056000020D128462CF0DEFCE0B13F2301221049D6
:105610000993104B10480893104B0A940594CDE958
:1056200006430423CDE903320A23CDE90B4400935A
:10563000CDE90144FEF7B6FB09482DF01BFC2846D6
:105640002CF0CCFC04480FB030BD00BF94460020C5
:1056500040BE0190CC9E030898460020449F03085A
:10566000ED5500087047000030B5174D8FB02C681D
:10567000BFF35B8F14F0010422D128462CF0A2FC6A
:10568000F0B13F23292211490993114B1148089386
:10569000114B0A940793012301940493CDE9054328
:1056A0000423CDE902431423CDE90B4400931823CE
:1056B000FEF778FB09482DF0DDFB28462CF08EFC28
:1056C00004480FB030BD00BFC446002050BE01905A
:1056D000D09E0308C8460020489F0308655600086E
:1056E0007047000030B5164D8FB02C68BFF35B8F4C
:1056F00014F0010420D128462CF064FCE0B13F23D3
:10570000012210490993104B10480893104B0A943A
:105710000594CDE906430423CDE903322823CDE9DE
:105720000B440093CDE90144FEF73CFB09482DF002
:10573000A1FB28462CF052FC04480FB030BD00BF3E
:10574000F446002090C00190409F0308F8460020D6
:105750004C9F0308E1560008002070470020704766
:105760000EB403B503AB002153F8042B01931AF0D8
:1057700057FD02B05DF804EB03B070470CB407B5F9
:1057800004AB53F8042B01931AF04AFD03B05DF803
:1057900004EB02B070470000436C10B5044673B3CD
:1057A000038F2BB9184BC521184A19482DF044FB1B
:1057B000C38E00EB43035B8C0BB31CF085FC238F83
:1057C000012B03D8134BCB21134AEEE7E28E40F6B0
:1057D0003F10531C9BB2092B194688BFA3F10A0145
:1057E00004EB4101498C814209D10A2B04EB4202AE
:1057F00028BF0023508C04EB430358845184204677
:10580000BDE810401CF062BBED5E0308F65E0308C5
:10581000A15F0308EB5F0308F95F03081CF01FBBDF
:1058200010B586B002AC84E806001A460AAB2146E1
:1058300005930193099B0093089B19F047F806B064
:1058400010BD000038B518BB124B13481C68134933
:10585000B4B1226822440260626822440A60A268ED
:1058600014440F4B00221A8000F038F8054600F06F
:1058700033F80C4B1C600C4B1D600C4B188007E080
:105880000B4B03600B4B0B600B4B1C68002CE8D1DF
:1058900038BD00BF304700202847002024470020A3
:1058A0002C470020047A01200C7A0120087A01207C
:1058B000ECC00190A0C00190C0C10190044B1B68D6
:1058C00053F82100034B1B6803EB4000704700BFF7
:1058D00024470020284700201320704700487047C5
:1058E0003447002010B5054CFFF7BEFE2060FFF7DF
:1058F000F9FE6060FFF77CFEA06010BD3447002019
:1059000010B5002404600C6014601C6010BD70476A
:1059100010B504464FF4AE712CF052FB204610BD7A
:1059200010B50446D0F8580100F014F82046BDE840
:10593000104019F069BC000010B50446FEF7A8F944
:10594000014B2046236010BDB47E03080022026094
:10595000704700000068024903689B68184700BF51
:1059600060070020704704387047704710B5044640
:1059700010212CF025FB204610BDA0F10400F5E716
:10598000C06800F031B8A0F10400FFF7F9BF0000D3
:105990000022C1608260024A02601C32426070478D
:1059A000087F030870470000034B10B504460360EE
:1059B000FEF790FE204610BD387F030810B5044660
:1059C000FFF7F2FF42F2C81120462CF0F9FA204608
:1059D00010BD000010B50446FEF7D6FF014B20466F
:1059E000236010BD387F03082DE9F74305460C46B8
:1059F00001F5C879DFF8C8802E4FD5ED337A2646F9
:105A000005F198000434F8EEE77A96ED007A67EE37
:105A1000877AF5EEC07AF1EE10FA38DBB6EE007A4E
:105A200077EE877AFDEEE77A17EE901A15F01DFEF5
:105A300054ED017A98ED007AB4EEE77A97ED007AAA
:105A4000F1EE10FA4CBF33464346D3ED007AC8ED71
:105A5000007A54ED016AF4EEC76AF1EE10FA58BF0D
:105A60003E464C4596ED007A87ED007AC5D177EE3B
:105A7000C77A114C01AB114A0C212046CDED017AB9
:105A80001DF038F9C5F8944503B0BDE8F083BDEECC
:105A9000E77AF8EEC76A17EE103A013B77EEE67A3E
:105AA000F7EE086A77EEA67AFDEEE77A17EE901A1F
:105AB0001944BBE70C00002040470020CB600308DE
:105AC0004C470020FEF7A7BD704770470438704769
:105AD000704710B5044610212CF072FA204610BD14
