:020000040800F2
:1000000000000520AD1E0008C91D0008CB1D00081A
:10001000CD1D0008CF1D0008D11D00080000000004
:1000200000000000000000000000000071B50008A2
:10003000D31D00080000000011B6000875B60008C6
:10004000FD1E0008FD1E0008FD1E0008FD1E000824
:10005000FD1E0008FD1E0008FD1E0008FD1E000814
:10006000FD1E0008FD1E0008FD1E0008FD1E000804
:10007000FD1E0008FD1E0008FD1E0008FD1E0008F4
:10008000FD1E0008FD1E0008FD1E0008FD1E0008E4
:10009000FD1E0008FD1E0008FD1E0008FD1E0008D4
:1000A000FD1E0008FD1E0008FD1E0008FD1E0008C4
:1000B000FD1E0008FD1E0008FD1E0008FD1E0008B4
:1000C000FD1E0008FD1E0008FD1E0008FD1E0008A4
:1000D000FD1E0008FD1E0008FD1E0008FD1E000894
:1000E000FD1E0008FD1E0008FD1E0008FD1E000884
:1000F000FD1E0008FD1E0008FD1E0008FD1E000874
:10010000FD1E0008FD1E0008FD1E0008FD1E000863
:10011000FD1E0008FD1E0008D51D0008FD1E00087C
:10012000FD1E0008FD1E0008FD1E0008FD1E000843
:10013000FD1E0008FD1E0008FD1E0008FD1E000833
:10014000FD1E0008FD1E0008FD1E0008FD1E000823
:10015000FD1E0008FD1E0008FD1E0008FD1E000813
:10016000FD1E0008FD1E0008FD1E0008FD1E000803
:10017000FD1E0008FD1E0008FD1E00080000000016
:10018000FD1E0008FD1E0008FD1E0008FD1E0008E3
:10019000FD1E0008FD1E0008FD1E0008FD1E0008D3
:1001A000E11D0008FD1E0008ED1D0008FD1E0008F1
:1001B000FD1E0008FD1E0008FD1E0008FD1E0008B3
:0801C000FD1E0008FD1E0008F1
:1001D00010B5054C237833B9044B13B10448AFF381
:1001E00000800123237010BD4003002000000000A8
:1001F000EC95030808B5034B1BB103490348AFF363
:10020000008008BD0000000044030020EC950308B6
:1002100001F0FF01102A2BDB10F0070F08D010F8B7
:10022000013B013A8B422DD010F0070F42B3F6D1BB
:10023000F0B441EA012141EA014122F007047FF0D4
:1002400000070023F0E80256083C85EA010586EA2B
:10025000010685FA47F5A3FA87F586FA47F6A5FA67
:1002600087F68EB9EED1F0BC01F0FF0102F0070273
:1002700032B110F8013B013A83EA010313B1F8D11E
:100280000020704701387047002D06BF35460338FF
:10029000073815F0010F07D1013015F4807F02BF38
:1002A000013015F4C03F0130F0BC0138704700BF89
:1002B00081F0004102E000BF83F0004330B54FEA17
:1002C00041044FEA430594EA050F08BF90EA020F84
:1002D0001FBF54EA000C55EA020C7FEA645C7FEA17
:1002E000655C00F0E2804FEA5454D4EB5555B8BF3A
:1002F0006D420CDD2C4480EA020281EA030382EAAB
:10030000000083EA010180EA020281EA0303362D3C
:1003100088BF30BD11F0004F4FEA01314FF4801C0F
:100320004CEA113102D0404261EB410113F0004F21
:100330004FEA03334CEA133302D0524263EB4303D8
:1003400094EA050F00F0A780A4F10104D5F1200E76
:100350000DDB02FA0EFC22FA05F2801841F10001D1
:1003600003FA0EF2801843FA05F359410EE0A5F1A5
:1003700020050EF1200E012A03FA0EFC28BF4CF0D6
:10038000020C43FA05F3C01851EBE37101F000458C
:1003900007D54FF0000EDCF1000C7EEB00006EEB99
:1003A0000101B1F5801F1BD3B1F5001F0CD3490823
:1003B0005FEA30004FEA3C0C04F101044FEA44527A
:1003C00012F5800F80F09A80BCF1004F08BF5FEA01
:1003D000500C50F1000041EB045141EA050130BDE1
:1003E0005FEA4C0C404141EB0101013C28BFB1F5F3
:1003F000801FE9D291F0000F04BF01460020B1FA3E
:1004000081F308BF2033A3F10B03B3F120020CDA10
:100410000C3208DD02F1140CC2F10C0201FA0CF0EE
:1004200021FA02F10CE002F11402D8BFC2F1200C53
:1004300001FA02F120FA0CFCDCBF41EA0C01904009
:10044000E41AA2BF01EB0451294330BD6FEA040452
:100450001F3C1CDA0C340EDC04F11404C4F120023D
:1004600020FA04F001FA02F340EA030021FA04F34F
:1004700045EA030130BDC4F10C04C4F1200220FAA6
:1004800002F001FA04F340EA0300294630BD21FAE4
:1004900004F0294630BD94F0000F83F4801306BFAA
:1004A00081F480110134013D4EE77FEA645C18BF9E
:1004B0007FEA655C29D094EA050F08BF90EA020F35
:1004C00005D054EA000C04BF1946104630BD91EA2D
:1004D000030F1EBF0021002030BD5FEA545C05D130
:1004E0004000494128BF41F0004130BD14F580046F
:1004F0003CBF01F5801130BD01F0004545F0FE41E3
:1005000041F470014FF0000030BD7FEA645C1ABF17
:10051000194610467FEA655C1CBF0B46024650EA4E
:10052000013406BF52EA033591EA030F41F400217A
:1005300030BD00BF90F0000F04BF0021704730B500
:100540004FF4806404F132044FF000054FF00001D5
:1005500050E700BF90F0000F04BF0021704730B596
:100560004FF4806404F1320410F0004548BF40426B
:100570004FF000013EE700BF42004FEAE2014FEAC0
:1005800031014FEA02701FBF12F07F4393F07F4F9B
:1005900081F06051704732F07F4208BF704793F09E
:1005A0007F4F04BF41F40021704730B54FF46074B1
:1005B00001F0004521F000411CE700BF50EA0102B4
:1005C00008BF704730B54FF000050AE050EA01025D
:1005D00008BF704730B511F0004502D5404261EBCD
:1005E00041014FF4806404F132045FEA915C3FF40E
:1005F000D8AE4FF003025FEADC0C18BF03325FEAAB
:10060000DC0C18BF033202EBDC02C2F1200300FA5B
:1006100003FC20FA02F001FA03FE40EA0E0021FA80
:1006200002F11444BDE600BF70B54FF0FF0C4CF46E
:10063000E06C1CEA11541DBF1CEA135594EA0C0F20
:1006400095EA0C0F00F0DEF82C4481EA030621EA5B
:100650004C5123EA4C5350EA013518BF52EA033596
:1006600041F4801143F4801338D0A0FB02CE4FF048
:100670000005E1FB02E506F00042E0FB03E54FF078
:100680000006E1FB03569CF0000F18BF4EF0010E70
:10069000A4F1FF04B6F5007F64F5407404D25FEA6C
:1006A0004E0E6D4146EB060642EAC62141EA55511F
:1006B0004FEAC52040EA5E504FEACE2EB4F1FD0C61
:1006C00088BFBCF5E06F1ED8BEF1004F08BF5FEADF
:1006D000500E50F1000041EB045170BD06F0004691
:1006E00046EA010140EA020081EA0301B4EB5C043E
:1006F000C2BFD4EB0C0541EA045170BD41F4801136
:100700004FF0000E013C00F3AB8014F1360FDEBF5A
:10071000002001F0004170BDC4F10004203C35DA36
:100720000C341BDC04F11404C4F1200500FA05F3B9
:1007300020FA04F001FA05F240EA020001F000425A
:1007400021F0004110EBD37021FA04F642EB0601D0
:100750005EEA430E08BF20EAD37070BDC4F10C04FA
:10076000C4F1200500FA04F320FA05F001FA04F2BE
:1007700040EA020001F0004110EBD37041F10001AA
:100780005EEA430E08BF20EAD37070BDC4F12005B5
:1007900000FA05F24EEA020E20FA04F301FA05F21D
:1007A00043EA020321FA04F001F0004121FA04F2C5
:1007B00020EA020000EBD3705EEA430E08BF20EA95
:1007C000D37070BD94F0000F0FD101F000464000CF
:1007D00041EB010111F4801F08BF013CF7D041EA51
:1007E000060195F0000F18BF704703F00046520055
:1007F00043EB030313F4801F08BF013DF7D043EA26
:100800000603704794EA0C0F0CEA135518BF95EADB
:100810000C0F0CD050EA410618BF52EA4306D1D162
:1008200081EA030101F000414FF0000070BD50EA81
:10083000410606BF1046194652EA430619D094EA0B
:100840000C0F02D150EA013613D195EA0C0F05D1F5
:1008500052EA03361CBF104619460AD181EA030149
:1008600001F0004141F0FE4141F470014FF0000001
:1008700070BD41F0FE4141F4780170BD70B54FF09C
:10088000FF0C4CF4E06C1CEA11541DBF1CEA13551C
:1008900094EA0C0F95EA0C0F00F0A7F8A4EB0504FE
:1008A00081EA030E52EA03354FEA013100F08880F5
:1008B0004FEA03334FF0805545EA131343EA1263BE
:1008C0004FEA022245EA111545EA10654FEA002673
:1008D0000EF000419D4208BF964244F1FD0404F52C
:1008E000407402D25B084FEA3202B61A65EB030588
:1008F0005B084FEA32024FF480104FF4002CB6EB45
:10090000020E75EB030E22BFB61A754640EA0C00C4
:100910005B084FEA3202B6EB020E75EB030E22BF04
:10092000B61A754640EA5C005B084FEA3202B6EB45
:10093000020E75EB030E22BFB61A754640EA9C0004
:100940005B084FEA3202B6EB020E75EB030E22BFD4
:10095000B61A754640EADC0055EA060E18D04FEA92
:10096000051545EA16754FEA06164FEAC30343EA32
:1009700052734FEAC2025FEA1C1CC0D111F4801FFF
:100980000BD141EA00014FF000004FF0004CB6E7F8
:1009900011F4801F04BF01430020B4F1FD0C88BF97
:1009A000BCF5E06F3FF6AFAEB5EB030C04BFB6EBA2
:1009B000020C5FEA500C50F1000041EB045170BD95
:1009C0000EF0004E4EEA113114EB5C04C2BFD4EBC2
:1009D0000C0541EA045170BD41F480114FF0000E46
:1009E000013C90E645EA060E8DE60CEA135594EAC2
:1009F0000C0F08BF95EA0C0F3FF43BAF94EA0C0FC5
:100A00000AD150EA01347FF434AF95EA0C0F7FF439
:100A100025AF104619462CE795EA0C0F06D152EA8D
:100A200003353FF4FDAE1046194622E750EA410671
:100A300018BF52EA43067FF4C5AE50EA41047FF482
:100A40000DAF52EA43057FF4EBAE12E74FF0FF3CE7
:100A500006E000BF4FF0010C02E000BF4FF0010CB8
:100A60004DF804CD4FEA410C7FEA6C5C4FEA430C31
:100A700018BF7FEA6C5C1BD001B050EA410C0CBF80
:100A800052EA430C91EA030F02BF90EA020F0020E2
:100A9000704710F1000F91EA030F58BF994208BF49
:100AA00090422CBFD8176FEAE37040F00100704706
:100AB0004FEA410C7FEA6C5C02D150EA013C07D15D
:100AC0004FEA430C7FEA6C5CD6D152EA033CD3D0A8
:100AD0005DF8040B704700BF8446104662468C46A2
:100AE0001946634600E000BF01B5FFF7B7FF0028D5
:100AF00048BF10F1000F01BD4DF808EDFFF7F4FFFE
:100B00000CBF012000205DF808FB00BF4DF808ED88
:100B1000FFF7EAFF34BF012000205DF808FB00BFAB
:100B20004DF808EDFFF7E0FF94BF012000205DF8CD
:100B300008FB00BF4DF808EDFFF7CEFF94BF012082
:100B400000205DF808FB00BF4DF808EDFFF7C4FF7B
:100B500034BF012000205DF808FB00BF4FEA410CC4
:100B60007FEA6C5C02D150EA013C0AD14FEA430CA7
:100B70007FEA6C5C02D152EA033C02D14FF00000E4
:100B800070474FF0010070474FEA410212F5001222
:100B900015D211D56FF47873B3EB625212D94FEAC4
:100BA000C12343F0004343EA505311F0004F23FAAE
:100BB00002F018BF404270474FF00000704750EA03
:100BC000013005D111F0004008BF6FF000407047C0
:100BD0004FF00000704700BF4A0011D212F500121A
:100BE00011D20DD56FF47873B3EB62520ED44FEA85
:100BF000C12343F0004343EA505323FA02F0704705
:100C00004FF00000704750EA013002D14FF0FF3042
:100C100070474FF0000070474FEA4102B2F1E043E5
:100C200024BFB3F5001CDCF1FE5C0DD901F0004CD3
:100C30004FEAC0024CEA5070B2F1004F40EB830023
:100C400008BF20F00100704711F0804F21D113F14F
:100C50003872BCBF01F00040704741F480114FEA88
:100C60005252C2F11802C2F1200C10FA0CF320FA11
:100C700002F018BF40F001004FEAC1234FEAD3232E
:100C800003FA0CFC40EA0C0023FA02F34FEA430398
:100C9000CCE77FEA625307D150EA01331EBF4FF021
:100CA000FE4040F44000704701F0004040F0FE403C
:100CB00040F40000704700BF7BB972B90029BEBF85
:100CC00000204FF0004106E008BF00281CBF6FF075
:100CD00000414FF0FF3000F0D3B9ADF1080C6DE9E1
:100CE00004CE002909DB002B1ADB00F04DF8DDF8FB
:100CF00004E0DDE9022304B07047404261EB4101AA
:100D0000002B1BDB00F040F8DDF804E0DDE90223F6
:100D100004B0404261EB4101524263EB4303704730
:100D2000524263EB430300F02FF8DDF804E0DDE905
:100D3000022304B0404261EB41017047524263EB31
:100D4000430300F021F8DDF804E0DDE9022304B0FC
:100D5000524263EB4303704753B94AB9002908BFB5
:100D600000281CBF4FF0FF314FF0FF3000F088B972
:100D7000ADF1080C6DE904CE00F006F8DDF804E0F2
:100D8000DDE9022304B070472DE9F047089D8E4647
:100D900004468846002B4AD18A42174662D9B2FAE5
:100DA00082F64EB1C6F1200301FA06F820FA03F3E9
:100DB000B74043EA0808B4404FEA174E1FFA87FCD1
:100DC000B8FBFEF1230C0EFB118843EA084301FB3C
:100DD0000CF29A4209D9FB1801F1FF3080F0EA8049
:100DE0009A4240F2E78002393B449A1AA3B2B2FB1E
:100DF000FEF00EFB102243EA024300FB0CFC9C4574
:100E000009D9FB1800F1FF3280F0D6809C4540F2F2
:100E1000D3803B44023840EA0140A3EB0C0300219D
:100E20001DB1F3400022C5E90032BDE8F0878B42D6
:100E300005D90DB1C5E9000100210846F5E7B3FA6F
:100E400083F1002946D1734502D3824200F2058125
:100E5000841A6EEB030201209046002DE5D0C5E90F
:100E60000048E2E7002A00F09080B2FA82F6002EF5
:100E700040F0A4808A1A030C4FEA174E80B2BCB22D
:100E80000121B2FBFEFC0EFB1C2243EA024304FBE1
:100E90000CF29A4207D9FB180CF1FF3802D29A42A1
:100EA00000F2E080C4469B1AB3FBFEF20EFB123345
:100EB00040EA034302FB04F49C4207D9FB1802F109
:100EC000FF3002D29C4200F2CA8002461B1B42EA5B
:100ED0000C40A5E7C1F120068B4022FA06F71F431C
:100EE0000EFA01F420FA06F32EFA06FE4FEA17492D
:100EF000234300FA01F81FFA87FCBEFBF9F01C0C33
:100F000009FB10EE44EA0E4400FB0CFEA64502FA73
:100F100001F209D93C1900F1FF3A80F09C80A64506
:100F200040F2998002383C44A4EB0E041FFA83FE81
:100F3000B4FBF9F309FB13444EEA044403FB0CFC35
:100F4000A44508D93C1903F1FF3E80F08280A445F6
:100F50007FD9023B3C4443EA0040A4EB0C04A0FBD5
:100F600002EC64457346E14662D35FD05DB1B8EBF5
:100F7000030264EB090404FA06F622FA01F31E43A5
:100F8000CC40C5E9006400214FE7B1FBF2FC010C45
:100F900041EA0E4180B240EA01423B4638463C46B7
:100FA000B846BE462026B1FBF7F1A2EB080241EAA3
:100FB0000C4166E7014618E710462CE7C6F120020F
:100FC0002EFA02F3B740B14020FA02F24FEA174E70
:100FD0000A43B3FBFEF8BCB20EFB1833110C41EA16
:100FE000034108FB04F9B04089454FEA104380B241
:100FF0003ED9791808F1FF3C01D289451FD8A1EBF1
:101000000901B1FBFEF909FB04F80EFB191192B2BC
:1010100042EA0142424529D2BA1809F1FF31C4D24D
:101020004245C2D2A9F102013A44BEE7F0459DD241
:10103000BEEB02036CEB070C0138E14696E7A7EB29
:1010400009094944A8F1020CB1FBFEF909FB04F8B7
:10105000DBE773467FE7504666E70846FDE63B441C
:10106000023A33E7ACF1020C3B441CE749469CE7EB
:10107000A1EB0901C446B1FBFEF909FB04F8C4E782
:10108000704700BF014900200BF06EBC39230008F7
:101090002DE9F0472A4D002400262A4FAA462DEDBF
:1010A000028BF0EE088AB1EE048A0FF28C09D9E9BE
:1010B000008920460134FFF74DFA42464B46FFF7C0
:1010C000B3FA32463B46FFF7AFFAFFF7A5FD00EE55
:1010D000100A35F05DFDF0EE487AE0EE287A17EE62
:1010E000900AFFF749FA0022174BFFF79DFAFFF726
:1010F00073FDB4F5807F05F8010BDAD1134D144C64
:101100002B6814485A6A144B1A8000222368D1189D
:101110000132C9B2C82A1AF8011000F8011BF6D131
:10112000013301221020DBB223600C4B1A7009F04E
:101130002DFEE5E7AFF30080182D4454FB21194044
:101140005F0300200000703F008039407C050020D4
:1011500060040020640400205C0300205E03002083
:1011600010B594B01022002102240AA837F002FB27
:101170001422002103A837F0FDFA1D4B192108A8FD
:101180001A6C42F080521A641B6C03F08053019376
:10119000019B184B1A6842F440421A6001221B68F6
:1011A00003F440430293029B4FF48033CDE90823BC
:1011B0004FF48003CDE90E434FF4D873CDE91244C8
:1011C000CDE9101308F0D6FC08F040FA0F230020F8
:1011D0000721CDE903344FF4A053CDE905034FF4C3
:1011E000805303A8079308F0ADFE14B010BD00BFF4
:1011F000003802400070004030B54FF480738FB06B
:101200004FF080720E4D06939F23099201220093A6
:1012100000230446694628460593CDE90A2341F296
:101220008832CDE90733CDE90C3308F075FB41F284
:1012300088322146284608F039FC0FB030BD00BF87
:10124000C805002000B54FF4807391B04FF0407294
:10125000EF2808934FF0EB0302A90D4802934FF4D7
:10126000406309934FF4005305934FF00003CDE919
:101270000A3214BF0A2206220F9307926A46CDE96A
:101280000D33CDE9003308F08BFB11B05DF804FBA2
:10129000C80500202DE980489DB0102200210125BD
:1012A0000FA84FF0104937F065FA002407F01EF937
:1012B000C64B0FA8ADF83C501294CDE9109307F03F
:1012C00033F917230FA88DF83D508DF844308DF871
:1012D0004A5007F029F9042007F016F9BFF34F8FA1
:1012E000BFF36F8FBA4AC2F85042BFF34F8FBFF3BC
:1012F0006F8F536943F400335361BFF34F8FBFF3D4
:101300006F8FC2F88440BFF34F8FD2F8803043F61E
:10131000E074C3F3C900C3F34E335B0103EA040670
:10132000014646EA81750139C2F86052F9D2203B84
:1013300013F1200FF2D1BFF34F8F536943F4803381
:101340005361BFF34F8FBFF36F8F07F035F8002461
:10135000FFF706FF142200210FA837F00BFA9D4B70
:1013600010219D481A6B01274FF010084FF0030B16
:1013700042F010024FF4805A984D4FF004091A635E
:101380001A6B974E02F010020192019A1A6B42F00A
:1013900002021A631A6B02F002020292029A1A6B9C
:1013A00042F001021A631A6B02F001020392039ADF
:1013B0001A6B42F040021A631A6B02F04002049268
:1013C000049A1A6B42F400721A631A6B02F40072E8
:1013D0000592059A1A6B42F008021A631A6B02F022
:1013E00008020692069A1A6B42F004021A631A6BFC
:1013F00002F004020792079A1A6B42F480621A63A1
:101400001A6B02F480620892089A1A6B42F020026A
:101410001A631A6B02F020020992099A1A6B42F4BD
:1014200080721A631A6B02F480720A920A9A1A6B1B
:1014300042F080021A6300221B6B03F080030B93BF
:101440000B9B07F0BDFB01220821664807F0B8FBA3
:1014500001224FF48051644807F0B2FB0022402182
:10146000624807F0ADFB0FA95B48CDE90F87CDE9D6
:10147000114B07F021FA4FF400430FA95C48119477
:10148000CDE90F3407F018FA08230FA95548CDE924
:101490000F37CDE9114407F00FFA0FA95248CDE9F3
:1014A0000FA7CDE9114407F007FA40220FA94F48D2
:1014B000CDE90F27CDE9114B07F0FEF94D484E4914
:1014C000848001600762C0E9054407F059F84B4980
:1014D0002846C5E90014C5E90244C5E90A44C5E93E
:1014E0000C4407F0ECF839462846454D07F09EF9C4
:1014F00040234FF4C07243493046B460F461B46293
:10150000C6E905324FF40062C6E9082A4FF0020A24
:101510000722C6E900140FA9CDF854A0C6E9039824
:10152000CDE90FA2CDE91192CDE913BA09F060F827
:1015300029464FF6FF7230460094C5E90078C5E9A8
:10154000027409F075F8384606F05AFF29464FF63E
:10155000FF723046C5E900A8C5E9027409F068F8D1
:10156000082329464FF6FF723046C5E900B8C5E9A1
:10157000023409F05DF84FF40C734FF6FF72294600
:1015800000933046009BAF60EB60C5E9009809F01E
:101590004FF840F22B7130461B4D09F068F84FF0C0
:1015A000204343F2D202642040F215261A6006F06E
:1015B00027FF164B164A28462C62C5E90023C5E9C9
:1015C0000247C5E90444C5E9064423E01B000003C3
:1015D00000ED00E000380240000402401007002047
:1015E0004805002000280240002002400018024068
:1015F00000000240500700200030024000B00240CE
:101600002C050020400100A0BC06002068474020B7
:10161000005C004007F015FC2146284607F038FE24
:1016200021462846524D07F059FE342221460FA884
:1016300037F0A0F84F4B2821352040F2352C2C6193
:10164000AC8685F83640C5E900340923C5E90513A1
:101650000B23C5E9070340F21B132846C5E90963BC
:1016600040F21D13C5E90244C5E90BC307F0DAFED9
:10167000FF214FF4806E4FF4F0724FF488732846C8
:101680000F941A93ADF86C408DF86E403A4DCDE949
:1016900014140521CDE916E14FF04041CDE91024A5
:1016A000CDE9181222460FA9CDE9123A07F085FFBD
:1016B0003248334B0462C0E90037C0E902984FF466
:1016C000A0634FF01808C0E90644C0E9048308F09D
:1016D000D1F80FA8FFF790FD9DF83C00FFF7B2FD91
:1016E0005C2006F0F1FE00F0DFFB2022214610A86E
:1016F00037F040F8234B0FA928460E94AC600F97A3
:1017000011971597C5E900344FF6FF73CDE90C44E6
:10171000C5E90334C5E9054409F086F90CA9284652
:101720000E94CDE90C4409F0D3F900F0E9FB00F088
:10173000E6FB3C21284608F0F1FF09F09DFA124A29
:101740002146124809F0D2FA114B124A214618607C
:10175000114809F0CBFA114B114A21461860114883
:1017600009F0C4FA104B186009F0A0FAFEE700BFB8
:1017700014060020006801407C050020C8050020F8
:10178000001000A000040140B4C903089110000833
:101790004405002090C903080F1F000840050020E1
:1017A0006CC90308213A00083C0500200268034B7D
:1017B0009A4201D106F012BE704700BF00100040EF
:1017C000704700000D4B82B00F216FF001001A6CC2
:1017D00042F080521A641A6C02F080520092009A11
:1017E0005A6C42F480425A6400225B6C03F48043DA
:1017F0000193019B02B006F027BE00BF00380240F3
:10180000026882B0084B9A420BD1D3F8302803F516
:10181000006342F480521A631B6B03F480530193FC
:10182000019B02B0704700BF003002400E4B07B56D
:1018300002689A4215D1A3F5F04305215A201A6B8C
:1018400042F400021A6300221B6B03F400030193AD
:10185000019B06F0F9FD5A2003B05DF804EB06F099
:1018600025BE03B05DF804FB00B0024010B5A8B07F
:1018700004461422002102A836F07CFF84220021B5
:1018800007A836F077FF2268174B9A422AD14FF407
:10189000803307A8079308F021FC08B1FFF790FFF9
:1018A000124C4FF4C07201211148236B43F08003A6
:1018B0002363236B03F080030093009B1223CDE985
:1018C00002230323CDE90413042302A9069306F09F
:1018D000F3FF236C43F400032364236C03F400033D
:1018E0000193019B28B010BD005C0040003802400D
:1018F000001C0240026808B5094B9A420FD1094A00
:1019000080210948136C23F40003136407F0B8F82E
:101910004FF480710448BDE8084007F0B1B808BD35
:10192000005C004000380240001C024070B5B0B0BE
:101930000446142200210AA836F01CFF842200214C
:101940000FA836F017FF22686B4B9A4240F0D18007
:101950000823052001240F934FF4C073149302232E
:10196000CDE915304FF400330FA8CDE9194308F045
:10197000B5FB08B1FFF724FF604B002402250E26BB
:101980005A6C0AA95E4842F080625A645A6C02F0AE
:1019900080620192019A1A6B42F010021A631A6B6C
:1019A00002F010020292029A1A6B42F040021A638D
:1019B0001A6B02F040020392039A1A6B42F400720F
:1019C0001A631A6B02F400720492049A1A6B42F0C2
:1019D00008021A631A6B02F008020592059A1A6B44
:1019E00042F004021A631A6B02F004020692069A8D
:1019F0001A6B42F480621A631A6B02F480620792D7
:101A0000079A1A6B42F480721A631A6B02F480729E
:101A10000892089A1A6B42F001021A631B6B0E9629
:101A200003F001030993099B7023CDE90C44CDE930
:101A30000A3506F041FF4FF400530AA931480E96CB
:101A4000CDE90A35CDE90C4406F036FF4AF67C6351
:101A50000AA92D480E96CDE90A35CDE90C4406F0C9
:101A60002BFF40230AA929480E96CDE90A35CDE976
:101A70000C4406F021FF4FF480630AA924480E9617
:101A8000CDE90A35CDE90C4406F016FFF7230AA983
:101A900020480E96CDE90A35CDE90C4406F00CFF3E
:101AA0004FF480530AA91748CDE90A350923CDE937
:101AB0000C440E9306F000FF4FF48C430AA916481D
:101AC0000E96CDE90A35CDE90C4406F0F5FE042367
:101AD0000AA912480E96CDE90A35CDE90C4406F064
:101AE000EBFE58202246052106F0AEFC582006F0F9
:101AF000DDFC30B070BD00BF00680140003802401E
:101B0000001002400018024000240240000C024075
:101B1000000802400028024000200240000002406D
:101B2000142200212DE9F0418AB004460DEB020099
:101B300036F020FE22682C4B9A4251D12B4B0225C5
:101B4000032409269A6B4FF0040805A9284842F09F
:101B5000020200279A639A6B02F002020192019A34
:101B60001A6B42F010021A631A6B02F01002029212
:101B7000029A1A6B42F002021A631A6B02F0020216
:101B80000392039A1A6B42F008021A631B6B03F06C
:101B900008030493049BCDE90585CDE9084606F0CA
:101BA0008BFE402305A91348CDE905350A23CDE96D
:101BB0000774099306F080FE05A90E480996CDE941
:101BC0000585CDE9077406F077FE4FF4605305A94B
:101BD00009480996CDE90535CDE9077406F06CFE94
:101BE0000AB0BDE8F08100BF001000A0003802403C
:101BF0000010024000040240000C024010B588B002
:101C000004461422002103A836F0B4FD2268114BCB
:101C10009A421DD103F59A3303A90F485A6C42F03A
:101C200002025A645A6C02F002020192019A1A6B83
:101C300042F004021A63C0221B6B03F004030293F8
:101C4000029B0223CDE903230323079306F034FE0E
:101C500008B010BD0004014000080240F0B50023A8
:101C600087B00393294B1E68002E4DD10122022715
:101C700003250C241A6001A9254B26489A6B42F0D3
:101C800001029A639B6B03F001030093009B4FF6E4
:101C90008373CDE90454CDE9013706F00DFE48F217
:101CA000331301A91C480594CDE90137CDE903653B
:101CB00006F002FE4CF2037301A918480594CDE921
:101CC0000137CDE9036506F0F7FD4FF63F0301A9A3
:101CD00013480594CDE90137CDE9036506F0ECFD25
:101CE000282301A90F480594CDE90137CDE9036503
:101CF00006F0E2FD082301A90B480594CDE9013760
:101D0000CDE9036506F0D8FD07B0F0BD74070020EB
:101D1000003802400010024000180240000C02404F
:101D200000140240001C024000080240214B1A6CC3
:101D300042F0100270B588B01A641B6C054601A908
:101D400003A803F010030293029B08F0A9F9069B75
:101D50004BBB08F095F9184E184B336040F2E7334F
:101D6000F360174BB0FBF3F3013B30467360002385
:101D70003361B360B36108F027FE044680B9304692
:101D800008F08EFC044658B9362006F08FFB0F2D64
:101D90000DD822462946362006F056FB094B1D6019
:101DA000204608B070BD08F06BF94000D3E701246D
:101DB000F6E700BF0038024078070020001000401E
:101DC00040420F00500000207047FEE7FEE7FEE7AC
:101DD000FEE77047014808F0FEBC00BF780700200E
:101DE000014807F08DBB00BF14060020014806F033
:101DF00092BC00BF100700200120704708B536F0E4
:101E00006DFD162303604FF0FF3008BD08B536F0B6
:101E100065FD16230360FEE770B50D4614460E46B9
:101E2000731B9C4201DC204670BDAFF3008006F8B6
:101E3000010BF5E770B50D4614460E46731B9C4228
:101E400001DC204670BD16F8010BAFF30080F5E70A
:101E50004FF0FF3070474FF4005300204B60704745
:101E600001207047002070470B4A0346116810B5E7
:101E700009B90A491160106809490A4C0344091B51
:101E80008B4206D936F02AFD0C2303604FF0FF3059
:101E900010BD1360FCE700BFC40700208893012039
:101EA00000000520000A000070470000DFF834D071
:101EB000002103E00C4B5B58435004310B480C4BA2
:101EC00042189A42F6D30B4A02E0002342F8043B40
:101ED000094B9A42F9D306F087F936F005FDFFF772
:101EE000D9F9704700000520040004080000002014
:101EF000380100204003002084930120FEE7704752
:101F000008B501F055F9BDE8084001F0D7B801F077
:101F100051B9406870474160704700004FF0E022BF
:101F2000D2F8FC3D43F08073C2F8FC3D054B064AF5
:101F3000D3F8B01F0A43C3F8B02F1A6842F0010269
:101F40001A607047001000E055CEACC5521A02EB83
:101F50005302B2FBF3F07047014B5868704700BF63
:101F6000001000E0704710B504460C2134F0C6FCA8
:101F7000204610BD036810B51B69044631B198476F
:101F8000A26863689B1A0344636010BD9847A06011
:101F9000FBE70000024B7020024A1360DB68184721
:101FA00024000020C8070020704710B50446042113
:101FB00034F0A4FC204610BD73B50E4E0D461446F9
:101FC000336813B9002002B070BD1B6970209847B8
:101FD0000028F7D03368702001AA0DF106015B6973
:101FE0009847BDF8043001202B60BDF8063023600F
:101FF000E9E700BFC80700207FB501238DF817204F
:102000004FF47A72CDE901320DF1170200920A46BF
:102010000146054806F084FF10B1034806F066FF4C
:1020200007B05DF804FB00BFBC0600207FB50023AD
:102030000A464FF47A718DF817300123CDE901314A
:102040000DF1170100910146054807F043F810B162
:10205000034806F04BFF9DF8170007B05DF804FB3E
:10206000BC06002010B1032809D07047084B10218E
:1020700008481A68B2FA82F2520906F0A1BD044B70
:1020800040210548DA68B2FA82F25209F5E700BF4A
:10209000CC070020000402400018024010B10328C1
:1020A00009D07047084B102108481A68003A18BF39
:1020B000012206F085BD044B40210548DA68003A4C
:1020C00018BF0122F5E700BFCC0700200004024042
:1020D0000018024010B1032804D0704710210348B3
:1020E00006F073BD40210248FAE700BF0004024039
:1020F0000018024008B530B1032809D00020431E63
:102100005842584108BD1021034806F053FDF6E738
:1021100040210248F9E700BF0004024000180240D5
:1021200070B5084D00240126E0B2FFF7E3FF18B1B7
:102130002B68012B18BF2E6001340435052CF3D118
:1021400070BD00BFCC070020012380F8781080F814
:1021500079307047704700207047000041640039B3
:10216000024B18BF01211970704700BF4386012040
:10217000704700207047836B0BB1084618477047C3
:102180004FF6FF707047406803689B6918477047B7
:102190007047704738B5044601F062F90849236872
:1021A0002046084DD3F8903098470023284684F8FD
:1021B0004A30FFF7B3FE0123256184F8703038BD43
:1021C000000000C0DC07002001F0EEB801F0F2B81A
:1021D00070B501F06FF910490023C1F88430BFF3E6
:1021E0004F8FD1F8803043F6E074C3F3C900C3F3D6
:1021F0004E335B0103EA0406024646EA8275013A61
:10220000C1F87452F9D2203B13F1200FF2D1BFF381
:102210004F8FBFF36F8F70BD00ED00E001F04CB940
:1022200001F09EB801F06EBA01F076BA01F0A2B8E2
:1022300010B504461AF03AF823682046D3F8BC30AB
:10224000BDE81040184719F04CBA10B50446842177
:1022500034F054FB204610BD90F834100D4B10B5EF
:1022600090F878401A788C4209D03AB90A490B4A5A
:1022700008881488108001220C801A7010BD002A72
:10228000FCD0064A0449148808880C80108000227B
:10229000F3E700BF3C8601203A8601203886012002
:1022A00070B50D46194635B9094B40F2FF21094A70
:1022B000094835F0A1FFC0E90F52003A074B18BF9B
:1022C00001221A700368BDE87040D3F890301847B7
:1022D000A7960308DF9603082D970308428601207E
:1022E00008B5094B1B888B4203D8084B1B889342C7
:1022F00005D9074BA321074A074835F07DFF074B57
:102300001980074B1A8008BD388601203A860120C3
:1023100072970308D59703082D9703083E8601207E
:1023200040860120034690F87A0018B15868036887
:102330001B68184770470000014608B5034B186832
:1023400001B1012119F0CCFF012008BD4486012014
:10235000034B00225A609A60024A1A60704700BF1D
:10236000DC070020E0C903080121002208B5084667
:1023700008F0C4FD0A4B186028B90A4B28210A4A04
:102380000A4835F039FF00220421012008F080FEC0
:10239000074B186018B9074B2C21034AF0E708BD1A
:1023A000EC07002018980308619803089098030828
:1023B000E8070020EA980308024B4FF0FF31186845
:1023C00008F0F4BDEC070020014B186808F02ABEA5
:1023D000EC070020024B0021186808F0E7BD00BFA1
:1023E000EC070020FFF7F0BF0023034803491A461B
:1023F000006808F093BE00BFE80700200800002036
:1024000013B50023074C01A91A46206808F0C8FE3E
:102410004FF0FF33002201A9206808F0C1FE02B08E
:1024200010BD00BFE807002003685B6C184701205F
:10243000704703689B6A1847FEE700000E4B82B0A6
:102440001A6B42F400021A631A6B02F40002019242
:10245000019A1A6942F400021A611A6922F4000210
:102460001A61064B064A1A61064A5A614FF08062A9
:10247000054B9A6002B070470038024010070020F8
:10248000152700083924000800E100E040F2EF3091
:1024900070470000054B4FF080620360044BC3F8A7
:1024A0008820BFF34F8FBFF36F8F70470CCB0308AB
:1024B00000E100E010B504464FF45A61FFF7EAFF6F
:1024C000204634F01BFA204610BD000008B50A284B
:1024D00009D8DFE800F006100E08080808101010F0
:1024E0001000022008BD054B9021054A054835F033
:1024F00083FE0020F6E70120F4E700BF2C990308D3
:10250000479903089299030838B50C46887FFFF76E
:10251000DDFF174BA58AE28A586342EA054221692A
:102520005A64628BD963521B1A642568082D0ED138
:102530009A611A6158620F4A207F42EA0062DA61AA
:10254000E2681A620C4A5961D9601A6038BD0022EB
:10255000D8611A61E1680A0A4809C1F3C40102F4AA
:10256000784200F4FC6002430A439A63034AECE7B2
:1025700000B0024009000100012302000123030012
:1025800008B50B280BD8DFE800F00612100A0A0A7B
:102590000A0808080808022008BD0520FCE7054BCA
:1025A0006F21054A054835F027FE0020F4E7012099
:1025B000F2E700BF2C990308EA99030892990308EF
:1025C0002DE9F04191F81D800C464046FFF7D8FFF9
:1025D000A77F05463846FFF7D3FF06463846FFF784
:1025E00075FFA18A628B434B521A1A649A61228B3F
:1025F000521A1A61E28A586342EA014221695A6416
:102600006268D963DA602068802828D0227F0FD8DA
:10261000202866D0402864D004281AD045EA0265F4
:10262000344BB84545F40035DD6160D0324A44E0B2
:10263000B0F5807F04D0B0F5007FEFD12F4800E0E7
:102640002F4840EA0262DA61E2681A625E6259610A
:1026500032E045EA026242F40032DA61F6E7A0684D
:10266000021DDA62227F45EA026545F40035DD612C
:102670005E625961017841B1012921D0214B4FF4AB
:102680008D71214A214835F0B7FDDA69418822F47D
:102690007F42013922F0100242EA01220121DA616F
:1026A000144BDA6942F02002DA61DA699206FCD44E
:1026B00010229A600029B9D0154A1A60BDE8F0814D
:1026C000B2F1FF01DA69408822F47F4218BF01218C
:1026D000013822F0100242EA002242F01002DA61D0
:1026E000DEE745EA0262034B42F40032B5E742F20C
:1026F0000132E2E700B002400123010009000200BC
:102700000A000200349A03084E9A030892990308BB
:1027100001230200024B1B68586803685B69184775
:102720004486012070B504460A4B0C30002625462D
:10273000602260602672667245F8203B294619F0D7
:1027400023FF04F55A63EE6024359D42FBD12046F9
:1027500070BD00BF0CCB0308034B1A68D207FCD432
:1027600023229A60704700BF00B00240094B5A69AB
:10277000D2030AD5BFF34F8F08440029A0EB010212
:1027800004DCBFF34F8FBFF36F8F70472039C3F85E
:102790006822F2E700ED00E030B5104C2568ED0747
:1027A000FCD423250904FF2BA56041F001014FF063
:1027B000020565636164E0630AD00949656241EA24
:1027C0000363E361074B22626061E060236030BD18
:1027D000E561039BA363044BF8E700BF00B0024030
:1027E00009000100010002000100030030B50F4C98
:1027F0002568ED07FCD423251204FF2BA56042F0C9
:1028000001024FF0020565636264E063E16008D095
:102810001B0643F00213E361054B656260612360B0
:1028200030BD044BE3610123F9E700BF00B0024073
:1028300001000200020002FF30B50B4C2568ED07D5
:10284000FCD4232512041B06A56042F001020225D8
:1028500043F4003365636264E063E160E361034B6A
:1028600065626061236030BD00B00240010002007B
:102870004069704790F844007047036B23B9C06A01
:10288000003818BF012070470120704780687047EA
:10289000043010B50C460FC884E80F0010BD704717
:1028A00008B5034A40F21221024B034835F0A4FC5C
:1028B0008C9A0308ECB30308E79A030810B50446A2
:1028C000482134F01BF8204610BD00002DE9F043EC
:1028D0001D46ADF51F7D436B06460F469046BDF87D
:1028E0009842002B35D0002203A8DFF8A490CDE950
:1028F000013210F025FD4FF4F4725021249024A8E9
:102900000AF0D3FC4246394624A80BF01DFC0121F5
:1029100024A80AF0C5FD022324A88DF8D8300AF0B7
:1029200060FE2B9B419AA342BDF89C7228BF2346B0
:102930009742A4EB030428BF174603EB4308640047
:10294000479B9F4209D824A80AF0CCFD24A80AF08E
:10295000F9FC0DF51F7DBDE8F083012201A924A833
:102960000AF088FE736B03EB0800984201D82544F7
:10297000E6E759789A78C90009EA022201F4FC6175
:102980000A4313F8031B42EAD10225F8022BECE7B5
:1029900000F8FFFF0A4A02600022C0E90522C0E9F0
:1029A0000722C0E90922C0E90B22C0E90D12C0E9E3
:1029B0000F2280F84420C0E90322C0E901227047B9
:1029C0005CCB030810B40C4611461A46036B3BB1AE
:1029D000036C806BE41A20445DF8044B35F0D2BEE2
:1029E000C06AF8E7036B10B573B1036C826BC91A48
:1029F0005318525C98785C780004DB7840EA042035
:102A0000104340EA036010BDC36A5858FBE7036BEC
:102A100043B1036CC91A836B5A18585C527840EA68
:102A200002207047C36A585A7047000070B50446C8
:102A3000006B0D461646D8B1E36B934208D20923CA
:102A40000D4A65210D4884F844300D4B35F0D4FB18
:102A50000368DB689847206B3246A16B03681B69EB
:102A6000984710B90D2384F84430A06B256470BDDD
:102A7000E06A0844FBE700BF5E9B0308E79A03088F
:102A80004B9B03082DE9F843436904462BB9234BBC
:102A9000AA21234A234835F0AFFB08228169FFF7BA
:102AA000C5FFA16943F2300646F26437043120467F
:102AB000FFF798FFA3691844A36A00F108029A423D
:102AC00006D3012300206361236AA361BDE8F88374
:102AD000636909300822013320F001012046636157
:102AE000A161FFF7A3FFD4F8189020464946FFF7ED
:102AF0008EFF09F1020180462046FFF788FF09F1A9
:102B0000040105462046FFF76DFFB045D2D1BD4216
:102B1000D0D10028CED00120D8E700BFA09B030869
:102B2000E99B0308E79A03082DE9F04F0446ADF549
:102B30001F7D8A461646816908229846FFF776FF70
:102B4000A7692046391DFFF74DFF07F1080102462E
:102B500005462046FFF76AFF636B074633B93C4BD7
:102B600040F2AB113B4A3C4835F046FB002203A83B
:102B7000CDE9013210F0E4FB4FF4F47250212490BF
:102B800024A80AF092FB2A46394624A80BF0DCFA66
:102B9000012124A80AF084FC022324A88DF8D8304F
:102BA0000AF01FFDBAF90250479BAB4229D3BAF98C
:102BB00000904FEA4808BAF804702B9B08FB0566A2
:102BC0004F44BAF80250DFF894B03FB29F4228BF9A
:102BD0001F46BAF8063009EB490A1D44419B2DB245
:102BE0009D4228BF1D46479B9D4210D824A80AF04D
:102BF00079FC24A80AF0A6FB01200DF51F7DBDE895
:102C0000F08F012201A924A80AF034FDCCE70122AB
:102C100001A924A80AF02EFD626B49465244B9422C
:102C200002F1030201D34644DDE712F8020C12F868
:102C3000013CC0000BEA032300F4FC60034312F8DC
:102C4000030C43EAD00326F811300131E7E700BF57
:102C50001C9C0308729C0308E79A030800F8FFFF16
:102C60000129036838BF0121DB6A70B50D460446AF
:102C70009847A84204D223682046DB6A9847054655
:102C80006B1EE6691022204606EB031606F10801CA
:102C9000FFF7CCFE06F110012046FFF7A3FE236AE2
:102CA000043B0344C4E9055370BD000000214822E1
:102CB0002DE9F0410446816180F84410FFF7B6FE2B
:102CC000A6690423624A31462046FFF77BFE40B1E5
:102CD0000323604AF22184F844305F4B5F4835F0AB
:102CE0008BFA06F1080104235D4A2046A161FFF733
:102CF00069FE30B10423574AFA2184F84430594B15
:102D0000ECE706F10C010423574A2046A161FFF7C6
:102D100059FE074638B105234E4A40F2011184F8A6
:102D20004430524BDAE706F110012046FFF75AFE15
:102D3000054620B94E4B40F20711464ACEE706F150
:102D4000140804234B4A20464146FFF73BFE002867
:102D500049D0062384F844300423474A06F1180179
:102D60002046FFF72FFE00283FD0072384F8443089
:102D70004544424F0C2220462946FFF757FE05F1F5
:102D8000080604233A4620463146FFF71BFE94F816
:102D90004430002848D0002B48D1A36AAB4249D820
:102DA00005F10C0304352046A3612946FFF71AFEFE
:102DB0003044294660622046FFF714FE0644042290
:102DC00020463146FFF732FE04232D4A3146204685
:102DD000FFF7F8FD002838D10123E6616361A3699C
:102DE0002362BDE8F0810127B6E7002FC0D006F1CD
:102DF00020012046FFF7F6FD4FF47A7306F130010B
:102E0000B0FBF3F060602046FFF7ECFD06F14001F7
:102E1000A0602046FFF7E6FD06F14401E060204691
:102E2000FFF7E0FD2061A3E7002BB9D00A2384F867
:102E30004430D6E7291D2046FFF7D4FD85190C2222
:102E400020462946FFF7F2FD99E70B23EFE700BF85
:102E5000CC9C0308EA9C0308D19C0308E79A03086A
:102E6000179D03081C9D0308349D0308399D030822
:102E70004F9D03085B9D0308609D0308659D030843
:102E80006A9D0308C0E90A2100220263FFF70EBF12
:102E900010B5002304460846E3620B6821639B6873
:102EA0009847A0622046BDE81040FFF7FFBE70B40F
:102EB000BDF80C50BDF810602AB123B1CDE903561E
:102EC00070BCFFF703BD70BC704700002DE9F04FE8
:102ED0009946436985B004460F4690462BB9294B65
:102EE0007721294A294835F087F908228169FFF7B7
:102EF0009DFDA66920463146FFF789FDB11C83463A
:102F00002046FFF784FD311D82462046FFF76AFD0B
:102F100006F10801A36A05460A189A4226D243F22E
:102F200030039B4517D146F264339A4513D190B1D3
:102F30000246A1612046FFF779FD0E9B01462A4615
:102F40002046CDF80080CDE901933B46FFF7AFFF67
:102F5000636901336361A3692B4405B90833013305
:102F6000626A23F001039342A36109D10123012086
:102F70006361236AA36180F0010005B0BDE8F08FB2
:102F80000020F8E7A09B03086F9D0308E79A030859
:102F9000012070470C2070470C2303FB0100083010
:102FA00070470C2303FB0100083070470120704775
:102FB00043F2A810704743F2A81303FB0100083046
:102FC000704743F2A81303FB01000830704701204B
:102FD00070471020704700EB01100830704700EB7D
:102FE000011008307047084600F09CBE034B10B536
:102FF0000446036017F0A6F9204610BD04CC030870
:1030000010B50446FFF7F2FF1421204633F076FC9A
:10301000204610BD034B10B50446036017F092F92B
:10302000204610BDD0CB030810B50446FFF7F2FFD1
:1030300043F2B011204633F061FC204610BD000081
:10304000034B10B50446036017F07CF9204610BD11
:103050009CCB030810B50446FFF7F2FF1821204669
:1030600033F04CFC204610BD094B10B504460360FC
:1030700000F547501C30FFF7B9FF04F12C00FFF7B3
:10308000C9FF04F11400FFF7DBFF204610BD00BFAD
:1030900038CC030808B50248FFF7E6FF08BD00BFBB
:1030A000C816002010B50446FFF7DEFF43F250318A
:1030B000204633F023FC204610BD00002DE9F341EB
:1030C00000F04CFD0024054600F04CFD234601466F
:1030D00022462846009424F04DFB274B274A2046E1
:1030E000274D1A6004F086F9264B274A27489A6034
:1030F00024F0A8FA2B68BFF35B8FDB0736D4284691
:1031000033F0FEFB90B3224C224F234B04F114000A
:1031100007F1180604F12C0823606060C4F80880E9
:10312000E760266117F010F91C4B4046636117F009
:103130000BF91B4B3846E36217F006F904F54053D0
:10314000184A03F5F870C3F8DC2104F0DBF92246D5
:1031500007F11401304604F0CBF9304600F0E2FDEF
:10316000114835F067F8284633F0D6FB0F4802B017
:10317000BDE8F041FFF70EB8A886012074080020D2
:10318000C416002094080020780800200C000020BD
:10319000C8160020A448002038CC03089CCB0308A4
:1031A000D0CB030804CC030895300008F0070020BA
:1031B00070470000014818F0FEBA00BFF007002079
:1031C00070B5264E264B274C3046274D2360FFF71F
:1031D000A9FA284629F0E0FB244821F0BDFC244B45
:1031E00000224FF4807123481A8683F858205A66CB
:1031F00083F870205A67DC60C3E912121E49C3E9E4
:103200001A121E49C3E91E011D491E48C3F8801049
:103210001D490B604FF4F071C3E90422C3E9062293
:10322000C3E90822C3E90A22C3E90E22C3E9102236
:10323000C3E91422C3E91722C3E9016501801348D9
:1032400083F8342001804FF48871114801801148BF
:10325000018011490A70114A1A6070BD20090020CE
:1032600008CA0308C016002094080020780800202F
:10327000F0070020000001010100000100044400EB
:103280001600140038860120448601203E86012065
:103290003A860120408601203C86012020CA03088E
:1032A0000148FFF7F7B800BF200900200020704751
:1032B00081807047C18070470181704741817047AC
:1032C0007047704770477047704710B4C4880368F0
:1032D000121B84885B6D091B12B25DF8044B09B2A6
:1032E00018474FF6FF7383814FF0FF330362136873
:1032F000C36110607047002070478B888380012075
:103300007047704780F82610704790F82600704785
:1033100010B50022B1F90840B1F90A1002804280CC
:103320008480C18010BD0022028042808280C280E1
:1033300070470177704780ED080A704780F82410C5
:10334000704780F82510704701207047983070470B
:103350008C3070478430704770477047704700006A
:10336000034B902283F85A2383F85823704700BFF9
:1033700000E100E0094A0A49D3680A48C3F30A0396
:10338000013B9BB20B801169C1F30A010139018035
:103390001364536B43F001035363704700680140AB
:1033A0001A4A0020184A0020014BD3F8AC0070479D
:1033B00000680140024B0122C3F8AC105A6270470A
:1033C00000680140124A5369DB0370B51ED5002323
:1033D000C2F88430BFF34F8FD2F8803043F6E074E8
:1033E000C3F3C900C3F34E335B0103EA040601468D
:1033F00046EA81750139C2F87452F9D2203B13F1C3
:10340000200FF2D1BFF34F8FBFF36F8F70BD00BF9E
:1034100000ED00E070473823002201FB0333C25463
:1034200090F838300BB9036C83647047704780F8AC
:103430004C10704710B504462C2133F05FFA20463B
:1034400010BD10B50446582133F058FA204610BD7F
:1034500010B50446BC2133F051FA204610BD0000DF
:1034600038B5044618F093F923689D6E20F0BCF837
:1034700001462046A8472368084A2046D3F88C50C6
:103480000023A2F57F31A847054B064A5A60064A39
:103490001A649A644FF4FF225A6438BD00F807C0DA
:1034A000DC4A0020344B002000F40BC018F056B961
:1034B00018F060B918F01BB918F09DBA90F82520E3
:1034C00012B103685B6918477047000008B531B155
:1034D000044B40F29711044A044834F08DFE90F8F2
:1034E000390008BDCA9D0308DE9D03086B9F0308D1
:1034F00010B531B1064B40F29111064A064834F03E
:103500007BFE406811460368BDE810401B6B1847FE
:10351000CA9D0308AD9F03086B9F030808B529B136
:10352000034B7A21034A044834F066FE006908BD63
:10353000CA9D03085EA103086B9F030808B529B163
:10354000054B8321054A064834F056FE41618160EF
:10355000C0E9063208BD00BFCA9D030816A30308D0
:103560006B9F030810B5044629B1274BA421274AB5
:10357000274834F041FE052A34D8DFE802F0032959
:103580002F34393E406803681B69984750B34FF0A9
:10359000FF31606D07F056FC0023012294F83E10C5
:1035A00084F83B3084F83920A360636101B1226262
:1035B00084F83E306362E36A2BB90123206D84F8FE
:1035C0003A3007F02FFD606DBDE8104007F06ABC8F
:1035D000002380F8393084F83E3003E00362002392
:1035E0008360436110BD0362002383604361F2E79F
:1035F000002380F839300123EDE7003B18BF012399
:1036000080F83D30EEE700BFCA9D0308D5A403084B
:103610006B9F030890F825201AB190F8242002B17E
:103620001860704770B50446164629B1314BE72142
:10363000314A324834F0E0FD90F8393033B1304B44
:103640001B6893F86B20436913444361E36A002BC2
:103650004DD0E169D4E905325343A2684A4393420D
:1036600020D2236A002B42D04FF0FF31606D07F06B
:10367000E9FB236A0BB10023E362E36AFBB901258E
:10368000606D07F00FFC94F839300BB9236A3BB139
:10369000E36A2BB90123206D84F83A3007F0C2FCAD
:1036A000284670BD94F84C000028DDD09B1AB3FB6F
:1036B000F1F2994298BF02F1FF326262D4E7002230
:1036C00094F83C50A3623046E262E2682261A2684C
:1036D0000132A260336333685B699847002DCED115
:1036E00094F83D30002BCBD184F83950C8E7012540
:1036F000C9E700BFCA9D0308ACA603086B9F030877
:1037000044860120034B4FF080629A604FF0807234
:103710009A60704700E100E0084B4FF08062C3F808
:103720008820BFF34F8FBFF36F8F4FF08072C3F8C5
:103730008820BFF34F8FBFF36F8F704700E100E029
:1037400038B5034690F8380038BB01229860D8603D
:103750009A634FF4807258619A874FF4F0729861BF
:10376000D861186258629862D8621863586383F807
:103770003E00CA864FF4887281F834000A870863D5
:103780009A6C186102F5FF24D3E9101529448C4284
:103790000AD9084B5821084A03E0084B40F2F511BA
:1037A000074A084834F028FD1A6302F57F329C640A
:1037B0005A6338BD0AAA03084AAA030850A8030896
:1037C00080A803086B9F0308002370B5124E0546BE
:1037D0008380124B0360336893F858200AB1D86C89
:1037E00000B998680368DB6A98473368B0FA80F4D8
:1037F000D86C640930B10368DB6A9847002808BFB9
:1038000044F001042CB9064B2C21064A064834F03A
:10381000F3FC284670BD00BF448601204CCC030851
:10382000F0AB03084EAC030887AC030870B5254E17
:103830003568BFF35B8F15F0010540D1304633F09A
:103840005FF800283BD0204C204B04F13400256168
:10385000E584A562A585C4E90035C4E9025521F0D7
:1038600060FC04F158001AF047FB194B2046A36591
:10387000184B40F8843BFFF7A7FF174B1748C4F8D5
:1038800084302433C4F89050C4F88C304FF4C8030B
:10389000C4F89C50C4F8A850C4E928350023C4F8E3
:1038A000AC30C4F8B030C4F8B430C4F8B8300C4B05
:1038B000C4F8983034F0BEFC304633F02DF802489E
:1038C00070BD00BF1C4A0020204A0020E8EB03081E
:1038D0006CCC0308E4CC03089CEB03085D330008C0
:1038E0007CEB030838B5184C23685BB3174B184AB8
:1038F0001B6C11888B4216D1164B0025198805F0D8
:1039000089FE236893F86A2083F87C50013283F89B
:103910006A20FEF769FD206818F0C8FC2846BDE85B
:103920003840FEF79FBB05F075FE246823682046EB
:103930001B6A98470123002084F87C30BDE838409A
:10394000FEF7ACBB38BD00BF4486012000680140D3
:103950001A4A0020184A00202DE9F74304464FF484
:10396000707894F83A304FF0FF31002B31D0606D11
:1039700007F068FA276BA36ABB4200D1676B266A1F
:10398000656856B32B68314628465B6A9847002322
:10399000236284F83B30606D07F084FA2B684FF4A3
:1039A000F0723946CDF8008028465E694FF488737E
:1039B000B0474FF0FF310646606D07F043FA94F8C8
:1039C0003B30E3B1002384F83B30606D07F06AFAC6
:1039D000C7E7206D07F0EAFAC3E7636A002BDAD085
:1039E0002B682846D3E909939847616A0144284621
:1039F000C847A368626A66621344A360CBE7E762C4
:103A00005EB12B6828469B6A984701380023E06026
:103A100084F83C6084F83A30D7E70120F6E70000EC
:103A2000014808B5FFF798FFDC4A0020036804222C
:103A300070B504465E6A00230D46B0474FF0FF3173
:103A4000606D07F0FFF9382303FB0542D16A09B125
:103A50000021D16203FB0545012385F83B3000239B
:103A600085F83930606DBDE8704007F01BBA38B595
:103A700000EB810304460D46114658680368DB6875
:103A8000984729462046FFF7D1FF38BD70B50D464F
:103A90001146044600EB85025068026896681A4693
:103AA000B04729462046FFF7C1FF70BD38B516491B
:103AB00000251648FEF76EFF154C164B01202A46CE
:103AC000294623604FF48073A564A38784F84C00D3
:103AD00084F83E50C4E91055C4E91455C4E90155B1
:103AE000C4E90355C4E90555C4E90755C4E90955B6
:103AF000C4E90B55C4E90D5507F000FA20652846C6
:103B000007F05CF9606538BD7C4B0020344B002029
:103B1000DC4A002030CD0308704710B5044604216C
:103B200032F0ECFE204610BD08B5032913D8DFE8BB
:103B300001F002060A0E03F0A9FC006808BD03F0BC
:103B4000A5FC4068FAE703F0A1FC8068F6E703F003
:103B50009DFCC068F2E70020F0E7000000487047D5
:103B60007CCD03080D20704713B5002451B10368C4
:103B700001AA01948DF803409C680DF10303A0474E
:103B800002B010BD0846FBE7C0897047008A704745
:103B9000C088704780887047807A00F07F00704747
:103BA000807AC00970470020704700009FED010A2D
:103BB000704700BF00000000704710B504460821A0
:103BC00032F09CFE204610BD7047704700F5987398
:103BD0000868496803C37047704770474160704781
:103BE00070477047064BC0F84801C0F84C310023BD
:103BF000C0F8503100F5A273C0F84031704700BFE3
:103C000021400008012303727047704710B44168D7
:103C10000346C2689B68541001EB6200D20748BF9C
:103C20000A595DF8044B48BFD3581847034640680B
:103C300030B19A681AB9D86800F0010070470120C5
:103C4000704710B504460C2132F058FE204610BDD6
:103C500010B50446102132F051FE204610BD10B5BB
:103C600004464FF4AE7132F049FE204610BD10B547
:103C70001FF0BAFC0368BDE81040DB6B184710B5B5
:103C80000446D0F8400158B10368DB68984738B162
:103C9000D4F8400103689B6898470023C4F840317A
:103CA00010BD0000044B1B6893F858200AB1D86C73
:103CB00000B99868704700BF44860120F8B51746E0
:103CC00004460E461FF0A0FD124B00251C6029463D
:103CD000114B2360114BC4E95135114B1868C4E9ED
:103CE00053550368C4E94F559B68C4E95576984716
:103CF000284603F07FFBFFF7D5FF2AF0F8FCFFF71B
:103D0000D1FF2AF06FFDFFF7CDFF2AF077FD2046A7
:103D1000F8BD00BF98860120B0CE030898CE0308F6
:103D200044860120064BC0F84801C0F84C310023FE
:103D3000C0F8503100F5A273C0F84031704700BFA1
:103D400021400008064BC0F84801C0F84C31002360
:103D5000C0F8503100F5A273C0F84031704700BF81
:103D6000D93E0008064BC0F84801C0F84C3100238A
:103D7000C0F8503100F5A273C0F84031704700BF61
:103D80008D3D000803685B6A184700002DE9F14F7C
:103D9000D0E9556A0746B06803681B6A984742F243
:103DA000F713984205D8444BA321444A444834F0C1
:103DB00023FA706803681B6A98470F2803D8414BA1
:103DC000A4213E4AF2E7F06803681B6A98470B2873
:103DD00003D83D4BA521394AE8E7DFF8F4901FF0FE
:103DE00003FC04301FF03EFCD9F8000010B103685A
:103DF000DB689847D9F8000010B103681B68984742
:103E0000DFF8D080D8F8000010B103685B699847EC
:103E1000D7F83C0110B103685B689847D8F80000F8
:103E200010B103681B689847D7F83C0110B10368CC
:103E30009B6898470021F068FFF7A4FF4FF0000B44
:103E4000224B0446C0F804B0594680F808B003601D
:103E5000B06803685B6A9847054604F0B9F9706872
:103E6000594603685B6A98470646294604F08EF96E
:103E7000331DC7F83C612846C9F80040C8F8005017
:103E8000CAF800302B68C6F808A0DB68EE639847D4
:103E9000336830461B6898472146284621F072FE59
:103EA000236820461B699847236820465B6901B058
:103EB000BDE8F04F184700BFE9AC030877AD030831
:103EC00049AE030890AE030833AF030804CF0308DC
:103ED0008C860120888601202DE9F14FD0E9556AB2
:103EE0000746B06803681B6A9847B0F5C26F05D2F1
:103EF000434BA321434A444834F07EF97068036879
:103F00001B6A98470F2803D8404BA4213D4AF2E78B
:103F1000F06803681B6A98470B2803D83C4BA5211F
:103F2000384AE8E7DFF8F0901FF05EFB04301FF03E
:103F300099FBD9F8000010B10368DB689847D9F8FD
:103F4000000010B103681B689847DFF8D080D8F8EC
:103F5000000010B103685B699847D7F83C0110B1C5
:103F600003685B689847D8F8000010B103681B68C5
:103F70009847D7F83C0110B103689B689847002127
:103F8000F068FFF7FFFE4FF0000B224B0446C0F82D
:103F900004B0594680F808B00360B06803685B6AF3
:103FA0009847054604F084F87068594603685B6AD0
:103FB00098470646294604F001F8331DC7F83C61CE
:103FC0002846C9F80040C8F80050CAF800302B68ED
:103FD000C6F808A0DB68EE639847336830461B6874
:103FE00098472146284621F0CDFD236820461B69CD
:103FF0009847236820465B6901B0BDE8F04F184739
:10400000E9AC0308D6AF030849AE030890AE030835
:1040100033AF030804CF03088C8601208886012073
:104020002DE9F14FD0E9556A0746B06803681B6A6D
:10403000984743F2A713984205D8444BA321444A1A
:10404000444834F0D9F8706803681B6A98470F2811
:1040500003D8414BA4213E4AF2E7F06803681B6A8B
:1040600098470B2803D83D4BA521394AE8E7DFF8EC
:10407000F4901FF0B9FA04301FF0F4FAD9F80000F8
:1040800010B10368DB689847D9F8000010B10368E5
:104090001B689847DFF8D080D8F8000010B103689B
:1040A0005B699847D7F83C0110B103685B68984793
:1040B000D8F8000010B103681B689847D7F83C0196
:1040C00010B103689B6898470021F068FFF75AFE1B
:1040D0004FF0000B224B0446C0F804B0594680F85C
:1040E00008B00360B06803685B6A9847054603F050
:1040F000E1FA7068594603685B6A984706462946A4
:1041000003F036FA331DC7F83C612846C9F8004071
:10411000C8F80050CAF800302B68C6F808A0DB6861
:10412000EE639847336830461B6898472146284617
:1041300021F028FD236820461B6998472368204604
:104140005B6901B0BDE8F04F184700BFE9AC030858
:10415000A8B0030849AE030890AE030833AF0308C4
:1041600004CF03088C86012088860120406A7047AE
:10417000806A704770470B888A889BB2D20A10B554
:104180004C88C16943EA044351F82200184410BD29
:1041900010B50446BAB1107B68B1537BD27A1B02CA
:1041A00003F4E0631A43236A03EB82031A888A420A
:1041B00002D193F9020010BD05D80138043380B252
:1041C0000028F3D1F7E70020F5E710B504462C21CD
:1041D00032F094FB204610BD30B58BB00446BDF8DC
:1041E00060500895BDF85C5007959DF850500695B5
:1041F0009DF84C5005959DF8485004959DF8445005
:1042000003959DF8405002959DF83C500195BDF8EE
:104210003850009521F042F8064B20462360159B4C
:10422000E361169B2362199B63621A9BA3620BB026
:1042300030BD00BF28CF0308806A704770477047C1
:1042400070477047704780F82C10704710B40368AF
:10425000046BD3F8A430624361435DF8044B184704
:10426000D0ED0C7A0368F8EEE77A10B420EE270A56
:10427000D3F8A440B5EEC00AF1EE10FA1ADBB6EEA0
:10428000007A30EE070ABDEEC07A17EE101A60EE23
:10429000A70AF5EEC00AF1EE10FA1EDBF6EE007A80
:1042A00070EEA70AFDEEE07A17EE902A23465DF83D
:1042B000044B1847BDEEC07AF8EEC76A17EE103A05
:1042C000013B30EE660AF7EE086A30EE260ABDEED4
:1042D000C00A10EE101A1944D9E7FDEEE07AB8EEE4
:1042E000E77A17EE903A013B70EEC70AB7EE087A0C
:1042F00070EE870AFDEEE00A10EE902A1A44D5E728
:1043000010B40368046BD3F8B03062435DF8044B1B
:104310001847D0ED0C7A0368F8EEE77A10B427EE70
:10432000800AD3F8B040B5EEC00AF1EE10FA0BDB0C
:10433000F6EE007A30EE270AFDEEC07A17EE902AEC
:1043400023465DF8044B1847FDEEC07AB8EEE77AD5
:1043500017EE903A013B30EE470AB7EE087A30EE9E
:10436000070ABDEEC00A10EE102A1A44E8E710B49E
:104370000368446BD3F8BC30624361435DF8044B7F
:104380001847D0ED0D7A0368F8EEE77A10B420EE06
:10439000270AD3F8BC40B5EEC00AF1EE10FA1ADBDA
:1043A000B6EE007A30EE070ABDEEC07A17EE101AAC
:1043B00060EEA70AF5EEC00AF1EE10FA1EDBF6EE8B
:1043C000007A70EEA70AFDEEE07A17EE902A2346F7
:1043D0005DF8044B1847BDEEC07AF8EEC76A17EED9
:1043E000103A013B30EE660AF7EE086A30EE260A14
:1043F000BDEEC00A10EE101A1944D9E7FDEEE07ABE
:10440000B8EEE77A17EE903A013B70EEC70AB7EEC6
:10441000087A70EE870AFDEEE00A10EE902A1A4440
:10442000D5E710B40368446BD3F8C03062435DF83D
:10443000044B1847D0ED0D7A0368F8EEE77A10B414
:1044400027EE800AD3F8C040B5EEC00AF1EE10FAAC
:104450000BDBF6EE007A30EE270AFDEEC07A17EE9F
:10446000902A23465DF8044B1847FDEEC07AB8EE5B
:10447000E77A17EE903A013B30EE470AB7EE087A3A
:1044800030EE070ABDEEC00A10EE102A1A44E8E723
:10449000D0F82C31026B002B07DB02EB430090FBC2
:1044A000F2F000EBD070401070476FF0010101FB9B
:1044B0000320013890FBF2F000EBD0704010404236
:1044C0007047D0ED4B7A90ED0C0AF8EEE77AB8EE33
:1044D000C00A87EE800A7047D0F82C017047D0F8E8
:1044E0003031026B002B07DB02EB430090FBF2F054
:1044F00000EBD070401070476FF0010101FB03200A
:10450000013890FBF2F000EBD07040104042704751
:10451000D0ED4C7A90ED0C0AF8EEE77AB8EEC00ACE
:1045200087EE800A7047D0F830017047D0F83431F8
:10453000426B002B07DB02EB430090FBF2F000EB39
:10454000D070401070476FF0010101FB032001386B
:1045500090FBF2F000EBD070401040427047D0ED7D
:104560004D7A90ED0D0AF8EEE77AB8EEC00A87EEC4
:10457000800A7047D0F834017047D0F83831426B68
:10458000002B07DB02EB430090FBF2F000EBD07056
:10459000401070476FF0010101FB0320013890FBD0
:1045A000F2F000EBD070401040427047D0ED4E7AF0
:1045B00090ED0D0AF8EEE77AB8EEC00A87EE800AB1
:1045C0007047D0F838017047036870B50446D3F8D7
:1045D00088300D46164698472368324629462046BD
:1045E000D3F89030BDE8704018470368D3F8943092
:1045F00018470368D3F8D43018470368D3F8E0307D
:1046000018470368002A10B4D3F8A430046B0EDBFB
:1046100004EB420292FBF4F101EBD1714910B0F9C5
:104620001E215DF8044B013A0A44494218476FF0D5
:10463000010101FB0241013991FBF4F101EBD17160
:1046400049104942EBE70368D3F83C311847026B45
:1046500003685143D3F8483118470368D3F844310D
:104660001847D0ED0C7A0368F8EEE77AD3F84821C2
:1046700027EE800AB5EEC00AF1EE10FA08DBF6EE7E
:10468000007A30EE270AFDEEC07A17EE901A104736
:10469000FDEEC07AB8EEE77A17EE903A013B30EEC5
:1046A000470AB7EE087A30EE070ABDEEC00A10EEF0
:1046B000101A1944EBE7C0F83C1170470368D3F8AF
:1046C00050311847036810B5D3F85C310446984759
:1046D0000028236B07DB03EB400090FBF3F000EBBB
:1046E000D070401010BD6FF0010202FB00300138A5
:1046F00090FBF3F000EBD07040104042F2E703680B
:10470000D3F858311847036810B50446D3F85C3124
:10471000984707EE900A94ED0C0AF8EEE77AB8EEA7
:10472000C00A87EE800A10BDD0F83C017047026BCA
:1047300003685143D3F868311847D0ED0C7A036809
:10474000F8EEE77AD3F8682127EE800AB5EEC00AC2
:10475000F1EE10FA08DBF6EE007A30EE270AFDEEF5
:10476000C07A17EE901A1047FDEEC07AB8EEE77ADD
:1047700017EE903A013B30EE470AB7EE087A30EE7A
:10478000070ABDEEC00A10EE101A1944EBE7C0F894
:1047900040117047036810B5D3F874310446984748
:1047A0000028236B07DB03EB400090FBF3F000EBEA
:1047B000D070401010BD6FF0010202FB00300138D4
:1047C00090FBF3F000EBD07040104042F2E703683A
:1047D00010B50446D3F87431984707EE900A94ED6B
:1047E0000C0AF8EEE77AB8EEC00A87EE800A10BD30
:1047F000D0F8400170470846704703680029026BF3
:10480000D3F8843110B504460EDB02EB410191FB75
:10481000F2F101EBD171491009B220469847D4E971
:104820004F2302FB003010BD6FF0010000FB01219F
:10483000013991FBF2F101EBD17149104942EBE7EB
:10484000006B7047406B70470368D3F848311847D6
:104850000368D3F85C311847026B03685143D3F8FF
:1048600014311847036870B5D3F818510446D0F8CE
:104870004461D3F8803198472B4656F820102046E3
:10488000BDE870401847D0F84831B0F91E0119440E
:10489000081A7047C1627047C06A704701207047AC
:1048A00070477047C06B18B10368D3F88030184761
:1048B000704730B5B2F81A11B2F91441B2F940504C
:1048C0002144B2F842204480521A002185800180A0
:1048D000C28030BD10B54280BDF90840BDF90C2042
:1048E00004808280C38010BD0B680846D3F8D430A2
:1048F00018470B680846D3F8E0301847B1F914019F
:104900007047B1F81431B1F81A21B1F842001344DC
:10491000C01A00B27047B1F916017047B1F81631EC
:10492000B1F81821B1F840001344C01A00B2704722
:104930000B6808461146D3F81431184730B5B2F960
:104940001651B2F81841B2F840102C44B2F9422086
:104950000580091B0024C2804480818030BD028014
:104960008380BDF90020BDF904304280C3807047C8
:104970000B680846D3F8EC3018470B680846D3F8A4
:10498000F8301847B1F916017047B1F81631B1F88F
:104990001821B1F840001344C01A00B27047B1F9B1
:1049A00014017047B1F81431B1F81A21B1F842007E
:1049B0001344C01A00B270470B6808461146D3F87A
:1049C0001831184730B585B00368044601816D463B
:1049D0000146D3F884303C342846984795E80700D0
:1049E00084E8070005B030BD30B585B003680446E3
:1049F00041816D460146D3F884303C3428469847BF
:104A000095E8070084E8070005B030BD0022028069
:104A100042808280C280704780F8361070470368F9
:104A200070B504461B6B15469847236820462946F7
:104A30005B6EBDE8704018470020704700224FF0C1
:104A4000FF318260C0E900217047806C7047806C44
:104A50007047C06C70477047704770477047704729
:104A6000704770477047704770477047704770478E
:104A7000704770477047704770477047704770477E
:104A800070477047704730B444680346C2689B68FB
:104A9000551004EB6200D20748BF625930BC48BFD2
:104AA000D35818470346406830B19A681AB9D86895
:104AB00000F0010070470120704730B4446803469D
:104AC000C2689B68551004EB6200D20748BF625968
:104AD00030BC48BFD35818470346406830B19A6885
:104AE0001AB9D86800F0010070470120704710B56E
:104AF00004464C2131F002FF204610BD10B504469B
:104B0000502131F0FBFE204610BD10B5044640F2A6
:104B10006C4131F0F3FE204610BD10B50446402133
:104B200031F0ECFE204610BD10B50446402131F0B6
:104B3000E5FE204610BD10B50446102131F0DEFE22
:104B4000204610BD10B50446102131F0D7FE204696
:104B500010BD38B503460846D3E90C540B68D3F8AA
:104B60008C309847294602462046BDE838401AF066
:104B700073B938B503460846D3E90C540B68D3F82B
:104B800094309847294602462046BDE838401AF03E
:104B900063B900F68833994270B504460D4603D1D7
:104BA0001EF022FDFFF7CEF804F562639D4203D1AB
:104BB00023682046DB6A984704F56A639D4203D167
:104BC000236820461B6B984704F572639D4203D10E
:104BD000236820465B6B984704F59D5304339D4240
:104BE00003D1236820469B6B984704F604439D42FB
:104BF00003D123682046DB6B984704F6FC439D42B3
:104C000003D1236820461B6C984704F6CC739D4261
:104C100003D1236820469B6C984704F582530C33DC
:104C20009D4203D123682046DB6C984704F58653E8
:104C30000C339D4203D1236820461B6D984704F630
:104C400078539D4203D1236820465B6D984704F555
:104C50008B5318339D4203D1236820469B6D9847A0
:104C600004F58F5318339D4203D123682046DB6D32
:104C7000984704F638439D4203D1236820461B6EB3
:104C8000984704F596531C339D4203D12368204670
:104C90005B6E984704F5955304339D4205D1236814
:104CA00020469B6EBDE87040184770BD08B590F86F
:104CB0002C300BB1FEF702FC08BD08B5FEF7FEFB79
:104CC00008BD00F64C228A4202D103685B6C18478B
:104CD000704700000A1E10B503DBB0F91E41944274
:104CE00006DC084B40F23961074A084833F084FA81
:104CF0000368D0F84441D3F88031984754F8200035
:104D000010BD00BF7AB103089DB10308ECB10308E0
:104D10000B1E10B5044603DBB0F91E219A4206DCD7
:104D2000074B40F23361074A074833F065FA0368DE
:104D3000D3F884319847D4E94F2302FB003010BDEB
:104D40007AB1030849B20308ECB10308036870B5EF
:104D50005E6B0446114B8DB21B682BB9104B6C2156
:104D6000104A114833F048FA1049828D098891425F
:104D700003D80F4B6D210B4AF3E713F812200D4BAC
:104D80001B6853F8220003681B6B9847291A3346A7
:104D9000204609B2BDE87040184700BF9C8601203C
:104DA00098B20308DAB2030815B30308A0860120FD
:104DB0005CB30308A4860120036870B504461B6B2E
:104DC000154698472368204629465B6BBDE870402E
:104DD000184770B504461D46BDF91060FFF7ECFF9B
:104DE0002368294620469B6B984723683146204616
:104DF000DB6BBDE8704018474FF48071002281845E
:104E0000054982620160C0E90122C0E90322C0E9CC
:104E10000522C0E907227047F0E903080022C0E933
:104E20000122C0E90322C0E90522C0E907224FF4AC
:104E300080728284014A0260704700BF90CF0308ED
:104E400010B504462622002133F094FC2046FFF7DB
:104E5000E5FF044B20462360FF2384F8263000231F
:104E6000A36210BDE8F4030837B501AB154620F086
:104E700013FB00282A4601994FEA40144FF0200006
:104E800004DB20F028FB204403B030BD20F023FBDE
:104E9000201AF9E770B5B0F81A310E46B0F914418E
:104EA000B0F842502344ED1A2DB22C44691ED0E9CB
:104EB0004D32013CD21AF01AFFF7D6FFC0EB441076
:104EC00070BD38B504460D46B4F81631B4F8181163
:104ED0000B44B4F84010C91AD0E94B0209B2121AB7
:104EE000281A0139FFF7C0FFB4F9163100EB43105F
:104EF00038BD000010B504462622002133F03AFCEC
:104F00002046FFF78BFF0A4B4FF47F0220462360B9
:104F1000084BA3624FF6FF73A3850023C4E90C324C
:104F20004FF0FF322387E363C4E9102310BD00BFB5
:104F300058F4030888CE030810B50446FFF7DAFFDB
:104F4000024B204623600023A36410BD68D10308F0
:104F500010B504462622002133F00CFC2046FFF752
:104F60005DFF00232046A36284F82C30012384F8DF
:104F70002430044B23604FF6FF73E385238684F8C7
:104F8000323010BD50F50308138883861BF093BDA3
:104F900010B50446FFF7DCFF034B204623604FF6B5
:104FA000FF73A38610BD00BFE4F30308520149015B
:104FB00019F08CBA5201490119F093BA10B4C46BBC
:104FC0004A01B4EB411F04D05DF8044BC26319F0F1
:104FD00087B95DF8044B70472DE9F04F0446CDB01A
:104FE000002520F023FCA046E04B04F16C0904F1FD
:104FF0009807E563012648F8403B4046FFF720FF4D
:105000004846FFF71DFFC8213846DFF878A319F09E
:10501000BFFED74B2946C722C4F8983004F5F27377
:1050200038460AF1240BC4E97565C4E97735FFF702
:105030000DF9D04BC4F8983004F2045318463E934F
:1050400018F05AFF0A23C4F83465C4F83835CA4B3F
:1050500084F83C65C4F8043504F24453C4F8305570
:105060001846C4F840553F9318F046FF0A23C4F889
:10507000746584F87C65C4F87835C04BC4F8705505
:10508000C4F8443504F28453C4F88055184640935C
:1050900018F032FFBA4B04F5B762C4F8B055C4F843
:1050A00084354FF0020310462992A4F8B435FFF777
:1050B00043FF04F2046210462A92FFF73DFF04F515
:1050C000CA6210462B92FFF737FF04F29C6210462B
:1050D0002C92FFF731FF04F5DD6210462D92FFF7A9
:1050E0002BFF04F234721046139219F0D9F804F22F
:1050F000A47210463D92FEF767FB04F5F762C4F810
:10510000A4A71046C4F8ACB7C4F8B057149219F06D
:10511000C7F804F6280210463C92FEF755FB04F649
:105120003C02C4F828A81046C4F830B8C4F8345873
:10513000159219F0B5F804F6AC0210463B92FEF752
:1051400043FB04F50C62C4F8ACA81046C4F8B4B82C
:10515000C4F8B858169219F0A3F804F51362104673
:105160003A92FEF731FB04F64412C4F830A9104617
:10517000C4F838B9C4F83C59179219F091F804F6FC
:10518000B41210463992FEF71FFB04F6C812C4F899
:10519000B4A91046C4F8BCB9C4F8C059189219F0A3
:1051A0007FF804F6382210463892FEF70DFB04F61D
:1051B0004C22C4F838AA4FF07F4A1046C4F840BACF
:1051C000C4F8445A4FF4887B079215F0C9FB04F6E3
:1051D0005C3210460892FFF70FFE04F68832104644
:1051E0002F92FFF7B5FE04F6BC3210461A92FFF775
:1051F00081FE04F6044210463092FFF7A9FE04F641
:10520000384210463192FFF7A3FE04F66C42104676
:105210001B92FFF76FFE04F6B44210461C92FFF794
:1052200069FE04F6FC4210463292FFF791FE04F547
:10523000536210461D92FFF75DFE04F67852104649
:105240003392FFF785FE04F6AC5210461E92FFF72C
:1052500051FE04F6F45210460992FFF7CDFD04F515
:10526000626210463492FFF793FE04F658621046CD
:105270001F92FFF73FFE04F56A6210463592FFF772
:1052800087FE04F6D86210462092FFF733FE04F53D
:10529000726210463692FFF77BFE04F65872104693
:1052A0002192FFF727FE04F57A6210460A92FFF773
:1052B000A3FD04F6CC7210463792FFF769FE04F5A1
:1052C00080521346043318460D93FFF713FE04F57E
:1052D00082520C3210462292FFF75AFE04F5845295
:1052E0001346043318460E93FFF704FE04F5865266
:1052F0000C3210462392FFF74BFE04F588521346FA
:10530000043318460F93FFF7F5FD04F58A520C326B
:1053100010460B92FFF770FD04F58B5218321046C1
:105320002492FFF735FE04F58D521032104610928C
:10533000FFF7E0FD04F58F52183210462592FFF773
:1053400007FE04F591520C3210461992FFF7F4FD56
:1053500004F59352183210460C92FFF74DFD04F5F8
:1053600095521346043318460EE000BF50D403088C
:1053700038EE030888D20308F8CF0308B0D003083A
:105380007CF103089CEB03082693FFF701FE04F56C
:1053900096521C3210462792FFF7FAFD04F59852F8
:1053A000143210461192FFF7A5FD04F59A521C32F3
:1053B00010461292FFF79EFD04F59D5213460433EA
:1053C000184628931BF032FD04F59F5210462E928A
:1053D000FFF790FD04F580536A4A04F5A650C3F820
:1053E00028544FF4E151C3F8E0231030664AC3F863
:1053F0002C5404F54053C3E93C24644AC3E93E25D8
:10540000634AC3E94024634AC3E942251CF030FCE7
:105410002A4640464FF4F0732946CDF800B0FFF716
:10542000D8FC231D4146C4F868A01846419315F0E6
:1054300010FC4FF4F0732A4648462946CDF800B0D8
:10544000FFF7C7FC4946201DC4F894A015F001FCE5
:10545000E623384614220F21009340F2B3134FF095
:10546000FF3BFFF7B6FC314638462A46FFF7ACF85B
:1054700038462B462A462946009519F03BFC2B4618
:1054800038462A462946009519F037FB38464FF42E
:1054900082722946FEF76BFFD4F8341528204FF0AE
:1054A0004608324684F83C65484304F5A15984F81F
:1054B0002A850028C4F830B509F11009B8BF404268
:1054C000C4F8380519F0C8FC3E99C4F838053846C8
:1054D000C4F8346519F01CFBD4F87415324684F80E
:1054E0007C65480184F86A85C4F870B50028DFF847
:1054F000C080B8BF4042C4F8780519F0ADFC3F99B0
:10550000C4F878053846C4F8746542AE19F000FB5B
:10551000214B38464099C4F8B0354FF00203A4F847
:10552000B43519F0F5FA39460F27201D15F091FB17
:10553000FA223C23394629980097FFF74AFCD4F811
:10554000B83529993046D3F88430C4F8E8B5A4F8C2
:10555000EC55984704F2F45396E8070083E80700F7
:10556000D8F800302BB90D4B60210D4A0D4832F0B0
:1055700043FE0D4B1B88172B1CD80C4B6121084A8E
:10558000F4E700BFF8D1030820D40308934B0008C8
:1055900038D40308C34C000816BCC4FF98B20308F3
:1055A0009AB3030815B30308A08601205CB303086F
:1055B0009C860120D14B172104F5A25A186801F0EE
:1055C00055FFCF4A03460A2148460AF1040A21F052
:1055D00031FE1823C4F800964AA9DFF834932998BD
:1055E000ADF82C31CDF828911BF00AFA2999201D2D
:1055F00015F02FFB3C23FA222A9819460097FFF753
:10560000E8FBD4F804362A993046D3F88430C4F83D
:1056100034B6A4F83856984704F5C86396E80700EE
:1056200083E80700D8F80030002B9CD0B54A1388D7
:10563000152BA2D9B14B1521186801F017FFB04AFC
:1056400003460A21504621F0F5FD16234AA92A985F
:10565000C4F84CA604F5A25AADF82C31CDF8289127
:105660001BF0CEF92A99201D15F0F3FAFA225023E7
:1056700078212B980AF1180A0097FFF7AAFBD4F8B3
:1056800050362B993046D3F88430C4F880B6A4F84D
:105690008456984704F28C6396E8070083E8070075
:1056A000D8F80030002B3FF45EAF964A1388132BD6
:1056B0007FF663AF914B1321186801F0D7FE904A33
:1056C00003460A21504621F0B5FD14234AA92B9820
:1056D000C4F898A604F5A35AADF82C31CDF828915A
:1056E0001BF08EF92B99201D15F0B3FAFA225023E6
:1056F000C8212C980AF10C0A0097FFF76AFBD4F82E
:105700009C362C993046D3F88430C4F8CCB6A4F833
:10571000D056984704F5DB6396E8070083E8070056
:10572000D8F80030002B3FF41EAF764A1388112BB7
:105730007FF623AF714B1121186801F097FE704A74
:1057400003460C21504621F075FD12234AA92C98DE
:10575000C4F8E4A6ADF82C31CDF828911BF050F92F
:105760002C99201D15F075FAFA2250234FF48C71F4
:105770002D980097FFF72DFBD4F8E8362D99304689
:10578000D3F88430A4F81C5704F5A455C4F818B70E
:10579000984704F22473043596E8070083E807006D
:1057A000D8F80030002B3FF4DEAE564A13880F2B9A
:1057B0007FF6E3AE514B0F21534F40F2D756186896
:1057C0004FF0E60801F052FE4D4A03460A212846F2
:1057D0004FF0020A21F02EFD10234AA92D98C4F89B
:1057E00030570025ADF82C314FF0FF3BCDF8289114
:1057F0001BF006F92D99201D15F02BFA0F2040F211
:10580000B313A1220146009013984BF6C059FFF73D
:10581000E0FA3D9803220021C4F8B077A4F8B467F9
:10582000C4F85C071398FFF7C1FB032240F2B311E1
:105830001398FFF7BFFB02211398FFF7BFFB00216E
:10584000139818F059FE1399201D84F8595715F034
:1058500000FA0F2040F2B3136F2201460090149813
:10586000FFF7B7FA3C9929480322A4F83898C4F8FE
:105870003408C4F8E01729461498FFF797FB032271
:1058800040F2B3111498FFF795FB02211498FFF72B
:1058900095FB2946149818F02FFE1499201D84F8C2
:1058A000DD5715F0D6F90F2140F2B3136F2215988A
:1058B0000091FFF78EFA3B9903221598C4F8B87847
:1058C000A4F8BC68C4F864182946FFF76FFB0322EC
:1058D00040F2B3111598FFF76DFB02211598FFF701
:1058E0006DFB2946159818F007FE1599201D84F8C0
:1058F000615815F0AEF90F230CE000BFA886012017
:10590000F0C50308A0860120BBBB00FF00BBBBFFA6
:1059100088CE030814225A211698CDF80080FFF78C
:1059200058FA3A992A461698C4F83C79A4F840697E
:10593000C4F8E8180321FFF739FBFA22032116986F
:10594000FFF738FB02211698FFF738FB2946169817
:1059500018F0D2FD1699201D84F8E55815F079F954
:105960000F23142278211798CDF80080FFF731FA21
:105970003999CF482A46A4F8C4994FF00C09C4F8C5
:10598000C009C4F86C1903211798FFF70FFBFA221E
:1059900003211798FFF70EFB02211798FFF70EFB64
:1059A0002946179818F0A8FD1799201D84F8695901
:1059B00015F04FF90F23142278211898CDF80080A4
:1059C0000DF59478FFF705FAA4F8486A389E2A4640
:1059D00003211898C4F8447AC4F8F0694FF00B0614
:1059E000FFF7E4FAFA2203211898FFF7E3FA0221FD
:1059F0001898FFF7E3FA2946189818F07DFD1899D2
:105A0000201D84F8ED5915F024F92A464FF49C71B5
:105A10000798FFF7D1F973230DF5927CADF820615B
:105A20004AAE032107980096FA260295ADF8249114
:105A3000ADF828919F4FCDE903531423019363469A
:105A40000DF5907C624614F0FBFE2946079814F091
:105A5000B6FC2D21079814F08AFC0F21079814F04A
:105A600091FC9549079814F0A4FC1221079814F0B2
:105A70009AFC2946079814F090FC04F544510798C5
:105A800014F0D3FC33460A222721089800964FF0E1
:105A90000606FFF79EF92A4629462F98FFF78CF94C
:105AA000424604F5435849A92F9808F13008ADF84B
:105AB0002861ADF824A142AE1AF0FDFF2F99089895
:105AC000C4F8B08B15F0C5F804221C211A98FFF712
:105AD00073F91A993046C4F8ECBBA4F8F05B4FF0A8
