:020000040800F2
:1000000000000520CD1B0008E91A0008EB1A0008C3
:10001000ED1A0008EF1A0008F11A000800000000AD
:10002000000000000000000000000000018F000838
:10003000F31A000800000000A18F000805900008D6
:100040001D1C00081D1C00081D1C00081D1C0008AC
:100050001D1C00081D1C00081D1C00081D1C00089C
:100060001D1C00081D1C00081D1C00081D1C00088C
:100070001D1C00081D1C00081D1C00081D1C00087C
:100080001D1C00081D1C00081D1C00081D1C00086C
:100090001D1C00081D1C00081D1C00081D1C00085C
:1000A0001D1C00081D1C00081D1C00081D1C00084C
:1000B0001D1C00081D1C00081D1C00081D1C00083C
:1000C0001D1C00081D1C00081D1C00081D1C00082C
:1000D0001D1C00081D1C00081D1C00081D1C00081C
:1000E0001D1C00081D1C00081D1C00081D1C00080C
:1000F0001D1C00081D1C00081D1C00081D1C0008FC
:100100001D1C00081D1C00081D1C00081D1C0008EB
:100110001D1C00081D1C0008F51A00081D1C000805
:100120001D1C00081D1C00081D1C00081D1C0008CB
:100130001D1C00081D1C00081D1C00081D1C0008BB
:100140001D1C00081D1C00081D1C00081D1C0008AB
:100150001D1C00081D1C00081D1C00081D1C00089B
:100160001D1C00081D1C00081D1C00081D1C00088B
:100170001D1C00081D1C00081D1C000800000000BC
:100180001D1C00081D1C00081D1C00081D1C00086B
:100190001D1C00081D1C00081D1C00081D1C00085B
:1001A000011B00081D1C00080D1B00081D1C000879
:1001B0001D1C00081D1C00081D1C00081D1C00083B
:0801C0001D1C00081D1C0008B5
:1001D00010B5054C237833B9044B13B10448AFF381
:1001E00000800123237010BD4003002000000000A8
:1001F0008447030808B5034B1BB103490348AFF319
:10020000008008BD0000000044030020844703086C
:1002100001F0FF01102A2BDB10F0070F08D010F8B7
:10022000013B013A8B422DD010F0070F42B3F6D1BB
:10023000F0B441EA012141EA014122F007047FF0D4
:1002400000070023F0E80256083C85EA010586EA2B
:10025000010685FA47F5A3FA87F586FA47F6A5FA67
:1002600087F68EB9EED1F0BC01F0FF0102F0070273
:1002700032B110F8013B013A83EA010313B1F8D11E
:100280000020704701387047002D06BF35460338FF
:10029000073815F0010F07D1013015F4807F02BF38
:1002A000013015F4C03F0130F0BC0138704700BF89
:1002B00081F0004102E000BF83F0004330B54FEA17
:1002C00041044FEA430594EA050F08BF90EA020F84
:1002D0001FBF54EA000C55EA020C7FEA645C7FEA17
:1002E000655C00F0E2804FEA5454D4EB5555B8BF3A
:1002F0006D420CDD2C4480EA020281EA030382EAAB
:10030000000083EA010180EA020281EA0303362D3C
:1003100088BF30BD11F0004F4FEA01314FF4801C0F
:100320004CEA113102D0404261EB410113F0004F21
:100330004FEA03334CEA133302D0524263EB4303D8
:1003400094EA050F00F0A780A4F10104D5F1200E76
:100350000DDB02FA0EFC22FA05F2801841F10001D1
:1003600003FA0EF2801843FA05F359410EE0A5F1A5
:1003700020050EF1200E012A03FA0EFC28BF4CF0D6
:10038000020C43FA05F3C01851EBE37101F000458C
:1003900007D54FF0000EDCF1000C7EEB00006EEB99
:1003A0000101B1F5801F1BD3B1F5001F0CD3490823
:1003B0005FEA30004FEA3C0C04F101044FEA44527A
:1003C00012F5800F80F09A80BCF1004F08BF5FEA01
:1003D000500C50F1000041EB045141EA050130BDE1
:1003E0005FEA4C0C404141EB0101013C28BFB1F5F3
:1003F000801FE9D291F0000F04BF01460020B1FA3E
:1004000081F308BF2033A3F10B03B3F120020CDA10
:100410000C3208DD02F1140CC2F10C0201FA0CF0EE
:1004200021FA02F10CE002F11402D8BFC2F1200C53
:1004300001FA02F120FA0CFCDCBF41EA0C01904009
:10044000E41AA2BF01EB0451294330BD6FEA040452
:100450001F3C1CDA0C340EDC04F11404C4F120023D
:1004600020FA04F001FA02F340EA030021FA04F34F
:1004700045EA030130BDC4F10C04C4F1200220FAA6
:1004800002F001FA04F340EA0300294630BD21FAE4
:1004900004F0294630BD94F0000F83F4801306BFAA
:1004A00081F480110134013D4EE77FEA645C18BF9E
:1004B0007FEA655C29D094EA050F08BF90EA020F35
:1004C00005D054EA000C04BF1946104630BD91EA2D
:1004D000030F1EBF0021002030BD5FEA545C05D130
:1004E0004000494128BF41F0004130BD14F580046F
:1004F0003CBF01F5801130BD01F0004545F0FE41E3
:1005000041F470014FF0000030BD7FEA645C1ABF17
:10051000194610467FEA655C1CBF0B46024650EA4E
:10052000013406BF52EA033591EA030F41F400217A
:1005300030BD00BF90F0000F04BF0021704730B500
:100540004FF4806404F132044FF000054FF00001D5
:1005500050E700BF90F0000F04BF0021704730B596
:100560004FF4806404F1320410F0004548BF40426B
:100570004FF000013EE700BF42004FEAE2014FEAC0
:1005800031014FEA02701FBF12F07F4393F07F4F9B
:1005900081F06051704732F07F4208BF704793F09E
:1005A0007F4F04BF41F40021704730B54FF46074B1
:1005B00001F0004521F000411CE700BF50EA0102B4
:1005C00008BF704730B54FF000050AE050EA01025D
:1005D00008BF704730B511F0004502D5404261EBCD
:1005E00041014FF4806404F132045FEA915C3FF40E
:1005F000D8AE4FF003025FEADC0C18BF03325FEAAB
:10060000DC0C18BF033202EBDC02C2F1200300FA5B
:1006100003FC20FA02F001FA03FE40EA0E0021FA80
:1006200002F11444BDE600BF70B54FF0FF0C4CF46E
:10063000E06C1CEA11541DBF1CEA135594EA0C0F20
:1006400095EA0C0F00F0DEF82C4481EA030621EA5B
:100650004C5123EA4C5350EA013518BF52EA033596
:1006600041F4801143F4801338D0A0FB02CE4FF048
:100670000005E1FB02E506F00042E0FB03E54FF078
:100680000006E1FB03569CF0000F18BF4EF0010E70
:10069000A4F1FF04B6F5007F64F5407404D25FEA6C
:1006A0004E0E6D4146EB060642EAC62141EA55511F
:1006B0004FEAC52040EA5E504FEACE2EB4F1FD0C61
:1006C00088BFBCF5E06F1ED8BEF1004F08BF5FEADF
:1006D000500E50F1000041EB045170BD06F0004691
:1006E00046EA010140EA020081EA0301B4EB5C043E
:1006F000C2BFD4EB0C0541EA045170BD41F4801136
:100700004FF0000E013C00F3AB8014F1360FDEBF5A
:10071000002001F0004170BDC4F10004203C35DA36
:100720000C341BDC04F11404C4F1200500FA05F3B9
:1007300020FA04F001FA05F240EA020001F000425A
:1007400021F0004110EBD37021FA04F642EB0601D0
:100750005EEA430E08BF20EAD37070BDC4F10C04FA
:10076000C4F1200500FA04F320FA05F001FA04F2BE
:1007700040EA020001F0004110EBD37041F10001AA
:100780005EEA430E08BF20EAD37070BDC4F12005B5
:1007900000FA05F24EEA020E20FA04F301FA05F21D
:1007A00043EA020321FA04F001F0004121FA04F2C5
:1007B00020EA020000EBD3705EEA430E08BF20EA95
:1007C000D37070BD94F0000F0FD101F000464000CF
:1007D00041EB010111F4801F08BF013CF7D041EA51
:1007E000060195F0000F18BF704703F00046520055
:1007F00043EB030313F4801F08BF013DF7D043EA26
:100800000603704794EA0C0F0CEA135518BF95EADB
:100810000C0F0CD050EA410618BF52EA4306D1D162
:1008200081EA030101F000414FF0000070BD50EA81
:10083000410606BF1046194652EA430619D094EA0B
:100840000C0F02D150EA013613D195EA0C0F05D1F5
:1008500052EA03361CBF104619460AD181EA030149
:1008600001F0004141F0FE4141F470014FF0000001
:1008700070BD41F0FE4141F4780170BD70B54FF09C
:10088000FF0C4CF4E06C1CEA11541DBF1CEA13551C
:1008900094EA0C0F95EA0C0F00F0A7F8A4EB0504FE
:1008A00081EA030E52EA03354FEA013100F08880F5
:1008B0004FEA03334FF0805545EA131343EA1263BE
:1008C0004FEA022245EA111545EA10654FEA002673
:1008D0000EF000419D4208BF964244F1FD0404F52C
:1008E000407402D25B084FEA3202B61A65EB030588
:1008F0005B084FEA32024FF480104FF4002CB6EB45
:10090000020E75EB030E22BFB61A754640EA0C00C4
:100910005B084FEA3202B6EB020E75EB030E22BF04
:10092000B61A754640EA5C005B084FEA3202B6EB45
:10093000020E75EB030E22BFB61A754640EA9C0004
:100940005B084FEA3202B6EB020E75EB030E22BFD4
:10095000B61A754640EADC0055EA060E18D04FEA92
:10096000051545EA16754FEA06164FEAC30343EA32
:1009700052734FEAC2025FEA1C1CC0D111F4801FFF
:100980000BD141EA00014FF000004FF0004CB6E7F8
:1009900011F4801F04BF01430020B4F1FD0C88BF97
:1009A000BCF5E06F3FF6AFAEB5EB030C04BFB6EBA2
:1009B000020C5FEA500C50F1000041EB045170BD95
:1009C0000EF0004E4EEA113114EB5C04C2BFD4EBC2
:1009D0000C0541EA045170BD41F480114FF0000E46
:1009E000013C90E645EA060E8DE60CEA135594EAC2
:1009F0000C0F08BF95EA0C0F3FF43BAF94EA0C0FC5
:100A00000AD150EA01347FF434AF95EA0C0F7FF439
:100A100025AF104619462CE795EA0C0F06D152EA8D
:100A200003353FF4FDAE1046194622E750EA410671
:100A300018BF52EA43067FF4C5AE50EA41047FF482
:100A40000DAF52EA43057FF4EBAE12E74A0011D234
:100A500012F5001211D20DD56FF47873B3EB625218
:100A60000ED44FEAC12343F0004343EA505323FA24
:100A700002F070474FF00000704750EA013002D199
:100A80004FF0FF3070474FF0000070474FEA4102CF
:100A9000B2F1E04324BFB3F5001CDCF1FE5C0DD9DC
:100AA00001F0004C4FEAC0024CEA5070B2F1004F26
:100AB00040EB830008BF20F00100704711F0804F29
:100AC00021D113F13872BCBF01F00040704741F4EE
:100AD00080114FEA5252C2F11802C2F1200C10FAF2
:100AE0000CF320FA02F018BF40F001004FEAC123D6
:100AF0004FEAD32303FA0CFC40EA0C0023FA02F37A
:100B00004FEA4303CCE77FEA625307D150EA01334F
:100B10001EBF4FF0FE4040F44000704701F000401F
:100B200040F0FE4040F40000704700BF7BB972B94E
:100B30000029BEBF00204FF0004106E008BF00289A
:100B40001CBF6FF000414FF0FF3000F0D3B9ADF1A2
:100B5000080C6DE904CE002909DB002B1ADB00F03C
:100B60004DF8DDF804E0DDE9022304B070474042AF
:100B700061EB4101002B1BDB00F040F8DDF804E0E5
:100B8000DDE9022304B0404261EB4101524263EBD4
:100B900043037047524263EB430300F02FF8DDF844
:100BA00004E0DDE9022304B0404261EB41017047FB
:100BB000524263EB430300F021F8DDF804E0DDE985
:100BC000022304B0524263EB4303704753B94AB95E
:100BD000002908BF00281CBF4FF0FF314FF0FF3045
:100BE00000F088B9ADF1080C6DE904CE00F006F80C
:100BF000DDF804E0DDE9022304B070472DE9F04799
:100C0000089D8E4604468846002B4AD18A421746E4
:100C100062D9B2FA82F64EB1C6F1200301FA06F8A3
:100C200020FA03F3B74043EA0808B4404FEA174EEE
:100C30001FFA87FCB8FBFEF1230C0EFB118843EA78
:100C4000084301FB0CF29A4209D9FB1801F1FF306D
:100C500080F0EA809A4240F2E78002393B449A1AD7
:100C6000A3B2B2FBFEF00EFB102243EA024300FBEC
:100C70000CFC9C4509D9FB1800F1FF3280F0D680AE
:100C80009C4540F2D3803B44023840EA0140A3EB4C
:100C90000C0300211DB1F3400022C5E90032BDE87C
:100CA000F0878B4205D90DB1C5E900010021084646
:100CB000F5E7B3FA83F1002946D1734502D38242A6
:100CC00000F20581841A6EEB030201209046002D8C
:100CD000E5D0C5E90048E2E7002A00F09080B2FACA
:100CE00082F6002E40F0A4808A1A030C4FEA174EB9
:100CF00080B2BCB20121B2FBFEFC0EFB1C2243EA17
:100D0000024304FB0CF29A4207D9FB180CF1FF389E
:100D100002D29A4200F2E080C4469B1AB3FBFEF274
:100D20000EFB123340EA034302FB04F49C4207D952
:100D3000FB1802F1FF3002D29C4200F2CA80024648
:100D40001B1B42EA0C40A5E7C1F120068B4022FAAA
:100D500006F71F430EFA01F420FA06F32EFA06FEF8
:100D60004FEA1749234300FA01F81FFA87FCBEFB3C
:100D7000F9F01C0C09FB10EE44EA0E4400FB0CFEDB
:100D8000A64502FA01F209D93C1900F1FF3A80F0B8
:100D90009C80A64540F2998002383C44A4EB0E04A6
:100DA0001FFA83FEB4FBF9F309FB13444EEA044433
:100DB00003FB0CFCA44508D93C1903F1FF3E80F06D
:100DC0008280A4457FD9023B3C4443EA0040A4EB27
:100DD0000C04A0FB02EC64457346E14662D35FD08D
:100DE0005DB1B8EB030264EB090404FA06F622FADB
:100DF00001F31E43CC40C5E9006400214FE7B1FB7D
:100E0000F2FC010C41EA0E4180B240EA01423B464D
:100E100038463C46B846BE462026B1FBF7F1A2EB69
:100E2000080241EA0C4166E7014618E710462CE744
:100E3000C6F120022EFA02F3B740B14020FA02F2C6
:100E40004FEA174E0A43B3FBFEF8BCB20EFB183351
:100E5000110C41EA034108FB04F9B04089454FEA0F
:100E6000104380B23ED9791808F1FF3C01D2894580
:100E70001FD8A1EB0901B1FBFEF909FB04F80EFB39
:100E8000191192B242EA0142424529D2BA1809F137
:100E9000FF31C4D24245C2D2A9F102013A44BEE7B1
:100EA000F0459DD2BEEB02036CEB070C0138E14626
:100EB00096E7A7EB09094944A8F1020CB1FBFEF93A
:100EC00009FB04F8DBE773467FE7504666E7084610
:100ED000FDE63B44023A33E7ACF1020C3B441CE72D
:100EE00049469CE7A1EB0901C446B1FBFEF909FBA9
:100EF00004F8C4E7704700BF0149002009F0FCB9BD
:100F0000D1200008000000002DE9F047264D002404
:100F10000026264FAA462DED028BF0EE088AB1EE90
:100F2000048A0FF27C09D9E9008920460134FFF7D1
:100F300011FB42464B46FFF777FB32463B46FFF735
:100F400073FBFFF7A3FD00EE100A31F071FBF0EE2A
:100F5000487AE0EE287A17EE900AFFF70DFB0022A0
:100F6000134BFFF761FBFFF771FDB4F5807F05F8C8
:100F7000010BDAD10F4C236800220F48D11801323F
:100F8000C9B2B2F5C87F1AF8011000F8011BF5D1FB
:100F900001331020DBB2236007F0C2FBEBE700BF98
:100FA000182D4454FB2119405D0300200000703FC0
:100FB00000803940600400206404002010B594B023
:100FC0001022002102240AA832F0A0FC14220021E1
:100FD00003A832F09BFC1D4B192108A81A6C42F0A3
:100FE00080521A641B6C03F080530193019B184BD1
:100FF0001A6842F440421A6001221B6803F440431D
:101000000293029B4FF48033CDE908234FF4800311
:10101000CDE90E434FF4D873CDE91244CDE9101356
:1010200006F06AFB06F0D4F80F2300200721CDE973
:1010300003344FF4A053CDE905034FF4805303A8C4
:10104000079306F041FD14B010BD00BF0038024008
:101050000070004030B54FF480738FB04FF0807255
:101060000E4D06939F23099201220093002304460C
:10107000694628460593CDE90A2341F28832CDE935
:101080000733CDE90C3306F009FA41F288322146E4
:10109000284606F0CDFA0FB030BD00BF4406002050
:1010A00000B54FF4807391B04FF04072EF28089371
:1010B0004FF0EB0302A90D4802934FF440630993EC
:1010C0004FF4005305934FF00003CDE90A3214BFEB
:1010D0000A2206220F9307926A46CDE90D33CDE925
:1010E000003306F01FFA11B05DF804FB440600203F
:1010F0002DE980489BB01022002101250DA84FF05A
:10110000104932F003FC002404F0B2FFC74B0DA8D5
:10111000ADF834501094CDE90E9304F0C7FF1723B7
:101120000DA88DF835508DF83C308DF8425004F004
:10113000BDFF042004F0AAFFBFF34F8FBFF36F8FF2
:10114000BB4AC2F85042BFF34F8FBFF36F8F536952
:1011500043F400335361BFF34F8FBFF36F8FC2F877
:101160008440BFF34F8FD2F8803043F6E074C3F36E
:10117000C900C3F34E335B0103EA0406014646EAA5
:1011800081750139C2F86052F9D2203B13F1200F6A
:10119000F2D1BFF34F8F536943F480335361BFF3F0
:1011A0004F8FBFF36F8F04F0C9FE0024FFF706FFD7
:1011B000142200210DA832F0A9FB9E4B10219E485D
:1011C0001A6B01274FF010084FF0030B42F010028A
:1011D0004FF4805A994D4FF004091A631A6B984ED8
:1011E00002F010020292029A1A6B42F002021A6393
:1011F0001A6B02F002020392039A1A6B42F0010288
:101200001A631A6B02F001020492049A1A6B42F0FC
:1012100040021A631A6B02F040020592059A1A6B9B
:1012200042F400721A631A6B02F400720692069A74
:101230001A6B42F008021A631A6B02F00802079256
:10124000079A1A6B42F480621A631A6B02F4806286
:101250000892089A1A6B42F020021A631A6B02F085
:1012600020020992099A1A6B42F480721A631A6B6F
:1012700002F480720A920A9A1A6B42F080021A6390
:101280001A6B02F080020B920B9A1A6B42F0040266
:101290001A6300221B6B03F004030C930C9B05F0F4
:1012A00051FA01220821674805F04CFA01224FF457
:1012B0008051654805F046FA0022C021634805F0D8
:1012C00041FA00224021624805F03CFA0DA95A4833
:1012D000CDE90D87CDE90F4B05F0B0F808230DA936
:1012E0005848CDE90D37CDE90F4405F0A7F80DA911
:1012F0005548CDE90DA7CDE90F4405F09FF8C02270
:101300000DA95248CDE90D27CDE90F4B05F096F810
:1013100040220DA94E48CDE90D27CDE90F4B05F030
:101320008DF84C484C49848001600762C0E905444F
:1013300004F0E8FE49492846C5E90014C5E902441D
:10134000C5E90A44C5E90C4404F07BFF3946284648
:10135000434D05F02DF840234FF4C072414930460B
:10136000B460F461B462C6E905324FF40062C6E9C4
:10137000082A4FF0020A0722C6E900140DA9CDF889
:101380004CA0C6E90398CDE90DA2CDE90F92CDE9B5
:1013900011BA06F0EFFE29464FF6FF72304601946F
:1013A000C5E90078C5E9027406F004FF384604F088
:1013B000E9FD29464FF6FF723046C5E900A8C5E9A8
:1013C000027406F0F7FE082329464FF6FF723046F6
:1013D000C5E900B8C5E9023406F0ECFE4FF40C7321
:1013E0004FF6FF72294601933046019BAF60EB60D8
:1013F000C5E9009806F0DEFE40F22B7130461A4D2A
:1014000006F0F7FE4FF0204343F2D202642040F290
:1014100015261A6004F0B6FD144B154A28462C62B6
:10142000C5E90023C5E9024724E000BF1B00000313
:1014300000ED00E000380240000402408C0700206C
:101440001006002000280240002002400008024050
:1014500000180240CC0700200030024000B00240DB
:10146000F4050020400100A0380700206847402014
:10147000005C0040C5E90444C5E9064405F0A3FA50
:101480002146284605F0C6FC21462846404D05F079
:10149000E7FC342221460DEB020032F037FA3D4BD7
:1014A0002821352040F2352C2C61AC8685F8364059
:1014B000C5E900340923C5E905130B23C5E9070372
:1014C00040F21B132846C5E9096340F21D13C5E924
:1014D0000244C5E90BC305F067FDFF214FF4806EA0
:1014E0004FF4F0724FF4887328460D941893ADF8BA
:1014F00064408DF86640CDE912140521CDE914E170
:101500004FF04041CDE90E24CDE9161222460DA937
:10151000CDE9103A05F013FE1F48204B0462C0E9E4
:101520000037C0E902984FF4A0634FF01808C0E9F3
:101530000644C0E9048305F05FFF0DA8FFF78AFDAC
:101540009DF83400FFF7ACFD5C2004F07FFD00F057
:101550003BFB00F065FB00F062FB07F057F8104A18
:101560002146104807F08CF80F4B104A21461860AE
:101570000F4807F085F80F4B0F4A214618600F48B7
:1015800007F07EF80E4B186007F05AF8FEE700BF30
:10159000900600200068014044060020001000A0D2
:1015A00054790308090F00080C060020307903085D
:1015B0002F1C0008080600200C790308B937000822
:1015C000040600200268034B9A4201D104F0C8BC13
:1015D000704700BF00100040704700000D4B82B004
:1015E0000F216FF001001A6C42F080521A641A6CDD
:1015F00002F080520092009A5A6C42F480425A647F
:1016000000225B6C03F480430193019B02B004F061
:10161000DDBC00BF00380240026882B0084B9A422D
:101620000BD1D3F8302803F5006342F480521A63DB
:101630001B6B03F480530193019B02B0704700BF02
:10164000003002400E4B07B502689A4215D1A3F54F
:10165000F04305215A201A6B42F400021A6300225B
:101660001B6B03F400030193019B04F0AFFC5A20B1
:1016700003B05DF804EB04F0DBBC03B05DF804FBE1
:1016800000B0024010B5A8B004461422002102A800
:1016900032F03CF98422002107A832F037F92268A1
:1016A000174B9A422AD14FF4803307A8079306F0CC
:1016B000D7FA08B1FFF790FF124C4FF4C072012126
:1016C0001148236B43F080032363236B03F08003F3
:1016D0000093009B1223CDE902230323CDE90413D9
:1016E000042302A9069304F0A9FE236C43F400032B
:1016F0002364236C03F400030193019B28B010BD05
:10170000005C004000380240001C0240026808B53E
:10171000094B9A420FD1094A80210948136C23F4DE
:101720000003136404F06EFF4FF480710448BDE8B9
:10173000084004F067BF08BD005C0040003802406C
:10174000001C024070B5ACB004461422002106A86B
:1017500032F0DCF8842200210BA832F0D7F822689E
:10176000484B9A4240F08C800823052001240B93BB
:101770004FF4C07310930223CDE911304FF40033BE
:101780000BA8CDE9154306F06BFA08B1FFF724FF6B
:101790003D4B002402250E265A6C06A93B4842F018
:1017A00080625A645A6C02F080620092009A1A6B4E
:1017B00042F010021A631A6B02F010020192019AB1
:1017C0001A6B42F400721A631A6B02F400720292EE
:1017D000029A1A6B42F480621A631A6B02F48062F6
:1017E0000392039A1A6B42F040021A631A6B02F0DA
:1017F00040020492049A1A6B42F480721A631B6BC3
:1018000003F480730593059B1023CDE90635CDE9DC
:1018100008440A9604F012FE4EF6FF7306A91C480F
:101820000A96CDE90635CDE9084404F007FEF72312
:1018300006A918480A96CDE90635CDE9084404F012
:10184000FDFD4FF4805306A91348CDE90635092361
:10185000CDE908440A9304F0F1FD4FF4464306A98C
:101860000E480A96CDE90635CDE9084404F0E6FDB8
:1018700058202246052104F0A9FB582004F0D8FB8B
:101880002CB070BD006801400038024000100240DA
:1018900000240240002802400018024000200240BC
:1018A000142200212DE9F0418AB004460DEB02001C
:1018B00032F02CF822682C4B9A4251D12B4B022546
:1018C000032409269A6B4FF0040805A9284842F022
:1018D000020200279A639A6B02F002020192019AB7
:1018E0001A6B42F010021A631A6B02F01002029295
:1018F000029A1A6B42F002021A631A6B02F0020299
:101900000392039A1A6B42F008021A631B6B03F0EE
:1019100008030493049BCDE90585CDE9084604F04E
:101920008DFD402305A91348CDE905350A23CDE9EE
:101930000774099304F082FD05A90E480996CDE9C4
:101940000585CDE9077404F079FD4FF4605305A9CE
:1019500009480996CDE90535CDE9077404F06EFD17
:101960000AB0BDE8F08100BF001000A000380240BE
:101970000010024000040240000C0240F0B50023B9
:1019800087B00393294B1E68002E4DD101220227F8
:1019900003250C241A6001A9254B26489A6B42F0B6
:1019A00001029A639B6B03F001030093009B4FF6C7
:1019B0008373CDE90454CDE9013704F03FFD48F2CB
:1019C000331301A91C480594CDE90137CDE903651E
:1019D00004F034FD4CF2037301A918480594CDE9D5
:1019E0000137CDE9036504F029FD4FF63F0301A956
:1019F00013480594CDE90137CDE9036504F01EFDD8
:101A0000282301A90F480594CDE90137CDE90365E5
:101A100004F014FD082301A90B480594CDE9013712
:101A2000CDE9036504F00AFD07B0F0BDF007002022
:101A3000003802400010024000180240000C024032
:101A400000140240001C024000080240214B1A6CA6
:101A500042F0100270B588B01A641B6C054601A9EB
:101A600003A803F010030293029B06F0DBF8069B29
:101A70004BBB06F0C7F8184E184B336040F2E73303
:101A8000F360174BB0FBF3F3013B30467360002368
:101A90003361B360B36106F0FFFC044680B93046A1
:101AA00006F0C0FB044658B9362004F0C1FA0F2DE9
:101AB0000DD822462946362004F088FA094B1D60CD
:101AC000204608B070BD06F09DF84000D3E7012421
:101AD000F6E700BF00380240F40700200010004085
:101AE00040420F004C0000207047FEE7FEE7FEE793
:101AF000FEE77047014806F0D7BB00BFF40700209F
:101B0000014805F0BFBA00BF90060020014804F06C
:101B1000C4BB00BF8C0700200120704708B531F01E
:101B2000A9FF162303604FF0FF3008BD08B531F060
:101B3000A1FF16230360FEE770B50D4614460E465E
:101B4000731B9C4201DC204670BDAFF3008006F899
:101B5000010BF5E770B50D4614460E46731B9C420B
:101B600001DC204670BD16F8010BAFF30080F5E7ED
:101B70004FF0FF3070474FF4005300204B60704728
:101B800001207047002070470B4A0346116810B5CA
:101B900009B90A491160106809490A4C0344091B34
:101BA0008B4206D931F066FF0C2303604FF0FF3003
:101BB00010BD1360FCE700BF40080020A88801208A
:101BC00000000520000A000070470000DFF834D054
:101BD000002103E00C4B5B58435004310B480C4B85
:101BE00042189A42F6D30B4A02E0002342F8043B23
:101BF000094B9A42F9D304F0B9F831F041FFFFF7ED
:101C000077FA70470000052024A503080000002093
:101C10003401002040030020A8880120FEE770471F
:101C200008B501F091F9BDE8084001F013B901F0E1
:101C30008DB9406870474160704700004FF0E02266
:101C4000D2F8FC3D43F08073C2F8FC3D054B064AD8
:101C5000D3F8B01F0A43C3F8B02F1A6842F001024C
:101C60001A607047001000E055CEACC5521A02EB66
:101C70005302B2FBF3F07047014B5868704700BF46
:101C8000001000E0704710B504460C2130F044FC11
:101C9000204610BD036810B51B69044631B1984752
:101CA000A26863689B1A0344636010BD9847A060F4
:101CB000FBE70000024B7020024A1360DB68184704
:101CC0002000002044080020704710B5044604217D
:101CD00030F022FC204610BD73B50E4E0D46144662
:101CE000336813B9002002B070BD1B69702098479B
:101CF0000028F7D03368702001AA0DF106015B6956
:101D00009847BDF8043001202B60BDF806302360F1
:101D1000E9E700BF440800207FB501238DF81720B4
:101D20004FF47A72CDE901320DF1170200920A46A2
:101D30000146054804F0B6FE10B1034804F098FED1
:101D400007B05DF804FB00BF380700207FB5002313
:101D50000A464FF47A718DF817300123CDE901312D
:101D60000DF1170100910146054804F075FF10B10F
:101D7000034804F07DFE9DF8170007B05DF804FBF2
:101D800038070020032823D8DFE800F0020B131ADD
:101D9000104B102110481A68B2FA82F2520904F06E
:101DA000D1BC0C4B40215A68B2FA82F252090B485E
:101DB000F5E7084B80219A68B2FA82F25209F6E7F9
:101DC000044B40210648DA68B2FA82F25209E6E78B
:101DD000704700BF4808002000040240000802408D
:101DE00000180240032823D8DFE800F0020B131A82
:101DF000104B102110481A68003A18BF012204F055
:101E0000A1BC0C4B40215A68003A18BF01220B4874
:101E1000F5E7084B80219A68003A18BF0122F6E7DF
:101E2000044B40210648DA68003A18BF0122E6E771
:101E3000704700BF4808002000040240000802402C
:101E40000018024003280FD8DFE800F00206090B53
:101E50001021064804F07BBC40210548FAE78021A8
:101E6000FBE740210348F5E7704700BF000402404C
:101E7000000802400018024008B5032813D8DFE824
:101E800000F0020A0D0F1021084804F055FC431E13
:101E90005842584108BD40210548F6E78021FBE73C
:101EA00040210448F1E70020F1E700BF00040240B0
:101EB000000802400018024070B5084D00240126B9
:101EC000E0B2FFF7D9FF18B12B68012B18BF2E60C5
:101ED00001340435052CF3D170BD00BF4808002043
:101EE000012380F8781080F879307047704700201F
:101EF0007047000041640039024B18BF012119707E
:101F0000704700BF677B0120704700207047836BDC
:101F10000BB10846184770474FF6FF70704740688E
:101F200003689B69184770477047704738B5044687
:101F300001F062F9084923682046084DD3F8903033
:101F400098470023284684F84A30FFF777FE01239C
:101F5000256184F8703038BD000000C058080020AA
:101F600001F0EEB801F0F2B870B501F06FF9104968
:101F70000023C1F88430BFF34F8FD1F8803043F68F
:101F8000E074C3F3C900C3F34E335B0103EA0406F4
:101F9000024646EA8275013AC1F87452F9D2203BF2
:101FA00013F1200FF2D1BFF34F8FBFF36F8F70BDCE
:101FB00000ED00E001F04CB901F09EB801F06EBAFE
:101FC00001F076BA01F0A2B810B5044617F0DAF9BC
:101FD00023682046D3F8BC30BDE81040184716F0FF
:101FE000ECBB10B50446842130F096FA204610BDB3
:101FF00090F834100D4B10B590F878401A788C4258
:1020000009D03AB90A490B4A08881488108001227D
:102010000C801A7010BD002AFCD0064A04491488AE
:1020200008880C8010800022F3E700BF607B01204D
:102030005E7B01205C7B012070B50D46194635B9E9
:10204000094B40F2FF21094A094831F0A1F9C0E9E2
:102050000F52003A074B18BF01221A700368BDE8FF
:102060007040D3F890301847034803083B480308F2
:1020700089480308667B012008B5094B1B888B4201
:1020800003D8084B1B88934205D9074BA321074A65
:10209000074831F07DF9074B1980074B1A8008BDBE
:1020A0005C7B01205E7B0120CE4803083149030898
:1020B00089480308627B0120647B0120034690F875
:1020C0007A0018B1586803681B6818477047000009
:1020D000014608B5034B186801B1012117F06CF9EE
:1020E000012008BD687B0120034B00225A609A60E2
:1020F000024A1A60704700BF580800208079030820
:102100000121002208B5084606F0C2FB0A4B186000
:1021100028B90A4B28210A4A0A4831F039F9002225
:102120000421012006F07EFC074B186018B9074B0C
:102130002C21034AF0E708BD680800207449030811
:10214000BD490308EC49030864080020384A030825
:10215000024B4FF0FF31186806F0F2BB6808002010
:10216000014B186806F028BC68080020024B0021CB
:10217000186806F0E5BB00BF68080020FFF7F0BF55
:102180000023034803491A46006806F091BC00BFCB
:10219000640800200400002013B50023074C01A9A7
:1021A0001A46206806F0C6FC4FF0FF33002201A952
:1021B000206806F0BFFC02B010BD00BF640800201C
:1021C00003685B6C18470120704703689B6A1847D7
:1021D000FEE700000E4B82B01A6B42F400021A6355
:1021E0001A6B02F400020192019A1A6942F4000289
:1021F0001A611A6922F400021A61064B064A1A6132
:10220000064A5A614FF08062054B9A6002B07047EF
:10221000003802408C070020AD240008D1210008BE
:1022200000E100E040F2EF3070470000054B4FF056
:1022300080620360044BC3F88820BFF34F8FBFF365
:102240006F8F7047AC7A030800E100E010B50446D8
:102250004FF45A61FFF7EAFF204630F05DF920465F
:1022600010BD000008B50A2809D8DFE800F0061004
:102270000E080808081010101000022008BD054BB9
:102280009021054A054831F083F80020F6E7012047
:10229000F4E700BF7A4A0308954A0308E04A0308B6
:1022A00038B50C46887FFFF7DDFF174BA58AE28A19
:1022B000586342EA054221695A64628BD963521B12
:1022C0001A642568082D0ED19A611A6158620F4A66
:1022D000207F42EA0062DA61E2681A620C4A5961C0
:1022E000D9601A6038BD0022D8611A61E1680A0A13
:1022F0004809C1F3C40102F4784200F4FC600243CF
:102300000A439A63034AECE700B002400900010067
:10231000012302000123030008B50B280BD8DFE8D6
:1023200000F00612100A0A0A0A0808080808022023
:1023300008BD0520FCE7054B6F21054A054831F033
:1023400027F80020F4E70120F2E700BF7A4A0308EB
:102350002A4B0308E04A03082DE9F04191F81D805B
:102360000C464046FFF7D8FFA77F05463846FFF7E3
:10237000D3FF06463846FFF775FFA18A628B434BB1
:10238000521A1A649A61228B521A1A61E28A5863AD
:1023900042EA014221695A646268D963DA602068BE
:1023A000802828D0227F0FD8202866D0402864D0EB
:1023B00004281AD045EA0265344BB84545F4003587
:1023C000DD6160D0324A44E0B0F5807F04D0B0F5E2
:1023D000007FEFD12F4800E02F4840EA0262DA6127
:1023E000E2681A625E62596132E045EA026242F4D2
:1023F0000032DA61F6E7A068021DDA62227F45EA60
:10240000026545F40035DD615E625961017841B1D4
:10241000012921D0214B4FF48D71214A214830F000
:10242000B7FFDA69418822F47F42013922F01002B5
:1024300042EA01220121DA61144BDA6942F02002FA
:10244000DA61DA699206FCD410229A600029B9D0C8
:10245000154A1A60BDE8F081B2F1FF01DA694088DF
:1024600022F47F4218BF0121013822F0100242EA13
:10247000002242F01002DA61DEE745EA0262034B15
:1024800042F40032B5E742F20132E2E700B0024026
:1024900001230100090002000A000200744B030836
:1024A0008E4B0308E04A030801230200024B1B681D
:1024B000586803685B691847687B012070B504465B
:1024C0000A4B0C3000262546602260602672667238
:1024D00045F8203B294617F0C3F804F55A63EE602F
:1024E00024359D42FBD1204670BD00BFAC7A030865
:1024F000034B1A68D207FCD423229A60704700BFAE
:1025000000B00240094B5A69D2030AD5BFF34F8F7E
:1025100008440029A0EB010204DCBFF34F8FBFF396
:102520006F8F70472039C3F86822F2E700ED00E0B2
:1025300030B5104C2568ED07FCD423250904FF2B8A
:10254000A56041F001014FF0020565636164E0633D
:102550000AD00949656241EA0363E361074B2262DD
:102560006061E060236030BDE561039BA363044BC1
:10257000F8E700BF00B002400900010001000200BE
:102580000100030030B50F4C2568ED07FCD423256E
:102590001204FF2BA56042F001024FF002056563B3
:1025A0006264E063E16008D01B0643F00213E3615C
:1025B000054B65626061236030BD044BE36101231C
:1025C000F9E700BF00B0024001000200020002FF74
:1025D00030B50B4C2568ED07FCD4232512041B06EF
:1025E000A56042F00102022543F400336563626492
:1025F000E063E160E361034B65626061236030BDCD
:1026000000B00240010002004069704790F84400A9
:102610007047036B23B9C06A003818BF01207047A8
:102620000120704780687047043010B50C460FC811
:1026300084E80F0010BD704708B5034A40F212212C
:10264000024B034830F0A4FECC4B03084C64030853
:10265000274C030810B5044648212FF05DFF2046A3
:1026600010BD00002DE9F0431D46ADF51F7D436B05
:1026700006460F469046BDF89842002B35D0002202
:1026800003A8DFF8A490CDE901320EF021FB4FF44E
:10269000F4725021249024A808F0CFFA424639461B
:1026A00024A809F019FA012124A808F0C1FB02238B
:1026B00024A88DF8D83008F05CFC2B9B419AA342EB
:1026C000BDF89C7228BF23469742A4EB030428BFA1
:1026D000174603EB43086400479B9F4209D824A890
:1026E00008F0C8FB24A808F0F5FA0DF51F7DBDE839
:1026F000F083012201A924A808F084FC736B03EB8A
:102700000800984201D82544E6E759789A78C9002C
:1027100009EA022201F4FC610A4313F8031B42EAAE
:10272000D10225F8022BECE700F8FFFF0A4A02600D
:102730000022C0E90522C0E90722C0E90922C0E958
:102740000B22C0E90D12C0E90F2280F84420C0E935
:102750000322C0E901227047FC7A030810B40C463A
:1027600011461A46036B3BB1036C806BE41A20449C
:102770005DF8044B31F0D2B8C06AF8E7036B10B5CE
:1027800073B1036C826BC91A5318525C98785C78E9
:102790000004DB7840EA0420104340EA036010BDE7
:1027A000C36A5858FBE7036B43B1036CC91A836BC8
:1027B0005A18585C527840EA02207047C36A585A47
:1027C0007047000070B50446006B0D461646D8B140
:1027D000E36B934208D209230D4A65210D4884F822
:1027E00044300D4B30F0D4FD0368DB689847206B14
:1027F0003246A16B03681B69984710B90D2384F812
:102800004430A06B256470BDE06A0844FBE700BF5C
:10281000904C0308274C03087D4C03082DE9F8432E
:10282000436904462BB9234BAA21234A234830F09D
:10283000AFFD08228169FFF7C5FFA16943F23006A9
:1028400046F2643704312046FFF798FFA369184425
:10285000A36A00F108029A4206D3012300206361B3
:10286000236AA361BDE8F883636909300822013354
:1028700020F0010120466361A161FFF7A3FFD4F8B6
:10288000189020464946FFF78EFF09F10201804665
:102890002046FFF788FF09F1040105462046FFF7AF
:1028A0006DFFB045D2D1BD42D0D10028CED001209D
:1028B000D8E700BFD24C03081B4D0308274C030880
:1028C0002DE9F04F0446ADF51F7D8A461646816915
:1028D00008229846FFF776FFA7692046391DFFF7C3
:1028E0004DFF07F10801024605462046FFF76AFF43
:1028F000636B074633B93C4B40F2AB113B4A3C4853
:1029000030F046FD002203A8CDE901320EF0E0F9D7
:102910004FF4F4725021249024A808F08EF92A462E
:10292000394624A809F0D8F8012124A808F080FA33
:10293000022324A88DF8D83008F01BFBBAF9025006
:10294000479BAB4229D3BAF900904FEA4808BAF83E
:1029500004702B9B08FB05664F44BAF80250DFF861
:1029600094B03FB29F4228BF1F46BAF8063009EB29
:10297000490A1D44419B2DB29D4228BF1D46479BDD
:102980009D4210D824A808F075FA24A808F0A2F9EE
:1029900001200DF51F7DBDE8F08F012201A924A8BB
:1029A00008F030FBCCE7012201A924A808F02AFB9B
:1029B000626B49465244B94202F1030201D34644D4
:1029C000DDE712F8020C12F8013CC0000BEA032309
:1029D00000F4FC60034312F8030C43EAD00326F82A
:1029E00011300131E7E700BF4E4D0308A44D030845
:1029F000274C030800F8FFFF0129036838BF0121B5
:102A0000DB6A70B50D4604469847A84204D2236895
:102A10002046DB6A984705466B1EE6691022204671
:102A200006EB031606F10801FFF7CCFE06F11001D4
:102A30002046FFF7A3FE236A043B0344C4E9055381
:102A400070BD0000002148222DE9F041044681615B
:102A500080F84410FFF7B6FEA6690423624A3146A7
:102A60002046FFF77BFE40B10323604AF22184F841
:102A700044305F4B5F4830F08BFC06F108010423C3
:102A80005D4A2046A161FFF769FE30B10423574A31
:102A9000FA2184F84430594BECE706F10C01042389
:102AA000574A2046A161FFF759FE074638B1052372
:102AB0004E4A40F2011184F84430524BDAE706F1F5
:102AC00010012046FFF75AFE054620B94E4B40F252
:102AD0000711464ACEE706F1140804234B4A204664
:102AE0004146FFF73BFE002849D0062384F84430D6
:102AF0000423474A06F118012046FFF72FFE00285D
:102B00003FD0072384F844304544424F0C222046EE
:102B10002946FFF757FE05F1080604233A462046EA
:102B20003146FFF71BFE94F84430002848D0002BB4
:102B300048D1A36AAB4249D805F10C0304352046BD
:102B4000A3612946FFF71AFE3044294660622046F9
:102B5000FFF714FE0644042220463146FFF732FEFA
:102B600004232D4A31462046FFF7F8FD002838D1CE
:102B70000123E6616361A3692362BDE8F081012757
:102B8000B6E7002FC0D006F120012046FFF7F6FD82
:102B90004FF47A7306F13001B0FBF3F06060204629
:102BA000FFF7ECFD06F14001A0602046FFF7E6FDCF
:102BB00006F14401E0602046FFF7E0FD2061A3E755
:102BC000002BB9D00A2384F84430D6E7291D2046CB
:102BD000FFF7D4FD85190C2220462946FFF7F2FDA8
:102BE00099E70B23EFE700BFFE4D03081C4E0308D7
:102BF000034E0308274C0308494E03084E4E0308B2
:102C0000664E03086B4E0308814E03088D4E030881
:102C1000924E0308974E03089C4E0308C0E90A2110
:102C200000220263FFF70EBF10B5002304460846DA
:102C3000E3620B6821639B689847A0622046BDE869
:102C40001040FFF7FFBE70B4BDF80C50BDF8106027
:102C50002AB123B1CDE9035670BCFFF703BD70BCA8
:102C6000704700002DE9F04F9946436985B004464E
:102C70000F4690462BB9294B7721294A294830F035
:102C800087FB08228169FFF79DFDA6692046314632
:102C9000FFF789FDB11C83462046FFF784FD311DF7
:102CA00082462046FFF76AFD06F10801A36A054641
:102CB0000A189A4226D243F230039B4517D146F2B6
:102CC00064339A4513D190B10246A1612046FFF7C3
:102CD00079FD0E9B01462A462046CDF80080CDE9BD
:102CE00001933B46FFF7AFFF636901336361A3695B
:102CF0002B4405B908330133626A23F00103934280
:102D0000A36109D1012301206361236AA36180F0DB
:102D1000010005B0BDE8F08F0020F8E7D24C0308B1
:102D2000A14E0308274C0308012070470C20704770
:102D30000C2303FB0100083070470C2303FB010048
:102D4000083070470120704742F27860704742F2C5
:102D5000786303FB01000830704742F2786303FB9D
:102D6000010008307047012070471020704700EBC9
:102D700001100830704700EB01100830704708461A
:102D800000F0E4BF034B10B50446036014F0A2FF4B
:102D9000204610BDA47B030810B50446FFF7F2FFE0
:102DA000142120462FF0B8FB204610BD034B10B570
:102DB0000446036014F08EFF204610BD707B0308AC
:102DC00010B50446FFF7F2FF4FF41A5120462FF0DA
:102DD000A3FB204610BD0000034B10B50446036062
:102DE00014F078FF204610BD3C7B030810B5044664
:102DF000FFF7F2FF182120462FF08EFB204610BD72
:102E0000094B10B50446036000F51A502C30FFF74B
:102E1000B9FF04F12C00FFF7C9FF04F11400FFF71C
:102E2000DBFF204610BD00BFD87B030808B5024871
:102E3000FFF7E6FF08BD00BF4417002010B50446A9
:102E4000FFF7DEFF42F6200120462FF065FB20460B
:102E500010BD00002DE9F34100F048FD00240546B7
:102E600000F048FD2346014622462846009420F003
:102E70008FFA284B284A2046284D1A6002F0A4FDFC
:102E8000274B284A28489A6020F0EAF92B68BFF3BC
:102E90005B8FDB0737D428462FF040FB98B3234CD9
:102EA000234B04F12C0804F11400236008F51A5791
:102EB0006060C4F8088007F11806E760266114F026
:102EC0000BFF1C4B4046636114F006FF1A4B38465B
:102ED000E36214F001FF04F50053184A04F51B5097
:102EE000C3F8AC2602F0F4FD224604F51B5130462F
:102EF00002F0E4FD304600F029FF114830F066FA98
:102F000028462FF017FB0F4802B0BDE8F041FFF74D
:102F10000DB800BFCC7B0120F00800204017002036
:102F200010090020F40800200800002044170020A9
:102F3000D87B03083C7B0308707B0308A47B030851
:102F40002D2E00086C08002070470000014815F085
:102F50009EBC00BF6C08002070B5264E264B274C47
:102F60003046274D2360FFF7A9FA284625F022FBBB
:102F700024481DF045FC244B00224FF48071234867
:102F80001A8683F858205A6683F870205A67DC60E6
:102F9000C3E912121E49C3E91A121E49C3E91E01F0
:102FA0001D491E48C3F880101D490B604FF4F07195
:102FB000C3E90422C3E90622C3E90822C3E90A22BD
:102FC000C3E90E22C3E91022C3E91422C3E9172280
:102FD000C3E901650180134883F8342001804FF470
:102FE0008871114801801148018011490A70114A05
:102FF0001A6070BD9C090020A87903083C170020C6
:1030000010090020F40800206C08002000000101D5
:103010000100000100044400160014005C7B012044
:10302000687B0120627B01205E7B0120647B0120A4
:10303000607B0120C07903080148FFF7F7B800BFA3
:103040009C0900200020704781807047C180704734
:1030500001817047418170477047704770477047E2
:10306000704710B4C4880368121B84885B6D091B09
:1030700012B25DF8044B09B218474FF6FF73838113
:103080004FF0FF3303621368C36110607047002084
:1030900070478B88838001207047704780F8261026
:1030A000704790F82600704710B50022B1F908402B
:1030B000B1F90A10028042808480C18010BD0022D4
:1030C000028042808280C28070470177704780ED25
:1030D000080A704780F82410704780F82510704760
:1030E00001207047983070478C30704784307047AB
:1030F0007047704770470000034B902283F85A23B3
:1031000083F85823704700BF00E100E0094A0A49EC
:10311000D3680A48C3F30A03013B9BB20B801169D1
:10312000C1F30A01013901801364536B43F00103B9
:103130005363704700680140663F0020643F0020F1
:10314000014BD3F8AC00704700680140024B0122EC
:10315000C3F8AC105A62704700680140124A5369C4
:10316000DB0370B51ED50023C2F88430BFF34F8F48
:10317000D2F8803043F6E074C3F3C900C3F34E3392
:103180005B0103EA0406014646EA81750139C2F88B
:103190007452F9D2203B13F1200FF2D1BFF34F8FBD
:1031A000BFF36F8F70BD00BF00ED00E070473823A4
:1031B000002201FB0333C25490F838300BB9036C82
:1031C00083647047704780F84C10704710B5044610
:1031D0002C212FF0A1F9204610BD10B5044658212E
:1031E0002FF09AF9204610BD10B50446BC212FF0EF
:1031F00093F9204610BD000038B5044615F033FBA6
:1032000023689D6E1CF08EF801462046A84723686F
:10321000084A2046D3F88C500023A2F57F31A847F6
:10322000054B064A5A60064A1A649A644FF4FF2214
:103230005A6438BD00F807C02840002080400020B4
:1032400000F40BC015F0F6BA15F000BB15F0BBBAD0
:1032500015F03DBC90F8252012B103685B69184752
:103260007047000008B531B1044B40F29711044A91
:10327000044830F08DF890F8390008BDFC4E030882
:10328000104F03089D50030810B531B1064B40F2B2
:103290009111064A064830F07BF8406811460368F1
:1032A000BDE810401B6B1847FC4E0308DF500308B5
:1032B0009D50030808B529B1034B7A21034A0448FD
:1032C00030F066F8006908BDFC4E03089052030810
:1032D0009D50030808B529B1054B8321054A0648CE
:1032E00030F056F841618160C0E9063208BD00BF88
:1032F000FC4E0308485403089D50030810B50446CB
:1033000029B1274BA421274A274830F041F8052A44
:1033100034D8DFE802F003292F34393E40680368CF
:103320001B69984750B34FF0FF31606D05F054FAB8
:103330000023012294F83E1084F83B3084F83920B1
:10334000A360636101B1226284F83E306362E36A84
:103350002BB90123206D84F83A3005F02DFB606D08
:10336000BDE8104005F068BA002380F8393084F8D1
:103370003E3003E0036200238360436110BD0362BB
:10338000002383604361F2E7002380F83930012392
:10339000EDE7003B18BF012380F83D30EEE700BFAA
:1033A000FC4E0308075603089D50030890F825209B
:1033B0001AB190F8242002B11860704770B5044625
:1033C000164629B1314BE721314A32482FF0E0FF50
:1033D00090F8393033B1304B1B6893F86B20436958
:1033E00013444361E36A002B4DD0E169D4E905320F
:1033F0005343A2684A43934220D2236A002B42D00F
:103400004FF0FF31606D05F0E7F9236A0BB100233F
:10341000E362E36AFBB90125606D05F00DFA94F8EB
:1034200039300BB9236A3BB1E36A2BB90123206D14
:1034300084F83A3005F0C0FA284670BD94F84C0084
:103440000028DDD09B1AB3FBF1F2994298BF02F13C
:10345000FF326262D4E7002294F83C50A362304607
:10346000E262E2682261A2680132A26033633368DB
:103470005B699847002DCED194F83D30002BCBD11D
:1034800084F83950C8E70125C9E700BFFC4E03089E
:10349000DE5703089D500308687B0120034B4FF063
:1034A00080629A604FF080729A60704700E100E09D
:1034B000084B4FF08062C3F88820BFF34F8FBFF3F3
:1034C0006F8F4FF08072C3F88820BFF34F8FBFF328
:1034D0006F8F704700E100E038B5034690F8380080
:1034E00038BB01229860D8609A634FF480725861AB
:1034F0009A874FF4F0729861D861186258629862A6
:10350000D8621863586383F83E00CA864FF4887205
:1035100081F834000A8708639A6C186102F5FF2469
:10352000D3E9101529448C420AD9084B5821084A7E
:1035300003E0084B40F2F511074A08482FF028FF36
:103540001A6302F57F329C645A6338BD3C5B030802
:103550007C5B030882590308B25903089D50030895
:10356000002370B5124E05468380124B036033680A
:1035700093F858200AB1D86C00B998680368DB6AE0
:1035800098473368B0FA80F4D86C640930B10368A6
:10359000DB6A9847002808BF44F001042CB9064BA9
:1035A0002C21064A06482FF0F3FE284670BD00BFC6
:1035B000687B0120EC7B0308225D0308805D030823
:1035C000B95D030870B5254E3568BFF35B8F15F004
:1035D000010540D130462EF0A1FF00283BD0204C01
:1035E000204B04F134002561E584A562A585C4E97A
:1035F0000035C4E902551DF0E8FB04F1580017F04E
:10360000E7FC194B2046A365184B40F8843BFFF7B5
:10361000A7FF174B1748C4F884302433C4F89050E0
:10362000C4F88C304FF4C803C4F89C50C4F8A850B8
:10363000C4E928350023C4F8AC30C4F8B030C4F86D
:10364000B430C4F8B8300C4BC4F898302FF0BEFE3C
:1036500030462EF06FFF024870BD00BF683F00206B
:103660006C3F0020D09503080C7C0308847C030881
:1036700084950308F53000086495030838B5184CA4
:1036800023685BB3174B184A1B6C11888B4216D109
:10369000164B0025198803F07FFD236893F86A20F4
:1036A00083F87C50013283F86A20FEF769FD2068B8
:1036B00015F068FE2846BDE83840FEF763BB03F00E
:1036C0006BFD2468236820461B6A9847012300206D
:1036D00084F87C30BDE83840FEF784BB38BD00BFBD
:1036E000687B012000680140663F0020643F0020A5
:1036F0002DE9F74304464FF4707894F83A304FF0D0
:10370000FF31002B31D0606D05F066F8276BA36A9E
:10371000BB4200D1676B266A656856B32B68314699
:1037200028465B6A98470023236284F83B30606D2B
:1037300005F082F82B684FF4F0723946CDF800801E
:1037400028465E694FF48873B0474FF0FF31064654
:10375000606D05F041F894F83B30E3B1002384F844
:103760003B30606D05F068F8C7E7206D05F0E8F8BC
:10377000C3E7636A002BDAD02B682846D3E90993A4
:103780009847616A01442846C847A368626A66622E
:103790001344A360CBE7E7625EB12B6828469B6ABF
:1037A000984701380023E06084F83C6084F83A30A0
:1037B000D7E70120F6E70000014808B5FFF798FFBA
:1037C000284000200368042270B504465E6A002386
:1037D0000D46B0474FF0FF31606D04F0FDFF382318
:1037E00003FB0542D16A09B10021D16203FB054503
:1037F000012385F83B30002385F83930606DBDE842
:10380000704005F019B838B500EB810304460D4649
:10381000114658680368DB68984729462046FFF739
:10382000D1FF38BD70B50D461146044600EB850248
:103830005068026896681A46B04729462046FFF746
:10384000C1FF70BD38B5164900251648FEF76EFF5A
:10385000154C164B01202A46294623604FF48073ED
:10386000A564A38784F84C0084F83E50C4E9105541
:10387000C4E91455C4E90155C4E90355C4E9055523
:10388000C4E90755C4E90955C4E90B55C4E90D5508
:1038900004F0FEFF2065284604F05AFF606538BD3D
:1038A000C84000208040002028400020D07C030831
:1038B000704710B5044604212EF02EFE204610BDA0
:1038C00008B503290FD8DFE801F00A02060A02F062
:1038D000C7F8406808BD02F0C3F88068FAE702F054
:1038E000BFF80068F6E70020F4E7000000487047E2
:1038F0001C7D03080820704713B5002451B10368EC
:1039000001AA01948DF803409C680DF10303A047C0
:1039100002B010BD0846FBE7C0897047008A7047B7
:10392000C088704780887047807A00F07F007047B9
:10393000807AC00970470020704700009FED010A9F
:10394000704700BF00000000704710B50446082112
:103950002EF0E2FD204610BD7047704700F59873C9
:103960000868496803C370477047704741607047F3
:1039700070477047064BC0F84801C0F84C3100232F
:10398000C0F8503100F5A273C0F84031704700BF55
:10399000813B0008012303727047704710B44168EF
:1039A0000346C2689B68541001EB6200D20748BF0F
:1039B0000A595DF8044B48BFD3581847034640687E
:1039C00030B19A681AB9D86800F001007047012038
:1039D000704710B504460C212EF09EFD204610BD08
:1039E00010B5044610212EF097FD204610BD10B5ED
:1039F00004464FF4AE712EF08FFD204610BD10B579
:103A00001BF090FC0368BDE81040DB6B184710B555
:103A10000446D0F8400158B10368DB68984738B1D4
:103A2000D4F8400103689B6898470023C4F84031EC
:103A300010BD00002DE9F14FD0E9556A0746B06886
:103A400003681B6A984740F27353984205D8444B69
:103A5000A321444A44482FF09BFC706803681B6A0A
:103A600098470F2803D8414BA4213E4AF2E7F0685B
:103A700003681B6A98470B2803D83D4BA521394A98
:103A8000E8E7DFF8F4901BF04DFC04301BF06FFC0E
:103A9000D9F8000010B10368DB689847D9F8000036
:103AA00010B103681B689847DFF8D080D8F8000091
:103AB00010B103685B699847D7F83C0110B10368FF
:103AC0005B689847D8F8000010B103681B689847F6
:103AD000D7F83C0110B103689B689847F068002153
:103AE0004FF0000B03685B6A9847224B0446C0F80E
:103AF00004B080F808B059460360B06803685B6A98
:103B00009847054602F0D6F87068594603685B6A24
:103B100098470646294602F0ABF8331DC7F83C61CA
:103B20002846C9F80040C8F80050CAF800302B6891
:103B3000C6F808A0DB68EE639847336830461B6818
:103B40009847214628461DF071FE236820461B69D0
:103B50009847236820465B6901B0BDE8F04F1847DD
:103B60001B5E0308A95E03087B5F0308C25F0308AE
:103B700065600308407E0308B07B0120AC7B012018
:103B80002DE9F14FD0E9556A0746B06803681B6A12
:103B9000984742F27763984205D8444BA321444AA0
:103BA00044482FF0F5FB706803681B6A98470F289C
:103BB00003D8414BA4213E4AF2E7F06803681B6A30
:103BC00098470B2803D83D4BA521394AE8E7DFF891
:103BD000F4901BF0A7FB04301BF0C9FBD9F80000E0
:103BE00010B10368DB689847D9F8000010B103688A
:103BF0001B689847DFF8D080D8F8000010B1036840
:103C00005B699847D7F83C0110B103685B68984737
:103C1000D8F8000010B103681B689847D7F83C013A
:103C200010B103689B689847F06800214FF0000BC3
:103C300003685B6A9847224B0446C0F804B080F8DA
:103C400008B059460360B06803685B6A9847054648
:103C500001F082FF7068594603685B6A9847064620
:103C6000294601F057FF331DC7F83C612846C9F8C3
:103C70000040C8F80050CAF800302B68C6F808A009
:103C8000DB68EE639847336830461B6898472146E7
:103C900028461DF0CBFD236820461B699847236802
:103CA00020465B6901B0BDE8F04F18471B5E030872
:103CB000086103087B5F0308C25F030865600308AF
:103CC000407E0308B07B0120AC7B0120044B1B68C5
:103CD00093F858200AB1D86C00B99868704700BFB3
:103CE000687B0120F8B5174604460E461BF0E0FB42
:103CF000124B00251C602946114B2360114BC4E96F
:103D00005135114B1868C4E953550368C4E94F5540
:103D10009B68C4E955769847284601F055FEFFF7A1
:103D2000D5FF26F0F2FAFFF7D1FF26F069FBFFF787
:103D3000CDFF26F071FB2046F8BD00BFBC7B012003
:103D4000EC7D0308D47D0308687B0120064BC0F896
:103D50004801C0F84C310023C0F8503100F5A2737F
:103D6000C0F84031704700BF813B0008064BC0F8E7
:103D70004801C0F84C310023C0F8503100F5A2735F
:103D8000C0F84031704700BF353A0008406A7047BC
:103D9000806A704770470B888A889BB2D20A10B538
:103DA0004C88C16943EA044351F82200184410BD0D
:103DB00010B50446BAB1107B68B1537BD27A1B02AE
:103DC00003F4E0631A43236A03EB82031A888A42EE
:103DD00002D193F9020010BD05D80138043380B236
:103DE0000028F3D1F7E70020F5E710B504462C21B1
:103DF0002EF092FB204610BD30B58BB00446BDF8C6
:103E000060500895BDF85C5007959DF85050069598
:103E10009DF84C5005959DF8485004959DF84450E8
:103E200003959DF8405002959DF83C500195BDF8D2
:103E3000385000951DF086F8064B20462360159BF0
:103E4000E361169B2362199B63621A9BA3620BB00A
:103E500030BD00BF647E0308806A704770477047BA
:103E600070477047704780F82C10704710B4036893
:103E7000046BD3F8A430624361435DF8044B1847E8
:103E8000D0ED0C7A0368F8EEE77A10B420EE270A3A
:103E9000D3F8A440B5EEC00AF1EE10FA1ADBB6EE84
:103EA000007A30EE070ABDEEC07A17EE101A60EE07
:103EB000A70AF5EEC00AF1EE10FA1EDBF6EE007A64
:103EC00070EEA70AFDEEE07A17EE902A23465DF821
:103ED000044B1847BDEEC07AF8EEC76A17EE103AE9
:103EE000013B30EE660AF7EE086A30EE260ABDEEB8
:103EF000C00A10EE101A1944D9E7FDEEE07AB8EEC8
:103F0000E77A17EE903A013B70EEC70AB7EE087AEF
:103F100070EE870AFDEEE00A10EE902A1A44D5E70B
:103F200010B40368046BD3F8B03062435DF8044BFF
:103F30001847D0ED0C7A0368F8EEE77A10B427EE54
:103F4000800AD3F8B040B5EEC00AF1EE10FA0BDBF0
:103F5000F6EE007A30EE270AFDEEC07A17EE902AD0
:103F600023465DF8044B1847FDEEC07AB8EEE77AB9
:103F700017EE903A013B30EE470AB7EE087A30EE82
:103F8000070ABDEEC00A10EE102A1A44E8E710B482
:103F90000368446BD3F8BC30624361435DF8044B63
:103FA0001847D0ED0D7A0368F8EEE77A10B420EEEA
:103FB000270AD3F8BC40B5EEC00AF1EE10FA1ADBBE
:103FC000B6EE007A30EE070ABDEEC07A17EE101A90
:103FD00060EEA70AF5EEC00AF1EE10FA1EDBF6EE6F
:103FE000007A70EEA70AFDEEE07A17EE902A2346DB
:103FF0005DF8044B1847BDEEC07AF8EEC76A17EEBD
:10400000103A013B30EE660AF7EE086A30EE260AF7
:10401000BDEEC00A10EE101A1944D9E7FDEEE07AA1
:10402000B8EEE77A17EE903A013B70EEC70AB7EEAA
:10403000087A70EE870AFDEEE00A10EE902A1A4424
:10404000D5E710B40368446BD3F8C03062435DF821
:10405000044B1847D0ED0D7A0368F8EEE77A10B4F8
:1040600027EE800AD3F8C040B5EEC00AF1EE10FA90
:104070000BDBF6EE007A30EE270AFDEEC07A17EE83
:10408000902A23465DF8044B1847FDEEC07AB8EE3F
:10409000E77A17EE903A013B30EE470AB7EE087A1E
:1040A00030EE070ABDEEC00A10EE102A1A44E8E707
:1040B000D0F82C31026B002B07DB02EB430090FBA6
:1040C000F2F000EBD070401070476FF0010101FB7F
:1040D0000320013890FBF2F000EBD070401040421A
:1040E0007047D0ED4B7A90ED0C0AF8EEE77AB8EE17
:1040F000C00A87EE800A7047D0F82C017047D0F8CC
:104100003031026B002B07DB02EB430090FBF2F037
:1041100000EBD070401070476FF0010101FB0320ED
:10412000013890FBF2F000EBD07040104042704735
:10413000D0ED4C7A90ED0C0AF8EEE77AB8EEC00AB2
:1041400087EE800A7047D0F830017047D0F83431DC
:10415000426B002B07DB02EB430090FBF2F000EB1D
:10416000D070401070476FF0010101FB032001384F
:1041700090FBF2F000EBD070401040427047D0ED61
:104180004D7A90ED0D0AF8EEE77AB8EEC00A87EEA8
:10419000800A7047D0F834017047D0F83831426B4C
:1041A000002B07DB02EB430090FBF2F000EBD0703A
:1041B000401070476FF0010101FB0320013890FBB4
:1041C000F2F000EBD070401040427047D0ED4E7AD4
:1041D00090ED0D0AF8EEE77AB8EEC00A87EE800A95
:1041E0007047D0F838017047036870B50446D3F8BB
:1041F00088300D46164698472368324629462046A1
:10420000D3F89030BDE8704018470368D3F8943075
:1042100018470368D3F8D43018470368D3F8E03060
:1042200018470368002A10B4D3F8A430046B0EDBDF
:1042300004EB420292FBF4F101EBD1714910B0F9A9
:104240001E215DF8044B013A0A44494218476FF0B9
:10425000010101FB0241013991FBF4F101EBD17144
:1042600049104942EBE70368D3F83C311847026B29
:1042700003685143D3F8483118470368D3F84431F1
:104280001847D0ED0C7A0368F8EEE77AD3F84821A6
:1042900027EE800AB5EEC00AF1EE10FA08DBF6EE62
:1042A000007A30EE270AFDEEC07A17EE901A10471A
:1042B000FDEEC07AB8EEE77A17EE903A013B30EEA9
:1042C000470AB7EE087A30EE070ABDEEC00A10EED4
:1042D000101A1944EBE7C0F83C1170470368D3F893
:1042E00050311847036810B5D3F85C31044698473D
:1042F0000028236B07DB03EB400090FBF3F000EB9F
:10430000D070401010BD6FF0010202FB0030013888
:1043100090FBF3F000EBD07040104042F2E70368EE
:10432000D3F858311847036810B50446D3F85C3108
:10433000984707EE900A94ED0C0AF8EEE77AB8EE8B
:10434000C00A87EE800A10BDD0F83C017047026BAE
:1043500003685143D3F868311847D0ED0C7A0368ED
:10436000F8EEE77AD3F8682127EE800AB5EEC00AA6
:10437000F1EE10FA08DBF6EE007A30EE270AFDEED9
:10438000C07A17EE901A1047FDEEC07AB8EEE77AC1
:1043900017EE903A013B30EE470AB7EE087A30EE5E
:1043A000070ABDEEC00A10EE101A1944EBE7C0F878
:1043B00040117047036810B5D3F87431044698472C
:1043C0000028236B07DB03EB400090FBF3F000EBCE
:1043D000D070401010BD6FF0010202FB00300138B8
:1043E00090FBF3F000EBD07040104042F2E703681E
:1043F00010B50446D3F87431984707EE900A94ED4F
:104400000C0AF8EEE77AB8EEC00A87EE800A10BD13
:10441000D0F8400170470846704703680029026BD6
:10442000D3F8843110B504460EDB02EB410191FB59
:10443000F2F101EBD171491009B220469847D4E955
:104440004F2302FB003010BD6FF0010000FB012183
:10445000013991FBF2F101EBD17149104942EBE7CF
:10446000006B7047406B70470368D3F848311847BA
:104470000368D3F85C311847026B03685143D3F8E3
:1044800014311847036870B5D3F818510446D0F8B2
:104490004461D3F8803198472B4656F820102046C7
:1044A000BDE870401847D0F84831B0F91E011944F2
:1044B000081A7047C1627047C06A70470120704790
:1044C00070477047C06B18B10368D3F88030184745
:1044D000704730B5B2F81A11B2F91441B2F9405030
:1044E0002144B2F842204480521A00218580018084
:1044F000C28030BD10B54280BDF90840BDF90C2026
:1045000004808280C38010BD0B680846D3F8D43085
:1045100018470B680846D3F8E0301847B1F9140182
:104520007047B1F81431B1F81A21B1F842001344C0
:10453000C01A00B27047B1F916017047B1F81631D0
:10454000B1F81821B1F840001344C01A00B2704706
:104550000B6808461146D3F81431184730B5B2F944
:104560001651B2F81841B2F840102C44B2F942206A
:104570000580091B0024C2804480818030BD0280F8
:104580008380BDF90020BDF904304280C3807047AC
:104590000B680846D3F8EC3018470B680846D3F888
:1045A000F8301847B1F916017047B1F81631B1F873
:1045B0001821B1F840001344C01A00B27047B1F995
:1045C00014017047B1F81431B1F81A21B1F8420062
:1045D0001344C01A00B270470B6808461146D3F85E
:1045E0001831184730B585B00368044601816D461F
:1045F0000146D3F884303C342846984795E80700B4
:1046000084E8070005B030BD30B585B003680446C6
:1046100041816D460146D3F884303C3428469847A2
:1046200095E8070084E8070005B030BD002202804D
:1046300042808280C280704780F8361070470368DD
:1046400070B504461B6B15469847236820462946DB
:104650005B6EBDE87040184700207047806C704763
:1046600070477047704770477047704730B4446870
:104670000346C2689B68551004EB6200D20748BF2E
:10468000625930BC48BFD35818470346406830B120
:104690009A681AB9D86800F0010070470120704785
:1046A00010B504464C212DF037FF204610BD10B543
:1046B000044640F28C712DF02FFF204610BD10B53E
:1046C000044640212DF028FF204610BD10B50446B9
:1046D00040212DF021FF204610BD10B504461021C9
:1046E0002DF01AFF204610BD38B503460846D3E921
:1046F0000C540B68D3F88C30984729460246204664
:10470000BDE8384017F068B838B503460846D3E925
:104710000C540B68D3F8943098472946024620463B
:10472000BDE8384017F058B8034B10B50446036095
:1047300019F046F9204610BDE4820308064B10B577
:104740000446036019F03CF942F2786120462DF0EE
:10475000E3FE204610BD00BFE482030808B590F8D0
:104760002C300BB1FEF776FD08BD08B5FEF772FDE3
:1047700008BD00000A1E10B503DBB0F91E419442CB
:1047800006DC084B40F23961074A08482EF000FE6B
:104790000368D0F84441D3F88031984754F820009A
:1047A00010BD00BFDA610308FD6103084C62030815
:1047B0000B1E10B5044603DBB0F91E219A4206DC3D
:1047C000074B40F23361074A07482EF0E1FD0368CA
:1047D000D3F884319847D4E94F2302FB003010BD51
:1047E000DA610308A96203084C620308036870B524
:1047F0005E6B0446114B8DB21B682BB9104B6C21BC
:10480000104A11482EF0C4FD1049828D098891424A
:1048100003D80F4B6D210B4AF3E713F812200D4B11
:104820001B6853F8220003681B6B9847291A33460C
:10483000204609B2BDE87040184700BFC07B012088
:10484000F86203083A63030875630308C47B012018
:10485000BC630308C87B012000F6E800884208B565
:1048600005D11AF05FFDBDE80840FFF77FBA08BD2B
:1048700000224FF0FF318260C0E9002170470368D9
:1048800070B504461B6B1546984723682046294699
:104890005B6BBDE87040184770B504461D46BDF916
:1048A0001060FFF7ECFF2368294620469B6B984772
:1048B000236831462046DB6BBDE870401847000096
:1048C0000022C0E90122C0E90322C0E90522C0E9B3
:1048D00007224FF480728284014A0260704700BF51
:1048E000CC7E030810B50446262200212FF00EF8D6
:1048F0002046FFF7E5FF044B20462360FF2384F8A2
:1049000026300023A36210BD689A030837B501ABB7
:1049100015461CF015FC00282A4601994FEA401460
:104920004FF0200004DB1CF02AFC204403B030BD13
:104930001CF025FC201AF9E770B5B0F81A310E46C4
:10494000B0F91441B0F842502344ED1A2DB22C4472
:10495000691ED0E94D32013CD21AF01AFFF7D6FF9A
:10496000C0EB441070BD38B504460D46B4F816319E
:10497000B4F818110B44B4F84010C91AD0E94B022E
:1049800009B2121A281A0139FFF7C0FFB4F916311B
:1049900000EB431038BD000010B50446262200216C
:1049A0002EF0B4FF2046FFF78BFF0A4B4FF47F0237
:1049B00020462360084BA3624FF6FF73A3850023B4
:1049C000C4E90C324FF0FF322387E363C4E91023BC
:1049D00010BD00BFD8990308C47D03082DE9F04F2E
:1049E000044693B000251CF075FDA146DA4B04F196
:1049F0006C0A04F19807E563012649F8403B4846F4
:104A0000FFF770FF5046FFF76DFF4FF4C87138464F
:104A100004F61C1B16F07CFED04B40F28F12294688
:104A2000C4F8983004F5F2733846DFF87083C4E9AF
:104A30007565C4E97735FFF719FAC94BC4F89830A2
:104A400004F624031846079316F0C2FA0A23C4F8A2
:104A50005468C4F85838C34B84F85C68C4F82438E8
:104A600004F66403C4F850581846C4F86058089314
:104A700016F0AEFA0A23C4F8946884F89C68C4F867
:104A80009838B94BC4F89058C4F8643804F6A403B5
:104A9000C4F8A0581846099316F09AFAB34BC4F814
:104AA000A4384FF0020384F8D03804F6D403184633
:104AB0000693FEF755FDAE4B26222946C4F8D4389E
:104AC0002433C4F8E058C4F8DC3804F6E803184688
:104AD00005932EF01BFF0598FFF7F2FEA54B84F817
:104AE0000C695846C4F8E8384FF6FF73C4F81059FB
:104AF000A4F81639A4F8183984F81A3984F8145926
:104B0000FFF74AFF04F6641318460293FFF744FFC9
:104B100004F51B63C4F864891846C4F8AC590393C0
:104B2000FFF73AFF04F6FC13C4F8B089C4F8F8594B
:104B300018460493FFF730FF04F500538E4A4FF4F4
:104B4000E151C4F8FC8904F64820C4F8445A04F141
:104B50000408C3F86826894AC3F86C46C3F870266F
:104B6000C3F8745618F022FF4FF488732A4648465B
:104B7000294600934FF4F073FFF78EFE4FF07F430A
:104B800049464046A3664FF0FF3913F0B7F84FF49B
:104B900088732A465046294600934FF4F073FFF776
:104BA0007BFE4FF07F4351464046C4F894304FF0AF
:104BB000460A13F0A3F8C82338460B220F210093AE
:104BC0004FF4E173FFF768FE314638462A46FFF797
:104BD0000BFB38462B462A462946009516F049FD20
:104BE0002B4638462A462946009516F069FC384679
:104BF0004FF482722946FFF7CAF9D4F854185020AE
:104C0000324684F85C684843C4F85098002884F819
:104C10004AA8B8BF4042C4F8580816F0DDFD07990D
:104C2000C4F858083846C4F8546816F054FCD4F850
:104C30009418324684F89C684801C4F8909884F827
:104C40008AA80028B8BF4042C4F8980816F0C4FDEE
:104C50000899C4F898083846C4F894680AAE16F063
:104C60003AFC474B38460999C4F8E0384CF2E25315
:104C7000A4F8E438069BC4F8CC38032384F8D03871
:104C800016F029FC394640463E4F13F037F8DC2237
:104C90000F210598FFF7F3FD4FF0020310AA0FA9AB
:104CA000ADF83C3004230598ADF8403017F04AFECB
:104CB000CD230599404684F81A3904F51953283351
:104CC000C4F8103913F01AF8E1222C215846FFF7E6
:104CD000D6FD59463046C4F84C99A4F8505917F0FF
:104CE00039FB04F6581396E8070083E807001223FF
:104CF00010A958461097ADF8443017F0C5FD594635
:104D0000404612F0FBFFE12296210298FFF7B7FD23
:104D1000D4F8643902993046D3F88430C4F89499B1
:104D2000A4F89859984704F51A6396E8070083E8B1
:104D30000700154B1A682AB9144B6021144A15480C
:104D40002EF026FBDFF858B0BBF80020102A29D837
:104D5000114B61210E4AF2E7E4820308949603089E
:104D600034810308347F0308EC7F03085C9903084F
:104D700084950308D09A0308CC8203085948000898
:104D800016BCC4FFC47D0308C07B0120F862030881
:104D9000FA63030875630308BC630308A48003086F
:104DA000C47B0120DFF818A11021DAF8000000F020
:104DB00047FEC4F8AC09029817F046FD112210A96D
:104DC0000298ADF84420109717F05EFD0299404616
:104DD00084F8895912F092FFE1224FF48771039809
:104DE000FFF74DFDD4F8B02903993046D2F884205E
:104DF000C4F8E099A4F8E459904704F6EC1C2F4B52
:104E000096E807008CE807001A68002A94D0BBF8DF
:104E100000200E2A9CD90E21DAF8000000F010FEC6
:104E2000C4F8F809039817F00FFD0F2210A9039892
:104E3000ADF84420109717F027FD0399404684F8F9
:104E4000D55912F05BFFE12294210498FFF717FD7A
:104E5000D4F8FC2904993046D2F88420A4F8305ABA
:104E600004F63825C4F82C9A9047144B96E80700AE
:104E70001B6885E80700002B3FF45EAFBBF80030ED
:104E80000A2B7FF665AF0A21DAF8000000F0D8FDA2
:104E9000C4F8440A049817F0D7FC0B2310A904980F
:104EA000ADF84430109717F0EFFC4046049912F02B
:104EB00025FF204613B0BDE8F08F00BFC07B012066
:104EC000CC7B012070477047704770477047704730
:104ED0007047704770477047704770B44568034625
:104EE000C4689B68661005EB6400E40744BFAC59D6
:104EF000E35870BC18470346406830B19A681AB945
:104F0000D86800F0010070470120704730B4446851
:104F10000346C2689B68551004EB6200D20748BF85
:104F2000625930BC48BFD35818470346406830B177
:104F30009A681AB9D86800F00100704701207047DC
:104F400030B444680346C2689B68551004EB6200A5
:104F5000D20748BF625930BC48BFD35818470346F0
:104F6000406830B19A681AB9D86800F001007047FB
:104F70000120704790F82D3080F85C30704710B5F4
:104F8000044664212DF0C8FA204610BD10B5044631
:104F900010212DF0C1FA204610BD10B50446102195
:104FA0002DF0BAFA204610BD10B5044610212DF0A0
:104FB000B3FA204610BD10B5044640F274512DF0EE
:104FC000ABFA204610BD0146343091F82C3013B1B5
:104FD000623117F0F0BD6031FBE710B50446006B9D
:104FE00050B10368DB68984730B1206B21460368F5
:104FF000BDE810409B68184710BD00F58A728A42D0
:1050000002D10368DB6A1847704700F5277399429D
:1050100070B504460E46154603D1036811461B6B56
:10502000984704F564739E4206D1236829462046BA
:105030009B6BBDE87040184770BD00F5277399421F
:1050400070B504460E46154603D1036811465B6BE6
:10505000984704F564739E4206D12368294620468A
:10506000DB6BBDE87040184770BD0B7970B5044626
:105070000D4690F82C600BB916B170BD002EFCD017
:10508000B3FA83F320465B0984F82C302368D3F805
:105090008C309847236820465B699847002EECD0F7
:1050A0002B79012BE9D123682046D3F88830BDE85D
:1050B000704018479830884208B505D11AF032F987
:1050C000BDE80840FEF742BE08BD036870B504465F
:1050D0009B6B15469847236820462946DB6BBDE845
:1050E000704018470B8870B50546A0F860301388EB
:1050F000044625F8623F28461EF05EF9064628461B
:105100001EF08EF9314602462046FFF7DEFF236887
:105110002046D3F88C30BDE8704018474FF47F43E9
:10512000F7B5838540F201130025064683844FF6C8
:10513000FF771A4B04462622294685620563ADF89F
:105140000470C0E90155C0E90355C0E90555C0E93F
:10515000075546F8343B30462EF0D8FB3046FFF773
:10516000AFFB0F4B01A930466363BDF8043084F8F0
:105170005C70A4F85A3017F01EFD2A4629463046C6
:10518000A4F86070A4F86270FFF779FB20463146FE
:1051900012F0B4FD204603B0F0BD00BF1883030831
:1051A000449B03082DE9F04F044693B000251CF002
:1051B00091F92646D84B04F16C0B04F1980AE5638B
:1051C00004F1CC0946F8403B3046FFF78BFB5846CC
:1051D000FFF788FB2622294650462EF097FB5046C3
:1051E000FFF76EFB4FF0010304F58A78484684F818
:1051F000BC30CA4BC4F8C050C4F898304FF6FF73A7
:1052000084F8C450A4F8C630A4F8C83084F8CA3072
:10521000FFF7C2FB4046FFF781FF04F5BC73C04FA8
:1052200018460693FFF7B8FB04F5E073184607939A
:10523000FFF7B2FB04F5027318460893FFF7ACFBC7
:1052400004F5147318460493FFF7A6FB04F52773BF
:10525000C4F850721846C4F89852029313F014FA26
:1052600004F564731846039313F00EFA04F28443B2
:1052700018460593FFF790FB04F59A63C4F884740D
:105280001846C4F8CC540993FFF786FBA54B30466B
:10529000A54A2946C4F83435A44BC4F8D074271D58
:1052A000C4F83C35A24BC4F85C252A46C4F8443502
:1052B000A04BC4F81855C4F84C359F4BC4F838457A
:1052C000C4F85435C4F864359C4BC4F84055C4F850
:1052D0006C35C4F84845C4F85055C4F85845C4F86E
:1052E0006055C4F86845C4F87055FFF7C8FA4FF424
:1052F000887230464FF4F071FFF7E7FE4FF07F43BE
:1053000031463846A3660AAE12F0F8FC58462A46E3
:105310002946FFF7B4FA4FF4887258464FF4F071FB
:10532000FFF7D3FE4FF07F4359463846C4F8943018
:105330004FF0FF3B12F0E2FC5046DC220F21FFF75A
:105340009EFA4FF0020310AA5046ADF83C304FF0E1
:1053500004030FA9ADF8403017F0F4FACD235146FD
:105360003846DFF8F0A184F8CA3004F23453C4F8A8
:10537000C03012F0C3FCE12248462C21FFF77FFA2F
:1053800049463046C4F8FCB0A4F8005116F0E2FFDC
:1053900004F5847396E8070083E807000C23484669
:1053A00010A9CDF840A0ADF8443017F06DFA494689
:1053B000384612F0A3FC4FF003024FF004034046BE
:1053C0000FA9ADF83C2010AAADF84030FFF78AFED7
:1053D0002A46294604F5A470FFF751FA04F2445313
:1053E00040461222C4F844315921FFF748FA2622D8
:1053F00040466621FFF769FE414638464FF00608F1
:1054000012F07CFC192206981146DFF84C91FFF748
:1054100036FA06993046C4F8A8B1A4F8AC5116F093
:1054200099FF04F5DA7396E8070083E8070009237B
:1054300010A90698ADF84430CDF840A017F024FA32
:105440000699384612F05AFC452219210798FFF7B1
:1054500016FA07993046C4F8F0B1A4F8F45116F0E2
:1054600079FF04F5FE7396E8070083E8070010A9AA
:105470000798CDF840A0ADF8448017F005FA0799D9
:10548000384612F03BFC8E2219210898FFF7F7F9F5
:1054900008993046C4F838B2A4F83C5216F05AFFC6
:1054A00004F5117396E8070083E807004FF0050341
:1054B00010A90898ADF84430CDF840A017F0E4F9F1
:1054C0000899384612F01AFC16226A210498FFF750
:1054D000D6F9D4F8503204993046D3F88430C4F861
:1054E00080B2A4F88452984704F5237396E8070025
:1054F00083E80700D9F800302BB9114B6021114A1D
:1055000011482DF045FF114B1B88072B26D8104B57
:1055100061210C4AF4E700BF00840308D09A030815
:10552000A4800308B88303080B500008B550000896
:10553000D0830308FB4F0008E88303083B500008B2
:10554000F8620308FA63030875630308C47B01204B
:10555000BC630308C47D0308C07B0120814B072185
:10556000186800F06DFAC4F89802049817F06CF906
:10557000082310A90498ADF84430CDF840A017F0E6
:1055800083F90499384612F0B9FB63225721029837
:10559000FFF775F910A84FF007024FF00501034619
:1055A0000FA8ADF8382002460EA8ADF83C10014611
:1055B0000298ADF8408013F0C1F84FF496702B4676
:1055C0000B221021CDE90050029812F0BEFF4FF4DB
:1055D0007A722946029812F05EFE2946029812F06D
:1055E00022FE04F2545002990490C4F8880304F295
:1055F00064500690C4F88C03384612F07FFBAC224E
:1056000057210398FFF73BF94FF007024FF00501D0
:105610000398ADF8382010AAADF83C100EA9134637
:105620000FAAADF8408013F089F84FF496722B461C
:1056300010210398CDE900520B2212F086FF1F22A1
:105640002946039812F027FE2946039812F0EBFD35
:10565000049A03993846C4F87C24069AC4F8802436
:1056600012F04CFB452257210598FFF708F9182244
:1056700068210598FFF729FDD4F884343046059950
:10568000D3F88430C4F8B4B4A4F8B854984704F5F7
:10569000986396E8070083E80700D9F8003004F221
:1056A0001C56002B3FF429AF2F4A1388032B7FF69B
:1056B0002EAF2C4B0321186800F0C2F92B4A034689
:1056C000414630461DF0C4FB4FF004010598ADF88B
:1056D000441010A9C4F8CC64CDF840A017F0D4F859
:1056E0000599384612F00AFB8E2257210998FFF7D8
:1056F000C6F8D9F80030A4F80455C4F80C55C4F81D
:10570000145504F5A565C4F800B5C4F810B5002B10
:105710003FF4F3AE144A1388012B7FF6F8AE114B19
:105720000121186800F08CF9104A034641462846CA
:105730001DF08EFB0998C4F8185517F085F84FF046
:10574000020310A90998ADF84430CDF840A017F035
:105750009BF83846099912F0D1FA204613B0BDE8FB
:10576000F08F00BFCC7B0120C47B01209275030821
:105770007047000030B5164D8FB02C68BFF35B8FBB
:1057800014F0010420D128462CF0C8FEE0B13F23DC
:10579000012210490993104B10480893104B0A94AA
:1057A0000594CDE906430423CDE903320A23CDE96C
:1057B0000B440093CDE90144FEF71EFB09482DF090
:1057C00005FE28462CF0B6FE04480FB030BD00BFE1
:1057D0004848002040BE019074A403084C480020B3
:1057E000ECA40308715700087047000030B5174D4E
:1057F0008FB02C68BFF35B8F14F0010422D12846D0
:105800002CF08CFEF0B13F23292211490993114B52
:1058100011480893114B0A940793012301940493B0
:10582000CDE905430423CDE902431423CDE90B441C
:1058300000931823FEF7E0FA09482DF0C7FD28462B
:105840002CF078FE04480FB030BD00BF784800202F
:1058500050BE019078A403087C480020F0A40308FF
:10586000E95700087047000030B5164D8FB02C681E
:10587000BFF35B8F14F0010420D128462CF04EFEBC
:10588000E0B13F23012210490993104B10480893BF
:10589000104B0A940594CDE906430423CDE9033265
:1058A0002823CDE90B440093CDE90144FEF7A4FA87
:1058B00009482DF08BFD28462CF03CFE04480FB023
:1058C00030BD00BFA848002090C00190E8A40308A4
:1058D000AC480020F4A40308655800080020704775
:1058E000002070470EB403B503AB002153F8042B1E
:1058F00001931AF0A5FD02B05DF804EB03B0704708
:105900000CB407B504AB53F8042B01931AF098FDBF
:1059100003B05DF804EB02B070470000436C10B5B3
:10592000044673B3038F2BB9184BC521184A194885
:105930002DF02EFDC38E00EB43035B8C0BB31CF0EC
:10594000D3FC238F012B03D8134BCB21134AEEE753
:10595000E28E40F63F10531C9BB2092B194688BFBC
:10596000A3F10A0104EB4101498C814209D10A2BC0
:1059700004EB420228BF0023508C04EB43035884FD
:1059800051842046BDE810401CF0B0BB45640308BC
:105990004E640308F964030843650308516503086E
:1059A0001CF06DBB10B586B002AC84E806001A4648
:1059B0000AAB214605930193099B0093089B19F0BC
:1059C00095F806B010BD000038B518BB124B13484F
:1059D0001C681349B4B12268224402606268224400
:1059E0000A60A26814440F4B00221A8000F038F8B5
:1059F000054600F033F80C4B1C600C4B1D600C4B43
:105A0000188007E00B4B03600B4B0B600B4B1C68C3
:105A1000002CE8D138BD00BFE4480020DC4800205D
:105A2000D8480020E0480020C07B0120C87B01202E
:105A3000C47B0120ECC00190A0C00190C0C10190C6
:105A4000044B1B6853F82100034B1B6803EB400019
:105A5000704700BFD8480020DC4800201320704762
:105A600000487047E848002010B5054CFFF7BEFE1F
:105A70002060FFF7F9FE6060FFF77CFEA06010BDBC
:105A8000E848002010B5002404600C6014601C601D
:105A900010BD704710B504464FF4AE712CF03CFDBC
:105AA000204610BD10B50446D0F8580100F014F897
:105AB0002046BDE8104019F0B7BC000010B5044600
:105AC000FEF710F9014B2046236010BD48840308FF
:105AD00000220260704700000068024903689B686A
