:020000040800F2
:1000000000000520652400087523000877230008F8
:10001000792300087B2300087D23000800000000EE
:1000200000000000000000000000000051C30008B4
:100030007F23000800000000F1C3000855C4000839
:10004000B5240008B5240008B5240008B52400082C
:10005000B5240008B5240008B5240008B52400081C
:10006000B5240008B5240008B5240008B52400080C
:10007000B5240008B5240008B5240008B5240008FC
:10008000B5240008B5240008B5240008B5240008EC
:10009000B5240008B5240008B5240008B5240008DC
:1000A000B5240008B5240008B5240008B5240008CC
:1000B000B5240008B5240008B5240008B5240008BC
:1000C000B5240008B5240008B5240008B5240008AC
:1000D000B5240008B5240008B5240008B52400089C
:1000E000B5240008B5240008B5240008B52400088C
:1000F000B5240008B5240008B5240008B52400087C
:10010000B5240008B5240008B5240008B52400086B
:10011000B5240008B524000881230008B524000890
:100120008D230008B5240008B5240008B524000874
:10013000B5240008B5240008B5240008B52400083B
:10014000B5240008B5240008B5240008B52400082B
:10015000B5240008B5240008B5240008B52400081B
:10016000B5240008B5240008B5240008B52400080B
:10017000B5240008B5240008B524000800000000DC
:10018000B5240008B5240008B5240008B5240008EB
:10019000B5240008B5240008B5240008B5240008DB
:1001A00099230008B5240008A5230008B5240008F9
:1001B000B5240008B5240008B5240008B5240008BB
:0801C000B5240008B524000875
:1001D00010B5054C237833B9044B13B10448AFF381
:1001E00000800123237010BD4003002000000000A8
:1001F000CCA3030808B5034B1BB103490348AFF375
:10020000008008BD0000000044030020CCA30308C8
:1002100001F0FF01102A2BDB10F0070F08D010F8B7
:10022000013B013A8B422DD010F0070F42B3F6D1BB
:10023000F0B441EA012141EA014122F007047FF0D4
:1002400000070023F0E80256083C85EA010586EA2B
:10025000010685FA47F5A3FA87F586FA47F6A5FA67
:1002600087F68EB9EED1F0BC01F0FF0102F0070273
:1002700032B110F8013B013A83EA010313B1F8D11E
:100280000020704701387047002D06BF35460338FF
:10029000073815F0010F07D1013015F4807F02BF38
:1002A000013015F4C03F0130F0BC0138704700BF89
:1002B00081F0004102E000BF83F0004330B54FEA17
:1002C00041044FEA430594EA050F08BF90EA020F84
:1002D0001FBF54EA000C55EA020C7FEA645C7FEA17
:1002E000655C00F0E2804FEA5454D4EB5555B8BF3A
:1002F0006D420CDD2C4480EA020281EA030382EAAB
:10030000000083EA010180EA020281EA0303362D3C
:1003100088BF30BD11F0004F4FEA01314FF4801C0F
:100320004CEA113102D0404261EB410113F0004F21
:100330004FEA03334CEA133302D0524263EB4303D8
:1003400094EA050F00F0A780A4F10104D5F1200E76
:100350000DDB02FA0EFC22FA05F2801841F10001D1
:1003600003FA0EF2801843FA05F359410EE0A5F1A5
:1003700020050EF1200E012A03FA0EFC28BF4CF0D6
:10038000020C43FA05F3C01851EBE37101F000458C
:1003900007D54FF0000EDCF1000C7EEB00006EEB99
:1003A0000101B1F5801F1BD3B1F5001F0CD3490823
:1003B0005FEA30004FEA3C0C04F101044FEA44527A
:1003C00012F5800F80F09A80BCF1004F08BF5FEA01
:1003D000500C50F1000041EB045141EA050130BDE1
:1003E0005FEA4C0C404141EB0101013C28BFB1F5F3
:1003F000801FE9D291F0000F04BF01460020B1FA3E
:1004000081F308BF2033A3F10B03B3F120020CDA10
:100410000C3208DD02F1140CC2F10C0201FA0CF0EE
:1004200021FA02F10CE002F11402D8BFC2F1200C53
:1004300001FA02F120FA0CFCDCBF41EA0C01904009
:10044000E41AA2BF01EB0451294330BD6FEA040452
:100450001F3C1CDA0C340EDC04F11404C4F120023D
:1004600020FA04F001FA02F340EA030021FA04F34F
:1004700045EA030130BDC4F10C04C4F1200220FAA6
:1004800002F001FA04F340EA0300294630BD21FAE4
:1004900004F0294630BD94F0000F83F4801306BFAA
:1004A00081F480110134013D4EE77FEA645C18BF9E
:1004B0007FEA655C29D094EA050F08BF90EA020F35
:1004C00005D054EA000C04BF1946104630BD91EA2D
:1004D000030F1EBF0021002030BD5FEA545C05D130
:1004E0004000494128BF41F0004130BD14F580046F
:1004F0003CBF01F5801130BD01F0004545F0FE41E3
:1005000041F470014FF0000030BD7FEA645C1ABF17
:10051000194610467FEA655C1CBF0B46024650EA4E
:10052000013406BF52EA033591EA030F41F400217A
:1005300030BD00BF90F0000F04BF0021704730B500
:100540004FF4806404F132044FF000054FF00001D5
:1005500050E700BF90F0000F04BF0021704730B596
:100560004FF4806404F1320410F0004548BF40426B
:100570004FF000013EE700BF42004FEAE2014FEAC0
:1005800031014FEA02701FBF12F07F4393F07F4F9B
:1005900081F06051704732F07F4208BF704793F09E
:1005A0007F4F04BF41F40021704730B54FF46074B1
:1005B00001F0004521F000411CE700BF50EA0102B4
:1005C00008BF704730B54FF000050AE050EA01025D
:1005D00008BF704730B511F0004502D5404261EBCD
:1005E00041014FF4806404F132045FEA915C3FF40E
:1005F000D8AE4FF003025FEADC0C18BF03325FEAAB
:10060000DC0C18BF033202EBDC02C2F1200300FA5B
:1006100003FC20FA02F001FA03FE40EA0E0021FA80
:1006200002F11444BDE600BF70B54FF0FF0C4CF46E
:10063000E06C1CEA11541DBF1CEA135594EA0C0F20
:1006400095EA0C0F00F0DEF82C4481EA030621EA5B
:100650004C5123EA4C5350EA013518BF52EA033596
:1006600041F4801143F4801338D0A0FB02CE4FF048
:100670000005E1FB02E506F00042E0FB03E54FF078
:100680000006E1FB03569CF0000F18BF4EF0010E70
:10069000A4F1FF04B6F5007F64F5407404D25FEA6C
:1006A0004E0E6D4146EB060642EAC62141EA55511F
:1006B0004FEAC52040EA5E504FEACE2EB4F1FD0C61
:1006C00088BFBCF5E06F1ED8BEF1004F08BF5FEADF
:1006D000500E50F1000041EB045170BD06F0004691
:1006E00046EA010140EA020081EA0301B4EB5C043E
:1006F000C2BFD4EB0C0541EA045170BD41F4801136
:100700004FF0000E013C00F3AB8014F1360FDEBF5A
:10071000002001F0004170BDC4F10004203C35DA36
:100720000C341BDC04F11404C4F1200500FA05F3B9
:1007300020FA04F001FA05F240EA020001F000425A
:1007400021F0004110EBD37021FA04F642EB0601D0
:100750005EEA430E08BF20EAD37070BDC4F10C04FA
:10076000C4F1200500FA04F320FA05F001FA04F2BE
:1007700040EA020001F0004110EBD37041F10001AA
:100780005EEA430E08BF20EAD37070BDC4F12005B5
:1007900000FA05F24EEA020E20FA04F301FA05F21D
:1007A00043EA020321FA04F001F0004121FA04F2C5
:1007B00020EA020000EBD3705EEA430E08BF20EA95
:1007C000D37070BD94F0000F0FD101F000464000CF
:1007D00041EB010111F4801F08BF013CF7D041EA51
:1007E000060195F0000F18BF704703F00046520055
:1007F00043EB030313F4801F08BF013DF7D043EA26
:100800000603704794EA0C0F0CEA135518BF95EADB
:100810000C0F0CD050EA410618BF52EA4306D1D162
:1008200081EA030101F000414FF0000070BD50EA81
:10083000410606BF1046194652EA430619D094EA0B
:100840000C0F02D150EA013613D195EA0C0F05D1F5
:1008500052EA03361CBF104619460AD181EA030149
:1008600001F0004141F0FE4141F470014FF0000001
:1008700070BD41F0FE4141F4780170BD70B54FF09C
:10088000FF0C4CF4E06C1CEA11541DBF1CEA13551C
:1008900094EA0C0F95EA0C0F00F0A7F8A4EB0504FE
:1008A00081EA030E52EA03354FEA013100F08880F5
:1008B0004FEA03334FF0805545EA131343EA1263BE
:1008C0004FEA022245EA111545EA10654FEA002673
:1008D0000EF000419D4208BF964244F1FD0404F52C
:1008E000407402D25B084FEA3202B61A65EB030588
:1008F0005B084FEA32024FF480104FF4002CB6EB45
:10090000020E75EB030E22BFB61A754640EA0C00C4
:100910005B084FEA3202B6EB020E75EB030E22BF04
:10092000B61A754640EA5C005B084FEA3202B6EB45
:10093000020E75EB030E22BFB61A754640EA9C0004
:100940005B084FEA3202B6EB020E75EB030E22BFD4
:10095000B61A754640EADC0055EA060E18D04FEA92
:10096000051545EA16754FEA06164FEAC30343EA32
:1009700052734FEAC2025FEA1C1CC0D111F4801FFF
:100980000BD141EA00014FF000004FF0004CB6E7F8
:1009900011F4801F04BF01430020B4F1FD0C88BF97
:1009A000BCF5E06F3FF6AFAEB5EB030C04BFB6EBA2
:1009B000020C5FEA500C50F1000041EB045170BD95
:1009C0000EF0004E4EEA113114EB5C04C2BFD4EBC2
:1009D0000C0541EA045170BD41F480114FF0000E46
:1009E000013C90E645EA060E8DE60CEA135594EAC2
:1009F0000C0F08BF95EA0C0F3FF43BAF94EA0C0FC5
:100A00000AD150EA01347FF434AF95EA0C0F7FF439
:100A100025AF104619462CE795EA0C0F06D152EA8D
:100A200003353FF4FDAE1046194622E750EA410671
:100A300018BF52EA43067FF4C5AE50EA41047FF482
:100A40000DAF52EA43057FF4EBAE12E74FF0FF3CE7
:100A500006E000BF4FF0010C02E000BF4FF0010CB8
:100A60004DF804CD4FEA410C7FEA6C5C4FEA430C31
:100A700018BF7FEA6C5C1BD001B050EA410C0CBF80
:100A800052EA430C91EA030F02BF90EA020F0020E2
:100A9000704710F1000F91EA030F58BF994208BF49
:100AA00090422CBFD8176FEAE37040F00100704706
:100AB0004FEA410C7FEA6C5C02D150EA013C07D15D
:100AC0004FEA430C7FEA6C5CD6D152EA033CD3D0A8
:100AD0005DF8040B704700BF8446104662468C46A2
:100AE0001946634600E000BF01B5FFF7B7FF0028D5
:100AF00048BF10F1000F01BD4DF808EDFFF7F4FFFE
:100B00000CBF012000205DF808FB00BF4DF808ED88
:100B1000FFF7EAFF34BF012000205DF808FB00BFAB
:100B20004DF808EDFFF7E0FF94BF012000205DF8CD
:100B300008FB00BF4DF808EDFFF7CEFF94BF012082
:100B400000205DF808FB00BF4DF808EDFFF7C4FF7B
:100B500034BF012000205DF808FB00BF4FEA410CC4
:100B60007FEA6C5C02D150EA013C0AD14FEA430CA7
:100B70007FEA6C5C02D152EA033C02D14FF00000E4
:100B800070474FF0010070474FEA410212F5001222
:100B900015D211D56FF47873B3EB625212D94FEAC4
:100BA000C12343F0004343EA505311F0004F23FAAE
:100BB00002F018BF404270474FF00000704750EA03
:100BC000013005D111F0004008BF6FF000407047C0
:100BD0004FF00000704700BF4A0011D212F500121A
:100BE00011D20DD56FF47873B3EB62520ED44FEA85
:100BF000C12343F0004343EA505323FA02F0704705
:100C00004FF00000704750EA013002D14FF0FF3042
:100C100070474FF0000070474FEA4102B2F1E043E5
:100C200024BFB3F5001CDCF1FE5C0DD901F0004CD3
:100C30004FEAC0024CEA5070B2F1004F40EB830023
:100C400008BF20F00100704711F0804F21D113F14F
:100C50003872BCBF01F00040704741F480114FEA88
:100C60005252C2F11802C2F1200C10FA0CF320FA11
:100C700002F018BF40F001004FEAC1234FEAD3232E
:100C800003FA0CFC40EA0C0023FA02F34FEA430398
:100C9000CCE77FEA625307D150EA01331EBF4FF021
:100CA000FE4040F44000704701F0004040F0FE403C
:100CB00040F40000704700BF7BB972B90029BEBF85
:100CC00000204FF0004106E008BF00281CBF6FF075
:100CD00000414FF0FF3000F0D3B9ADF1080C6DE9E1
:100CE00004CE002909DB002B1ADB00F04DF8DDF8FB
:100CF00004E0DDE9022304B07047404261EB4101AA
:100D0000002B1BDB00F040F8DDF804E0DDE90223F6
:100D100004B0404261EB4101524263EB4303704730
:100D2000524263EB430300F02FF8DDF804E0DDE905
:100D3000022304B0404261EB41017047524263EB31
:100D4000430300F021F8DDF804E0DDE9022304B0FC
:100D5000524263EB4303704753B94AB9002908BFB5
:100D600000281CBF4FF0FF314FF0FF3000F088B972
:100D7000ADF1080C6DE904CE00F006F8DDF804E0F2
:100D8000DDE9022304B070472DE9F047089D8E4647
:100D900004468846002B4AD18A42174662D9B2FAE5
:100DA00082F64EB1C6F1200301FA06F820FA03F3E9
:100DB000B74043EA0808B4404FEA174E1FFA87FCD1
:100DC000B8FBFEF1230C0EFB118843EA084301FB3C
:100DD0000CF29A4209D9FB1801F1FF3080F0EA8049
:100DE0009A4240F2E78002393B449A1AA3B2B2FB1E
:100DF000FEF00EFB102243EA024300FB0CFC9C4574
:100E000009D9FB1800F1FF3280F0D6809C4540F2F2
:100E1000D3803B44023840EA0140A3EB0C0300219D
:100E20001DB1F3400022C5E90032BDE8F0878B42D6
:100E300005D90DB1C5E9000100210846F5E7B3FA6F
:100E400083F1002946D1734502D3824200F2058125
:100E5000841A6EEB030201209046002DE5D0C5E90F
:100E60000048E2E7002A00F09080B2FA82F6002EF5
:100E700040F0A4808A1A030C4FEA174E80B2BCB22D
:100E80000121B2FBFEFC0EFB1C2243EA024304FBE1
:100E90000CF29A4207D9FB180CF1FF3802D29A42A1
:100EA00000F2E080C4469B1AB3FBFEF20EFB123345
:100EB00040EA034302FB04F49C4207D9FB1802F109
:100EC000FF3002D29C4200F2CA8002461B1B42EA5B
:100ED0000C40A5E7C1F120068B4022FA06F71F431C
:100EE0000EFA01F420FA06F32EFA06FE4FEA17492D
:100EF000234300FA01F81FFA87FCBEFBF9F01C0C33
:100F000009FB10EE44EA0E4400FB0CFEA64502FA73
:100F100001F209D93C1900F1FF3A80F09C80A64506
:100F200040F2998002383C44A4EB0E041FFA83FE81
:100F3000B4FBF9F309FB13444EEA044403FB0CFC35
:100F4000A44508D93C1903F1FF3E80F08280A445F6
:100F50007FD9023B3C4443EA0040A4EB0C04A0FBD5
:100F600002EC64457346E14662D35FD05DB1B8EBF5
:100F7000030264EB090404FA06F622FA01F31E43A5
:100F8000CC40C5E9006400214FE7B1FBF2FC010C45
:100F900041EA0E4180B240EA01423B4638463C46B7
:100FA000B846BE462026B1FBF7F1A2EB080241EAA3
:100FB0000C4166E7014618E710462CE7C6F120020F
:100FC0002EFA02F3B740B14020FA02F24FEA174E70
:100FD0000A43B3FBFEF8BCB20EFB1833110C41EA16
:100FE000034108FB04F9B04089454FEA104380B241
:100FF0003ED9791808F1FF3C01D289451FD8A1EBF1
:101000000901B1FBFEF909FB04F80EFB191192B2BC
:1010100042EA0142424529D2BA1809F1FF31C4D24D
:101020004245C2D2A9F102013A44BEE7F0459DD241
:10103000BEEB02036CEB070C0138E14696E7A7EB29
:1010400009094944A8F1020CB1FBFEF909FB04F8B7
:10105000DBE773467FE7504666E70846FDE63B441C
:10106000023A33E7ACF1020C3B441CE749469CE7EB
:10107000A1EB0901C446B1FBFEF909FB04F8C4E782
:10108000704700BFF8B5184F15460E4640F6B83207
:1010900039461C4607F03CFB40F6B8323046B918DA
:1010A00007F036FB2846022540F6B8320F4907F014
:1010B0002FFB01220021206884F83E500AF0A8FB93
:1010C00001220421206884F83F500AF0A1FB01228C
:1010D0000821206884F840500AF09AFB2268536C7B
:1010E00043F400435364F8BD74030020E41A002065
:1010F0000268136843F00103136070470E4A08B595
:101100000368934208D180210C4808F0F2F90C4A98
:1011100013680133136008BD0A4A934204D1084A98
:10112000536801335360F6E7074A934201BF044A0C
:10113000936801339360EEE70020014000180240FD
:101140005C03002000210140002201400E4A08B546
:101150000368934208D180210C4808F0CAF90C4A70
:1011600013680133136008BD0A4A934204D1084A48
:10117000536801335360F6E7074A934201BF044ABC
:10118000936801339360EEE70020014000180240AD
:101190006803002000210140002201400149002095
:1011A0000CF0D2BAF12800082DE9F0472A4D0024AE
:1011B00000262A4FAA462DED028BF0EE088AB1EEEA
:1011C000048A0FF28C09D9E9008920460134FFF71F
:1011D000C1F942464B46FFF727FA32463B46FFF736
:1011E00023FAFFF719FD00EE100A36F0C1FBF0EE0E
:1011F000487AE0EE287A17EE900AFFF7BDF9002250
:10120000174BFFF711FAFFF7E7FCB4F5807F05F8FD
:10121000010BDAD1134D144C2B6814485A6A144B45
:101220001A8000222368D1180132C9B2C82A1AF8DC
:10123000011000F8011BF6D1013301221020DBB2AE
:1012400023600C4B1A700AF091FCE5E7AFF30080C5
:10125000182D4454FB211940A32600200000703FA4
:1012600000803940C4280020A4270020A82700209F
:10127000A0260020A226002008B5084A084B0949EC
:1012800009480A4CFFF7FEFE0548FFF731FF2368C7
:101290006420013323600AF069FCF8E7282C002061
:1012A00010290020702C0020B82C00209C26002043
:1012B00010B594B01022002102240AA838F04AF98F
:1012C0001422002103A838F045F91D4B192108A864
:1012D0001A6C42F080521A641B6C03F08053019325
:1012E000019B184B1A6842F440421A6001221B68A5
:1012F00003F440430293029B4FF48033CDE908236B
:101300004FF48003CDE90E434FF4D873CDE9124476
:10131000CDE9101309F0C2F808F02CFE0F230020CD
:101320000721CDE903344FF4A053CDE905034FF471
:10133000805303A8079309F099FA14B010BD00BFB9
:10134000003802400070004030B54FF480738FB019
:101350004FF080720E4D06939F2309920122009355
:1013600000230446694628460593CDE90A2341F245
:101370008832CDE90733CDE90C3308F061FF41F243
:1013800088322146284609F025F80FB030BD00BF4D
:101390005C29002000B54FF4807391B04FF040728B
:1013A000EF2808934FF0EB0302A90D4802934FF486
:1013B000406309934FF4005305934FF00003CDE9C8
:1013C0000A3214BF0A2206220F9307926A46CDE919
:1013D0000D33CDE9003308F077FF11B05DF804FB61
:1013E0005C2900202DE98048A9B0102200214FF08F
:1013F00010441BA8012538F0ADF807F07BFBDC4B4F
:101400001BA8ADF86C50CDE91C4300241E9407F0D6
:101410008FFB17231BA88DF86D508DF874308DF855
:101420007A5007F085FB042007F072FBBFF34F8F63
:10143000BFF36F8FCF4AC2F85042BFF34F8FBFF355
:101440006F8F536943F400335361BFF34F8FBFF382
:101450006F8FC2F88440BFF34F8FD2F8803043F6CD
:10146000E074C3F3C900C3F34E335B0103EA04061F
:10147000014646EA81750139C2F86052F9D2203B33
:1014800013F1200FF2D1BFF34F8F536943F4803330
:101490005361BFF34F8FBFF36F8FDFF8049307F0F3
:1014A0005BF8FFF705FF142200211BA838F052F863
:1014B000D9F830300022102143F01003AE48002448
:1014C0000125C9F830301026D9F8303003274FF005
:1014D0004008DFF8D0B203F010034FF0040A029383
:1014E000029BD9F8303043F00203C9F83030D9F804
:1014F000303003F002030393039BD9F8303043F0FC
:101500000103C9F83030D9F8303003F001030493F7
:10151000049BD9F8303043F04003C9F83030D9F893
:10152000303003F040030593059BD9F8303043F485
:101530000073C9F83030D9F8303003F400730693E3
:10154000069BD9F8303043F00803C9F83030D9F899
:10155000303003F008030793079BD9F8303043F08D
:101560000403C9F83030D9F8303003F0040308938D
:10157000089BD9F8303043F48063C9F83030D9F88B
:10158000303003F480630993099BD9F8303043F07D
:101590002003C9F83030D9F8303003F020030A9323
:1015A0000A9BD9F8303043F48073C9F83030D9F849
:1015B000303003F480730B930B9BD9F8303043F039
:1015C0008003C9F83030D9F8303003F080030C9331
:1015D0000C9B07F089FF01220821684807F084FF6F
:1015E00001224FF48051664807F07EFF0022C0219F
:1015F000644807F079FF1BA95F48CDE91B65CDE979
:101600001D4707F0EDFD4FF400431BA95E481D94F4
:10161000CDE91B3407F0E4FD08231BA95748CDE9A9
:101620001B35CDE91D4407F0DBFD4FF480531BA9AA
:101630005348CDE91B35CDE91D4407F0D1FD80238A
:101640001BA95048CDE91B35CDE91D4407F0C8FD65
:101650001BA94C48CDE91B85CDE91D4707F0C0FD0E
:10166000D9F830302246052143F480033820C9F8E8
:101670003030D9F83030DFF8309103F48003019333
:10168000019B07F0E5F9382007F014FA3F48404B7A
:10169000848003600562C0E9054407F075FA3D4B9C
:1016A0004846C9E90034C9E90244C9E90A44C9E91C
:1016B0000C4407F099FC29464846DFF8F09007F003
:1016C00049FD354B4FF40062C9F814804FF0020811
:1016D0001BA94846C9F80840C9F82840CDF88480BD
:1016E000C9E900344FF4C073C9E906344FF480539C
:1016F000C9E908230723C9E903A6CDE91B83CDE97E
:101700001DA3CDE91F7809F007FC59464FF6FF727B
:1017100048460094CBE90056CBE9025409F01CFC82
:10172000284606F03DFF59464FF6FF724846CBE982
:101730000086CBE9025409F00FFC082359464FF606
:10174000FF724846CBE90076CBE9023409F004FC8D
:101750004FF40C734FF6FF72594600934846009BB6
:10176000CBF80850CBF80C300C4FCBE900A61FE0AB
:101770001B00000300ED00E00004024000280240CE
:10178000002002400018024000000240E42A00202D
:101790000030024000B00240400100A0502A00206A
:1017A0000038024070280020A42A00209028002041
:1017B00009F0D2FB40F22B71484640F2352909F07E
:1017C000EAFB43F2D2024FF0204364204FF4806BD7
:1017D0001A6006F0E5FEC64BC64938463C62C7E9CA
:1017E0000013C7E90245C7E90444C7E9064407F006
:1017F000BCFF2146384608F0DFF921463846BE4F87
:1018000008F000FA342221461BA837F0A3FEBB4B98
:1018100028204FF0350C40F2152E3C61BC8687F82D
:101820003640C7E900340923C7E905030B233846CE
:10183000C7E907C340F21B13C7E909E340F21D13D0
:10184000C7E90244C7E90B9308F080FAFF214FF47F
:10185000F0724FF4887338461B9426934FF000794A
:10186000ADF89C408DF89E40A54FCDE92014052190
:10187000CDE922B14FF040414FF0405BCDE9241259
:10188000CDE91C241BA92246CDE91E3808F029FB0E
:101890009C489D4B18220462C0E900354FF4A063B8
:1018A000C0E902A6C0E90423C0E9064408F076FCBA
:1018B0001BA8FFF749FD9DF86C00FFF76BFD5C204E
:1018C00007F006F900F0CCFD202221461CA837F0D5
:1018D00041FE8E4B1BA938461694BC601B951D9586
:1018E0002195C7E900344FF6FF73CDE91444C7E9E9
:1018F0000334C7E9054409F031FE14A938461694AB
:10190000CDE9144409F092FF324621461BA837F076
:1019100021FE7F4A4FF480337E491046C2F808907A
:101920001461946182F82040D460D56182F830500F
:101930005561C2E90013C2E90A4B06F043FE744A3E
:101940001BA91D941046CDE91B4506F0C1FF324688
:1019500021461BA837F0FEFD6F4A4FF480336F49D4
:101960001046C2F808901461946182F82040C2F8D1
:101970002CB0D460D56182F830505561C2E90013B3
:101980004FF08071916206F01DFE634A1BA91D9401
:101990001046CDE91B4506F09BFF324621461BA8A9
:1019A00037F0D8FD5E4A4FF480335E491046C2F8E6
:1019B00008901461946182F82040D460D56182F867
:1019C00030505561C2E90013C2E90A9B06F0FAFDE6
:1019D000534A1BA91D941046CDE91B4506F078FF1C
:1019E0003246214610A837F0B5FD1C22214614A826
:1019F0000F944D4ECDE90D4437F0ACFD2C2221461D
:101A00001BA837F0A7FD2F234848B461C6E900039F
:101A10003046C6E90248C6E9044409F03FFD4FF4E8
:101A2000805310A93046109309F05AFE304609F051
:101A300065FD0DA930460F94CDE90D4409F0F6FE81
:101A40003023224614A930461A94CDE91435CDE945
:101A50001644CDE9184409F007FE524614A9304651
:101A6000CDF8548009F000FE082214A930461594E0
:101A700009F0FAFD4FF400531BA930461F94CDE93D
:101A80002034CDE91B44CDE91D44CDE92249CDE9FF
:101A9000244409F015FF304600F08EFB00F00CFDE9
:101AA00000F009FD3C21384609F0A3FB09F0D4FF02
:101AB0001F4A21461F480AF009F81F4B1F4A2146BA
:101AC00018601F480AF002F81E4B1F4A2146186092
:101AD0001E4809F0FBFF1E4B1E4A214618601E4897
:101AE00009F0F4FF1D4B186009F0D0FFFEE700BFBE
:101AF00068474020005C0040A829002000680140A1
:101B0000C42800205C290020001000A0000401402F
:101B1000B82C002000200140702C00200021014042
:101B2000282C002000220140102900200000014044
:101B3000A4D70308A91100088C28002080D7030827
:101B4000C7240008882800205CD70308D93F000874
:101B50008428002038D70308791200088028002044
:101B60000268034B9A4201D106F008BD704700BFDE
:101B700000100040704700000D4B82B00F216FF045
:101B800001001A6C42F080521A641A6C02F0805202
:101B90000092009A5A6C42F480425A6400225B6CB4
:101BA00003F480430193019B02B006F051BF00BFD4
:101BB0000038024030B58DB005461422002107A838
:101BC00037F0C8FC2B68504A934238D14F4B4FF046
:101BD000010E07A94E485A6C4E4C42F480725A646A
:101BE0005A6C02F480720192019A1A6B42F001025F
:101BF0001A631B6B03F001030293029B0323CDE9DD
:101C000007E307F0EDFA0023434AA361C4E9002388
:101C10004FF48062C4E904234FF48072E2614FF410
:101C20004032C4E9023322622046636207F024F89E
:101C300008B1FFF79FFFAC63A5630DB030BD374A15
:101C400093422FD1314B012007A9354C5A6C42F4F5
:101C500000725A645A6C02F400720392039A1A6B6F
:101C600042F001021A631B6B03F001030493049B0F
:101C70000323CDE90703264807F0B2FA4FF00073BB
:101C8000DFF8ACC04FF48062C4E900C30023C4E9AC
:101C900004234FF48072A361E2614FF48032C4E9FF
:101CA0000233C0E71F4A9342C7D1184B07A918480F
:101CB0005A6C1D4C42F480625A645A6C02F4806281
:101CC0000592059A1A6B42F001021A6301221B6BFE
:101CD00003F001030693069B0323CDE9072307F0D6
:101CE0007FFA4FF0806311494FF48062C4E900131A
:101CF0000023C4E904234FF48072A361C4E90233D2
:101D0000C4E9072390E700BF0020014000380240EB
:101D100000000240C82B0020106402400021014056
:101D2000682B002000220140082B0020286402407C
:101D300040640240026882B0084B9A420BD1D3F84B
:101D4000302803F5006342F480521A631B6B03F4DE
:101D500080530193019B02B0704700BF00300240E6
:101D60000E4B07B502689A4215D1A3F5F043052141
:101D70005A201A6B42F400021A6300221B6B03F410
:101D800000030193019B06F063FE5A2003B05DF847
:101D900004EB06F08FBE03B05DF804FB00B0024018
:101DA00010B5A8B004461422002102A837F0D2FBD7
:101DB0008422002107A837F0CDFB2268174B9A42F6
:101DC0002AD14FF4803307A8079308F01BFE08B10F
:101DD000FFF7D0FE124C4FF4C07201211148236B63
:101DE00043F080032363236B03F080030093009B85
:101DF0001223CDE902230323CDE90413042302A90E
:101E0000069307F0EDF9236C43F400032364236C7D
:101E100003F400030193019B28B010BD005C004057
:101E200000380240001C0240026808B5094B9A4283
:101E30000FD1094A80210948136C23F4000313646D
:101E400007F0B2FA4FF480710448BDE8084007F08B
:101E5000ABBA08BD005C004000380240001C0240E4
:101E600070B5B0B00446142200210AA837F072FB06
:101E7000842200210FA837F06DFB22686B4B9A4239
:101E800040F0D1800823052001240F934FF4C07344
:101E900014930223CDE915304FF400330FA8CDE998
:101EA000194308F0AFFD08B1FFF764FE604B002452
:101EB00002250E265A6C0AA95E4842F080625A64D6
:101EC0005A6C02F080620192019A1A6B42F0100281
:101ED0001A631A6B02F010020292029A1A6B42F015
:101EE00040021A631A6B02F040020392039A1A6BC3
:101EF00042F400721A631A6B02F400720492049A9C
:101F00001A6B42F008021A631A6B02F0080205927B
:101F1000059A1A6B42F004021A631A6B02F004026B
:101F20000692069A1A6B42F480621A631A6B02F4E4
:101F300080620792079A1A6B42F480721A631A6BD6
:101F400002F480720892089A1A6B42F001021A6336
:101F50001B6B0E9603F001030993099B7023CDE9D7
:101F60000C44CDE90A3507F03BF94FF400530AA9B8
:101F700031480E96CDE90A35CDE90C4407F030F929
:101F80004AF67C630AA92D480E96CDE90A35CDE9BB
:101F90000C4407F025F940230AA929480E96CDE9FB
:101FA0000A35CDE90C4407F01BF94FF480630AA908
:101FB00024480E96CDE90A35CDE90C4407F010F916
:101FC000F7230AA920480E96CDE90A35CDE90C443D
:101FD00007F006F94FF480530AA91748CDE90A35EE
:101FE0000923CDE90C440E9307F0FAF84FF48C4323
:101FF0000AA916480E96CDE90A35CDE90C4407F03A
:10200000EFF804230AA912480E96CDE90A35CDE966
:102010000C4407F0E5F858202246052106F018FD8B
:10202000582006F047FD30B070BD00BF0068014089
:102030000038024000100240001802400024024014
:10204000000C02400008024000280240002002402C
:1020500000000240142200212DE9F0418AB004461C
:102060000DEB020037F076FA22682C4B9A4251D1E0
:102070002B4B0225032409269A6B4FF0040805A96F
:10208000284842F0020200279A639A6B02F002028B
:102090000192019A1A6B42F010021A631A6B02F055
:1020A00010020292029A1A6B42F002021A631A6B31
:1020B00002F002020392039A1A6B42F008021A63BA
:1020C0001B6B03F008030493049BCDE90585CDE960
:1020D000084607F085F8402305A91348CDE90535E2
:1020E0000A23CDE90774099307F07AF805A90E4889
:1020F0000996CDE90585CDE9077407F071F84FF42D
:10210000605305A909480996CDE90535CDE907745D
:1021100007F066F80AB0BDE8F08100BF001000A02B
:10212000003802400010024000040240000C02404F
:10213000026882B0074B9A420AD103F59C335A6C6D
:1021400042F001025A645B6C03F001030193019BAE
:1021500002B070470000014010B588B00446142258
:10216000002103A837F0F6F92268114B9A421DD1DD
:1021700003F59A3303A90F485A6C42F002025A64DD
:102180005A6C02F002020192019A1A6B42F00402A8
:102190001A63C0221B6B03F004030293029B022309
:1021A000CDE903230323079307F01AF808B010BD05
:1021B000000401400008024010B586B00446142215
:1021C000002101A837F0C6F922680D4B9A4215D1BB
:1021D00003F59C3301A90B481A6B42F001021A6304
:1021E0004FF480721B6B03F001030093009B0223EA
:1021F000CDE901230123059306F0F2FF06B010BDDF
:102200000000014000000240F0B5002387B00393B6
:10221000294B1E68002E4DD10122022703250C24D4
:102220001A6001A9254B26489A6B42F001029A6375
:102230009B6B03F001030093009B4FF68373CDE982
:102240000454CDE9013706F0CBFF48F2331301A95E
:102250001C480594CDE90137CDE9036506F0C0FFC0
:102260004CF2037301A918480594CDE90137CDE973
:10227000036506F0B5FF4FF63F0301A91348059427
:10228000CDE90137CDE9036506F0AAFF282301A9AE
:102290000F480594CDE90137CDE9036506F0A0FFAD
:1022A000082301A90B480594CDE90137CDE9036561
:1022B00006F096FF07B0F0BD002D00200038024068
:1022C0000010024000180240000C024000140240BE
:1022D000001C024000080240214B1A6C42F0100220
:1022E00070B588B01A641B6C054601A903A803F0F9
:1022F00010030293029B08F067FB069B4BBB08F0A0
:1023000053FB184E184B336040F2E733F360174B22
:10231000B0FBF3F3013B3046736000233361B360DD
:10232000B36109F0BBF8044680B9304608F022FFDB
:10233000044658B9362006F0BDFB0F2D0DD82246B5
:102340002946362006F084FB094B1D60204608B064
:1023500070BD08F029FB4000D3E70124F6E700BF79
:1023600000380240042D00200010004040420F00C1
:10237000500000207047FEE7FEE7FEE7FEE77047EB
:10238000014808F093BF00BF042D0020014806F06B
:102390006DBD00BFC82B0020014807F045BD00BF40
:1023A000A8290020014806F04BBE00BFA42A002047
:1023B0000120704708B537F081F9162303604FF00C
:1023C000FF3008BD08B537F079F916230360FEE742
:1023D00070B50D4614460E46731B9C4201DC204628
:1023E00070BDAFF3008006F8010BF5E770B50D4640
:1023F00014460E46731B9C4201DC204670BD16F845
:10240000010BAFF30080F5E74FF0FF3070474FF45A
:10241000005300204B607047012070470020704738
:102420000B4A0346116810B509B90A4911601068D2
:1024300009490A4C0344091B8B4206D937F03EF97F
:102440000C2303604FF0FF3010BD1360FCE700BFAA
:10245000502D0020C8B7012000000520000A000010
:1024600070470000DFF834D0002103E00C4B5B58CC
:10247000435004310B480C4B42189A42F6D30B4A96
:1024800002E0002342F8043B094B9A42F9D305F0DD
:102490007BFF37F019F9FEF7A5FF70470000052014
:1024A000540D0408000000203801002040030020E3
:1024B000C8B70120FEE7704708B501F055F9BDE83F
:1024C000084001F0D7B801F051B940687047416049
:1024D000704700004FF0E022D2F8FC3D43F08073DB
:1024E000C2F8FC3D054B064AD3F8B01F0A43C3F8B7
:1024F000B02F1A6842F001021A607047001000E025
:1025000055CEACC5521A02EB5302B2FBF3F0704742
:10251000014B5868704700BF001000E0704710B5CD
:1025200004460C2135F0DAF8204610BD036810B5DA
:102530001B69044631B19847A26863689B1A03443B
:10254000636010BD9847A060FBE70000024B70205D
:10255000024A1360DB68184724000020542D002035
:10256000704710B50446042135F0B8F8204610BD78
:1025700073B50E4E0D461446336813B9002002B0F1
:1025800070BD1B69702098470028F7D03368702011
:1025900001AA0DF106015B699847BDF804300120DE
:1025A0002B60BDF806302360E9E700BF542D002002
:1025B0007FB501238DF817204FF47A72CDE90132EF
:1025C0000DF1170200920A460146054807F03CF952
:1025D00010B1034807F01EF907B05DF804FB00BF17
:1025E000502A00207FB500230A464FF47A718DF8F7
:1025F00017300123CDE901310DF11701009101469A
:10260000054807F0FBF910B1034807F003F99DF8FE
:10261000170007B05DF804FB502A002010B1032812
:1026200009D07047084B102108481A68B2FA82F2A4
:10263000520906F059BF044B40210548DA68B2FA46
:1026400082F25209F5E700BF582D00200004024035
:102650000018024010B1032809D07047084B102120
:1026600008481A68003A18BF012206F03DBF044B23
:1026700040210548DA68003A18BF0122F5E700BF9B
:10268000582D0020000402400018024010B1032819
:1026900004D070471021034806F02BBF40210248A8
:1026A000FAE700BF000402400018024008B530B14C
:1026B000032809D00020431E5842584108BD10216C
:1026C000034806F00BFFF6E740210248F9E700BF98
:1026D000000402400018024070B5084D0024012695
:1026E000E0B2FFF7E3FF18B12B68012B18BF2E6093
:1026F00001340435052CF3D170BD00BF582D0020E6
:10270000012380F8781080F87930704770470020F6
:102710007047000041640039024B18BF0121197055
:10272000704700BF87AA0120704700207047836B65
:102730000BB10846184770474FF6FF707047406866
:1027400003689B69184770477047704738B504465F
:1027500001F062F9084923682046084DD3F890300B
:1027600098470023284684F84A30FFF7B3FE012338
:10277000256184F8703038BD000000C0682D00204D
:1027800001F0EEB801F0F2B870B501F06FF9104940
:102790000023C1F88430BFF34F8FD1F8803043F667
:1027A000E074C3F3C900C3F34E335B0103EA0406CC
:1027B000024646EA8275013AC1F87452F9D2203BCA
:1027C00013F1200FF2D1BFF34F8FBFF36F8F70BDA6
:1027D00000ED00E001F04CB901F09EB801F06EBAD6
:1027E00001F076BA01F0A2B810B504461AF04EFC1A
:1027F00023682046D3F8BC30BDE81040184719F0D4
:1028000060BE10B50446842134F068FF204610BD38
:1028100090F834100D4B10B590F878401A788C422F
:1028200009D03AB90A490B4A088814881080012255
:102830000C801A7010BD002AFCD0064A0449148886
:1028400008880C8010800022F3E700BF80AA0120D6
:102850007EAA01207CAA012070B50D46194635B923
:10286000094B40F2FF21094A094836F0B5FBC0E99F
:102870000F52003A074B18BF01221A700368BDE8D7
:102880007040D3F89030184789A40308C1A4030806
:102890000FA5030886AA012008B5094B1B888B42A7
:1028A00003D8084B1B88934205D9074BA321074A3D
:1028B000074836F091FB074B1980074B1A8008BD7B
:1028C0007CAA01207EAA012054A50308B7A503080D
:1028D0000FA5030882AA012084AA0120034690F8CC
:1028E0007A0018B1586803681B68184770470000E1
:1028F000014608B5034B186801B101211AF0E0FB4D
:10290000012008BD88AA0120034B00225A609A606A
:10291000024A1A60704700BF682D0020D0D7030814
:102920000121002208B5084609F0D8F90A4B1860C1
:1029300028B90A4B28210A4A0A4836F04DFB0022E2
:102940000421012009F094FA074B186018B9074BCD
:102950002C21034AF0E708BD782D0020FAA50308D2
:1029600043A6030872A60308742D0020C5A6030819
:10297000024B4FF0FF31186809F008BA782D00209B
:10298000014B186809F03EBA782D0020024B002157
:10299000186809F0FBB900BF782D0020FFF7F0BFE1
:1029A0000023034803491A46006809F0A7BA00BF8C
:1029B000742D00200800002013B50023074C01A946
:1029C0001A46206809F0DCFA4FF0FF33002201A913
:1029D000206809F0D5FA02B010BD00BF742D0020A8
:1029E00003685B6C18470120704703689B6A1847AF
:1029F000FEE700000E4B82B01A6B42F400021A632D
:102A00001A6B02F400020192019A1A6942F4000260
:102A10001A611A6922F400021A61064B064A1A6109
:102A2000064A5A614FF08062054B9A6002B07047C7
:102A300000380240A42A0020CD2C0008F12900080B
:102A400000E100E040F2EF3070470000054B4FF02E
:102A500080620360044BC3F88820BFF34F8FBFF33D
:102A60006F8F7047FCD8030800E100E010B5044602
:102A70004FF45A61FFF7EAFF204634F02FFE20465C
:102A800010BD000008B50A2809D8DFE800F00610DC
:102A90000E080808081010101000022008BD054B91
:102AA0009021054A054836F097FA0020F6E7012004
:102AB000F4E700BF07A7030822A703086DA70308D0
:102AC00038B50C46887FFFF7DDFF174BA58AE28AF1
:102AD000586342EA054221695A64628BD963521BEA
:102AE0001A642568082D0ED19A611A6158620F4A3E
:102AF000207F42EA0062DA61E2681A620C4A596198
:102B0000D9601A6038BD0022D8611A61E1680A0AEA
:102B10004809C1F3C40102F4784200F4FC600243A6
:102B20000A439A63034AECE700B00240090001003F
:102B3000012302000123030008B50B280BD8DFE8AE
:102B400000F00612100A0A0A0A08080808080220FB
:102B500008BD0520FCE7054B6F21054A054836F006
:102B60003BFA0020F4E70120F2E700BF07A70308C3
:102B7000BEA703086DA703082DE9F04191F81D8059
:102B80000C464046FFF7D8FFA77F05463846FFF7BB
:102B9000D3FF06463846FFF775FFA18A628B434B89
:102BA000521A1A649A61228B521A1A61E28A586385
:102BB00042EA014221695A646268D963DA60206896
:102BC000802828D0227F0FD8202866D0402864D0C3
:102BD00004281AD045EA0265344BB84545F400355F
:102BE000DD6160D0324A44E0B0F5807F04D0B0F5BA
:102BF000007FEFD12F4800E02F4840EA0262DA61FF
:102C0000E2681A625E62596132E045EA026242F4A9
:102C10000032DA61F6E7A068021DDA62227F45EA37
:102C2000026545F40035DD615E625961017841B1AC
:102C3000012921D0214B4FF48D71214A214836F0D2
:102C4000CBF9DA69418822F47F42013922F010027F
:102C500042EA01220121DA61144BDA6942F02002D2
:102C6000DA61DA699206FCD410229A600029B9D0A0
:102C7000154A1A60BDE8F081B2F1FF01DA694088B7
:102C800022F47F4218BF0121013822F0100242EAEB
:102C9000002242F01002DA61DEE745EA0262034BED
:102CA00042F40032B5E742F20132E2E700B00240FE
:102CB00001230100090002000A00020008A803081D
:102CC00022A803086DA7030801230200024B1B681A
:102CD000586803685B69184788AA012070B50446E4
:102CE0000A4B0C3000262546602260602672667210
:102CF00045F8203B29461AF037FB04F55A63EE608D
:102D000024359D42FBD1204670BD00BFFCD803088E
:102D1000034B1A68D207FCD423229A60704700BF85
:102D200000B00240094B5A69D2030AD5BFF34F8F56
:102D300008440029A0EB010204DCBFF34F8FBFF36E
:102D40006F8F70472039C3F86822F2E700ED00E08A
:102D500030B5104C2568ED07FCD423250904FF2B62
:102D6000A56041F001014FF0020565636164E06315
:102D70000AD00949656241EA0363E361074B2262B5
:102D80006061E060236030BDE561039BA363044B99
:102D9000F8E700BF00B00240090001000100020096
:102DA0000100030030B50F4C2568ED07FCD4232546
:102DB0001204FF2BA56042F001024FF0020565638B
:102DC0006264E063E16008D01B0643F00213E36134
:102DD000054B65626061236030BD044BE3610123F4
:102DE000F9E700BF00B0024001000200020002FF4C
:102DF00030B50B4C2568ED07FCD4232512041B06C7
:102E0000A56042F00102022543F400336563626469
:102E1000E063E160E361034B65626061236030BDA4
:102E200000B00240010002004069704790F8440081
:102E30007047036B23B9C06A003818BF0120704780
:102E40000120704780687047043010B50C460FC8E9
:102E500084E80F0010BD704708B5034A40F2122104
:102E6000024B034836F0B8F860A80308B9C103085C
:102E7000BBA8030810B50446482134F02FFC2046B7
:102E800010BD00002DE9F0431D46ADF51F7D436BDD
:102E900006460F469046BDF89842002B35D00022DA
:102EA00003A8DFF8A490CDE9013211F039F94FF40D
:102EB000F4725021249024A80BF0E7F842463946DA
:102EC00024A80CF031F8012124A80BF0D9F9022331
:102ED00024A88DF8D8300BF074FA2B9B419AA342AA
:102EE000BDF89C7228BF23469742A4EB030428BF79
:102EF000174603EB43086400479B9F4209D824A868
:102F00000BF0E0F924A80BF00DF90DF51F7DBDE8DD
:102F1000F083012201A924A80BF09CFA736B03EB48
:102F20000800984201D82544E6E759789A78C90004
:102F300009EA022201F4FC610A4313F8031B42EA86
:102F4000D10225F8022BECE700F8FFFF0A4A0260E5
:102F50000022C0E90522C0E90722C0E90922C0E930
:102F60000B22C0E90D12C0E90F2280F84420C0E90D
:102F70000322C0E9012270474CD9030810B40C4663
:102F800011461A46036B3BB1036C806BE41A204474
:102F90005DF8044B36F0E6BAC06AF8E7036B10B58B
:102FA00073B1036C826BC91A5318525C98785C78C1
:102FB0000004DB7840EA0420104340EA036010BDBF
:102FC000C36A5858FBE7036B43B1036CC91A836BA0
:102FD0005A18585C527840EA02207047C36A585A1F
:102FE0007047000070B50446006B0D461646D8B118
:102FF000E36B934208D209230D4A65210D4884F8FA
:1030000044300D4B35F0E8FF0368DB689847206BD0
:103010003246A16B03681B69984710B90D2384F8E9
:103020004430A06B256470BDE06A0844FBE700BF34
:103030002BA90308BBA8030818A903082DE9F84326
:10304000436904462BB9234BAA21234A234835F070
:10305000C3FF08228169FFF7C5FFA16943F230066B
:1030600046F2643704312046FFF798FFA3691844FD
:10307000A36A00F108029A4206D30123002063618B
:10308000236AA361BDE8F88363690930082201332C
:1030900020F0010120466361A161FFF7A3FFD4F88E
:1030A000189020464946FFF78EFF09F1020180463D
:1030B0002046FFF788FF09F1040105462046FFF787
:1030C0006DFFB045D2D1BD42D0D10028CED0012075
:1030D000D8E700BF6DA90308B6A90308BBA8030879
:1030E0002DE9F04F0446ADF51F7D8A4616468169ED
:1030F00008229846FFF776FFA7692046391DFFF79B
:103100004DFF07F10801024605462046FFF76AFF1A
:10311000636B074633B93C4B40F2AB113B4A3C482A
:1031200035F05AFF002203A8CDE9013210F0F8FF74
:103130004FF4F4725021249024A80AF0A6FF2A46E6
:10314000394624A80BF0F0FE012124A80BF098F8D2
:10315000022324A88DF8D8300BF033F9BAF90250C5
:10316000479BAB4229D3BAF900904FEA4808BAF816
:1031700004702B9B08FB05664F44BAF80250DFF839
:1031800094B03FB29F4228BF1F46BAF8063009EB01
:10319000490A1D44419B2DB29D4228BF1D46479BB5
:1031A0009D4210D824A80BF08DF824A80AF0BAFF8D
:1031B00001200DF51F7DBDE8F08F012201A924A893
:1031C0000BF048F9CCE7012201A924A80BF042F941
:1031D000626B49465244B94202F1030201D34644AC
:1031E000DDE712F8020C12F8013CC0000BEA0323E1
:1031F00000F4FC60034312F8030C43EAD00326F802
:1032000011300131E7E700BFE9A903083FAA03082D
:10321000BBA8030800F8FFFF0129036838BF01219C
:10322000DB6A70B50D4604469847A84204D223686D
:103230002046DB6A984705466B1EE6691022204649
:1032400006EB031606F10801FFF7CCFE06F11001AC
:103250002046FFF7A3FE236A043B0344C4E9055359
:1032600070BD0000002148222DE9F0410446816133
:1032700080F84410FFF7B6FEA6690423624A31467F
:103280002046FFF77BFE40B10323604AF22184F819
:1032900044305F4B5F4835F09FFE06F10801042380
:1032A0005D4A2046A161FFF769FE30B10423574A09
:1032B000FA2184F84430594BECE706F10C01042361
:1032C000574A2046A161FFF759FE074638B105234A
:1032D0004E4A40F2011184F84430524BDAE706F1CD
:1032E00010012046FFF75AFE054620B94E4B40F22A
:1032F0000711464ACEE706F1140804234B4A20463C
:103300004146FFF73BFE002849D0062384F84430AD
:103310000423474A06F118012046FFF72FFE002834
:103320003FD0072384F844304544424F0C222046C6
:103330002946FFF757FE05F1080604233A462046C2
:103340003146FFF71BFE94F84430002848D0002B8C
:1033500048D1A36AAB4249D805F10C030435204695
:10336000A3612946FFF71AFE3044294660622046D1
:10337000FFF714FE0644042220463146FFF732FED2
:1033800004232D4A31462046FFF7F8FD002838D1A6
:103390000123E6616361A3692362BDE8F08101272F
:1033A000B6E7002FC0D006F120012046FFF7F6FD5A
:1033B0004FF47A7306F13001B0FBF3F06060204601
:1033C000FFF7ECFD06F14001A0602046FFF7E6FDA7
:1033D00006F14401E0602046FFF7E0FD2061A3E72D
:1033E000002BB9D00A2384F84430D6E7291D2046A3
:1033F000FFF7D4FD85190C2220462946FFF7F2FD80
:1034000099E70B23EFE700BF99AA0308B7AA0308BF
:103410009EAA0308BBA80308E4AA0308E9AA0308B4
:1034200001AB030806AB03081CAB030828AB030879
:103430002DAB030832AB030837AB0308C0E90A2100
:1034400000220263FFF70EBF10B5002304460846B2
:10345000E3620B6821639B689847A0622046BDE841
:103460001040FFF7FFBE70B4BDF80C50BDF81060FF
:103470002AB123B1CDE9035670BCFFF703BD70BC80
:10348000704700002DE9F04F9946436985B0044626
:103490000F4690462BB9294B7721294A294835F008
:1034A0009BFD08228169FFF79DFDA66920463146F4
:1034B000FFF789FDB11C83462046FFF784FD311DCF
:1034C00082462046FFF76AFD06F10801A36A054619
:1034D0000A189A4226D243F230039B4517D146F28E
:1034E00064339A4513D190B10246A1612046FFF79B
:1034F00079FD0E9B01462A462046CDF80080CDE995
:1035000001933B46FFF7AFFF636901336361A36932
:103510002B4405B908330133626A23F00103934257
:10352000A36109D1012301206361236AA36180F0B3
:10353000010005B0BDE8F08F0020F8E76DA9030891
:103540003CAB0308BBA80308012070470C20704760
:103550000C2303FB0100083070470C2303FB010020
:10356000083070470120704743F26000704743F213
:10357000600303FB01000830704743F2600303FB64
:10358000010008307047012070471020704700EBA1
:1035900001100830704700EB0110083070470846F2
:1035A00000F09CBE034B10B50446036017F0BAFD53
:1035B000204610BDF4D9030810B50446FFF7F2FF0A
:1035C0001421204634F08AF8204610BD034B10B574
:1035D0000446036017F0A6FD204610BDC0D90308BD
:1035E00010B50446FFF7F2FF43F26801204634F0BD
:1035F00075F8204610BD0000034B10B5044603606B
:1036000017F090FD204610BD8CD9030810B5044674
:10361000FFF7F2FF1821204634F060F8204610BD75
:10362000094B10B50446036000F542501430FFF713
:10363000B9FF04F12C00FFF7C9FF04F11400FFF7F4
:10364000DBFF204610BD00BF28DA030808B502489A
:10365000FFF7E6FF08BD00BF543C002010B504464C
:10366000FFF7DEFF43F20821204634F037F820460A
:1036700010BD00002DE9F34100F04CFD002405468B
:1036800000F04CFD2346014622462846009424F0D3
:1036900061FF284B284A2046284D1A6004F07EF826
:1036A000274B284A28489A6024F0BCFE2B68BFF3B9
:1036B0005B8FDB0737D4284634F012F898B3234CDD
:1036C000234B04F1140004F12C08236000F5425749
:1036D0006060C4F8088007F11806E760266117F0FB
:1036E00023FD1C4B4046636117F01EFD1A4B384604
:1036F000E36217F019FD04F54053184A03F1A800DE
:10370000C3F8942004F0D2F8224607F114013046A1
:1037100004F0C2F8304600F0E1FD114835F07AFCC3
:10372000284633F0E9FF0F4802B0BDE8F041FFF74B
:103730000DB800BFECAA0120002E0020503C002054
:10374000202E0020042E00200C000020543C0020DD
:1037500028DA03088CD90308C0D90308F4D9030870
:103760004D3600087C2D002070470000014818F0FD
:1037700012BF00BF7C2D002070B5264E264B274C73
:103780003046274D2360FFF7A9FA284629F0F4FFB9
:10379000244822F0D1F8244B00224FF480712348B2
:1037A0001A8683F858205A6683F870205A67DC60BE
:1037B000C3E912121E49C3E91A121E49C3E91E01C8
:1037C0001D491E48C3F880101D490B604FF4F0716D
:1037D000C3E90422C3E90622C3E90822C3E90A2295
:1037E000C3E90E22C3E91022C3E91422C3E9172258
:1037F000C3E901650180134883F8342001804FF448
:103800008871114801801148018011490A70114ADC
:103810001A6070BDAC2E0020F8D703084C3C002085
:10382000202E0020042E00207C2D0020000001010D
:103830000100000100044400160014007CAA0120CD
:1038400088AA012082AA01207EAA012084AA012040
:1038500080AA012010D803080148FFF7F7B800BF7D
:10386000AC2E00200020704781807047C1807047D7
:1038700001817047418170477047704770477047BA
:10388000704710B4C4880368121B84885B6D091BE1
:1038900012B25DF8044B09B218474FF6FF738381EB
:1038A0004FF0FF3303621368C3611060704700205C
:1038B00070478B88838001207047704780F82610FE
:1038C000704790F82600704710B50022B1F9084003
:1038D000B1F90A10028042808480C18010BD0022AC
:1038E000028042808280C28070470177704780EDFD
:1038F000080A704780F82410704780F82510704738
:1039000001207047983070478C3070478430704782
:103910007047704770470000034B902283F85A238A
:1039200083F85823704700BF00E100E0094A0A49C4
:10393000D3680A48C3F30A03013B9BB20B801169A9
:10394000C1F30A01013901801364536B43F0010391
:1039500053637047006801405E6E00205C6E00207B
:10396000014BD3F8AC00704700680140024B0122C4
:10397000C3F8AC105A62704700680140124A53699C
:10398000DB0370B51ED50023C2F88430BFF34F8F20
:10399000D2F8803043F6E074C3F3C900C3F34E336A
:1039A0005B0103EA0406014646EA81750139C2F863
:1039B0007452F9D2203B13F1200FF2D1BFF34F8F95
:1039C000BFF36F8F70BD00BF00ED00E0704738237C
:1039D000002201FB0333C25490F838300BB9036C5A
:1039E00083647047704780F84C10704710B50446E8
:1039F0002C2133F073FE204610BD10B5044658212B
:103A000033F06CFE204610BD10B50446BC2133F0E7
:103A100065FE204610BD000038B5044618F0A7FD2D
:103A200023689D6E20F0D0FC01462046A8472368FD
:103A3000084A2046D3F88C500023A2F57F31A847CE
:103A4000054B064A5A60064A1A649A644FF4FF22EC
:103A50005A6438BD00F807C0206F0020786F00203E
:103A600000F40BC018F06ABD18F074BD18F02FBD3B
:103A700018F0B1BE90F8252012B103685B691847B1
:103A80007047000008B531B1044B40F29711044A69
:103A9000044835F0A1FA90F8390008BD97AB030847
:103AA000ABAB030838AD030810B531B1064B40F29B
:103AB0009111064A064835F08FFA406811460368AE
:103AC000BDE810401B6B184797AB03087AAD03089D
:103AD00038AD030808B529B1034B7A21034A0448DD
:103AE00035F07AFA006908BD97AB03082BAF0308DD
:103AF00038AD030808B529B1054B8321054A0648AE
:103B000035F06AFA41618160C0E9063208BD00BF44
:103B100097AB0308E3B0030838AD030810B50446BB
:103B200029B1274BA421274A274835F055FA052A01
:103B300034D8DFE802F003292F34393E40680368A7
:103B40001B69984750B34FF0FF31606D08F06AF879
:103B50000023012294F83E1084F83B3084F8392089
:103B6000A360636101B1226284F83E306362E36A5C
:103B70002BB90123206D84F83A3008F043F9606DC9
:103B8000BDE8104008F07EB8002380F8393084F892
:103B90003E3003E0036200238360436110BD036293
:103BA000002383604361F2E7002380F8393001236A
:103BB000EDE7003B18BF012380F83D30EEE700BF82
:103BC00097AB0308A2B2030838AD030890F825208C
:103BD0001AB190F8242002B11860704770B50446FD
:103BE000164629B1314BE721314A324835F0F4F914
:103BF00090F8393033B1304B1B6893F86B20436930
:103C000013444361E36A002B4DD0E169D4E90532E6
:103C10005343A2684A43934220D2236A002B42D0E6
:103C20004FF0FF31606D07F0FDFF236A0BB10023F9
:103C3000E362E36AFBB90125606D08F023F894F8AC
:103C400039300BB9236A3BB1E36A2BB90123206DEC
:103C500084F83A3008F0D6F8284670BD94F84C0045
:103C60000028DDD09B1AB3FBF1F2994298BF02F114
:103C7000FF326262D4E7002294F83C50A3623046DF
:103C8000E262E2682261A2680132A26033633368B3
:103C90005B699847002DCED194F83D30002BCBD1F5
:103CA00084F83950C8E70125C9E700BF97AB03087E
:103CB00079B4030838AD030888AA0120034B4FF0FC
:103CC00080629A604FF080729A60704700E100E075
:103CD000084B4FF08062C3F88820BFF34F8FBFF3CB
:103CE0006F8F4FF08072C3F88820BFF34F8FBFF300
:103CF0006F8F704700E100E038B5034690F8380058
:103D000038BB01229860D8609A634FF48072586182
:103D10009A874FF4F0729861D8611862586298627D
:103D2000D8621863586383F83E00CA864FF48872DD
:103D300081F834000A8708639A6C186102F5FF2441
:103D4000D3E9101529448C420AD9084B5821084A56
:103D500003E0084B40F2F511074A084835F03CF9FA
:103D60001A6302F57F329C645A6338BDD7B70308E3
:103D700017B803081DB603084DB6030838AD03088D
:103D8000002370B5124E05468380124B03603368E2
:103D900093F858200AB1D86C00B998680368DB6AB8
:103DA00098473368B0FA80F4D86C640930B103687E
:103DB000DB6A9847002808BF44F001042CB9064B81
:103DC0002C21064A064835F007F9284670BD00BF89
:103DD00088AA01203CDA0308BDB903081BBA03080E
:103DE00054BA030870B5254E3568BFF35B8F15F0E4
:103DF000010540D1304633F073FC00283BD0204C05
:103E0000204B04F134002561E584A562A585C4E951
:103E10000035C4E9025522F074F804F158001AF094
:103E20005BFF194B2046A365184B40F8843BFFF716
:103E3000A7FF174B1748C4F884302433C4F89050B8
:103E4000C4F88C304FF4C803C4F89C50C4F8A85090
:103E5000C4E928350023C4F8AC30C4F8B030C4F845
:103E6000B430C4F8B8300C4BC4F8983035F0D2F800
:103E7000304633F041FC024870BD00BF606E002048
:103E8000646E002038F903085CDA0308D4DA03080A
:103E9000ECF8030815390008CCF8030838B5184CBD
:103EA00023685BB3174B184A1B6C11888B4216D1E1
:103EB000164B0025198806F041F8236893F86A200C
:103EC00083F87C50013283F86A20FEF769FD206890
:103ED00019F0DCF82846BDE83840FEF79FBB06F035
:103EE0002DF82468236820461B6A98470123002088
:103EF00084F87C30BDE83840FEF7ACBB38BD00BF6D
:103F000088AA0120006801405E6E00205C6E0020DF
:103F10002DE9F74304464FF4707894F83A304FF0A7
:103F2000FF31002B31D0606D07F07CFE276BA36A58
:103F3000BB4200D1676B266A656856B32B68314671
:103F400028465B6A98470023236284F83B30606D03
:103F500007F098FE2B684FF4F0723946CDF80080D8
:103F600028465E694FF48873B0474FF0FF3106462C
:103F7000606D07F057FE94F83B30E3B1002384F8FE
:103F80003B30606D07F07EFEC7E7206D07F0FEFE58
:103F9000C3E7636A002BDAD02B682846D3E909937C
:103FA0009847616A01442846C847A368626A666206
:103FB0001344A360CBE7E7625EB12B6828469B6A97
:103FC000984701380023E06084F83C6084F83A3078
:103FD000D7E70120F6E70000014808B5FFF798FF92
:103FE000206F00200368042270B504465E6A002337
:103FF0000D46B0474FF0FF31606D07F013FE3823D8
:1040000003FB0542D16A09B10021D16203FB0545DA
:10401000012385F83B30002385F83930606DBDE819
:10402000704007F02FBE38B500EB810304460D4603
:10403000114658680368DB68984729462046FFF711
:10404000D1FF38BD70B50D461146044600EB850220
:104050005068026896681A46B04729462046FFF71E
:10406000C1FF70BD38B5164900251648FEF76EFF32
:10407000154C164B01202A46294623604FF48073C5
:10408000A564A38784F84C0084F83E50C4E9105519
:10409000C4E91455C4E90155C4E90355C4E90555FB
:1040A000C4E90755C4E90955C4E90B55C4E90D55E0
:1040B00007F014FE2065284607F070FD606538BDE6
:1040C000C06F0020786F0020206F002020DB0308E5
:1040D000704710B50446042133F000FB204610BDA4
:1040E00008B5032913D8DFE801F002060A0E03F031
:1040F000A1FB006808BD03F09DFB4068FAE703F0F0
:1041000099FB8068F6E703F095FBC068F2E70020B2
:10411000F0E70000004870476CDB03080D20704793
:1041200013B5002451B1036801AA01948DF803402E
:104130009C680DF10303A04702B010BD0846FBE7E1
:10414000C0897047008A7047C08870478088704770
:10415000807A00F07F007047807AC00970470020A5
:10416000704700009FED010A704700BF000000008B
:10417000704710B50446082133F0B0FA204610BD50
:104180007047704700F598730868496803C3704723
:10419000704770474160704770477047064BC0F8E2
:1041A0004801C0F84C310023C0F8503100F5A2732B
:1041B000C0F84031704700BFD945000801230372A1
:1041C0007047704710B441680346C2689B6854103A
:1041D00001EB6200D20748BF0A595DF8044B48BFA3
:1041E000D35818470346406830B19A681AB9D8685E
:1041F00000F0010070470120704710B504460C2103
:1042000033F06CFA204610BD10B50446102133F08F
:1042100065FA204610BD10B504464FF4AE7133F078
:104220005DFA204610BD10B520F0CEF80368BDE859
:104230001040DB6B184710B50446D0F8400158B168
:104240000368DB68984738B1D4F8400103689B687D
:1042500098470023C4F8403110BD0000044B1B6890
:1042600093F858200AB1D86C00B99868704700BF1D
:1042700088AA0120F8B5174604460E4620F0B4F986
:10428000124B00251C602946114B2360114BC4E9D9
:104290005135114B1868C4E953550368C4E94F55AB
:1042A0009B68C4E955769847284603F077FAFFF7EC
:1042B000D5FF2BF00CF9FFF7D1FF2BF083F9FFF7B7
:1042C000CDFF2BF08BF92046F8BD00BFDCAA012002
:1042D000A0DC030888DC030888AA0120064BC0F88C
:1042E0004801C0F84C310023C0F8503100F5A273EA
:1042F000C0F84031704700BFD9450008064BC0F8F0
:104300004801C0F84C310023C0F8503100F5A273C9
:10431000C0F84031704700BF91440008064BC0F818
:104320004801C0F84C310023C0F8503100F5A273A9
:10433000C0F84031704700BF4543000803685B6A1E
:10434000184700002DE9F14FD0E9556A0746B068DB
:1043500003681B6A984742F2F713984205D8444B0A
:10436000A321444A444834F037FE706803681B6A4E
:1043700098470F2803D8414BA4213E4AF2E7F06842
:1043800003681B6A98470B2803D83D4BA521394A7F
:10439000E8E7DFF8F49020F017F8043020F052F846
:1043A000D9F8000010B10368DB689847D9F800001D
:1043B00010B103681B689847DFF8D080D8F8000078
:1043C00010B103685B699847D7F83C0110B10368E6
:1043D0005B689847D8F8000010B103681B689847DD
:1043E000D7F83C0110B103689B6898470021F0683A
:1043F000FFF7A4FF4FF0000B224B0446C0F804B0B7
:10440000594680F808B00360B06803685B6A984753
:10441000054603F0ADFF7068594603685B6A98472C
:104420000646294603F082FF331DC7F83C61284643
:10443000C9F80040C8F80050CAF800302B68C6F828
:1044400008A0DB68EE639847336830461B689847DE
:104450002146284622F086FA236820461B699847A1
:10446000236820465B6901B0BDE8F04F184700BFE4
:10447000B6BA030844BB030816BC03085DBC0308B6
:1044800000BD0308F4DC0308D0AA0120CCAA012057
:104490002DE9F14FD0E9556A0746B06803681B6AF9
:1044A0009847B0F5C26F05D2434BA321434A444815
:1044B00034F092FD706803681B6A98470F2803D890
:1044C000404BA4213D4AF2E7F06803681B6A984715
:1044D0000B2803D83C4BA521384AE8E7DFF8F090D9
:1044E0001FF072FF04301FF0ADFFD9F8000010B1CB
:1044F0000368DB689847D9F8000010B103681B68AF
:104500009847DFF8D080D8F8000010B103685B69E5
:104510009847D7F83C0110B103685B689847D8F812
:10452000000010B103681B689847D7F83C0110B130
:1045300003689B6898470021F068FFF7FFFE4FF083
:10454000000B224B0446C0F804B0594680F808B06E
:104550000360B06803685B6A9847054603F078FE1D
:104560007068594603685B6A98470646294603F017
:10457000F5FD331DC7F83C612846C9F80040C8F86E
:104580000050CAF800302B68C6F808A0DB68EE635C
:104590009847336830461B6898472146284622F0E2
:1045A000E1F9236820461B699847236820465B6928
:1045B00001B0BDE8F04F1847B6BA0308A3BD030821
:1045C00016BC03085DBC030800BD0308F4DC030847
:1045D000D0AA0120CCAA01202DE9F14FD0E9556ADB
:1045E0000746B06803681B6A984743F25F03984226
:1045F00005D8444BA321444A444834F0EDFC70688C
:1046000003681B6A98470F2803D8414BA4213E4AF0
:10461000F2E7F06803681B6A98470B2803D83D4B04
:10462000A521394AE8E7DFF8F4901FF0CDFE043009
:104630001FF008FFD9F8000010B10368DB68984745
:10464000D9F8000010B103681B689847DFF8D080E4
:10465000D8F8000010B103685B699847D7F83C01AF
:1046600010B103685B689847D8F8000010B1036880
:104670001B689847D7F83C0110B103689B689847BE
:104680000021F068FFF75AFE4FF0000B224B044662
:10469000C0F804B0594680F808B00360B0680368F9
:1046A0005B6A9847054603F0D5F970685946036878
:1046B0005B6A98470646294603F02EF9331DC7F872
:1046C0003C612846C9F80040C8F80050CAF80030DC
:1046D0002B68C6F808A0DB68EE639847336830465D
:1046E0001B6898472146284622F03CF9236820465B
:1046F0001B699847236820465B6901B0BDE8F04F0D
:10470000184700BFB6BA030875BE030816BC0308F5
:104710005DBC030800BD0308F4DC0308D0AA012037
:10472000CCAA0120406A7047806A704770470B88A6
:104730008A889BB2D20A10B54C88C16943EA044307
:1047400051F82200184410BD10B50446BAB1107BD0
:1047500068B1537BD27A1B0203F4E0631A43236AE5
:1047600003EB82031A888A4202D193F9020010BD3A
:1047700005D80138043380B20028F3D1F7E70020D0
:10478000F5E710B504462C2132F0A8FF204610BDF5
:1047900030B58BB00446BDF860500895BDF85C504C
:1047A00007959DF8505006959DF84C5005959DF83D
:1047B000485004959DF8445003959DF8405002954B
:1047C0009DF83C500195BDF83850009521F056FCFD
:1047D000064B20462360159BE361169B2362199BC1
:1047E00063621A9BA3620BB030BD00BF18DD0308E3
:1047F000806A70477047704770477047704780F80D
:104800002C10704710B40368046BD3F8A4306243D3
:1048100061435DF8044B1847D0ED0C7A0368F8EE5D
:10482000E77A10B420EE270AD3F8A440B5EEC00A08
:10483000F1EE10FA1ADBB6EE007A30EE070ABDEEA2
:10484000C07A17EE101A60EEA70AF5EEC00AF1EE74
:1048500010FA1EDBF6EE007A70EEA70AFDEEE07AA3
:1048600017EE902A23465DF8044B1847BDEEC07A38
:10487000F8EEC76A17EE103A013B30EE660AF7EE23
:10488000086A30EE260ABDEEC00A10EE101A19446E
:10489000D9E7FDEEE07AB8EEE77A17EE903A013B01
:1048A00070EEC70AB7EE087A70EE870AFDEEE00AEE
:1048B00010EE902A1A44D5E710B40368046BD3F8BD
:1048C000B03062435DF8044B1847D0ED0C7A0368B2
:1048D000F8EEE77A10B427EE800AD3F8B040B5EED0
:1048E000C00AF1EE10FA0BDBF6EE007A30EE270A82
:1048F000FDEEC07A17EE902A23465DF8044B184768
:10490000FDEEC07AB8EEE77A17EE903A013B30EE52
:10491000470AB7EE087A30EE070ABDEEC00A10EE7D
:10492000102A1A44E8E710B40368446BD3F8BC308B
:10493000624361435DF8044B1847D0ED0D7A03687C
:10494000F8EEE77A10B420EE270AD3F8BC40B5EEB3
:10495000C00AF1EE10FA1ADBB6EE007A30EE070A62
:10496000BDEEC07A17EE101A60EEA70AF5EEC00A87
:10497000F1EE10FA1EDBF6EE007A70EEA70AFDEEFD
:10498000E07A17EE902A23465DF8044B1847BDEEF7
:10499000C07AF8EEC76A17EE103A013B30EE660AAD
:1049A000F7EE086A30EE260ABDEEC00A10EE101AC5
:1049B0001944D9E7FDEEE07AB8EEE77A17EE903ABF
:1049C000013B70EEC70AB7EE087A70EE870AFDEE7B
:1049D000E00A10EE902A1A44D5E710B40368446B3D
:1049E000D3F8C03062435DF8044B1847D0ED0D7A20
:1049F0000368F8EEE77A10B427EE800AD3F8C040D7
:104A0000B5EEC00AF1EE10FA0BDBF6EE007A30EEEE
:104A1000270AFDEEC07A17EE902A23465DF8044B74
:104A20001847FDEEC07AB8EEE77A17EE903A013BF0
:104A300030EE470AB7EE087A30EE070ABDEEC00A3C
:104A400010EE102A1A44E8E7D0F82C31026B002B44
:104A500007DB02EB430090FBF2F000EBD07040105C
:104A600070476FF0010101FB0320013890FBF2F069
:104A700000EBD070401040427047D0ED4B7A90ED83
:104A80000C0AF8EEE77AB8EEC00A87EE800A7047A3
:104A9000D0F82C017047D0F83031026B002B07DBC7
:104AA00002EB430090FBF2F000EBD0704010704737
:104AB0006FF0010101FB0320013890FBF2F000EBE5
:104AC000D070401040427047D0ED4C7A90ED0C0A07
:104AD000F8EEE77AB8EEC00A87EE800A7047D0F8A1
:104AE00030017047D0F83431426B002B07DB02EB0A
:104AF000430090FBF2F000EBD070401070476FF075
:104B0000010101FB0320013890FBF2F000EBD070B3
:104B1000401040427047D0ED4D7A90ED0D0AF8EE0E
:104B2000E77AB8EEC00A87EE800A7047D0F8340101
:104B30007047D0F83831426B002B07DB02EB4300A3
:104B400090FBF2F000EBD070401070476FF0010165
:104B500001FB0320013890FBF2F000EBD070401015
:104B600040427047D0ED4E7A90ED0D0AF8EEE77AAC
:104B7000B8EEC00A87EE800A7047D0F83801704757
:104B8000036870B50446D3F888300D46164698473A
:104B90002368324629462046D3F89030BDE870405D
:104BA00018470368D3F8943018470368D3F8D43013
:104BB00018470368D3F8E03018470368002A10B498
:104BC000D3F8A430046B0EDB04EB420292FBF4F149
:104BD00001EBD1714910B0F91E215DF8044B013A87
:104BE0000A44494218476FF0010101FB02410139B3
:104BF00091FBF4F101EBD17149104942EBE70368F5
:104C0000D3F83C311847026B03685143D3F848315D
:104C100018470368D3F844311847D0ED0C7A03687D
:104C2000F8EEE77AD3F8482127EE800AB5EEC00AFD
:104C3000F1EE10FA08DBF6EE007A30EE270AFDEE10
:104C4000C07A17EE901A1047FDEEC07AB8EEE77AF8
:104C500017EE903A013B30EE470AB7EE087A30EE95
:104C6000070ABDEEC00A10EE101A1944EBE7C0F8AF
:104C70003C1170470368D3F850311847036810B5EA
:104C8000D3F85C31044698470028236B07DB03EB1D
:104C9000400090FBF3F000EBD070401010BD6FF0BF
:104CA000010202FB0030013890FBF3F000EBD07002
:104CB00040104042F2E70368D3F8583118470368C0
:104CC00010B50446D3F85C31984707EE900A94ED8E
:104CD0000C0AF8EEE77AB8EEC00A87EE800A10BD3B
:104CE000D0F83C017047026B03685143D3F8683138
:104CF0001847D0ED0C7A0368F8EEE77AD3F868210C
:104D000027EE800AB5EEC00AF1EE10FA08DBF6EEE7
:104D1000007A30EE270AFDEEC07A17EE901A10479F
:104D2000FDEEC07AB8EEE77A17EE903A013B30EE2E
:104D3000470AB7EE087A30EE070ABDEEC00A10EE59
:104D4000101A1944EBE7C0F840117047036810B51A
:104D5000D3F87431044698470028236B07DB03EB34
:104D6000400090FBF3F000EBD070401010BD6FF0EE
:104D7000010202FB0030013890FBF3F000EBD07031
:104D800040104042F2E7036810B50446D3F874318E
:104D9000984707EE900A94ED0C0AF8EEE77AB8EE21
:104DA000C00A87EE800A10BDD0F84001704708465F
:104DB000704703680029026BD3F8843110B50446AC
:104DC0000EDB02EB410191FBF2F101EBD1714910D5
:104DD00009B220469847D4E94F2302FB003010BDAA
:104DE0006FF0010000FB0121013991FBF2F101EBB1
:104DF000D17149104942EBE7006B7047406B704737
:104E00000368D3F8483118470368D3F85C31184772
:104E1000026B03685143D3F814311847036870B527
:104E2000D3F818510446D0F84461D3F8803198473C
:104E30002B4656F820102046BDE870401847D0F8A1
:104E40004831B0F91E011944081A7047C162704711
:104E5000C06A70470120704770477047C06B18B137
:104E60000368D3F880301847704730B5B2F81A118C
:104E7000B2F91441B2F940502144B2F842204480C2
:104E8000521A002185800180C28030BD10B5428059
:104E9000BDF90840BDF90C2004808280C38010BD9C
:104EA0000B680846D3F8D43018470B680846D3F887
:104EB000E0301847B1F914017047B1F81431B1F876
:104EC0001A21B1F842001344C01A00B27047B1F978
:104ED00016017047B1F81631B1F81821B1F8400049
:104EE0001344C01A00B270470B6808461146D3F845
:104EF0001431184730B5B2F91651B2F81841B2F86A
:104F000040102C44B2F942200580091B0024C280C5
:104F10004480818030BD02808380BDF90020BDF9CE
:104F200004304280C38070470B680846D3F8EC30E9
:104F300018470B680846D3F8F8301847B1F916013E
:104F40007047B1F81631B1F81821B1F84000134498
:104F5000C01A00B27047B1F914017047B1F81431AA
:104F6000B1F81A21B1F842001344C01A00B27047D8
:104F70000B6808461146D3F81831184730B585B08C
:104F80000368044601816D460146D3F884303C3401
:104F90002846984795E8070084E8070005B030BD2B
:104FA00030B585B00368044641816D460146D3F8AB
:104FB00084303C342846984795E8070084E8070089
:104FC00005B030BD0022028042808280C2807047DE
:104FD00080F836107047036870B504461B6B1546A1
:104FE00098472368204629465B6EBDE87040184705
:104FF0000020704700224FF0FF318260C0E900219D
:105000007047806C704770477047704770477047B3
:1050100070477047704770477047704770477047D8
:1050200070477047704770477047704770477047C8
:1050300030B444680346C2689B68551004EB6200B4
:10504000D20748BF625930BC48BFD35818470346FF
:10505000406830B19A681AB9D86800F0010070470A
:105060000120704710B504464C2132F037FB204632
:1050700010BD10B5044640F26C4132F02FFB2046C3
:1050800010BD10B50446402132F028FB204610BD6B
:1050900010B50446402132F021FB204610BD10B56A
:1050A0000446102132F01AFB204610BD38B50346E5
:1050B0000846D3E90C540B68D3F88C30984729463E
:1050C00002462046BDE838401AF0B6BD38B5034662
:1050D0000846D3E90C540B68D3F894309847294616
:1050E00002462046BDE838401AF0A6BD00F5286308
:1050F000994270B504460D4603D11FF065F9FFF7DC
:10510000FDF804F618539D4203D123682046DB6A5C
:10511000984704F698539D4203D1236820461B6BA1
:10512000984704F618639D4203D1236820465B6BC1
:10513000984704F594531C339D4203D123682046BD
:105140009B6B984704F6FC239D4203D123682046BD
:10515000DB6B984704F6F4339D4203D12368204665
:105160001B6C984704F6C4639D4203D12368204614
:105170005B6C984704F644739D4203D12368204634
:105180009B6C984704F6C4739D4203D12368204664
:10519000DB6C984704F547639D4203D123682046A2
:1051A0001B6D984704F5835310339D4203D1236848
:1051B00020465B6D984704F5875310339D4203D119
:1051C000236820469B6D984704F533639D4203D1C5
:1051D00023682046DB6D984704F58E5314339D42B7
:1051E00003D1236820461B6E984704F58C531C336B
:1051F0009D4205D1236820465B6EBDE8704018478C
:1052000070BD08B590F82C300BB1FEF733FC08BD2B
:1052100008B5FEF72FFC08BD0A1E10B503DBB0F978
:105220001E41944206DC084B40F23961074A0848A7
:1052300033F0D2FE0368D0F84441D3F88031984768
:1052400054F8200010BD00BF47BF03086ABF030821
:10525000B9BF03080B1E10B5044603DBB0F91E21CD
:105260009A4206DC074B40F23361074A074833F0A5
:10527000B3FE0368D3F884319847D4E94F2302FB87
:10528000003010BD47BF030816C00308B9BF0308AC
:10529000036870B55E6B0446114B8DB21B682BB969
:1052A000104B6C21104A114833F096FE1049828D44
:1052B0000988914203D80F4B6D210B4AF3E713F88D
:1052C00012200D4B1B6853F8220003681B6B984794
:1052D000291A3346204609B2BDE87040184700BF7E
:1052E000E0AA012065C00308A7C00308E2C00308C4
:1052F000E4AA012029C10308E8AA0120036870B5C7
:1053000004461B6B154698472368204629465B6B6D
:10531000BDE87040184770B504461D46BDF91060E1
:10532000FFF7ECFF2368294620469B6B98472368CC
:1053300031462046DB6BBDE8704018474FF4807162
:1053400000228184054982620160C0E90122C0E92E
:105350000322C0E90522C0E90722704740F703088D
:105360000022C0E90122C0E90322C0E90522C0E908
:1053700007224FF480728284014A0260704700BFA6
:1053800080DD030810B504462622002134F0E2F83F
:105390002046FFF7E5FF044B20462360FF2384F8F7
:1053A00026300023A36210BD3802040837B501ABD4
:1053B000154620F061FF00282A4601994FEA401463
:1053C0004FF0200004DB20F076FF204403B030BD16
:1053D00020F071FF201AF9E770B5B0F81A310E46C7
:1053E000B0F91441B0F842502344ED1A2DB22C44C8
:1053F000691ED0E94D32013CD21AF01AFFF7D6FFF0
:10540000C0EB441070BD38B504460D46B4F81631F3
:10541000B4F818110B44B4F84010C91AD0E94B0283
:1054200009B2121A281A0139FFF7C0FFB4F9163170
:1054300000EB431038BD000010B5044626220021C1
:1054400034F088F82046FFF78BFF0A4B4FF47F02B9
:1054500020462360084BA3624FF6FF73A385002309
:10546000C4E90C324FF0FF322387E363C4E9102311
:1054700010BD00BFA801040878DC030810B504467D
:10548000FFF7DAFF024B204623600023A36410BD20
:1054900058DF030810B504462622002134F05AF8DC
:1054A0002046FFF75DFF00232046A36284F82C30DE
:1054B000012384F82430044B23604FF6FF73E38507
:1054C000238684F8323010BDA00204081388838636
:1054D0001CF0E1B910B50446FFF7DCFF034B204692
:1054E00023604FF6FF73A38610BD00BF340104088C
:1054F00010B4C46B4A01B4EB411F04D05DF8044BF7
:10550000C26319F0DDBD5DF8044B70472DE9F04F23
:105510000446C9B0002521F079F8A046DE4B04F11D
:105520006C0904F19807E563012648F8403B4046C2
:10553000FFF728FF4846FFF725FFC8213846DFF868
:1055400070B31AF015FBD54B2946C722C4F8983022
:1055500004F5F27338460BF1240AC4E97565C4E911
:105560007735FFF74FF9CE4BC4F8983004F2045367
:1055700018463A9319F0B0FB0A23C4F83465C4F80E
:105580003835C84B84F83C65C4F8043504F24453FC
:10559000C4F830551846C4F840553B9319F09CFBAD
:1055A0000A23C4F8746584F87C65C4F87835BE4B6A
:1055B000C4F87055C4F8443504F28453C4F88055D7
:1055C00018463C9319F088FBB84B04F5B762C4F851
:1055D000B055C4F884354FF0020310462692A4F863
:1055E000B435FFF74BFF04F2046210462792FFF731
:1055F00045FF04F5CA6210462892FFF73FFF04F208
:105600009C6210462992FFF739FF04F5DD621046CF
:105610002A92FFF733FF04F234721046119219F008
:105620002FFD04F2A47210463992FEF7A9FB04F58F
:10563000F762C4F8A4B71046C4F8ACA7C4F8B057D2
:10564000129219F01DFD04F6280210463892FEF75A
:1056500097FB04F63C02C4F828B81046C4F830A8FA
:10566000C4F83458139219F00BFD04F6AC0210463E
:105670003792FEF785FB04F50C62C4F8ACB810460F
:10568000C4F8B4A8C4F8B858149219F0F9FC04F599
:10569000136210463692FEF773FB04F64412C4F808
:1056A00030B94FF4887B1046C4F838A9C4F83C5987
:1056B0004FF07F4A079216F043F804F65422104642
:1056C0000892FFF73BFE04F5286210462B92FFF785
:1056D000E1FE04F6B42210461692FFF7ADFE04F682
:1056E000FC2210462C92FFF7D5FE04F533621046DB
:1056F0002D92FFF7CFFE04F6643210461792FFF7A3
:105700009BFE04F6AC3210461892FFF795FE04F6A5
:10571000F43210462E92FFF7BDFE04F628421046E2
:105720001992FFF789FE04F5476210462F92FFF7A2
:10573000B1FE04F6A44210461A92FFF77DFE04F66D
:10574000EC4210460992FFF7F9FD04F61852104694
:105750003092FFF7BFFE04F5556210461B92FFF72B
:105760006BFE04F6985210463192FFF7B3FE04F533
:105770005D6210461C92FFF75FFE04F61862104649
:105780003292FFF7A7FE04F5656210461D92FFF7FF
:1057900053FE04F6986210460A92FFF7CFFD04F616
:1057A000C46210463392FFF795FE04F6FC62104681
:1057B0001E92FFF741FE04F6447210463492FFF742
:1057C00089FE04F67C7210461F92FFF735FE04F640
:1057D000C47210463592FFF77DFE04F6FC72104647
:1057E0002092FFF729FE04F582521346043318462F
:1057F0000B93FFF7A3FD04F583521032104621925C
:10580000FFF768FE04F58552083210460D92FFF747
:1058100013FE04F58752103210462292FFF73AFE2B
:1058200004F589521346043318461593FFF726FEF4
:1058300004F58B52103210460C92FFF77FFD04F5F1
:105840008C521C3210462392FFF744FE04F58E5210
:10585000143210462492FFF73DFE04F590520C32AC
:1058600010460E92FFF7E8FD04F5925214321046EE
:105870000F92FFF7E1FD04F594521C321046259279
:105880001CF0C4F904F59652183210461092FFF736
:10589000D3FD04F500530DE098E1030888FB0308ED
:1058A000E8DF0308E8DD0308A0DE0308CCFE0308F8
:1058B000ECF80308634A04F59C504FF4E151C3F837
:1058C000BC4FC3F8B82F18305F4AC3F8C45FC3F8A1
:1058D000C02F1DF0BDF82A4640464FF4F07329460C
:1058E000CDF800B0FFF717FD231D4146C4F868A0AE
:1058F00018463D9316F09DF84FF4F0732A4648463B
:105900002946CDF800B0FFF706FD4946201DC4F832
:1059100094A016F08EF8FA2240F2291338460F218F
:1059200000922A464FF0FF3BFFF7F5FC3146384620
:105930002A46FFF725F938462B462A462946009580
:105940001AF0C8F82B4638462A462946009519F021
:10595000C4FF38464FF482722946FEF7E4FFD4F8BC
:10596000341528204FF04608324684F83C654843F9
:1059700004F5995984F82A850028C4F830B5B8BFD1
:105980004042C4F838051AF057F93A99C4F8380576
:105990003846C4F8346519F0ABFFD4F874153246B4
:1059A00084F87C65480184F86A85C4F870B50028DD
:1059B000DFF8B080B8BF4042C4F878051AF03CF96F
:1059C0003B99C4F878053846C4F874653EAE19F0C2
:1059D0008FFF1E4B38463C99C4F8B0354FF0020398
:1059E000A4F8B43519F084FF39460F27201D16F0AE
:1059F00020F8FA223C23394626980097FFF78BFCC3
:105A0000D4F8B83526993046D3F88430C4F8E8B5D0
:105A1000A4F8EC55984704F2F45396E8070083E89D
:105A20000700D8F800302BB9094B6021094A0A4811
:105A300033F0D2FA094B1B88152B15D8084B61217E
:105A4000044AF4E780E10308ED50000816BCC4FFE7
:105A500065C0030867C10308E2C00308E4AA012087
:105A600029C10308E0AA0120D14B152104F5995A58
:105A7000186801F0CFFECF4A03460A2148460AF1D2
:105A8000140A22F0C7FA1623C4F8009646A9DFF8D4
:105A900030932698ADF81C31CDF818911BF0A0FE7C
:105AA0002699201D15F0C5FF3C23FA222798194698
:105AB0000097FFF730FCD4F8043627993046D3F826
:105AC0008430C4F834B6A4F83856984704F5C8634F
:105AD00096E8070083E80700D8F80030002BA3D031
