:020000040800F2
:1000000000000520691B0008851A0008871A0008EF
:10001000891A00088B1A00088D1A000800000000D9
:1000200000000000000000000000000071860008D1
:100030008F1A00080000000011870008758700086B
:10004000B91B0008B91B0008B91B0008B91B000840
:10005000B91B0008B91B0008B91B0008B91B000830
:10006000B91B0008B91B0008B91B0008B91B000820
:10007000B91B0008B91B0008B91B0008B91B000810
:10008000B91B0008B91B0008B91B0008B91B000800
:10009000B91B0008B91B0008B91B0008B91B0008F0
:1000A000B91B0008B91B0008B91B0008B91B0008E0
:1000B000B91B0008B91B0008B91B0008B91B0008D0
:1000C000B91B0008B91B0008B91B0008B91B0008C0
:1000D000B91B0008B91B0008B91B0008B91B0008B0
:1000E000B91B0008B91B0008B91B0008B91B0008A0
:1000F000B91B0008B91B0008B91B0008B91B000890
:10010000B91B0008B91B0008B91B0008B91B00087F
:10011000B91B0008B91B0008911A0008B91B000898
:10012000B91B0008B91B0008B91B0008B91B00085F
:10013000B91B0008B91B0008B91B0008B91B00084F
:10014000B91B0008B91B0008B91B0008B91B00083F
:10015000B91B0008B91B0008B91B0008B91B00082F
:10016000B91B0008B91B0008B91B0008B91B00081F
:10017000B91B0008B91B0008B91B000800000000EB
:10018000B91B0008B91B0008B91B0008B91B0008FF
:10019000B91B0008B91B0008B91B0008B91B0008EF
:1001A0009D1A0008B91B0008A91A0008B91B00080D
:1001B000B91B0008B91B0008B91B0008B91B0008CF
:0801C000B91B0008B91B00087F
:1001D00010B5054C237833B9044B13B10448AFF381
:1001E00000800123237010BD4003002000000000A8
:1001F000B82D030808B5034B1BB103490348AFF3FF
:10020000008008BD0000000044030020B82D030852
:1002100001F0FF01102A2BDB10F0070F08D010F8B7
:10022000013B013A8B422DD010F0070F42B3F6D1BB
:10023000F0B441EA012141EA014122F007047FF0D4
:1002400000070023F0E80256083C85EA010586EA2B
:10025000010685FA47F5A3FA87F586FA47F6A5FA67
:1002600087F68EB9EED1F0BC01F0FF0102F0070273
:1002700032B110F8013B013A83EA010313B1F8D11E
:100280000020704701387047002D06BF35460338FF
:10029000073815F0010F07D1013015F4807F02BF38
:1002A000013015F4C03F0130F0BC0138704700BF89
:1002B00081F0004102E000BF83F0004330B54FEA17
:1002C00041044FEA430594EA050F08BF90EA020F84
:1002D0001FBF54EA000C55EA020C7FEA645C7FEA17
:1002E000655C00F0E2804FEA5454D4EB5555B8BF3A
:1002F0006D420CDD2C4480EA020281EA030382EAAB
:10030000000083EA010180EA020281EA0303362D3C
:1003100088BF30BD11F0004F4FEA01314FF4801C0F
:100320004CEA113102D0404261EB410113F0004F21
:100330004FEA03334CEA133302D0524263EB4303D8
:1003400094EA050F00F0A780A4F10104D5F1200E76
:100350000DDB02FA0EFC22FA05F2801841F10001D1
:1003600003FA0EF2801843FA05F359410EE0A5F1A5
:1003700020050EF1200E012A03FA0EFC28BF4CF0D6
:10038000020C43FA05F3C01851EBE37101F000458C
:1003900007D54FF0000EDCF1000C7EEB00006EEB99
:1003A0000101B1F5801F1BD3B1F5001F0CD3490823
:1003B0005FEA30004FEA3C0C04F101044FEA44527A
:1003C00012F5800F80F09A80BCF1004F08BF5FEA01
:1003D000500C50F1000041EB045141EA050130BDE1
:1003E0005FEA4C0C404141EB0101013C28BFB1F5F3
:1003F000801FE9D291F0000F04BF01460020B1FA3E
:1004000081F308BF2033A3F10B03B3F120020CDA10
:100410000C3208DD02F1140CC2F10C0201FA0CF0EE
:1004200021FA02F10CE002F11402D8BFC2F1200C53
:1004300001FA02F120FA0CFCDCBF41EA0C01904009
:10044000E41AA2BF01EB0451294330BD6FEA040452
:100450001F3C1CDA0C340EDC04F11404C4F120023D
:1004600020FA04F001FA02F340EA030021FA04F34F
:1004700045EA030130BDC4F10C04C4F1200220FAA6
:1004800002F001FA04F340EA0300294630BD21FAE4
:1004900004F0294630BD94F0000F83F4801306BFAA
:1004A00081F480110134013D4EE77FEA645C18BF9E
:1004B0007FEA655C29D094EA050F08BF90EA020F35
:1004C00005D054EA000C04BF1946104630BD91EA2D
:1004D000030F1EBF0021002030BD5FEA545C05D130
:1004E0004000494128BF41F0004130BD14F580046F
:1004F0003CBF01F5801130BD01F0004545F0FE41E3
:1005000041F470014FF0000030BD7FEA645C1ABF17
:10051000194610467FEA655C1CBF0B46024650EA4E
:10052000013406BF52EA033591EA030F41F400217A
:1005300030BD00BF90F0000F04BF0021704730B500
:100540004FF4806404F132044FF000054FF00001D5
:1005500050E700BF90F0000F04BF0021704730B596
:100560004FF4806404F1320410F0004548BF40426B
:100570004FF000013EE700BF42004FEAE2014FEAC0
:1005800031014FEA02701FBF12F07F4393F07F4F9B
:1005900081F06051704732F07F4208BF704793F09E
:1005A0007F4F04BF41F40021704730B54FF46074B1
:1005B00001F0004521F000411CE700BF50EA0102B4
:1005C00008BF704730B54FF000050AE050EA01025D
:1005D00008BF704730B511F0004502D5404261EBCD
:1005E00041014FF4806404F132045FEA915C3FF40E
:1005F000D8AE4FF003025FEADC0C18BF03325FEAAB
:10060000DC0C18BF033202EBDC02C2F1200300FA5B
:1006100003FC20FA02F001FA03FE40EA0E0021FA80
:1006200002F11444BDE600BF70B54FF0FF0C4CF46E
:10063000E06C1CEA11541DBF1CEA135594EA0C0F20
:1006400095EA0C0F00F0DEF82C4481EA030621EA5B
:100650004C5123EA4C5350EA013518BF52EA033596
:1006600041F4801143F4801338D0A0FB02CE4FF048
:100670000005E1FB02E506F00042E0FB03E54FF078
:100680000006E1FB03569CF0000F18BF4EF0010E70
:10069000A4F1FF04B6F5007F64F5407404D25FEA6C
:1006A0004E0E6D4146EB060642EAC62141EA55511F
:1006B0004FEAC52040EA5E504FEACE2EB4F1FD0C61
:1006C00088BFBCF5E06F1ED8BEF1004F08BF5FEADF
:1006D000500E50F1000041EB045170BD06F0004691
:1006E00046EA010140EA020081EA0301B4EB5C043E
:1006F000C2BFD4EB0C0541EA045170BD41F4801136
:100700004FF0000E013C00F3AB8014F1360FDEBF5A
:10071000002001F0004170BDC4F10004203C35DA36
:100720000C341BDC04F11404C4F1200500FA05F3B9
:1007300020FA04F001FA05F240EA020001F000425A
:1007400021F0004110EBD37021FA04F642EB0601D0
:100750005EEA430E08BF20EAD37070BDC4F10C04FA
:10076000C4F1200500FA04F320FA05F001FA04F2BE
:1007700040EA020001F0004110EBD37041F10001AA
:100780005EEA430E08BF20EAD37070BDC4F12005B5
:1007900000FA05F24EEA020E20FA04F301FA05F21D
:1007A00043EA020321FA04F001F0004121FA04F2C5
:1007B00020EA020000EBD3705EEA430E08BF20EA95
:1007C000D37070BD94F0000F0FD101F000464000CF
:1007D00041EB010111F4801F08BF013CF7D041EA51
:1007E000060195F0000F18BF704703F00046520055
:1007F00043EB030313F4801F08BF013DF7D043EA26
:100800000603704794EA0C0F0CEA135518BF95EADB
:100810000C0F0CD050EA410618BF52EA4306D1D162
:1008200081EA030101F000414FF0000070BD50EA81
:10083000410606BF1046194652EA430619D094EA0B
:100840000C0F02D150EA013613D195EA0C0F05D1F5
:1008500052EA03361CBF104619460AD181EA030149
:1008600001F0004141F0FE4141F470014FF0000001
:1008700070BD41F0FE4141F4780170BD70B54FF09C
:10088000FF0C4CF4E06C1CEA11541DBF1CEA13551C
:1008900094EA0C0F95EA0C0F00F0A7F8A4EB0504FE
:1008A00081EA030E52EA03354FEA013100F08880F5
:1008B0004FEA03334FF0805545EA131343EA1263BE
:1008C0004FEA022245EA111545EA10654FEA002673
:1008D0000EF000419D4208BF964244F1FD0404F52C
:1008E000407402D25B084FEA3202B61A65EB030588
:1008F0005B084FEA32024FF480104FF4002CB6EB45
:10090000020E75EB030E22BFB61A754640EA0C00C4
:100910005B084FEA3202B6EB020E75EB030E22BF04
:10092000B61A754640EA5C005B084FEA3202B6EB45
:10093000020E75EB030E22BFB61A754640EA9C0004
:100940005B084FEA3202B6EB020E75EB030E22BFD4
:10095000B61A754640EADC0055EA060E18D04FEA92
:10096000051545EA16754FEA06164FEAC30343EA32
:1009700052734FEAC2025FEA1C1CC0D111F4801FFF
:100980000BD141EA00014FF000004FF0004CB6E7F8
:1009900011F4801F04BF01430020B4F1FD0C88BF97
:1009A000BCF5E06F3FF6AFAEB5EB030C04BFB6EBA2
:1009B000020C5FEA500C50F1000041EB045170BD95
:1009C0000EF0004E4EEA113114EB5C04C2BFD4EBC2
:1009D0000C0541EA045170BD41F480114FF0000E46
:1009E000013C90E645EA060E8DE60CEA135594EAC2
:1009F0000C0F08BF95EA0C0F3FF43BAF94EA0C0FC5
:100A00000AD150EA01347FF434AF95EA0C0F7FF439
:100A100025AF104619462CE795EA0C0F06D152EA8D
:100A200003353FF4FDAE1046194622E750EA410671
:100A300018BF52EA43067FF4C5AE50EA41047FF482
:100A40000DAF52EA43057FF4EBAE12E74FEA4102E5
:100A5000B2F1E04324BFB3F5001CDCF1FE5C0DD91C
:100A600001F0004C4FEAC0024CEA5070B2F1004F66
:100A700040EB830008BF20F00100704711F0804F69
:100A800021D113F13872BCBF01F00040704741F42E
:100A900080114FEA5252C2F11802C2F1200C10FA32
:100AA0000CF320FA02F018BF40F001004FEAC12316
:100AB0004FEAD32303FA0CFC40EA0C0023FA02F3BA
:100AC0004FEA4303CCE77FEA625307D150EA013390
:100AD0001EBF4FF0FE4040F44000704701F0004060
:100AE00040F0FE4040F40000704700BF7BB972B98F
:100AF0000029BEBF00204FF0004106E008BF0028DB
:100B00001CBF6FF000414FF0FF3000F0D3B9ADF1E2
:100B1000080C6DE904CE002909DB002B1ADB00F07C
:100B20004DF8DDF804E0DDE9022304B070474042EF
:100B300061EB4101002B1BDB00F040F8DDF804E025
:100B4000DDE9022304B0404261EB4101524263EB14
:100B500043037047524263EB430300F02FF8DDF884
:100B600004E0DDE9022304B0404261EB410170473B
:100B7000524263EB430300F021F8DDF804E0DDE9C5
:100B8000022304B0524263EB4303704753B94AB99E
:100B9000002908BF00281CBF4FF0FF314FF0FF3085
:100BA00000F088B9ADF1080C6DE904CE00F006F84C
:100BB000DDF804E0DDE9022304B070472DE9F047D9
:100BC000089D8E4604468846002B4AD18A42174625
:100BD00062D9B2FA82F64EB1C6F1200301FA06F8E4
:100BE00020FA03F3B74043EA0808B4404FEA174E2F
:100BF0001FFA87FCB8FBFEF1230C0EFB118843EAB9
:100C0000084301FB0CF29A4209D9FB1801F1FF30AD
:100C100080F0EA809A4240F2E78002393B449A1A17
:100C2000A3B2B2FBFEF00EFB102243EA024300FB2C
:100C30000CFC9C4509D9FB1800F1FF3280F0D680EE
:100C40009C4540F2D3803B44023840EA0140A3EB8C
:100C50000C0300211DB1F3400022C5E90032BDE8BC
:100C6000F0878B4205D90DB1C5E900010021084686
:100C7000F5E7B3FA83F1002946D1734502D38242E6
:100C800000F20581841A6EEB030201209046002DCC
:100C9000E5D0C5E90048E2E7002A00F09080B2FA0A
:100CA00082F6002E40F0A4808A1A030C4FEA174EF9
:100CB00080B2BCB20121B2FBFEFC0EFB1C2243EA57
:100CC000024304FB0CF29A4207D9FB180CF1FF38DF
:100CD00002D29A4200F2E080C4469B1AB3FBFEF2B5
:100CE0000EFB123340EA034302FB04F49C4207D993
:100CF000FB1802F1FF3002D29C4200F2CA80024689
:100D00001B1B42EA0C40A5E7C1F120068B4022FAEA
:100D100006F71F430EFA01F420FA06F32EFA06FE38
:100D20004FEA1749234300FA01F81FFA87FCBEFB7C
:100D3000F9F01C0C09FB10EE44EA0E4400FB0CFE1B
:100D4000A64502FA01F209D93C1900F1FF3A80F0F8
:100D50009C80A64540F2998002383C44A4EB0E04E6
:100D60001FFA83FEB4FBF9F309FB13444EEA044473
:100D700003FB0CFCA44508D93C1903F1FF3E80F0AD
:100D80008280A4457FD9023B3C4443EA0040A4EB67
:100D90000C04A0FB02EC64457346E14662D35FD0CD
:100DA0005DB1B8EB030264EB090404FA06F622FA1B
:100DB00001F31E43CC40C5E9006400214FE7B1FBBD
:100DC000F2FC010C41EA0E4180B240EA01423B468E
:100DD00038463C46B846BE462026B1FBF7F1A2EBAA
:100DE000080241EA0C4166E7014618E710462CE785
:100DF000C6F120022EFA02F3B740B14020FA02F207
:100E00004FEA174E0A43B3FBFEF8BCB20EFB183391
:100E1000110C41EA034108FB04F9B04089454FEA4F
:100E2000104380B23ED9791808F1FF3C01D28945C0
:100E30001FD8A1EB0901B1FBFEF909FB04F80EFB79
:100E4000191192B242EA0142424529D2BA1809F177
:100E5000FF31C4D24245C2D2A9F102013A44BEE7F1
:100E6000F0459DD2BEEB02036CEB070C0138E14666
:100E700096E7A7EB09094944A8F1020CB1FBFEF97A
:100E800009FB04F8DBE773467FE7504666E7084650
:100E9000FDE63B44023A33E7ACF1020C3B441CE76D
:100EA00049469CE7A1EB0901C446B1FBFEF909FBE9
:100EB00004F8C4E7704700BF0149002008F0D4BD22
:100EC0006D200008000000002DE9F047DFF884A045
:100ED000002400261C4F55462DED028BB0EE088AEB
:100EE0000FF25C09D9E9008920460134FFF732FB93
:100EF00042464B46FFF798FB32463B46FFF794FBD2
:100F0000FFF7A4FD00EE100A2FF0ACFE20EE080A59
:100F1000B4F5807FAAEC010AE6D10C4C0C4E236894
:100F200001205A1C05EB83031B6822603360236891
:100F3000DBB2236006F0AEFFF1E700BFAFF3008045
:100F4000182D4454FB2119400000703F5C0700201D
:100F5000600700205C03002010B594B0102200212F
:100F600002240AA830F0ECFF1422002103A830F07C
:100F7000E7FF1D4B192108A81A6C42F080521A6431
:100F80001B6C03F080530193019B184B1A6842F4C9
:100F900040421A6001221B6803F440430293029B03
:100FA0004FF48033CDE908234FF48003CDE90E439D
:100FB0004FF4D873CDE91244CDE9101305F056FF74
:100FC00005F0C0FC0F2300200721CDE903344FF4C6
:100FD000A053CDE905034FF4805303A8079306F00F
:100FE0002DF914B010BD00BF003802400070004061
:100FF00030B54FF480738FB04FF080720E4D069372
:101000009F23099201220093002304466946284643
:101010000593CDE90A2341F28832CDE90733CDE9C2
:101020000C3305F0F5FD41F288322146284605F0E3
:10103000B9FE0FB030BD00BFB407002000B54FF4BB
:10104000807391B04FF04072EF2808934FF0EB039C
:1010500002A90D4802934FF4406309934FF40053E3
:1010600005934FF00003CDE90A3214BF0A2206228D
:101070000F9307926A46CDE90D33CDE9003305F0B1
:101080000BFE11B05DF804FBB40700202DE9804889
:101090009BB01022002101250DA84FF0104930F01F
:1010A0004FFF002404F09EFBC74B0DA8ADF8345051
:1010B0001094CDE90E9304F0B3FB17230DA88DF81F
:1010C00035508DF83C308DF8425004F0A9FB0420D7
:1010D00004F096FBBFF34F8FBFF36F8FBB4AC2F88C
:1010E0005042BFF34F8FBFF36F8F536943F4003308
:1010F0005361BFF34F8FBFF36F8FC2F88440BFF3CC
:101100004F8FD2F8803043F6E074C3F3C900C3F3C5
:101110004E335B0103EA0406014646EA8175013954
:10112000C2F86052F9D2203B13F1200FF2D1BFF385
:101130004F8F536943F480335361BFF34F8FBFF335
:101140006F8F04F0B5FA0024FFF706FF1422002188
:101150000DA830F0F5FE9E4B10219E481A6B01271A
:101160004FF010084FF0030B42F010024FF4805A7A
:10117000994D4FF004091A631A6B984E02F0100251
:101180000292029A1A6B42F002021A631A6B02F080
:1011900002020392039A1A6B42F001021A631A6B5D
:1011A00002F001020492049A1A6B42F040021A63A0
:1011B0001A6B02F040020592059A1A6B42F4007213
:1011C0001A631A6B02F400720692069A1A6B42F0C6
:1011D00008021A631A6B02F008020792079A1A6B48
:1011E00042F480621A631A6B02F480620892089AD1
:1011F0001A6B42F020021A631A6B02F02002099265
:10120000099A1A6B42F480721A631A6B02F48072A4
:101210000A920A9A1A6B42F080021A631A6B02F061
:1012200080020B920B9A1A6B42F004021A6300229E
:101230001B6B03F004030C930C9B04F03DFE012296
:101240000821674804F038FE01224FF480516548B8
:1012500004F032FE0022C021634804F02DFE00227B
:101260004021624804F028FE0DA95A48CDE90D87B7
:10127000CDE90F4B04F09CFC08230DA95848CDE99B
:101280000D37CDE90F4404F093FC0DA95548CDE985
:101290000DA7CDE90F4404F08BFCC0220DA95248E4
:1012A000CDE90D27CDE90F4B04F082FC40220DA9BA
:1012B0004E48CDE90D27CDE90F4B04F079FC4C48A1
:1012C0004C49848001600762C0E9054404F0D4FA07
:1012D00049492846C5E90014C5E90244C5E90A445C
:1012E000C5E90C4404F067FB39462846434D04F039
:1012F00019FC40234FF4C07241493046B460F46198
:10130000B462C6E905324FF40062C6E9082A4FF01C
:10131000020A0722C6E900140DA9CDF84CA0C6E9BF
:101320000398CDE90DA2CDE90F92CDE911BA06F0EF
:10133000DBFA29464FF6FF7230460194C5E9007882
:10134000C5E9027406F0F0FA384604F0D5F92946EA
:101350004FF6FF723046C5E900A8C5E9027406F0F1
:10136000E3FA082329464FF6FF723046C5E900B874
:10137000C5E9023406F0D8FA4FF40C734FF6FF7249
:10138000294601933046019BAF60EB60C5E90098A8
:1013900006F0CAFA40F22B7130461A4D06F0E3FA15
:1013A0004FF0204343F2D202642040F215261A6027
:1013B00004F0A2F9144B154A28462C62C5E9002313
:1013C000C5E9024724E000BF1B00000300ED00E078
:1013D0000038024000040240FC0800208007002082
:1013E000002802400020024000080240001802408D
:1013F0003C0900200030024000B002406407002099
:10140000400100A0A808002068474020005C004080
:10141000C5E90444C5E9064404F08FFE2146284688
:1014200005F0B2F821462846404D05F0D3F83422A5
:1014300021460DEB020030F083FD3D4B2821352085
:1014400040F2352C2C61AC8685F83640C5E9003475
:101450000923C5E905130B23C5E9070340F21B1354
:101460002846C5E9096340F21D13C5E90244C5E9F0
:101470000BC305F053F9FF214FF4806E4FF4F07267
:101480004FF4887328460D941893ADF864408DF896
:101490006640CDE912140521CDE914E14FF0404139
:1014A000CDE90E24CDE9161222460DA9CDE9103A58
:1014B00005F0FFF91F48204B0462C0E90037C0E97E
:1014C00002984FF4A0634FF01808C0E90644C0E941
:1014D000048305F04BFB0DA8FFF78AFD9DF834004F
:1014E000FFF7ACFD5C2004F06BF900F03BFB00F073
:1014F00065FB00F062FB06F043FC104A21461048F1
:1015000006F078FC0F4B104A214618600F4806F091
:1015100071FC0F4B0F4A214618600F4806F06AFC19
:101520000E4B186006F046FCFEE700BF00080020E6
:1015300000680140B4070020001000A06C5F0308A1
:10154000C90E00087C070020485F0308CB1B000879
:1015500078070020245F030855370008740700202F
:101560000268034B9A4201D104F0B4B8704700BF3F
:1015700000100040704700000D4B82B00F216FF04B
:1015800001001A6C42F080521A641A6C02F0805208
:101590000092009A5A6C42F480425A6400225B6CBA
:1015A00003F480430193019B02B004F0C9B800BF6B
:1015B00000380240026882B0084B9A420BD1D3F83F
:1015C000302803F5006342F480521A631B6B03F466
:1015D00080530193019B02B0704700BF003002406E
:1015E0000E4B07B502689A4215D1A3F5F0430521C9
:1015F0005A201A6B42F400021A6300221B6B03F498
:1016000000030193019B04F09BF85A2003B05DF89E
:1016100004EB04F0C7B803B05DF804FB00B002406F
:1016200010B5A8B004461422002102A830F088FCAE
:101630008422002107A830F083FC2268174B9A42CD
:101640002AD14FF4803307A8079305F0C3FE08B1F1
:10165000FFF790FF124C4FF4C07201211148236B29
:1016600043F080032363236B03F080030093009B0C
:101670001223CDE902230323CDE90413042302A995
:10168000069304F095FA236C43F400032364236C5F
:1016900003F400030193019B28B010BD005C0040DF
:1016A00000380240001C0240026808B5094B9A420B
:1016B0000FD1094A80210948136C23F400031364F5
:1016C00004F05AFB4FF480710448BDE8084004F070
:1016D00053BB08BD005C004000380240001C0240C3
:1016E00070B5ACB004461422002106A830F028FCE6
:1016F000842200210BA830F023FC2268484B9A4238
:1017000040F08C800823052001240B934FF4C07314
:1017100010930223CDE911304FF400330BA8CDE92B
:10172000154305F057FE08B1FFF724FF3D4B002499
:1017300002250E265A6C06A93B4842F080625A6484
:101740005A6C02F080620092009A1A6B42F010020A
:101750001A631A6B02F010020192019A1A6B42F49A
:1017600000721A631A6B02F400720292029A1A6BE8
:1017700042F480621A631A6B02F480620392039A45
:101780001A6B42F040021A631A6B02F04002049294
:10179000049A1A6B42F480721A631B6B03F4807311
:1017A0000593059B1023CDE90635CDE908440A963B
:1017B00004F0FEF94EF6FF7306A91C480A96CDE91F
:1017C0000635CDE9084404F0F3F9F72306A91848D3
:1017D0000A96CDE90635CDE9084404F0E9F94FF45D
:1017E000805306A91348CDE906350923CDE90844FD
:1017F0000A9304F0DDF94FF4464306A90E480A9611
:10180000CDE90635CDE9084404F0D2F95820224646
:10181000052103F095FF582003F0C4FF2CB070BDE4
:1018200000680140003802400010024000240240DD
:10183000002802400018024000200240142200212B
:101840002DE9F0418AB004460DEB020030F078FB40
:1018500022682C4B9A4251D12B4B02250324092696
:101860009A6B4FF0040805A9284842F002020027AD
:101870009A639A6B02F002020192019A1A6B42F08B
:1018800010021A631A6B02F010020292029A1A6B8B
:1018900042F002021A631A6B02F002020392039AE8
:1018A0001A6B42F008021A631B6B03F008030493DF
:1018B000049BCDE90585CDE9084604F079F940237C
:1018C00005A91348CDE905350A23CDE90774099325
:1018D00004F06EF905A90E480996CDE90585CDE914
:1018E000077404F065F94FF4605305A90948099697
:1018F000CDE90535CDE9077404F05AF90AB0BDE821
:10190000F08100BF001000A000380240001002402B
:1019100000040240000C0240F0B5002387B003939E
:10192000294B1E68002E4DD10122022703250C24CD
:101930001A6001A9254B26489A6B42F001029A636E
:101940009B6B03F001030093009B4FF68373CDE97B
:101950000454CDE9013704F02BF948F2331301A9FF
:101960001C480594CDE90137CDE9036504F020F961
:101970004CF2037301A918480594CDE90137CDE96C
:10198000036504F015F94FF63F0301A913480594C8
:10199000CDE90137CDE9036504F00AF9282301A94F
:1019A0000F480594CDE90137CDE9036504F000F94E
:1019B000082301A90B480594CDE90137CDE903655A
:1019C00004F0F6F807B0F0BD6009002000380240CE
:1019D0000010024000180240000C024000140240B7
:1019E000001C024000080240214B1A6C42F0100219
:1019F00070B588B01A641B6C054601A903A803F0F2
:101A000010030293029B05F0C7FC069B4BBB05F03D
:101A1000B3FC184E184B336040F2E733F360174BBA
:101A2000B0FBF3F3013B3046736000233361B360D6
:101A3000B36106F0EBF8044680B9304605F0ACFF20
:101A4000044658B9362003F0ADFE0F2D0DD82246BE
:101A50002946362003F074FE094B1D60204608B06D
:101A600070BD05F089FC4000D3E70124F6E700BF14
:101A700000380240640900200010004040420F007E
:101A80003C0000207047FEE7FEE7FEE7FEE77047F8
:101A9000014805F0C3BF00BF64090020014804F0FD
:101AA000ABBE00BF00080020014803F0B0BF00BF7C
:101AB000FC0800200120704708B530F0F5FA162325
:101AC00003604FF0FF3008BD08B530F0EDFA162383
:101AD0000360FEE770B50D4614460E46731B9C422C
:101AE00001DC204670BDAFF3008006F8010BF5E77E
:101AF00070B50D4614460E46731B9C4201DC204611
:101B000070BD16F8010BAFF30080F5E74FF0FF3022
:101B100070474FF4005300204B607047012070471E
:101B2000002070470B4A0346116810B509B90A49ED
:101B30001160106809490A4C0344091B8B4206D9FD
:101B400030F0B2FA0C2303604FF0FF3010BD136089
:101B5000FCE700BFB0090020408401200000052000
:101B6000000A000070470000DFF834D0002103E0D5
:101B70000C4B5B58435004310B480C4B42189A42B3
:101B8000F6D30B4A02E0002342F8043B094B9A4289
:101B9000F9D303F0A5FC30F08DFAFFF777FA704720
:101BA00000000520308803080000002024010020E8
:101BB0004003002040840120FEE7704708B501F093
:101BC00091F9BDE8084001F013B901F08DB9406802
:101BD00070474160704700004FF0E022D2F8FC3DB2
:101BE00043F08073C2F8FC3D054B064AD3F8B01FA2
:101BF0000A43C3F8B02F1A6842F001021A60704716
:101C0000001000E055CEACC5521A02EB5302B2FBF5
:101C1000F3F07047014B5868704700BF001000E0B8
:101C2000704710B504460C212EF090FF204610BDE1
:101C3000036810B51B69044631B19847A268636810
:101C40009B1A0344636010BD9847A060FBE7000047
:101C5000024B7020024A1360DB6818471000002016
:101C6000B4090020704710B5044604212EF06EFF21
:101C7000204610BD73B50E4E0D461446336813B999
:101C8000002002B070BD1B69702098470028F7D073
:101C90003368702001AA0DF106015B699847BDF811
:101CA000043001202B60BDF806302360E9E700BF57
:101CB000B40900207FB501238DF817204FF47A7204
:101CC000CDE901320DF1170200920A46014605489E
:101CD00004F0A2FA10B1034804F084FA07B05DF8EA
:101CE00004FB00BFA80800207FB500230A464FF47C
:101CF0007A718DF817300123CDE901310DF117010B
:101D000000910146054804F061FB10B1034804F05E
:101D100069FA9DF8170007B05DF804FBA8080020D9
:101D2000032823D8DFE800F0020B131A104B102110
:101D300010481A68B2FA82F2520904F0BDB80C4B8E
:101D400040215A68B2FA82F252090B48F5E7084B73
:101D500080219A68B2FA82F25209F6E7044B4021D8
:101D60000648DA68B2FA82F25209E6E7704700BF25
:101D7000B809002000040240000802400018024098
:101D8000032823D8DFE800F0020B131A104B1021B0
:101D900010481A68003A18BF012204F08DB80C4BA5
:101DA00040215A68003A18BF01220B48F5E7084B5A
:101DB00080219A68003A18BF0122F6E7044B4021BF
:101DC0000648DA68003A18BF0122E6E7704700BF0C
:101DD000B809002000040240000802400018024038
:101DE00003280FD8DFE800F00206090B102106488F
:101DF00004F067B840210548FAE78021FBE740215D
:101E00000348F5E7704700BF0004024000080240A5
:101E10000018024008B5032813D8DFE800F0020AD2
:101E20000D0F1021084804F041F8431E5842584154
:101E300008BD40210548F6E78021FBE74021044822
:101E4000F1E70020F1E700BF000402400008024073
:101E50000018024070B5084D00240126E0B2FFF7DB
:101E6000D9FF18B12B68012B18BF2E60013404353F
:101E7000052CF3D170BD00BFB8090020012380F804
:101E8000781080F879307047704700207047000064
:101E900041640039024B18BF01211970704700BF1F
:101EA000FF760120704700207047836B0BB1084616
:101EB000184770474FF6FF707047406803689B698A
:101EC000184770477047704738B5044601F062F90B
:101ED000084923682046084DD3F8903098470023DE
:101EE000284684F84A30FFF777FE0123256184F8FD
:101EF000703038BD000000C0C809002001F0EEB805
:101F000001F0F2B870B501F06FF910490023C1F883
:101F10008430BFF34F8FD1F8803043F6E074C3F3C1
:101F2000C900C3F34E335B0103EA0406024646EAE6
:101F30008275013AC1F87452F9D2203B13F1200F97
:101F4000F2D1BFF34F8FBFF36F8F70BD00ED00E094
:101F500001F04CB901F09EB801F06EBA01F076BA0A
:101F600001F0A2B810B5044616F0F8FA236820462E
:101F7000D3F8BC30BDE81040184715F00BBD10B5C4
:101F8000044684212EF0E2FD204610BD90F8341066
:101F90000D4B10B590F878401A788C4209D03AB9B8
:101FA0000A490B4A08881488108001220C801A7094
:101FB00010BD002AFCD0064A0449148808880C8009
:101FC00010800022F3E700BFF8760120F6760120AA
:101FD000F476012070B50D46194635B9094B40F22B
:101FE000FF21094A09482FF0EDFCC0E90F52003AE1
:101FF000074B18BF01221A700368BDE87040D3F880
:1020000090301847332E03086B2E0308B92E0308AF
:10201000FE76012008B5094B1B888B4203D8084B7C
:102020001B88934205D9074BA321074A07482FF085
:10203000C9FC074B1980074B1A8008BDF4760120B4
:10204000F6760120FE2E0308612F0308B92E03083F
:10205000FA760120FC760120034690F87A0018B148
:10206000586803681B68184770470000014608B5A8
:10207000034B186801B1012116F08AFA012008BD4E
:1020800000770120034B00225A609A60024A1A60CE
:10209000704700BFC8090020985F03080121002293
:1020A00008B5084605F0AEFF0A4B186028B90A4B80
:1020B00028210A4A0A482FF085FC00220421012029
:1020C00006F06AF8074B186018B9074B2C21034A31
:1020D000F0E708BDD8090020A42F0308ED2F03085E
:1020E0001C300308D409002068300308024B4FF06D
:1020F000FF31186805F0DEBFD8090020014B1868D1
:1021000006F014B8D8090020024B0021186805F029
:10211000D1BF00BFD8090020FFF7F0BF002303485C
:1021200003491A46006806F07DB800BFD4090020B4
:102130000400002013B50023074C01A91A462068AB
:1021400006F0B2F84FF0FF33002201A9206806F034
:10215000ABF802B010BD00BFD409002003685B6C6F
:1021600018470120704703689B6A1847FEE7000084
:102170000E4B82B01A6B42F400021A631A6B02F41F
:1021800000020192019A1A6942F400021A611A6966
:1021900022F400021A61064B064A1A61064A5A6185
:1021A0004FF08062054B9A6002B0704700380240E1
:1021B000FC080020492400086D21000800E100E02F
:1021C00040F2EF3070470000054B4FF08062036033
:1021D000044BC3F88820BFF34F8FBFF36F8F704756
:1021E000C460030800E100E010B504464FF45A61F2
:1021F000FFF7EAFF20462EF0A9FC204610BD0000A4
:1022000008B50A2809D8DFE800F006100E0808080B
:10221000081010101000022008BD054B9021054A3F
:1022200005482FF0CFFB0020F6E70120F4E700BFC0
:10223000AA300308C53003081031030838B50C462E
:10224000887FFFF7DDFF174BA58AE28A586342EAD1
:10225000054221695A64628BD963521B1A6425684E
:10226000082D0ED19A611A6158620F4A207F42EA06
:102270000062DA61E2681A620C4A5961D9601A6038
:1022800038BD0022D8611A61E1680A0A4809C1F321
:10229000C40102F4784200F4FC6002430A439A63EA
:1022A000034AECE700B002400900010001230200EC
:1022B0000123030008B50B280BD8DFE800F0061255
:1022C000100A0A0A0A0808080808022008BD0520A2
:1022D000FCE7054B6F21054A05482FF073FB0020F2
:1022E000F4E70120F2E700BFAA3003085A310308DF
:1022F000103103082DE9F04191F81D800C4640464D
:10230000FFF7D8FFA77F05463846FFF7D3FF0646FD
:102310003846FFF775FFA18A628B434B521A1A6445
:102320009A61228B521A1A61E28A586342EA014288
:1023300021695A646268D963DA602068802828D0ED
:10234000227F0FD8202866D0402864D004281AD0D5
:1023500045EA0265344BB84545F40035DD6160D08F
:10236000324A44E0B0F5807F04D0B0F5007FEFD171
:102370002F4800E02F4840EA0262DA61E2681A6200
:102380005E62596132E045EA026242F40032DA618B
:10239000F6E7A068021DDA62227F45EA026545F48D
:1023A0000035DD615E625961017841B1012921D0BA
:1023B000214B4FF48D71214A21482FF003FBDA693C
:1023C000418822F47F42013922F0100242EA0122C0
:1023D0000121DA61144BDA6942F02002DA61DA692C
:1023E0009206FCD410229A600029B9D0154A1A60CE
:1023F000BDE8F081B2F1FF01DA69408822F47F4242
:1024000018BF0121013822F0100242EA002242F0F6
:102410001002DA61DEE745EA0262034B42F4003261
:10242000B5E742F20132E2E700B0024001230100C9
:10243000090002000A000200A4310308BE310308AB
:102440001031030801230200024B1B68586803681F
:102450005B6918470077012070B504460A4B0C30C1
:1024600000262546602260602672667245F8203B91
:10247000294616F0E1F904F55A63EE6024359D42D1
:10248000FBD1204670BD00BFC4600308034B1A682F
:10249000D207FCD423229A60704700BF00B00240EC
:1024A000094B5A69D2030AD5BFF34F8F084400295C
:1024B000A0EB010204DCBFF34F8FBFF36F8F7047B7
:1024C0002039C3F86822F2E700ED00E030B5104C87
:1024D0002568ED07FCD423250904FF2BA56041F0F6
:1024E00001014FF0020565636164E0630AD00949A8
:1024F000656241EA0363E361074B22626061E06069
:10250000236030BDE561039BA363044BF8E700BF84
:1025100000B00240090001000100020001000300B8
:1025200030B50F4C2568ED07FCD423251204FF2B92
:10253000A56042F001024FF0020565636264E0634A
:10254000E16008D01B0643F00213E361054B6562AE
:102550006061236030BD044BE3610123F9E700BFF4
:1025600000B0024001000200020002FF30B50B4C37
:102570002568ED07FCD4232512041B06A56042F054
:102580000102022543F4003365636264E063E160A5
:10259000E361034B65626061236030BD00B00240BF
:1025A000010002004069704790F844007047036BD7
:1025B00023B9C06A003818BF012070470120704756
:1025C00080687047043010B50C460FC884E80F00CF
:1025D00010BD704708B5034A40F21221024B034870
:1025E0002FF0F0F9FC3103087C4A03085732030846
:1025F00010B5044648212EF0A9FA204610BD00006F
:102600002DE9F0431D46ADF51F7D436B06460F4691
:102610009046BDF89842002B35D0002203A8DFF881
:10262000A490CDE901320DF00BFF4FF4F47250216C
:10263000249024A807F0B9FE4246394624A808F0A1
:1026400003FE012124A807F0ABFF022324A88DF884
:10265000D83008F046F82B9B419AA342BDF89C72F3
:1026600028BF23469742A4EB030428BF174603EB79
:1026700043086400479B9F4209D824A807F0B2FF93
:1026800024A807F0DFFE0DF51F7DBDE8F0830122D1
:1026900001A924A808F06EF8736B03EB08009842B8
:1026A00001D82544E6E759789A78C90009EA022258
:1026B00001F4FC610A4313F8031B42EAD10225F836
:1026C000022BECE700F8FFFF0A4A02600022C0E993
:1026D0000522C0E90722C0E90922C0E90B22C0E9AE
:1026E0000D12C0E90F2280F84420C0E90322C0E99E
:1026F000012270471461030810B40C4611461A46B3
:10270000036B3BB1036C806BE41A20445DF8044B0F
:102710002FF01EBCC06AF8E7036B10B573B1036CF1
:10272000826BC91A5318525C98785C780004DB7885
:1027300040EA0420104340EA036010BDC36A5858C1
:10274000FBE7036B43B1036CC91A836B5A18585CDF
:10275000527840EA02207047C36A585A7047000016
:1027600070B50446006B0D461646D8B1E36B934234
:1027700008D209230D4A65210D4884F844300D4BD9
:102780002FF020F90368DB689847206B3246A16B75
:1027900003681B69984710B90D2384F84430A06B77
:1027A000256470BDE06A0844FBE700BFC03203083F
:1027B00057320308AD3203082DE9F8434369044654
:1027C0002BB9234BAA21234A23482FF0FBF80822D8
:1027D0008169FFF7C5FFA16943F2300646F264370D
:1027E00004312046FFF798FFA3691844A36A00F15B
:1027F00008029A4206D3012300206361236AA36181
:10280000BDE8F883636909300822013320F0010133
:1028100020466361A161FFF7A3FFD4F8189020461A
:102820004946FFF78EFF09F1020180462046FFF777
:1028300088FF09F1040105462046FFF76DFFB0450A
:10284000D2D1BD42D0D10028CED00120D8E700BFE0
:10285000023303084B330308573203082DE9F04FC6
:102860000446ADF51F7D8A461646816908229846C2
:10287000FFF776FFA7692046391DFFF74DFF07F1E7
:102880000801024605462046FFF76AFF636B0746CC
:1028900033B93C4B40F2AB113B4A3C482FF092F825
:1028A000002203A8CDE901320DF0CAFD4FF4F47205
:1028B0005021249024A807F078FD2A46394624A800
:1028C00008F0C2FC012124A807F06AFE022324A814
:1028D0008DF8D83007F005FFBAF90250479BAB429C
:1028E00029D3BAF900904FEA4808BAF804702B9B34
:1028F00008FB05664F44BAF80250DFF894B03FB2C7
:102900009F4228BF1F46BAF8063009EB490A1D440A
:10291000419B2DB29D4228BF1D46479B9D4210D82A
:1029200024A807F05FFE24A807F08CFD01200DF518
:102930001F7DBDE8F08F012201A924A807F01AFF2E
:10294000CCE7012201A924A807F014FF626B4946D5
:102950005244B94202F1030201D34644DDE712F8C2
:10296000020C12F8013CC0000BEA032300F4FC60E7
:10297000034312F8030C43EAD00326F81130013167
:10298000E7E700BF7E330308D43303085732030858
:1029900000F8FFFF0129036838BF0121DB6A70B529
:1029A0000D4604469847A84204D223682046DB6AB5
:1029B000984705466B1EE6691022204606EB031673
:1029C00006F10801FFF7CCFE06F110012046FFF7E3
:1029D000A3FE236A043B0344C4E9055370BD000011
:1029E000002148222DE9F0410446816180F844101D
:1029F000FFF7B6FEA6690423624A31462046FFF778
:102A00007BFE40B10323604AF22184F844305F4BDF
:102A10005F482EF0D7FF06F1080104235D4A2046E7
:102A2000A161FFF769FE30B10423574AFA2184F807
:102A30004430594BECE706F10C010423574A204679
:102A4000A161FFF759FE074638B105234E4A40F20F
:102A5000011184F84430524BDAE706F110012046A8
:102A6000FFF75AFE054620B94E4B40F20711464A81
:102A7000CEE706F1140804234B4A20464146FFF7EF
:102A80003BFE002849D0062384F844300423474AFB
:102A900006F118012046FFF72FFE00283FD007233C
:102AA00084F844304544424F0C2220462946FFF723
:102AB00057FE05F1080604233A4620463146FFF743
:102AC0001BFE94F84430002848D0002B48D1A36A5C
:102AD000AB4249D805F10C0304352046A3612946D1
:102AE000FFF71AFE3044294660622046FFF714FEC5
:102AF0000644042220463146FFF732FE04232D4AC5
:102B000031462046FFF7F8FD002838D10123E66161
:102B10006361A3692362BDE8F0810127B6E7002F56
:102B2000C0D006F120012046FFF7F6FD4FF47A737E
:102B300006F13001B0FBF3F060602046FFF7ECFDDA
:102B400006F14001A0602046FFF7E6FD06F14401D2
:102B5000E0602046FFF7E0FD2061A3E7002BB9D03D
:102B60000A2384F84430D6E7291D2046FFF7D4FD18
:102B700085190C2220462946FFF7F2FD99E70B2321
:102B8000EFE700BF2E3403084C3403083334030846
:102B900057320308793403087E3403089634030857
:102BA0009B340308B1340308BD340308C23403085E
:102BB000C7340308CC340308C0E90A2100220263A9
:102BC000FFF70EBF10B5002304460846E3620B680A
:102BD00021639B689847A0622046BDE81040FFF73C
:102BE000FFBE70B4BDF80C50BDF810602AB123B11F
:102BF000CDE9035670BCFFF703BD70BC7047000001
:102C00002DE9F04F9946436985B004460F4690463A
:102C10002BB9294B7721294A29482EF0D3FE0822C7
:102C20008169FFF79DFDA66920463146FFF789FDC2
:102C3000B11C83462046FFF784FD311D82462046A5
:102C4000FFF76AFD06F10801A36A05460A189A42D1
:102C500026D243F230039B4517D146F264339A459E
:102C600013D190B10246A1612046FFF779FD0E9B7A
:102C700001462A462046CDF80080CDE901933B4627
:102C8000FFF7AFFF636901336361A3692B4405B9A3
:102C900008330133626A23F001039342A36109D12F
:102CA000012301206361236AA36180F0010005B064
:102CB000BDE8F08F0020F8E702330308D1340308A1
:102CC00057320308012070470C2070470C2303FB88
:102CD0000100083070470C2303FB010008307047E7
:102CE0000120704742F2B800704742F2B80303FB7C
:102CF00001000830704742F2B80303FB01000830BE
:102D00007047012070471020704700EB0110083019
:102D1000704700EB011008307047084600F0E2BF32
:102D2000034B10B50446036014F08CFB204610BD25
:102D3000BC61030810B50446FFF7F2FF14212046DA
:102D40002DF004FF204610BD034B10B50446036070
:102D500014F078FB204610BD8861030810B50446C6
:102D6000FFF7F2FF4FF4035120462DF0EFFE20460F
:102D700010BD0000034B10B50446036014F062FB65
:102D8000204610BD5461030810B50446FFF7F2FF5A
:102D9000182120462DF0DAFE204610BD094B10B553
:102DA0000446036000F503502C30FFF7B9FF04F12F
:102DB0002C00FFF7C9FF04F11400FFF7DBFF2046EA
:102DC00010BD00BFF061030808B50248FFF7E6FF39
:102DD00008BD00BFB418002010B50446FFF7DEFFA1
:102DE00042F2602120462DF0B1FE204610BD0000C9
:102DF0002DE9F34100F046FD0024054600F046FDB4
:102E0000234601462246284600941EF0DBFD284B4F
:102E1000284A2046284D1A6002F024FA274B284AF7
:102E200028489A601EF036FD2B68BFF35B8FDB07E6
:102E300037D428462DF08CFE98B3234C234B04F155
:102E40002C0804F11400236008F503576060C4F8EF
:102E5000088007F11806E760266114F0F5FA1C4BAC
:102E60004046636114F0F0FA1A4B3846E36214F0FE
:102E7000EBFA04F50053184A04F50450C3F8EC20AB
:102E800002F074FA224604F50451304602F064FA66
:102E9000304600F027FF11482EF0B2FD28462DF0F5
:102EA00063FE0F4802B0BDE8F041FFF70DB800BF68
:102EB00064770120600A0020B0180020800A0020FA
:102EC000640A002008000020B4180020F061030804
:102ED0005461030888610308BC610308C92D000818
:102EE000DC09002070470000014814F0BCBD00BFA1
:102EF000DC09002070B5264E264B274C3046274D66
:102F00002360FFF7A9FA284623F06EFE24481CF040
:102F100011FD244B00224FF4807123481A8683F858
:102F200058205A6683F870205A67DC60C3E9121291
:102F30001E49C3E91A121E49C3E91E011D491E4854
:102F4000C3F880101D490B604FF4F071C3E90422EF
:102F5000C3E90622C3E90822C3E90A22C3E90E2213
:102F6000C3E91022C3E91422C3E91722C3E90165AA
:102F70000180134883F8342001804FF48871114890
:102F800001801148018011490A70114A1A6070BD10
:102F90000C0B0020C05F0308AC180020800A002042
:102FA000640A0020DC09002000000101010000018A
:102FB0000004440016001400F4760120007701207C
:102FC000FA760120F6760120FC760120F8760120C1
:102FD000D85F03080148FFF7F7B800BF0C0B0020CB
:102FE0000020704781807047C18070470181704721
:102FF000418170477047704770477047704710B401
:10300000C4880368121B84885B6D091B12B25DF8CB
:10301000044B09B218474FF6FF7383814FF0FF331B
:1030200003621368C36110607047002070478B888B
:10303000838001207047704780F82610704790F811
:103040002600704710B50022B1F90840B1F90A1006
:10305000028042808480C18010BD002202804280B4
:103060008280C28070470177704780ED080A704700
:1030700080F82410704780F82510704701207047B1
:10308000983070478C307047843070477047704775
:1030900070470000034B902283F85A2383F858238B
:1030A000704700BF00E100E0094A0A49D3680A48B6
:1030B000C3F30A03013B9BB20B801169C1F30A0100
:1030C000013901801364536B43F00103536370476C
:1030D00000680140163B0020143B0020014BD3F850
:1030E000AC00704700680140024B0122C3F8AC10ED
:1030F0005A62704700680140124A5369DB0370B599
:103100001ED50023C2F88430BFF34F8FD2F8803031
:1031100043F6E074C3F3C900C3F34E335B0103EA23
:103120000406014646EA81750139C2F87452F9D2A3
:10313000203B13F1200FF2D1BFF34F8FBFF36F8FFE
:1031400070BD00BF00ED00E070473823002201FB96
:103150000333C25490F838300BB9036C8364704762
:10316000704780F84C10704710B504462C212DF0A4
:10317000EDFC204610BD10B5044658212DF0E6FCAC
:10318000204610BD10B50446BC212DF0DFFC2046C2
:1031900010BD000038B5044614F051FC23689D6E44
:1031A0001BF05AF901462046A8472368084A2046E2
:1031B000D3F88C500023A2F57F31A847054B064A6F
:1031C0005A60064A1A649A644FF4FF225A6438BD62
:1031D00000F807C0D83B0020303C002000F40BC0B2
:1031E00014F014BC14F01EBC14F0DABB14F05BBD78
:1031F00090F8252012B103685B69184770470000FA
:1032000008B531B1044B40F29711044A04482EF03E
:10321000D9FB90F8390008BD2C3503084035030868
:10322000CD36030810B531B1064B40F29111064A74
:1032300006482EF0C7FB406811460368BDE8104001
:103240001B6B18472C3503080F370308CD360308CE
:1032500008B529B1034B7A21034A04482EF0B2FB8A
:10326000006908BD2C350308C0380308CD360308B3
:1032700008B529B1054B8321054A06482EF0A2FB6B
:1032800041618160C0E9063208BD00BF2C350308EA
:10329000783A0308CD36030810B5044629B1274B08
:1032A000A421274A27482EF08DFB052A34D8DFE8D1
:1032B00002F003292F34393E406803681B699847A0
:1032C00050B34FF0FF31606D04F040FE0023012247
:1032D00094F83E1084F83B3084F83920A360636191
:1032E00001B1226284F83E306362E36A2BB90123A4
:1032F000206D84F83A3004F019FF606DBDE810408D
:1033000004F054BE002380F8393084F83E3003E0E6
:10331000036200238360436110BD03620023836066
:103320004361F2E7002380F839300123EDE7003BE9
:1033300018BF012380F83D30EEE700BF2C350308AD
:10334000373C0308CD36030890F825201AB190F8D1
:10335000242002B11860704770B50446164629B1A2
:10336000314BE721314A32482EF02CFB90F83930AE
:1033700033B1304B1B6893F86B20436913444361AE
:10338000E36A002B4DD0E169D4E905325343A268CA
:103390004A43934220D2236A002B42D04FF0FF31A0
:1033A000606D04F0D3FD236A0BB10023E362E36A8E
:1033B000FBB90125606D04F0F9FD94F839300BB9C3
:1033C000236A3BB1E36A2BB90123206D84F83A30BC
:1033D00004F0ACFE284670BD94F84C000028DDD007
:1033E0009B1AB3FBF1F2994298BF02F1FF3262627D
:1033F000D4E7002294F83C50A3623046E262E268CF
:103400002261A2680132A260336333685B69984726
:10341000002DCED194F83D30002BCBD184F839501B
:10342000C8E70125C9E700BF2C3503080E3E030895
:10343000CD36030800770120034B4FF080629A607D
:103440004FF080729A60704700E100E0084B4FF047
:103450008062C3F88820BFF34F8FBFF36F8F4FF0A8
:103460008072C3F88820BFF34F8FBFF36F8F704710
:1034700000E100E038B5034690F8380038BB01227F
:103480009860D8609A634FF4807258619A874FF4BD
:10349000F0729861D861186258629862D8621863B5
:1034A000586383F83E00CA864FF4887281F834006E
:1034B0000A8708639A6C186102F5FF24D3E9101596
:1034C00029448C420AD9084B5821084A03E0084B8A
:1034D00040F2F511074A08482EF074FA1A6302F513
:1034E0007F329C645A6338BD6C410308AC410308C9
:1034F000B23F0308E23F0308CD360308002370B54E
:10350000124E05468380124B0360336893F85820AF
:103510000AB1D86C00B998680368DB6A98473368C9
:10352000B0FA80F4D86C640930B10368DB6A98475C
:10353000002808BF44F001042CB9064B2C21064A90
:1035400006482EF03FFA284670BD00BF00770120E4
:103550000462030852430308B0430308E943030825
:1035600070B5254E3568BFF35B8F15F0010540D16E
:1035700030462DF0EDFA00283BD0204C204B04F1D2
:1035800034002561E584A562A585C4E90035C4E958
:1035900002551CF0B4FC04F1580016F005FE194B5E
:1035A0002046A365184B40F8843BFFF7A7FF174B55
:1035B0001748C4F884302433C4F89050C4F88C30D1
:1035C0004FF4C803C4F89C50C4F8A850C4E9283587
:1035D0000023C4F8AC30C4F8B030C4F8B430C4F838
:1035E000B8300C4BC4F898302EF00AFA30462DF063
:1035F000BBFA024870BD00BF183B00201C3B0020F6
:10360000D4790308246203089C62030888790308BC
:10361000913000086879030838B5184C23685BB30B
:10362000174B184A1B6C11888B4216D1164B00257C
:10363000198803F06BF9236893F86A2083F87C50AB
:10364000013283F86A20FEF769FD206814F086FFD6
:103650002846BDE83840FEF763BB03F057F92468FD
:10366000236820461B6A98470123002084F87C3099
:10367000BDE83840FEF784BB38BD00BF00770120AD
:1036800000680140163B0020143B00202DE9F74361
:1036900004464FF4707894F83A304FF0FF31002B25
:1036A00031D0606D04F052FC276BA36ABB4200D19D
:1036B000676B266A656856B32B68314628465B6A95
:1036C00098470023236284F83B30606D04F06EFC61
:1036D0002B684FF4F0723946CDF8008028465E69B9
:1036E0004FF48873B0474FF0FF310646606D04F029
:1036F0002DFC94F83B30E3B1002384F83B30606D3F
:1037000004F054FCC7E7206D04F0D4FCC3E7636AFF
:10371000002BDAD02B682846D3E909939847616AD1
:1037200001442846C847A368626A66621344A360DE
:10373000CBE7E7625EB12B6828469B6A9847013861
:103740000023E06084F83C6084F83A30D7E7012039
:10375000F6E70000014808B5FFF798FFD83B0020C6
:103760000368042270B504465E6A00230D46B04724
:103770004FF0FF31606D04F0E9FB382303FB054295
:10378000D16A09B10021D16203FB0545012385F807
:103790003B30002385F83930606DBDE8704004F09F
:1037A00005BC38B500EB810304460D461146586848
:1037B0000368DB68984729462046FFF7D1FF38BDEC
:1037C00070B50D461146044600EB8502506802684C
:1037D00096681A46B04729462046FFF7C1FF70BDDC
:1037E00038B5164900251648FEF76EFF154C164BE6
:1037F00001202A46294623604FF48073A564A387DD
:1038000084F84C0084F83E50C4E91055C4E91455BE
:10381000C4E90155C4E90355C4E90555C4E9075590
:10382000C4E90955C4E90B55C4E90D5504F0EAFB98
:103830002065284604F046FB606538BD783C0020D2
:10384000303C0020D83B0020E8620308704710B5E8
:10385000044604212DF07AF9204610BD012908B54F
:1038600006D0022908D059B901F048FD006808BD0A
:1038700001F044FD4068FAE701F040FD8068F6E79A
:103880000020F4E7004870473463030804207047C1
:1038900013B5002451B1036801AA01948DF80340C7
:1038A0009C680DF10303A04702B010BD0846FBE77A
:1038B000C0897047008A7047C08870478088704709
:1038C000807A00F07F007047807AC009704700203E
:1038D000704700009FED010A704700BF0000000024
:1038E000704710B5044608212DF030F9204610BD70
:1038F0007047704700F598730868496803C37047BC
:10390000704770474160704770477047064BC0F87A
:103910004801C0F84C310023C0F8503100F5A273C3
:10392000C0F84031704700BF193B00080123037203
:103930007047704710B441680346C2689B685410D2
:1039400001EB6200D20748BF0A595DF8044B48BF3B
:10395000D35818470346406830B19A681AB9D868F6
:1039600000F0010070470120704710B504460C219B
:103970002DF0ECF8204610BD10B5044610212DF0B6
:10398000E5F8204610BD10B504464FF4AE712DF099
:10399000DDF8204610BD10B51AF05EFD0368BDE8E5
:1039A0001040DB6B184710B50446D0F8400158B101
:1039B0000368DB68984738B1D4F8400103689B6816
:1039C00098470023C4F8403110BD00002DE9F14FA5
:1039D000D0E9556A0746B06803681B6A9847B0F596
:1039E000B67F05D2444BA321444A45482DF0EAFF57
:1039F000706803681B6A98470F2803D8414BA421BD
:103A00003E4AF2E7F06803681B6A98470B2803D820
:103A10003D4BA521394AE8E7DFF8F4901AF01CFD88
:103A200004301AF03EFDD9F8000010B10368DB68DD
:103A30009847D9F8000010B103681B689847DFF871
:103A4000D480D8F8000010B103685B699847D7F8B4
:103A50003C0110B103685B689847D8F8000010B1CA
:103A600003681B689847D7F83C0110B103689B684E
:103A70009847F06800214FF0000B03685B6A984795
:103A8000224B0446C0F804B080F808B059460360E1
:103A9000B06803685B6A9847054601F015FD7068D9
:103AA000594603685B6A98470646294601F0EAFCD6
:103AB000331DC7F83C612846C9F80040C8F80050DB
:103AC000CAF800302B68C6F808A0DB68EE63984798
:103AD000336830461B689847214628461CF040FF53
:103AE000236820461B699847236820465B6901B01C
:103AF000BDE8F04F184700BF4B440308D944030802
:103B0000AB450308F245030895460308086403081B
:103B100048770120447701202DE9F14FD0E9556A1B
:103B20000746B06803681B6A984742F2B703984299
:103B300005D8444BA321444A44482DF043FF706804
:103B400003681B6A98470F2803D8414BA4213E4ABB
:103B5000F2E7F06803681B6A98470B2803D83D4BCF
:103B6000A521394AE8E7DFF8F4901AF075FC043033
:103B70001AF097FCD9F8000010B10368DB68984789
:103B8000D9F8000010B103681B689847DFF8D080AF
:103B9000D8F8000010B103685B699847D7F83C017A
:103BA00010B103685B689847D8F8000010B103684B
:103BB0001B689847D7F83C0110B103689B68984789
:103BC000F06800214FF0000B03685B6A9847224BB6
:103BD0000446C0F804B080F808B059460360B068E5
:103BE00003685B6A9847054601F006FC7068594611
:103BF00003685B6A98470646294601F0DBFB331DE4
:103C0000C7F83C612846C9F80040C8F80050CAF817
:103C100000302B68C6F808A0DB68EE63984733686D
:103C200030461B689847214628461CF099FE2368B9
:103C300020461B699847236820465B6901B0BDE8B0
:103C4000F04F18474B44030838470308AB450308B7
:103C5000F2450308954603080864030848770120E5
:103C600044770120044B1B6893F858200AB1D86CA4
:103C700000B99868704700BF00770120F8B5174673
:103C800004460E461AF0AEFC124B00251C60294675
:103C9000114B2360114BC4E95135114B1868C4E92D
:103CA00053550368C4E94F559B68C4E95576984756
:103CB000284601F0D7FAFFF7D5FF24F040FEFFF7C2
:103CC000D1FF24F0B7FEFFF7CDFF24F0BFFE204662
:103CD000F8BD00BF54770120B46303089C63030858
:103CE00000770120064BC0F84801C0F84C31002392
:103CF000C0F8503100F5A273C0F84031704700BFE2
:103D0000193B0008064BC0F84801C0F84C310023AD
:103D1000C0F8503100F5A273C0F84031704700BFC1
:103D2000CD390008406A7047806A704770470B8839
:103D30008A889BB2D20A10B54C88C16943EA044311
:103D400051F82200184410BD10B50446BAB1107BDA
:103D500068B1537BD27A1B0203F4E0631A43236AEF
:103D600003EB82031A888A4202D193F9020010BD44
:103D700005D80138043380B20028F3D1F7E70020DA
:103D8000F5E710B504462C212CF0E0FE204610BDCE
:103D900030B58BB00446BDF860500895BDF85C5056
:103DA00007959DF8505006959DF84C5005959DF847
:103DB000485004959DF8445003959DF84050029555
:103DC0009DF83C500195BDF8385000951CF054F911
:103DD000064B20462360159BE361169B2362199BCB
:103DE00063621A9BA3620BB030BD00BF2C64030852
:103DF000806A70477047704770477047704780F817
:103E00002C10704710B40368046BD3F8A4306243DD
:103E100061435DF8044B1847D0ED0C7A0368F8EE67
:103E2000E77A10B420EE270AD3F8A440B5EEC00A12
:103E3000F1EE10FA1ADBB6EE007A30EE070ABDEEAC
:103E4000C07A17EE101A60EEA70AF5EEC00AF1EE7E
:103E500010FA1EDBF6EE007A70EEA70AFDEEE07AAD
:103E600017EE902A23465DF8044B1847BDEEC07A42
:103E7000F8EEC76A17EE103A013B30EE660AF7EE2D
:103E8000086A30EE260ABDEEC00A10EE101A194478
:103E9000D9E7FDEEE07AB8EEE77A17EE903A013B0B
:103EA00070EEC70AB7EE087A70EE870AFDEEE00AF8
:103EB00010EE902A1A44D5E710B40368046BD3F8C7
:103EC000B03062435DF8044B1847D0ED0C7A0368BC
:103ED000F8EEE77A10B427EE800AD3F8B040B5EEDA
:103EE000C00AF1EE10FA0BDBF6EE007A30EE270A8C
:103EF000FDEEC07A17EE902A23465DF8044B184772
:103F0000FDEEC07AB8EEE77A17EE903A013B30EE5C
:103F1000470AB7EE087A30EE070ABDEEC00A10EE87
:103F2000102A1A44E8E710B40368446BD3F8BC3095
:103F3000624361435DF8044B1847D0ED0D7A036886
:103F4000F8EEE77A10B420EE270AD3F8BC40B5EEBD
:103F5000C00AF1EE10FA1ADBB6EE007A30EE070A6C
:103F6000BDEEC07A17EE101A60EEA70AF5EEC00A91
:103F7000F1EE10FA1EDBF6EE007A70EEA70AFDEE07
:103F8000E07A17EE902A23465DF8044B1847BDEE01
:103F9000C07AF8EEC76A17EE103A013B30EE660AB7
:103FA000F7EE086A30EE260ABDEEC00A10EE101ACF
:103FB0001944D9E7FDEEE07AB8EEE77A17EE903AC9
:103FC000013B70EEC70AB7EE087A70EE870AFDEE85
:103FD000E00A10EE902A1A44D5E710B40368446B47
:103FE000D3F8C03062435DF8044B1847D0ED0D7A2A
:103FF0000368F8EEE77A10B427EE800AD3F8C040E1
:10400000B5EEC00AF1EE10FA0BDBF6EE007A30EEF8
:10401000270AFDEEC07A17EE902A23465DF8044B7E
:104020001847FDEEC07AB8EEE77A17EE903A013BFA
:1040300030EE470AB7EE087A30EE070ABDEEC00A46
:1040400010EE102A1A44E8E7D0F82C31026B002B4E
:1040500007DB02EB430090FBF2F000EBD070401066
:1040600070476FF0010101FB0320013890FBF2F073
:1040700000EBD070401040427047D0ED4B7A90ED8D
:104080000C0AF8EEE77AB8EEC00A87EE800A7047AD
:10409000D0F82C017047D0F83031026B002B07DBD1
:1040A00002EB430090FBF2F000EBD0704010704741
:1040B0006FF0010101FB0320013890FBF2F000EBEF
:1040C000D070401040427047D0ED4C7A90ED0C0A11
:1040D000F8EEE77AB8EEC00A87EE800A7047D0F8AB
:1040E00030017047D0F83431426B002B07DB02EB14
:1040F000430090FBF2F000EBD070401070476FF07F
:10410000010101FB0320013890FBF2F000EBD070BD
:10411000401040427047D0ED4D7A90ED0D0AF8EE18
:10412000E77AB8EEC00A87EE800A7047D0F834010B
:104130007047D0F83831426B002B07DB02EB4300AD
:1041400090FBF2F000EBD070401070476FF001016F
:1041500001FB0320013890FBF2F000EBD07040101F
:1041600040427047D0ED4E7A90ED0D0AF8EEE77AB6
:10417000B8EEC00A87EE800A7047D0F83801704761
:10418000036870B50446D3F888300D461646984744
:104190002368324629462046D3F89030BDE8704067
:1041A00018470368D3F8943018470368D3F8D4301D
:1041B00018470368D3F8E03018470368002A10B4A2
:1041C000D3F8A430046B0EDB04EB420292FBF4F153
:1041D00001EBD1714910B0F91E215DF8044B013A91
:1041E0000A44494218476FF0010101FB02410139BD
:1041F00091FBF4F101EBD17149104942EBE70368FF
:10420000D3F83C311847026B03685143D3F8483167
:1042100018470368D3F844311847D0ED0C7A036887
:10422000F8EEE77AD3F8482127EE800AB5EEC00A07
:10423000F1EE10FA08DBF6EE007A30EE270AFDEE1A
:10424000C07A17EE901A1047FDEEC07AB8EEE77A02
:1042500017EE903A013B30EE470AB7EE087A30EE9F
:10426000070ABDEEC00A10EE101A1944EBE7C0F8B9
:104270003C1170470368D3F850311847036810B5F4
:10428000D3F85C31044698470028236B07DB03EB27
:10429000400090FBF3F000EBD070401010BD6FF0C9
:1042A000010202FB0030013890FBF3F000EBD0700C
:1042B00040104042F2E70368D3F8583118470368CA
:1042C00010B50446D3F85C31984707EE900A94ED98
:1042D0000C0AF8EEE77AB8EEC00A87EE800A10BD45
:1042E000D0F83C017047026B03685143D3F8683142
:1042F0001847D0ED0C7A0368F8EEE77AD3F8682116
:1043000027EE800AB5EEC00AF1EE10FA08DBF6EEF1
:10431000007A30EE270AFDEEC07A17EE901A1047A9
:10432000FDEEC07AB8EEE77A17EE903A013B30EE38
:10433000470AB7EE087A30EE070ABDEEC00A10EE63
:10434000101A1944EBE7C0F840117047036810B524
:10435000D3F87431044698470028236B07DB03EB3E
:10436000400090FBF3F000EBD070401010BD6FF0F8
:10437000010202FB0030013890FBF3F000EBD0703B
:1043800040104042F2E7036810B50446D3F8743198
:10439000984707EE900A94ED0C0AF8EEE77AB8EE2B
:1043A000C00A87EE800A10BDD0F84001704703684C
:1043B0000029026BD3F8843110B504460EDB02EB02
:1043C000410191FBF2F101EBD171491009B2204694
:1043D0009847D4E94F2302FB003010BD6FF0010075
:1043E00000FB0121013991FBF2F101EBD171491080
:1043F0004942EBE7006B7047406B70470368D3F8A6
:10440000483118470368D3F85C311847026B0368DA
:104410005143D3F814311847036870B5D3F81851D5
:104420000446D0F84461D3F8803198472B4656F8BB
:1044300020102046BDE87040184703460846B3F9EF
:104440001C21B3F91E11914207DBB3F94C31191845
:1044500091FBF2F302FB131108B270474801704759
:10446000C1627047C06A704701207047704770474B
:10447000C06B18B10368D3F880301847704730B567
:10448000B2F81A11B2F91441B2F940502144B2F80D
:1044900042204480521A002185800180C28030BDB4
:1044A00010B54280BDF90840BDF90C20048082801F
:1044B000C38010BD0B680846D3F8D43018470B688A
:1044C0000846D3F8E0301847B1F914017047B1F845
:1044D0001431B1F81A21B1F842001344C01A00B2E5
:1044E0007047B1F916017047B1F81631B1F81821CB
:1044F000B1F840001344C01A00B270470B68084678
:104500001146D3F81431184730B5B2F91651B2F844
:104510001841B2F840102C44B2F942200580091B22
:104520000024C2804480818030BD02808380BDF938
:104530000020BDF904304280C38070470B680846F4
:10454000D3F8EC3018470B680846D3F8F830184712
:10455000B1F916017047B1F81631B1F81821B1F868
:1045600040001344C01A00B27047B1F914017047FB
:10457000B1F81431B1F81A21B1F842001344C01A4D
:1045800000B270470B6808461146D3F81831184737
:1045900030B585B00368044601816D460146D3F805
:1045A00084303C342846984795E8070084E80700A3
:1045B00005B030BD30B585B00368044641816D4615
:1045C0000146D3F884303C342846984795E80700E4
:1045D00084E8070005B030BD00220280428082805E
:1045E000C280704780F836107047036870B5044683
:1045F0001B6B154698472368204629465B6EBDE82D
:104600007040184700207047806C704770477047B3
:10461000704770477047704730B444680346C268BB
:104620009B68551004EB6200D20748BF625930BC4A
:1046300048BFD35818470346406830B19A681AB942
:10464000D86800F0010070470120704710B504469B
:104650004C212CF07BFA204610BD10B504464FF4D7
:1046600006712CF073FA204610BD10B504464021A7
:104670002CF06CFA204610BD10B5044640212CF0F9
:1046800065FA204610BD10B5044610212CF05EFAE4
:10469000204610BD38B503460846D3E90C540B68D4
:1046A000D3F88C309847294602462046BDE838406A
:1046B00016F080B938B503460846D3E90C540B68A8
:1046C000D3F894309847294602462046BDE8384042
:1046D00016F070B9034B10B50446036018F00AFADF
:1046E000204610BDB0680308064B10B504460360B1
:1046F00018F000FA42F2B80120462CF027FA2046C2
:1047000010BD00BFB068030808B590F82C300BB19D
:10471000FEF76EFD08BD08B5FEF76AFD08BD000096
:104720000A1E10B503DBB0F91E41944206DC084BAB
:1047300040F23961074A08482DF044F90368D0F87F
:104740004441D3F88031984754F8200010BD00BF91
:104750000A4803082D4803087C4803080B1E10B5BF
:10476000044603DBB0F91E219A4206DC074B40F2F7
:104770003361074A07482DF025F90368D3F88431DF
:104780009847D4E94F2302FB003010BD0A480308C4
:10479000D94803087C480308036870B55E6B04467B
:1047A000114B8DB21B682BB9104B6C21104A11486C
:1047B0002DF008F91049828D0988914203D80F4BDA
:1047C0006D210B4AF3E713F812200D4B1B6853F8C9
:1047D000220003681B6B9847291A3346204609B20A
:1047E000BDE87040184700BF5877012028490308EA
:1047F0006A490308A54903085C770120EC490308CE
:104800006077012000F55D70884208B505D119F088
:1048100023FEBDE80840FFF775BA08BD00224FF03F
:10482000FF318260C0E900217047036870B504461B
:104830001B6B154698472368204629465B6BBDE8ED
:104840007040184770B504461D46BDF91060FFF76B
:10485000ECFF2368294620469B6B98472368314626
:104860002046DB6BBDE87040184700000022C0E91D
:104870000122C0E90322C0E90522C0E907224FF462
:1048800080728284014A0260704700BF946403080A
:1048900010B50446262200212DF052FB2046FFF7DA
:1048A000E5FF044B20462360FF2384F826300023D5
:1048B000A36210BD6C7E030837B501AB15461BF033
:1048C000D9FC00282A4601994FEA40144FF02000F5
:1048D00004DB1BF0EEFC204403B030BD1BF0E9FC10
:1048E000201AF9E770B5B0F81A310E46B0F9144144
:1048F000B0F842502344ED1A2DB22C44691ED0E981
:104900004D32013CD21AF01AFFF7D6FFC0EB44102B
:1049100070BD38B504460D46B4F81631B4F8181118
:104920000B44B4F84010C91AD0E94B0209B2121A6C
:10493000281A0139FFF7C0FFB4F9163100EB431014
:1049400038BD000010B50446262200212DF0F8FAEB
:104950002046FFF78BFF0A4B4FF47F02204623606F
:10496000084BA3624FF6FF73A3850023C4E90C3202
:104970004FF0FF322387E363C4E9102310BD00BF6B
:10498000DC7D03088C6303082DE9F04F044695B0E5
:1049900000251BF039FE2746D54BE56304F1980648
:1049A00047F8403B3846FFF773FF04F16C034FF0C4
:1049B00001084FF00A0918460693FFF769FF3221F4
:1049C000304604F56A7B15F091FFCA4B3122294627
:1049D000C4F8983004F5F4733046DFF854A3C4E902
:1049E0007585C4E97735FFF70DFAC34BA4F8E45198
:1049F000C4F8983004F52C731846089315F0D4FBCE
:104A0000BE4BC4F8E492C4F8B03204F53C7384F8A9
:104A1000E8821846C4F8EC520993C4E9B75815F077
:104A2000C3FBB74BC4F82493C4F8F03204F54C73BD
:104A300084F828831846C4F82C530A93C4E9C7584D
:104A400015F0B2FBAF4BC4F830334FF0020384F8DB
:104A50005C3304F5587318460793FEF74FFDAA4BD5
:104A600026222946C4F860332433C4F86C53C4F8B2
:104A7000683304F55D73184605932DF061FA0598C7
:104A8000FFF7F4FEA14B84F898835846C4F87433BA
:104A90004FF6FF73C4F89C53A4F8A233A4F8A433D0
:104AA00084F8A63384F8A053FFF74CFF04F57C7319
:104AB00018460393FFF746FF04F23C43C4F8F0A303
:104AC0001846C4F838540493FFF73CFF04F500532C
:104AD0008F4AC4F83CA44FF4887AC4F884544FF445
:104AE000E15104F59160C3E92A248A4AC3E92C25DF
:104AF00017F0F6FF2A4638464FF4F0732946CDF8F2
:104B000000A0FFF79FFE4FF07F4339464FF0FF377D
:104B1000A366231D18460B9312F0A8FC2A464FF4F7
:104B2000F07329460698CDF800A042F2107AFFF7FC
:104B300089FE4FF07F430699201DC4F8943012F08F
:104B400095FCC623304609221621009340F2B51386
:104B5000FFF778FE30462A4642F21071FFF710FB4D
:104B600030462B462A462946009515F070FE2B4606
:104B700030462A462946009515F090FD304605221C
:104B80006FF00401FFF7CFF9D4F8E01242F210728F
:104B900084F8E88209FB01F04FF04609C4F8DC72A2
:104BA000002884F8D692B8BF4042C4F8E40215F059
:104BB00001FF0899C4F8E4023046C4F8E0A215F0F9
:104BC00078FDD4F82013524684F8288381EAE170F6
:104BD00084F81693C4F81C734FF00309A0EBE1703E
:104BE000DFF85081C4F8240315F0E4FE0999C4E904
:104BF000C8A0304615F05DFD474B30460A99C4F811
:104C00006C334CF2E25384F85C93A4F87033079B46
:104C1000C4F8583315F04DFD3146201D0CAE12F08E
:104C200025FCDC220F210598FFF7FFFD4FF0020362
:104C300012AA11A90598ADF84430ADF8489016F0C5
:104C400099FFCD230599201D84F8A63304F502535E
:104C50002833C4F89C3312F009FCE1222C21584679
:104C6000FFF7E3FD4FF07F4359463046C4F8D83391
:104C7000A4F8DC5316F078FC04F5797396E8070085
:104C800083E80700072312A95846CDF84880ADF8FD
:104C90004C3016F011FF5946201D12F0E7FBE122BF
:104CA00096210398FFF7C1FDD4F8F03303993046FD
:104CB000D3F88430C4F82074A4F82454984704F23C
:104CC0002C4396E8070083E80700144B1A682AB9BA
:104CD000134B6021134A14482CF074FEDFF858B0CF
:104CE000BBF80020052A29D8104B61210D4AF2E7B4
:104CF000B0680308987A0308FC660308FC6403089C
:104D0000B4650308607D030888790308D47E03082E
:104D1000986803080548000816BCC4FF58770120AE
:104D2000284903082A4A0308A5490308EC4903084F
:104D30006C6603088C6303085C770120DFF8A8A089
:104D40000521DAF8000000F0C9FAC4F83804039825
:104D500016F092FE062212A90398ADF84C20CDF869
:104D6000488016F0A9FE0399201D12F07FFBE12276
:104D70004FF487710498FFF758FDD4F83C24049948
:104D80003046D2F88420A4F8705404F58F65C4F836
:104D90006C749047134B96E807001B6885E8070082
:104DA000002B95D0BBF80030032B9DD94946DAF88B
:104DB000000000F093FAC4F88404049816F05CFE36
:104DC000042312A90498ADF84C30CDF8488016F0B1
:104DD00073FE201D049912F049FB204615B0BDE872
:104DE000F08F00BF5877012064770120704770472B
:104DF000704730B444680346C2689B68551004EBA2
:104E00006200D20748BF625930BC48BFD358184728
:104E10000346406830B19A681AB9D86800F00100BA
:104E200070470120704710B5044610212BF08EFE0C
:104E3000204610BD10B504464FF4B6712BF086FE27
:104E4000204610BDE030884208B505D119F004FBBA
:104E5000BDE80840FEF746BF08BD00002DE9F04F51
:104E600004468DB000251BF0CFFBA146624B04F138
:104E70006C0A04F19808E56304F58A7749F8403B29
:104E80004846FFF705FD5046FFF702FD4046FFF795
:104E900059FD04F1E00329462622184603932DF01C
:104EA0004FF80398FFF7E2FC4FF001033846C4F8CF
:104EB000085184F804314FF4887B504B261D84F848
:104EC0000C51C4F8E0304FF6FF73A4F80E31A4F88B
:104ED000103184F81231FFF735FD494B2A46294637
:104EE0004846C4E95734474BC4E95935CDF800B0BA
:104EF0004FF4F073FFF7A6FC4FF07F43494630466E
:104F0000A3660DF1100912F0B1FA2A46294650465F
:104F1000CDF800B04FF4F073FFF794FC4FF07F43EF
:104F200051463046C4F894304FF0020A12F09EFA0F
:104F30007C2240465421FFF778FC4FF0FF33414676
:104F40004846C4F8C830A4F8CC5016F00DFB04F164
:104F5000D403DFF8B4B099E8070083E807000AA992
:104F60004046CDF828B0ADF82CA016F0A5FD41467E
:104F7000304612F07BFA0398DC220F21FFF755FC34
:104F800003230AAA09A90398ADF82830ADF824A094
:104F900016F0F0FDCD230399304684F8123104F564
:104FA000AE73C4F8083112F061FAE12238462C21C0
:104FB000FFF73BFC4FF07F4339464846C4F8443185
:104FC000A4F8485116F0D0FA04F5A87399E8070040
:104FD00083E807004FF001030AA93846CDF828B04E
:104FE000ADF82C3016F068FD3046394612F03EFA26
:104FF00020460DB0BDE8F08FFC680308D47E03089E
:10500000E4680308454E00088C63030870470000FD
:1050100030B5164D8FB02C68BFF35B8F14F00104D0
:1050200020D128462BF094FDE0B13F230122104906
:105030000993104B10480893104B0A940594CDE93E
:1050400006430423CDE903320A23CDE90B44009340
:10505000CDE90144FEF79CFE09482CF0D1FC28461E
:105060002BF082FD04480FB030BD00BFF843002094
:105070004C130190A4870308FC430020F887030821
:105080000D5000087047000030B5174D8FB02C68E8
:10509000BFF35B8F14F0010422D128462BF058FD9A
:1050A000F0B13F231A2211490993114B114808937B
:1050B000114B0A940793012301940493CDE905430E
:1050C0000423CDE902431423CDE90B4400931823B4
:1050D000FEF75EFE09482CF093FC28462BF044FDB9
:1050E00004480FB030BD00BF284400205C1301907D
:1050F000A88703082C440020FC870308855000087B
:105100007047000030B5164D8FB02C68BFF35B8F31
:1051100014F0010420D128462BF01AFDE0B13F2302
:10512000012210490993104B10480893104B0A9420
:105130000594CDE906430423CDE903322823CDE9C4
:105140000B440093CDE90144FEF722FE09482CF000
:1051500057FC28462BF008FD04480FB030BD00BFB7
:1051600058440020C8140190F48703085C440020D0
:105170000088030801510008002070470020704794
:105180000EB403B503AB002153F8042B01931AF0BE
:10519000F1F902B05DF804EB03B070470CB407B549
:1051A00004AB53F8042B01931AF0E4F903B05DF853
:1051B00004EB02B070470000436C10B5044673B3B3
:1051C000038F2BB9184BC521184A19482CF0FAFB4C
:1051D000C38E00EB43035B8C0BB31CF01FF9238FD2
:1051E000012B03D8134BCB21134AEEE7E28E40F696
:1051F0003F10531C9BB2092B194688BFA3F10A012B
:1052000004EB4101498C814209D10A2B04EB420293
:1052100028BF0023508C04EB43035884518420465C
:10522000BDE810401BF0FCBF754A03087E4A030826
:10523000294B0308734B0308814B03081BF0B9BFCC
:1052400010B586B002AC84E806001A460AAB2146C7
:1052500005930193099B0093089B18F0E1FC06B0AD
:1052600010BD000038B518BB124B13481C68134919
:10527000B4B1226822440260626822440A60A268D3
:1052800014440F4B00221A8000F038F8054600F055
:1052900033F80C4B1C600C4B1D600C4B188007E066
:1052A0000B4B03600B4B0B600B4B1C68002CE8D1C5
:1052B00038BD00BF944400208C4400208844002066
:1052C0009044002058770120607701205C7701200E
:1052D000F8140190D814019080150190044B1B68BC
:1052E00053F82100034B1B6803EB4000704700BFDD
:1052F000884400208C4400200820704700487047F4
:105300009844002010B5054CFFF7BEFE2060FFF763
:10531000F9FE6060FFF77CFEA06010BD984400209D
:1053200010B5002404600C6014601C6010BD704750
:1053300010B504464FF4AE712BF008FC204610BDAA
:1053400010B50446D0F8580100F014F82046BDE826
:10535000104019F003B9000010B50446FEF78EFCAA
:10536000014B2046236010BD306903080022026013
:10537000704700000068034A036892ED000A9B68CA
:10538000184700BF60070020704704387047704717
:1053900010B5044610212BF0D9FB204610BDA0F11A
:1053A0000400F5E7C06800F031B8A0F10400FFF791
:1053B000F9BF00000022C1608260024A02601C3214
:1053C000426070478469030870470000034B10B5C2
:1053D00004460360FFF77EF9204610BDB469030858
:1053E00010B50446FFF7F2FF42F2B80120462BF059
:1053F000ADFB204610BD000010B50446FFF7C4FA0F
:10540000014B2046236010BDB46903080346983061
:10541000D3ED337AF8EEE77A27EE800AB5EEC00ACC
:10542000F1EE10FA09DBF6EE007A30EE270AFDEE17
:10543000C07A17EE901A15F016BBFDEEC07AB8EEE2
:10544000E77A17EE903A013B30EE470AB7EE087A5A
:1054500030EE070ABDEEC00A10EE101A1944EAE752
:10546000FFF7D9B87047704704387047704710B5D8
:10547000044610212BF06AFB204610BDA0F1040069
:10548000F5E700000022C1608260024A0260183223
:1054900042607047E869030870470000034B10B58D
:1054A00004460360FFF7A3FC204610BD146A0308FE
:1054B00010B50446FFF7F2FF4FF4B67120462BF00B
:1054C00045FB204610BD000010B50446FFF7C6FCA2
:1054D000014B2046236010BD146A0308FFF788BC07
:1054E0000F490020D1F8883043F47003C1F88830A8
:1054F0000C4B1A6842F001021A6098601A6822F098
:10550000847222F480321A60074A5A601A6822F4C0
:1055100080221A60D8604FF000638B60704700BF34
:1055200000ED00E0003802401030002470470020F9
:1055300070470000002337B58DF807300C4B1A7800
:105540000AB901221A700324C5B2013CA8212846D9
:10555000FCF7CAFB14F0FF048DF807009DF8073034
:10556000DBB201D0512BF0D19DF8070003B030BD64
:10557000A644002013B500240221C0B28DF80740D4
:10558000FCF7B2FB8DF807009DF8073003F00F031E
:105590008DF807309DF80730052B01D98DF80740AD
:1055A0009DF80720034B9DF807005A7000229A705F
:1055B00002B010BDA64400202DE9F74F2F4C154630
:1055C0004FF000080F46A37862788DF807809A4262
:1055D0004DD9092B4ED803EB43035B00DBB2191DF9
:1055E00003F1030B03F1060A0533C9B25FFA8BFB23
:1055F0005FFA8AFA5FFA83F8C6B2DFF88490304621
:10560000FCF772FB8DF807009DF8073059463046CD
:10561000A9F80030FCF768FB8DF8070051469DF8AB
:1056200007303046B9F800201B0203F470631343BF
:105630003B80A9F80030FCF757FB8DF80700414686
:105640009DF807303046A9F80030FCF74DFB8DF887
:1056500007009DF80730B9F800201B0203F47063BF
:105660001343A9F800302B80A3780133A37003B053
:10567000BDE8F08FC246C3464146BDE7A6440020C0
:10568000A44400200122A421C0B2FCF713BB0022D5
:10569000A421C0B2FCF70EBBFFF7F9BF70470000B2
:1056A000024B1A780AB901221A707047A6440020EA
:1056B000074A032008B5136843F48073136000F0B1
:1056C0002DF80020FCF790F9FBF756FF002008BDED
:1056D000003C0240034A044B11681B780B441360E2
:1056E000704700BFAC44002038000020014B186810
:1056F000704700BFAC44002038B50446FFF7F6FF02
:105700000546631C1EBF044B1B78E418FFF7EEFF31
:10571000431BA342FAD338BD3800002007490302D7
:10572000CA6803F4E06322F4E0621204120C13432B
:1057300043F0BF6343F40033CB60704700ED00E0FB
:10574000164B30B5DC68C4F30224C4F10703251DF1
:10575000042B28BF0423062D4FF0FF358CBF033CDC
:10576000002405FA03F3002805FA04F521EA0303EF
:1057700022EA050203FA04F343EA02034FEA0313A1
:10578000DBB206DB00F1604000F5614080F80033D9
:1057900030BD00F00F00024A1354F9E700ED00E0BD
:1057A00014ED00E0002807DB4109012300F01F0091
:1057B000024A834042F82130704700BF00E100E018
:1057C00000280CDB4309012200F01F0004492033AC
:1057D000824041F82320BFF34F8FBFF36F8F704794
:1057E00000E100E0BFF35F8F044B5A6A22F480327D
:1057F0005A620022C3F89420704700BF00ED00E019
:10580000064B40F00100C3F894005A6A42F480321B
:105810005A62BFF34F8FBFF36F8F704700ED00E008
:105820004378144AC2F89830D2F8A03023F001032C
:10583000C2F8A0304368C2F89C30C37A017B1B06D3
:1058400043EA017301780B43817A43EAC143417B08
:1058500043EA8143817B43EA4143C17B43EA0143FD
:10586000417A43EA0123017A43EA4103C2F8A030B6
:10587000704700BF00ED00E010B5044608B90120F4
:1058800010BD437F03F0FF0213B90277FBF792FECE
:10589000022363772379E3B92368134A5A619A682C
:1058A00022F018029A6062792368D2B94FF0FF3271
:1058B0001A6100209A68616922F060020A43A169B6
:1058C0009A609A6822F080020A439A600123637703
:1058D000D6E7D4E90212204600F008F80028E2D00A
:1058E000CDE72269E4E700BFB71DC104CB0710B5BF
:1058F0000DD51F23013B1DD321FA03F4E407F9D58D
:10590000102A13D0102A04D83AB1082A10D0012046
:105910000BE0182AFBD1062BF9D800684161836897
:1059200023F0180313438360002010BD072BF3E717
:105930000F2BF1E7102AE5D1E9E770B50446866D33
:10594000FFF7D4FE054694F83530022B06D08023AD
:1059500001206365002384F8343070BD23681A6821
:1059600022F016021A605A6922F080025A61226CF3
:105970000AB9A26C1AB11A6822F008021A601A68F1
:1059800022F001021A602368186810F0010007D1A4
:10599000E26D3F239340B360012384F83530D9E7AB
:1059A000FFF7A4FE401B0528EDD9202303206365E3
:1059B00084F83500CEE710B5044620B390F83930AE
:1059C00003F0FF021BB980F83820FBF709FE022321
:1059D0006168002084F8393023681A6822F4403264
:1059E0000A43A1681A605A6B22F007020A43E16871
:1059F0005A631A6C6FF30D020A431A640123E063C1
:105A000084F8393010BD0120FCE770477047036807
:105A100070B55E6804461D68F20714D5E90512D515
:105A20001A6822F480721A60C26B42F00102C263EB
:105A300001229A60042380F83930002380F838303E
:105A4000436903B19847B20616D5AB0414D5236851
:105A50001A6822F400521A6020229A60E36B43F025
:105A60000203E363042384F83930002384F83830D8
:105A700063690BB120469847300716D5290514D520
:105A800023681A6822F400621A6008229A60E36BA5
:105A900043F00403E363042384F83930002384F8DB
:105AA000383063690BB12046984772070BD56B05F8
:105AB00009D5236820461A6822F480621A600422FD
:105AC0009A60FFF7A2FFB00714D5A90512D5236885
:105AD0001A6822F400721A6002229A60E36BE36390
