:020000040800F2
:1000000000000520F91D0008151D0008171D000837
:10001000191D00081B1D00081D1D00080000000020
:10002000000000000000000000000000B19800087F
:100030001F1D00080000000051990008B599000834
:10004000491E0008491E0008491E0008491E0008F4
:10005000491E0008491E0008491E0008491E0008E4
:10006000491E0008491E0008491E0008491E0008D4
:10007000491E0008491E0008491E0008491E0008C4
:10008000491E0008491E0008491E0008491E0008B4
:10009000491E0008491E0008491E0008491E0008A4
:1000A000491E0008491E0008491E0008491E000894
:1000B000491E0008491E0008491E0008491E000884
:1000C000491E0008491E0008491E0008491E000874
:1000D000491E0008491E0008491E0008491E000864
:1000E000491E0008491E0008491E0008491E000854
:1000F000491E0008491E0008491E0008491E000844
:10010000491E0008491E0008491E0008491E000833
:10011000491E0008491E0008211D0008491E00084C
:10012000491E0008491E0008491E0008491E000813
:10013000491E0008491E0008491E0008491E000803
:10014000491E0008491E0008491E0008491E0008F3
:10015000491E0008491E0008491E0008491E0008E3
:10016000491E0008491E0008491E0008491E0008D3
:10017000491E0008491E0008491E00080000000032
:10018000491E0008491E0008491E0008491E0008B3
:10019000491E0008491E0008491E0008491E0008A3
:1001A0002D1D0008491E0008391D0008491E0008C1
:1001B000491E0008491E0008491E0008491E000883
:0801C000491E0008491E000859
:1001D00010B5054C237833B9044B13B10448AFF381
:1001E00000800123237010BD4003002000000000A8
:1001F000E45D030808B5034B1BB103490348AFF3A3
:10020000008008BD0000000044030020E45D0308F6
:1002100001F0FF01102A2BDB10F0070F08D010F8B7
:10022000013B013A8B422DD010F0070F42B3F6D1BB
:10023000F0B441EA012141EA014122F007047FF0D4
:1002400000070023F0E80256083C85EA010586EA2B
:10025000010685FA47F5A3FA87F586FA47F6A5FA67
:1002600087F68EB9EED1F0BC01F0FF0102F0070273
:1002700032B110F8013B013A83EA010313B1F8D11E
:100280000020704701387047002D06BF35460338FF
:10029000073815F0010F07D1013015F4807F02BF38
:1002A000013015F4C03F0130F0BC0138704700BF89
:1002B00081F0004102E000BF83F0004330B54FEA17
:1002C00041044FEA430594EA050F08BF90EA020F84
:1002D0001FBF54EA000C55EA020C7FEA645C7FEA17
:1002E000655C00F0E2804FEA5454D4EB5555B8BF3A
:1002F0006D420CDD2C4480EA020281EA030382EAAB
:10030000000083EA010180EA020281EA0303362D3C
:1003100088BF30BD11F0004F4FEA01314FF4801C0F
:100320004CEA113102D0404261EB410113F0004F21
:100330004FEA03334CEA133302D0524263EB4303D8
:1003400094EA050F00F0A780A4F10104D5F1200E76
:100350000DDB02FA0EFC22FA05F2801841F10001D1
:1003600003FA0EF2801843FA05F359410EE0A5F1A5
:1003700020050EF1200E012A03FA0EFC28BF4CF0D6
:10038000020C43FA05F3C01851EBE37101F000458C
:1003900007D54FF0000EDCF1000C7EEB00006EEB99
:1003A0000101B1F5801F1BD3B1F5001F0CD3490823
:1003B0005FEA30004FEA3C0C04F101044FEA44527A
:1003C00012F5800F80F09A80BCF1004F08BF5FEA01
:1003D000500C50F1000041EB045141EA050130BDE1
:1003E0005FEA4C0C404141EB0101013C28BFB1F5F3
:1003F000801FE9D291F0000F04BF01460020B1FA3E
:1004000081F308BF2033A3F10B03B3F120020CDA10
:100410000C3208DD02F1140CC2F10C0201FA0CF0EE
:1004200021FA02F10CE002F11402D8BFC2F1200C53
:1004300001FA02F120FA0CFCDCBF41EA0C01904009
:10044000E41AA2BF01EB0451294330BD6FEA040452
:100450001F3C1CDA0C340EDC04F11404C4F120023D
:1004600020FA04F001FA02F340EA030021FA04F34F
:1004700045EA030130BDC4F10C04C4F1200220FAA6
:1004800002F001FA04F340EA0300294630BD21FAE4
:1004900004F0294630BD94F0000F83F4801306BFAA
:1004A00081F480110134013D4EE77FEA645C18BF9E
:1004B0007FEA655C29D094EA050F08BF90EA020F35
:1004C00005D054EA000C04BF1946104630BD91EA2D
:1004D000030F1EBF0021002030BD5FEA545C05D130
:1004E0004000494128BF41F0004130BD14F580046F
:1004F0003CBF01F5801130BD01F0004545F0FE41E3
:1005000041F470014FF0000030BD7FEA645C1ABF17
:10051000194610467FEA655C1CBF0B46024650EA4E
:10052000013406BF52EA033591EA030F41F400217A
:1005300030BD00BF90F0000F04BF0021704730B500
:100540004FF4806404F132044FF000054FF00001D5
:1005500050E700BF90F0000F04BF0021704730B596
:100560004FF4806404F1320410F0004548BF40426B
:100570004FF000013EE700BF42004FEAE2014FEAC0
:1005800031014FEA02701FBF12F07F4393F07F4F9B
:1005900081F06051704732F07F4208BF704793F09E
:1005A0007F4F04BF41F40021704730B54FF46074B1
:1005B00001F0004521F000411CE700BF50EA0102B4
:1005C00008BF704730B54FF000050AE050EA01025D
:1005D00008BF704730B511F0004502D5404261EBCD
:1005E00041014FF4806404F132045FEA915C3FF40E
:1005F000D8AE4FF003025FEADC0C18BF03325FEAAB
:10060000DC0C18BF033202EBDC02C2F1200300FA5B
:1006100003FC20FA02F001FA03FE40EA0E0021FA80
:1006200002F11444BDE600BF70B54FF0FF0C4CF46E
:10063000E06C1CEA11541DBF1CEA135594EA0C0F20
:1006400095EA0C0F00F0DEF82C4481EA030621EA5B
:100650004C5123EA4C5350EA013518BF52EA033596
:1006600041F4801143F4801338D0A0FB02CE4FF048
:100670000005E1FB02E506F00042E0FB03E54FF078
:100680000006E1FB03569CF0000F18BF4EF0010E70
:10069000A4F1FF04B6F5007F64F5407404D25FEA6C
:1006A0004E0E6D4146EB060642EAC62141EA55511F
:1006B0004FEAC52040EA5E504FEACE2EB4F1FD0C61
:1006C00088BFBCF5E06F1ED8BEF1004F08BF5FEADF
:1006D000500E50F1000041EB045170BD06F0004691
:1006E00046EA010140EA020081EA0301B4EB5C043E
:1006F000C2BFD4EB0C0541EA045170BD41F4801136
:100700004FF0000E013C00F3AB8014F1360FDEBF5A
:10071000002001F0004170BDC4F10004203C35DA36
:100720000C341BDC04F11404C4F1200500FA05F3B9
:1007300020FA04F001FA05F240EA020001F000425A
:1007400021F0004110EBD37021FA04F642EB0601D0
:100750005EEA430E08BF20EAD37070BDC4F10C04FA
:10076000C4F1200500FA04F320FA05F001FA04F2BE
:1007700040EA020001F0004110EBD37041F10001AA
:100780005EEA430E08BF20EAD37070BDC4F12005B5
:1007900000FA05F24EEA020E20FA04F301FA05F21D
:1007A00043EA020321FA04F001F0004121FA04F2C5
:1007B00020EA020000EBD3705EEA430E08BF20EA95
:1007C000D37070BD94F0000F0FD101F000464000CF
:1007D00041EB010111F4801F08BF013CF7D041EA51
:1007E000060195F0000F18BF704703F00046520055
:1007F00043EB030313F4801F08BF013DF7D043EA26
:100800000603704794EA0C0F0CEA135518BF95EADB
:100810000C0F0CD050EA410618BF52EA4306D1D162
:1008200081EA030101F000414FF0000070BD50EA81
:10083000410606BF1046194652EA430619D094EA0B
:100840000C0F02D150EA013613D195EA0C0F05D1F5
:1008500052EA03361CBF104619460AD181EA030149
:1008600001F0004141F0FE4141F470014FF0000001
:1008700070BD41F0FE4141F4780170BD70B54FF09C
:10088000FF0C4CF4E06C1CEA11541DBF1CEA13551C
:1008900094EA0C0F95EA0C0F00F0A7F8A4EB0504FE
:1008A00081EA030E52EA03354FEA013100F08880F5
:1008B0004FEA03334FF0805545EA131343EA1263BE
:1008C0004FEA022245EA111545EA10654FEA002673
:1008D0000EF000419D4208BF964244F1FD0404F52C
:1008E000407402D25B084FEA3202B61A65EB030588
:1008F0005B084FEA32024FF480104FF4002CB6EB45
:10090000020E75EB030E22BFB61A754640EA0C00C4
:100910005B084FEA3202B6EB020E75EB030E22BF04
:10092000B61A754640EA5C005B084FEA3202B6EB45
:10093000020E75EB030E22BFB61A754640EA9C0004
:100940005B084FEA3202B6EB020E75EB030E22BFD4
:10095000B61A754640EADC0055EA060E18D04FEA92
:10096000051545EA16754FEA06164FEAC30343EA32
:1009700052734FEAC2025FEA1C1CC0D111F4801FFF
:100980000BD141EA00014FF000004FF0004CB6E7F8
:1009900011F4801F04BF01430020B4F1FD0C88BF97
:1009A000BCF5E06F3FF6AFAEB5EB030C04BFB6EBA2
:1009B000020C5FEA500C50F1000041EB045170BD95
:1009C0000EF0004E4EEA113114EB5C04C2BFD4EBC2
:1009D0000C0541EA045170BD41F480114FF0000E46
:1009E000013C90E645EA060E8DE60CEA135594EAC2
:1009F0000C0F08BF95EA0C0F3FF43BAF94EA0C0FC5
:100A00000AD150EA01347FF434AF95EA0C0F7FF439
:100A100025AF104619462CE795EA0C0F06D152EA8D
:100A200003353FF4FDAE1046194622E750EA410671
:100A300018BF52EA43067FF4C5AE50EA41047FF482
:100A40000DAF52EA43057FF4EBAE12E74FF0FF3CE7
:100A500006E000BF4FF0010C02E000BF4FF0010CB8
:100A60004DF804CD4FEA410C7FEA6C5C4FEA430C31
:100A700018BF7FEA6C5C1BD001B050EA410C0CBF80
:100A800052EA430C91EA030F02BF90EA020F0020E2
:100A9000704710F1000F91EA030F58BF994208BF49
:100AA00090422CBFD8176FEAE37040F00100704706
:100AB0004FEA410C7FEA6C5C02D150EA013C07D15D
:100AC0004FEA430C7FEA6C5CD6D152EA033CD3D0A8
:100AD0005DF8040B704700BF8446104662468C46A2
:100AE0001946634600E000BF01B5FFF7B7FF0028D5
:100AF00048BF10F1000F01BD4DF808EDFFF7F4FFFE
:100B00000CBF012000205DF808FB00BF4DF808ED88
:100B1000FFF7EAFF34BF012000205DF808FB00BFAB
:100B20004DF808EDFFF7E0FF94BF012000205DF8CD
:100B300008FB00BF4DF808EDFFF7CEFF94BF012082
:100B400000205DF808FB00BF4DF808EDFFF7C4FF7B
:100B500034BF012000205DF808FB00BF4FEA410CC4
:100B60007FEA6C5C02D150EA013C0AD14FEA430CA7
:100B70007FEA6C5C02D152EA033C02D14FF00000E4
:100B800070474FF0010070474FEA410212F5001222
:100B900015D211D56FF47873B3EB625212D94FEAC4
:100BA000C12343F0004343EA505311F0004F23FAAE
:100BB00002F018BF404270474FF00000704750EA03
:100BC000013005D111F0004008BF6FF000407047C0
:100BD0004FF00000704700BF4A0011D212F500121A
:100BE00011D20DD56FF47873B3EB62520ED44FEA85
:100BF000C12343F0004343EA505323FA02F0704705
:100C00004FF00000704750EA013002D14FF0FF3042
:100C100070474FF0000070474FEA4102B2F1E043E5
:100C200024BFB3F5001CDCF1FE5C0DD901F0004CD3
:100C30004FEAC0024CEA5070B2F1004F40EB830023
:100C400008BF20F00100704711F0804F21D113F14F
:100C50003872BCBF01F00040704741F480114FEA88
:100C60005252C2F11802C2F1200C10FA0CF320FA11
:100C700002F018BF40F001004FEAC1234FEAD3232E
:100C800003FA0CFC40EA0C0023FA02F34FEA430398
:100C9000CCE77FEA625307D150EA01331EBF4FF021
:100CA000FE4040F44000704701F0004040F0FE403C
:100CB00040F40000704700BF7BB972B90029BEBF85
:100CC00000204FF0004106E008BF00281CBF6FF075
:100CD00000414FF0FF3000F0D3B9ADF1080C6DE9E1
:100CE00004CE002909DB002B1ADB00F04DF8DDF8FB
:100CF00004E0DDE9022304B07047404261EB4101AA
:100D0000002B1BDB00F040F8DDF804E0DDE90223F6
:100D100004B0404261EB4101524263EB4303704730
:100D2000524263EB430300F02FF8DDF804E0DDE905
:100D3000022304B0404261EB41017047524263EB31
:100D4000430300F021F8DDF804E0DDE9022304B0FC
:100D5000524263EB4303704753B94AB9002908BFB5
:100D600000281CBF4FF0FF314FF0FF3000F088B972
:100D7000ADF1080C6DE904CE00F006F8DDF804E0F2
:100D8000DDE9022304B070472DE9F047089D8E4647
:100D900004468846002B4AD18A42174662D9B2FAE5
:100DA00082F64EB1C6F1200301FA06F820FA03F3E9
:100DB000B74043EA0808B4404FEA174E1FFA87FCD1
:100DC000B8FBFEF1230C0EFB118843EA084301FB3C
:100DD0000CF29A4209D9FB1801F1FF3080F0EA8049
:100DE0009A4240F2E78002393B449A1AA3B2B2FB1E
:100DF000FEF00EFB102243EA024300FB0CFC9C4574
:100E000009D9FB1800F1FF3280F0D6809C4540F2F2
:100E1000D3803B44023840EA0140A3EB0C0300219D
:100E20001DB1F3400022C5E90032BDE8F0878B42D6
:100E300005D90DB1C5E9000100210846F5E7B3FA6F
:100E400083F1002946D1734502D3824200F2058125
:100E5000841A6EEB030201209046002DE5D0C5E90F
:100E60000048E2E7002A00F09080B2FA82F6002EF5
:100E700040F0A4808A1A030C4FEA174E80B2BCB22D
:100E80000121B2FBFEFC0EFB1C2243EA024304FBE1
:100E90000CF29A4207D9FB180CF1FF3802D29A42A1
:100EA00000F2E080C4469B1AB3FBFEF20EFB123345
:100EB00040EA034302FB04F49C4207D9FB1802F109
:100EC000FF3002D29C4200F2CA8002461B1B42EA5B
:100ED0000C40A5E7C1F120068B4022FA06F71F431C
:100EE0000EFA01F420FA06F32EFA06FE4FEA17492D
:100EF000234300FA01F81FFA87FCBEFBF9F01C0C33
:100F000009FB10EE44EA0E4400FB0CFEA64502FA73
:100F100001F209D93C1900F1FF3A80F09C80A64506
:100F200040F2998002383C44A4EB0E041FFA83FE81
:100F3000B4FBF9F309FB13444EEA044403FB0CFC35
:100F4000A44508D93C1903F1FF3E80F08280A445F6
:100F50007FD9023B3C4443EA0040A4EB0C04A0FBD5
:100F600002EC64457346E14662D35FD05DB1B8EBF5
:100F7000030264EB090404FA06F622FA01F31E43A5
:100F8000CC40C5E9006400214FE7B1FBF2FC010C45
:100F900041EA0E4180B240EA01423B4638463C46B7
:100FA000B846BE462026B1FBF7F1A2EB080241EAA3
:100FB0000C4166E7014618E710462CE7C6F120020F
:100FC0002EFA02F3B740B14020FA02F24FEA174E70
:100FD0000A43B3FBFEF8BCB20EFB1833110C41EA16
:100FE000034108FB04F9B04089454FEA104380B241
:100FF0003ED9791808F1FF3C01D289451FD8A1EBF1
:101000000901B1FBFEF909FB04F80EFB191192B2BC
:1010100042EA0142424529D2BA1809F1FF31C4D24D
:101020004245C2D2A9F102013A44BEE7F0459DD241
:10103000BEEB02036CEB070C0138E14696E7A7EB29
:1010400009094944A8F1020CB1FBFEF909FB04F8B7
:10105000DBE773467FE7504666E70846FDE63B441C
:10106000023A33E7ACF1020C3B441CE749469CE7EB
:10107000A1EB0901C446B1FBFEF909FB04F8C4E782
:10108000704700BF0149002009F00EBEFD22000894
:101090002DE9F047284D00240026284FAA462DEDC3
:1010A000028BF0EE088AB1EE048A0FF28409D9E9C6
:1010B000008920460134FFF74DFA42464B46FFF7C0
:1010C000B3FA32463B46FFF7AFFAFFF7A5FD00EE55
:1010D000100A32F059F9F0EE487AE0EE287A17EE6D
:1010E000900AFFF749FA0022154BFFF79DFAFFF728
:1010F00073FDB4F5807F05F8010BDAD1114C124D68
:10110000236800221148D1180132C9B2C82A1AF83E
:10111000011000F8011BF6D101331020DBB223606F
:1011200001232B7007F0D2FFEAE700BFAFF3008086
:10113000182D4454FB2119405D0300200000703F2E
:1011400000803940600400205C030020640400201B
:1011500010B594B01022002102240AA833F006FF33
:101160001422002103A833F001FF1D4B192108A808
:101170001A6C42F080521A641B6C03F08053019386
:10118000019B184B1A6842F440421A6001221B6806
:1011900003F440430293029B4FF48033CDE90823CC
:1011A0004FF48003CDE90E434FF4D873CDE91244D8
:1011B000CDE9101306F076FF06F0E0FC0F230020C7
:1011C0000721CDE903344FF4A053CDE905034FF4D3
:1011D000805303A8079307F04DF914B010BD00BF6A
:1011E000003802400070004030B54FF480738FB07B
:1011F0004FF080720E4D06939F23099201220093B7
:1012000000230446694628460593CDE90A2341F2A6
:101210008832CDE90733CDE90C3306F015FE41F2F3
:1012200088322146284606F0D9FE0FB030BD00BFF7
:101230007C05002000B54FF4807391B04FF04072F0
:10124000EF2808934FF0EB0302A90D4802934FF4E7
:10125000406309934FF4005305934FF00003CDE929
:101260000A3214BF0A2206220F9307926A46CDE97A
:101270000D33CDE9003306F02BFE11B05DF804FB11
:101280007C0500202DE980489BB01022002101251B
:101290000DA84FF0104933F069FE002405F0BEFBA5
:1012A000C74B0DA8ADF834501094CDE90E9305F05E
:1012B000D3FB17230DA88DF835508DF83C308DF8F1
:1012C000425005F0C9FB042005F0B6FBBFF34F8F79
:1012D000BFF36F8FBB4AC2F85042BFF34F8FBFF3CB
:1012E0006F8F536943F400335361BFF34F8FBFF3E4
:1012F0006F8FC2F88440BFF34F8FD2F8803043F62F
:10130000E074C3F3C900C3F34E335B0103EA040680
:10131000014646EA81750139C2F86052F9D2203B94
:1013200013F1200FF2D1BFF34F8F536943F4803391
:101330005361BFF34F8FBFF36F8F05F0D5FA0024D1
:10134000FFF706FF142200210DA833F00FFE9E4B7D
:1013500010219E481A6B01274FF010084FF0030B25
:1013600042F010024FF4805A994D4FF004091A636D
:101370001A6B984E02F010020292029A1A6B42F017
:1013800002021A631A6B02F002020392039A1A6BAA
:1013900042F001021A631A6B02F001020492049AED
:1013A0001A6B42F040021A631A6B02F04002059277
:1013B000059A1A6B42F400721A631A6B02F40072F7
:1013C0000692069A1A6B42F008021A631A6B02F030
:1013D00008020792079A1A6B42F004021A631A6B0A
:1013E00002F004020892089A1A6B42F480621A63AF
:1013F0001A6B02F480620992099A1A6B42F0200279
:101400001A631A6B02F020020A920A9A1A6B42F4CB
:1014100080721A631A6B02F480720B920B9A1A6B29
:1014200042F080021A6300221B6B03F080030C93CE
:101430000C9B05F05DFE01220821674805F058FE6F
:1014400001224FF48051654805F052FE0022C02170
:10145000634805F04DFE00224021624805F048FE39
:101460000DA95A48CDE90D87CDE90F4B05F0BCFC1D
:1014700008230DA95848CDE90D37CDE90F4405F0F3
:10148000B3FC0DA95548CDE90DA7CDE90F4405F0F2
:10149000ABFCC0220DA95248CDE90D27CDE90F4B79
:1014A00005F0A2FC40220DA94E48CDE90D27CDE95B
:1014B0000F4B05F099FC4C484C4984800160076251
:1014C000C0E9054405F0F4FA49492846C5E9001485
:1014D000C5E90244C5E90A44C5E90C4405F087FBA7
:1014E00039462846434D05F039FC40234FF4C0727D
:1014F00041493046B460F461B462C6E905324FF444
:101500000062C6E9082A4FF0020A0722C6E9001461
:101510000DA9CDF84CA0C6E90398CDE90DA2CDE9FF
:101520000F92CDE911BA07F0FBFA29464FF6FF7288
:1015300030460194C5E90078C5E9027407F010FB54
:10154000384605F0F5F929464FF6FF723046C5E9F1
:1015500000A8C5E9027407F003FB082329464FF6EB
:10156000FF723046C5E900B8C5E9023407F0F8FA61
:101570004FF40C734FF6FF72294601933046019BDE
:10158000AF60EB60C5E9009807F0EAFA40F22B7112
:1015900030461A4D07F003FB4FF0204343F2D202CE
:1015A000642040F215261A6005F0C2F9144B154A62
:1015B00028462C62C5E90023C5E9024724E000BFA4
:1015C0001B00000300ED00E0003802400004024070
:1015D000C4060020480500200028024000200240E8
:1015E00000080240001802400407002000300240BA
:1015F00000B002402C050020400100A07006002031
:1016000068474020005C0040C5E90444C5E9064441
:1016100005F0AFFE2146284606F0D2F821462846BE
:10162000404D06F0F3F8342221460DEB020033F072
:101630009DFC3D4B2821352040F2352C2C61AC8699
:1016400085F83640C5E900340923C5E905130B23A5
:10165000C5E9070340F21B132846C5E9096340F2B8
:101660001D13C5E90244C5E90BC306F073F9FF2158
:101670004FF4806E4FF4F0724FF4887328460D9447
:101680001893ADF864408DF86640CDE91214052139
:10169000CDE914E14FF04041CDE90E24CDE9161219
:1016A00022460DA9CDE9103A06F01FFA1F48204B3B
:1016B0000462C0E90037C0E902984FF4A0634FF01C
:1016C0001808C0E90644C0E9048306F06BFB0DA8C6
:1016D000FFF78AFD9DF83400FFF7ACFD5C2005F0B4
:1016E0008BF900F087FB00F0B1FB00F0AEFB07F0D8
:1016F00063FC104A2146104807F098FC0F4B104A33
:10170000214618600F4807F091FC0F4B0F4A214605
:1017100018600F4807F08AFC0E4B186007F066FC53
:10172000FEE700BFC8050020006801407C050020DE
:10173000001000A08C9003089110000844050020C0
:10174000689003085B1E00084005002044900308D1
:10175000E53900083C0500200268034B9A4201D19C
:1017600005F0D4B8704700BF00100040704700007B
:101770000D4B82B00F216FF001001A6C42F08052C5
:101780001A641A6C02F080520092009A5A6C42F469
:1017900080425A6400225B6C03F480430193019BF6
:1017A00002B005F0E9B800BF00380240026882B01C
:1017B000084B9A420BD1D3F8302803F5006342F46A
:1017C00080521A631B6B03F480530193019B02B098
:1017D000704700BF003002400E4B07B502689A42C6
:1017E00015D1A3F5F04305215A201A6B42F40002EB
:1017F0001A6300221B6B03F400030193019B05F0A5
:10180000BBF85A2003B05DF804EB05F0E7B803B06D
:101810005DF804FB00B0024010B5A8B004461422E5
:10182000002102A833F0A2FB8422002107A833F094
:101830009DFB2268174B9A422AD14FF4803307A8A8
:10184000079306F0E3FE08B1FFF790FF124C4FF448
:10185000C07201211148236B43F080032363236B83
:1018600003F080030093009B1223CDE9022303239E
:10187000CDE90413042302A9069305F0B5FA236CFD
:1018800043F400032364236C03F400030193019BDE
:1018900028B010BD005C004000380240001C02402F
:1018A000026808B5094B9A420FD1094A80210948BC
:1018B000136C23F40003136405F07AFB4FF480717A
:1018C0000448BDE8084005F073BB08BD005C00405B
:1018D00000380240001C024070B5B0B0044614222B
:1018E00000210AA833F042FB842200210FA833F024
:1018F0003DFB22686B4B9A4240F0D18008230520C3
:1019000001240F934FF4C07314930223CDE91530D3
:101910004FF400330FA8CDE9194306F077FE08B164
:10192000FFF724FF604B002402250E265A6C0AA9FB
:101930005E4842F080625A645A6C02F08062019202
:10194000019A1A6B42F010021A631A6B02F010022D
:101950000292029A1A6B42F040021A631A6B02F06A
:1019600040020392039A1A6B42F400721A631A6BD4
:1019700002F400720492049A1A6B42F008021A638D
:101980001A6B02F008020592059A1A6B42F00402E3
:101990001A631A6B02F004020692069A1A6B42F45A
:1019A00080621A631A6B02F480620792079A1A6BBC
:1019B00042F480721A631A6B02F480720892089AD9
:1019C0001A6B42F001021A631B6B0E9603F00103BF
:1019D0000993099B7023CDE90C44CDE90A3505F044
:1019E00003FA4FF400530AA931480E96CDE90A359F
:1019F000CDE90C4405F0F8F94AF67C630AA92D48B4
:101A00000E96CDE90A35CDE90C4405F0EDF94023F9
:101A10000AA929480E96CDE90A35CDE90C4405F00E
:101A2000E3F94FF480630AA924480E96CDE90A35FC
:101A3000CDE90C4405F0D8F9F7230AA920480E9601
:101A4000CDE90A35CDE90C4405F0CEF94FF48053C9
:101A50000AA91748CDE90A350923CDE90C440E93AC
:101A600005F0C2F94FF48C430AA916480E96CDE949
:101A70000A35CDE90C4405F0B7F904230AA9124848
:101A80000E96CDE90A35CDE90C4405F0ADF95820A4
:101A90002246052104F070FF582004F09FFF30B06B
:101AA00070BD00BF006801400038024000100240D5
:101AB0000018024000240240000C024000080240CE
:101AC00000280240002002400000024014220021B1
:101AD0002DE9F0418AB004460DEB020033F046FADE
:101AE00022682C4B9A4251D12B4B02250324092604
:101AF0009A6B4FF0040805A9284842F0020200271B
:101B00009A639A6B02F002020192019A1A6B42F0F8
:101B100010021A631A6B02F010020292029A1A6BF8
:101B200042F002021A631A6B02F002020392039A55
:101B30001A6B42F008021A631B6B03F0080304934C
:101B4000049BCDE90585CDE9084605F04DF9402314
:101B500005A91348CDE905350A23CDE90774099392
:101B600005F042F905A90E480996CDE90585CDE9AC
:101B7000077405F039F94FF4605305A9094809962F
:101B8000CDE90535CDE9077405F02EF90AB0BDE8B9
:101B9000F08100BF001000A0003802400010024099
:101BA00000040240000C0240F0B5002387B003930C
:101BB000294B1E68002E4DD10122022703250C243B
:101BC0001A6001A9254B26489A6B42F001029A63DC
:101BD0009B6B03F001030093009B4FF68373CDE9E9
:101BE0000454CDE9013705F0FFF848F2331301A999
:101BF0001C480594CDE90137CDE9036505F0F4F8FB
:101C00004CF2037301A918480594CDE90137CDE9D9
:101C1000036505F0E9F84FF63F0301A91348059461
:101C2000CDE90137CDE9036505F0DEF8282301A9E8
:101C30000F480594CDE90137CDE9036505F0D4F8E7
:101C4000082301A90B480594CDE90137CDE90365C7
:101C500005F0CAF807B0F0BD2807002000380240A0
:101C60000010024000180240000C02400014024024
:101C7000001C024000080240214B1A6C42F0100286
:101C800070B588B01A641B6C054601A903A803F05F
:101C900010030293029B06F09BFC069B4BBB06F0D5
:101CA00087FC184E184B336040F2E733F360174B54
:101CB000B0FBF3F3013B3046736000233361B36044
:101CC000B36107F0BFF8044680B9304606F080FFE4
:101CD000044658B9362004F081FE0F2D0DD8224657
:101CE0002946362004F048FE094B1D60204608B006
:101CF00070BD06F05DFC4000D3E70124F6E700BFAD
:101D0000003802402C0700200010004040420F0025
:101D1000540000207047FEE7FEE7FEE7FEE770474D
:101D2000014806F097BF00BF2C070020014805F0CE
:101D30007FBE00BFC8050020014804F084BF00BF7B
:101D4000C40600200120704708B533F0C3F91623FC
:101D500003604FF0FF3008BD08B533F0BBF9162320
:101D60000360FEE770B50D4614460E46731B9C4299
:101D700001DC204670BDAFF3008006F8010BF5E7EB
:101D800070B50D4614460E46731B9C4201DC20467E
:101D900070BD16F8010BAFF30080F5E74FF0FF3090
:101DA00070474FF4005300204B607047012070478C
:101DB000002070470B4A0346116810B509B90A495B
:101DC0001160106809490A4C0344091B8B4206D96B
:101DD00033F080F90C2303604FF0FF3010BD136027
:101DE000FCE700BF78070020C88201200000052022
:101DF000000A000070470000DFF834D0002103E043
:101E00000C4B5B58435004310B480C4B42189A4220
:101E1000F6D30B4A02E0002342F8043B094B9A42F6
:101E2000F9D304F079FC33F05BF9FFF72BFA704734
:101E30000000052098BF0308000000203C0100209E
:101E400040030020C8820120FEE7704708B501F07A
:101E500091F9BDE8084001F013B901F08DB940686F
:101E600070474160704700004FF0E022D2F8FC3D1F
:101E700043F08073C2F8FC3D054B064AD3F8B01F0F
:101E80000A43C3F8B02F1A6842F001021A60704783
:101E9000001000E055CEACC5521A02EB5302B2FB63
:101EA000F3F07047014B5868704700BF001000E026
:101EB000704710B504460C2131F01CF9204610BDC6
:101EC000036810B51B69044631B19847A26863687E
:101ED0009B1A0344636010BD9847A060FBE70000B5
:101EE000024B7020024A1360DB681847280000206C
:101EF0007C070020704710B50446042131F0FAF841
:101F0000204610BD73B50E4E0D461446336813B906
:101F1000002002B070BD1B69702098470028F7D0E0
:101F20003368702001AA0DF106015B699847BDF87E
:101F3000043001202B60BDF806302360E9E700BFC4
:101F40007C0700207FB501238DF817204FF47A72AB
:101F5000CDE901320DF1170200920A46014605480B
:101F600005F076FA10B1034805F058FA07B05DF8AD
:101F700004FB00BF700600207FB500230A464FF423
:101F80007A718DF817300123CDE901310DF1170178
:101F900000910146054805F035FB10B1034805F0F6
:101FA0003DFA9DF8170007B05DF804FB70060020AD
:101FB000032823D8DFE800F0020B131A104B10217E
:101FC00010481A68B2FA82F2520905F091B80C4B27
:101FD00040215A68B2FA82F252090B48F5E7084BE1
:101FE00080219A68B2FA82F25209F6E7044B402146
:101FF0000648DA68B2FA82F25209E6E7704700BF93
:10200000800700200004024000080240001802403F
:10201000032823D8DFE800F0020B131A104B10211D
:1020200010481A68003A18BF012205F061B80C4B3D
:1020300040215A68003A18BF01220B48F5E7084BC7
:1020400080219A68003A18BF0122F6E7044B40212C
:102050000648DA68003A18BF0122E6E7704700BF79
:1020600080070020000402400008024000180240DF
:1020700003280FD8DFE800F00206090B10210648FC
:1020800005F03BB840210548FAE78021FBE74021F5
:102090000348F5E7704700BF000402400008024013
:1020A0000018024008B5032813D8DFE800F0020A40
:1020B0000D0F1021084805F015F8431E58425841ED
:1020C00008BD40210548F6E78021FBE74021044890
:1020D000F1E70020F1E700BF0004024000080240E1
:1020E0000018024070B5084D00240126E0B2FFF749
:1020F000D9FF18B12B68012B18BF2E6001340435AD
:10210000052CF3D170BD00BF80070020012380F8AB
:10211000781080F8793070477047002070470000D1
:1021200041640039024B18BF01211970704700BF8C
:1021300087750120704700207047836B0BB10846FC
:10214000184770474FF6FF707047406803689B69F7
:10215000184770477047704738B5044601F062F978
:10216000084923682046084DD3F89030984700234B
:10217000284684F84A30FFF777FE0123256184F86A
:10218000703038BD000000C09007002001F0EEB8AC
:1021900001F0F2B870B501F06FF910490023C1F8F1
:1021A0008430BFF34F8FD1F8803043F6E074C3F32F
:1021B000C900C3F34E335B0103EA0406024646EA54
:1021C0008275013AC1F87452F9D2203B13F1200F05
:1021D000F2D1BFF34F8FBFF36F8F70BD00ED00E002
:1021E00001F04CB901F09EB801F06EBA01F076BA78
:1021F00001F0A2B810B5044617F09CFD23682046F4
:10220000D3F8BC30BDE81040184716F0AEBF10B58B
:102210000446842130F06EFF204610BD90F8341043
:102220000D4B10B590F878401A788C4209D03AB925
:102230000A490B4A08881488108001220C801A7001
:1022400010BD002AFCD0064A0449148808880C8076
:1022500010800022F3E700BF807501207E75012009
:102260007C75012070B50D46194635B9094B40F211
:10227000FF21094A094832F0BBFBC0E90F52003A7E
:10228000074B18BF01221A700368BDE87040D3F8ED
:1022900090301847635E03089B5E0308E95E0308FD
:1022A0008675012008B5094B1B888B4203D8084B63
:1022B0001B88934205D9074BA321074A074832F0F0
:1022C00097FB074B1980074B1A8008BD7C750120CE
:1022D0007E7501202E5F0308915F0308E95E030805
:1022E0008275012084750120034690F87A0018B1A8
:1022F000586803681B68184770470000014608B516
:10230000034B186801B1012117F02EFD012008BD13
:1023100088750120034B00225A609A60024A1A60B5
:10232000704700BF90070020B890030801210022E9
:1023300008B5084606F082FF0A4B186028B90A4B18
:1023400028210A4A0A4832F053FB002204210120C6
:1023500007F03EF8074B186018B9074B2C21034AC9
:10236000F0E708BDA0070020D45F03081D60030844
:102370004C6003089C07002099600308024B4FF053
:10238000FF31186806F0B2BFA0070020014B1868A3
:1023900006F0E8BFA0070020024B0021186806F0F5
:1023A000A5BF00BFA0070020FFF7F0BF0023034830
:1023B00003491A46006807F051B800BF9C07002087
:1023C0000800002013B50023074C01A91A46206815
:1023D00007F086F84FF0FF33002201A9206807F0CC
:1023E0007FF802B010BD00BF9C07002003685B6C43
:1023F00018470120704703689B6A1847FEE70000F2
:102400000E4B82B01A6B42F400021A631A6B02F48C
:1024100000020192019A1A6942F400021A611A69D3
:1024200022F400021A61064B064A1A61064A5A61F2
:102430004FF08062054B9A6002B07047003802404E
:10244000C4060020D9260008FD23000800E100E0B2
:1024500040F2EF3070470000054B4FF080620360A0
:10246000044BC3F88820BFF34F8FBFF36F8F7047C3
:10247000E491030800E100E010B504464FF45A610E
:10248000FFF7EAFF204630F035FE204610BD000081
:1024900008B50A2809D8DFE800F006100E08080879
:1024A000081010101000022008BD054B9021054AAD
:1024B000054832F09DFA0020F6E70120F4E700BF5E
:1024C000DB600308F66003084161030838B50C4679
:1024D000887FFFF7DDFF174BA58AE28A586342EA3F
:1024E000054221695A64628BD963521B1A642568BC
:1024F000082D0ED19A611A6158620F4A207F42EA74
:102500000062DA61E2681A620C4A5961D9601A60A5
:1025100038BD0022D8611A61E1680A0A4809C1F38E
:10252000C40102F4784200F4FC6002430A439A6357
:10253000034AECE700B00240090001000123020059
:102540000123030008B50B280BD8DFE800F00612C2
:10255000100A0A0A0A0808080808022008BD05200F
:10256000FCE7054B6F21054A054832F041FA00208F
:10257000F4E70120F2E700BFDB6003088C61030889
:10258000416103082DE9F04191F81D800C46404659
:10259000FFF7D8FFA77F05463846FFF7D3FF06466B
:1025A0003846FFF775FFA18A628B434B521A1A64B3
:1025B0009A61228B521A1A61E28A586342EA0142F6
:1025C00021695A646268D963DA602068802828D05B
:1025D000227F0FD8202866D0402864D004281AD043
:1025E00045EA0265344BB84545F40035DD6160D0FD
:1025F000324A44E0B0F5807F04D0B0F5007FEFD1DF
:102600002F4800E02F4840EA0262DA61E2681A626D
:102610005E62596132E045EA026242F40032DA61F8
:10262000F6E7A068021DDA62227F45EA026545F4FA
:102630000035DD615E625961017841B1012921D027
:10264000214B4FF48D71214A214832F0D1F9DA69DA
:10265000418822F47F42013922F0100242EA01222D
:102660000121DA61144BDA6942F02002DA61DA6999
:102670009206FCD410229A600029B9D0154A1A603B
:10268000BDE8F081B2F1FF01DA69408822F47F42AF
:1026900018BF0121013822F0100242EA002242F064
:1026A0001002DA61DEE745EA0262034B42F40032CF
:1026B000B5E742F20132E2E700B002400123010037
:1026C000090002000A000200D6610308F061030855
:1026D0004161030801230200024B1B68586803682C
:1026E0005B6918478875012070B504460A4B0C30A9
:1026F00000262546602260602672667245F8203BFF
:10270000294617F085FC04F55A63EE6024359D4296
:10271000FBD1204670BD00BFE4910308034B1A684B
:10272000D207FCD423229A60704700BF00B0024059
:10273000094B5A69D2030AD5BFF34F8F08440029C9
:10274000A0EB010204DCBFF34F8FBFF36F8F704724
:102750002039C3F86822F2E700ED00E030B5104CF4
:102760002568ED07FCD423250904FF2BA56041F063
:1027700001014FF0020565636164E0630AD0094915
:10278000656241EA0363E361074B22626061E060D6
:10279000236030BDE561039BA363044BF8E700BFF2
:1027A00000B0024009000100010002000100030026
:1027B00030B50F4C2568ED07FCD423251204FF2B00
:1027C000A56042F001024FF0020565636264E063B8
:1027D000E16008D01B0643F00213E361054B65621C
:1027E0006061236030BD044BE3610123F9E700BF62
:1027F00000B0024001000200020002FF30B50B4CA5
:102800002568ED07FCD4232512041B06A56042F0C1
:102810000102022543F4003365636264E063E16012
:10282000E361034B65626061236030BD00B002402C
:10283000010002004069704790F844007047036B44
:1028400023B9C06A003818BF0120704701207047C3
:1028500080687047043010B50C460FC884E80F003C
:1028600010BD704708B5034A40F21221024B0348DD
:1028700032F0BEF82E620308817B030889620308E8
:1028800010B50446482130F035FC204610BD00004C
:102890002DE9F0431D46ADF51F7D436B06460F46FF
:1028A0009046BDF89842002B35D0002203A8DFF8EF
:1028B000A490CDE901320EF0E3FE4FF4F472502102
:1028C000249024A808F091FE4246394624A809F035
:1028D000DBFD012124A808F083FF022324A88DF842
:1028E000D83009F01EF82B9B419AA342BDF89C7288
:1028F00028BF23469742A4EB030428BF174603EBE7
:1029000043086400479B9F4209D824A808F08AFF27
:1029100024A808F0B7FE0DF51F7DBDE8F083012265
:1029200001A924A809F046F8736B03EB080098424C
:1029300001D82544E6E759789A78C90009EA0222C5
:1029400001F4FC610A4313F8031B42EAD10225F8A3
:10295000022BECE700F8FFFF0A4A02600022C0E900
:102960000522C0E90722C0E90922C0E90B22C0E91B
:102970000D12C0E90F2280F84420C0E90322C0E90B
:10298000012270473492030810B40C4611461A46CF
:10299000036B3BB1036C806BE41A20445DF8044B7D
:1029A00032F0ECBAC06AF8E7036B10B573B1036C90
:1029B000826BC91A5318525C98785C780004DB78F3
:1029C00040EA0420104340EA036010BDC36A58582F
:1029D000FBE7036B43B1036CC91A836B5A18585C4D
:1029E000527840EA02207047C36A585A7047000084
:1029F00070B50446006B0D461646D8B1E36B9342A2
:102A000008D209230D4A65210D4884F844300D4B46
:102A100031F0EEFF0368DB689847206B3246A16B0C
:102A200003681B69984710B90D2384F84430A06BE4
:102A3000256470BDE06A0844FBE700BFF362030849
:102A400089620308E06203082DE9F84343690446FC
:102A50002BB9234BAA21234A234831F0C9FF08226E
:102A60008169FFF7C5FFA16943F2300646F264377A
:102A700004312046FFF798FFA3691844A36A00F1C8
:102A800008029A4206D3012300206361236AA361EE
:102A9000BDE8F883636909300822013320F00101A1
:102AA00020466361A161FFF7A3FFD4F81890204688
:102AB0004946FFF78EFF09F1020180462046FFF7E5
:102AC00088FF09F1040105462046FFF76DFFB04578
:102AD000D2D1BD42D0D10028CED00120D8E700BF4E
:102AE000356303087E630308896203082DE9F04F0C
:102AF0000446ADF51F7D8A46164681690822984630
:102B0000FFF776FFA7692046391DFFF74DFF07F154
:102B10000801024605462046FFF76AFF636B074639
:102B200033B93C4B40F2AB113B4A3C4831F060FFBB
:102B3000002203A8CDE901320EF0A2FD4FF4F47299
:102B40005021249024A808F050FD2A46394624A894
:102B500009F09AFC012124A808F042FE022324A8CF
:102B60008DF8D83008F0DDFEBAF90250479BAB4231
:102B700029D3BAF900904FEA4808BAF804702B9BA1
:102B800008FB05664F44BAF80250DFF894B03FB234
:102B90009F4228BF1F46BAF8063009EB490A1D4478
:102BA000419B2DB29D4228BF1D46479B9D4210D898
:102BB00024A808F037FE24A808F064FD01200DF5D4
:102BC0001F7DBDE8F08F012201A924A808F0F2FEC4
:102BD000CCE7012201A924A808F0ECFE626B49466B
:102BE0005244B94202F1030201D34644DDE712F830
:102BF000020C12F8013CC0000BEA032300F4FC6055
:102C0000034312F8030C43EAD00326F811300131D4
:102C1000E7E700BFB163030807640308896203089C
:102C200000F8FFFF0129036838BF0121DB6A70B596
:102C30000D4604469847A84204D223682046DB6A22
:102C4000984705466B1EE6691022204606EB0316E0
:102C500006F10801FFF7CCFE06F110012046FFF750
:102C6000A3FE236A043B0344C4E9055370BD00007E
:102C7000002148222DE9F0410446816180F844108A
:102C8000FFF7B6FEA6690423624A31462046FFF7E5
:102C90007BFE40B10323604AF22184F844305F4B4D
:102CA0005F4831F0A5FE06F1080104235D4A204685
:102CB000A161FFF769FE30B10423574AFA2184F875
:102CC0004430594BECE706F10C010423574A2046E7
:102CD000A161FFF759FE074638B105234E4A40F27D
:102CE000011184F84430524BDAE706F11001204616
:102CF000FFF75AFE054620B94E4B40F20711464AEF
:102D0000CEE706F1140804234B4A20464146FFF75C
:102D10003BFE002849D0062384F844300423474A68
:102D200006F118012046FFF72FFE00283FD00723A9
:102D300084F844304544424F0C2220462946FFF790
:102D400057FE05F1080604233A4620463146FFF7B0
:102D50001BFE94F84430002848D0002B48D1A36AC9
:102D6000AB4249D805F10C0304352046A36129463E
:102D7000FFF71AFE3044294660622046FFF714FE32
:102D80000644042220463146FFF732FE04232D4A32
:102D900031462046FFF7F8FD002838D10123E661CF
:102DA0006361A3692362BDE8F0810127B6E7002FC4
:102DB000C0D006F120012046FFF7F6FD4FF47A73EC
:102DC00006F13001B0FBF3F060602046FFF7ECFD48
:102DD00006F14001A0602046FFF7E6FD06F1440140
:102DE000E0602046FFF7E0FD2061A3E7002BB9D0AB
:102DF0000A2384F84430D6E7291D2046FFF7D4FD86
:102E000085190C2220462946FFF7F2FD99E70B238E
:102E1000EFE700BF616403087F640308666403088A
:102E200089620308AC640308B1640308C964030839
:102E3000CE640308E4640308F0640308F56403083F
:102E4000FA640308FF640308C0E90A210022026350
:102E5000FFF70EBF10B5002304460846E3620B6877
:102E600021639B689847A0622046BDE81040FFF7A9
:102E7000FFBE70B4BDF80C50BDF810602AB123B18C
:102E8000CDE9035670BCFFF703BD70BC704700006E
:102E90002DE9F04F9946436985B004460F469046A8
:102EA0002BB9294B7721294A294831F0A1FD082265
:102EB0008169FFF79DFDA66920463146FFF789FD30
:102EC000B11C83462046FFF784FD311D8246204613
:102ED000FFF76AFD06F10801A36A05460A189A423F
:102EE00026D243F230039B4517D146F264339A450C
:102EF00013D190B10246A1612046FFF779FD0E9BE8
:102F000001462A462046CDF80080CDE901933B4694
:102F1000FFF7AFFF636901336361A3692B4405B910
:102F200008330133626A23F001039342A36109D19C
:102F3000012301206361236AA36180F0010005B0D1
:102F4000BDE8F08F0020F8E7356303080465030847
:102F500089620308012070470C2070470C2303FB93
:102F60000100083070470C2303FB01000830704754
:102F70000120704742F26010704742F2601303FB79
:102F800001000830704742F2601303FB0100083073
:102F90007047012070471020704700EB0110083087
:102FA000704700EB011008307047084600F098BEEB
:102FB000034B10B50446036015F064FB204610BDBA
:102FC000DC92030810B50446FFF7F2FF14212046F7
:102FD00030F090F8204610BD034B10B50446036056
:102FE00015F050FB204610BDA892030810B504460A
:102FF000FFF7F2FF42F26811204630F07BF82046DE
:1030000010BD0000034B10B50446036015F03AFBF9
:10301000204610BD7492030810B50446FFF7F2FF76
:103020001821204630F066F8204610BD094B10B537
:103030000446036000F506501430FFF7B9FF04F1B1
:103040002C00FFF7C9FF04F11400FFF7DBFF204657
:1030500010BD00BF1093030808B50248FFF7E6FF54
:1030600008BD00BF7C16002010B50446FFF7DEFF48
:1030700042F20831204630F03DF8204610BD0000F5
:103080002DE9F34100F048FD0024054600F048FD1D
:103090002346014622462846009420F067FF284B2D
:1030A000284A2046284D1A6003F0B6F8274B284AD4
:1030B00028489A6020F0C2FE2B68BFF35B8FDB07C5
:1030C00037D4284630F018F898B3234C234B04F13A
:1030D000140004F12C08236000F506576060C4F862
:1030E000088007F11806E760266115F0CDFA1C4B41
:1030F0004046636115F0C8FA1A4B3846E36215F092
:10310000C3FA04F50053184A03F5D470C3F89421A8
:1031100003F006F9224607F11401304603F0F6F8F1
:10312000304600F0DDFD114831F080FC28462FF0DC
:10313000EFFF0F4802B0BDE8F041FFF70DB800BF48
:10314000EC7501202808002078160020480800208F
:103150002C0800200C0000207C160020109303088F
:1031600074920308A8920308DC92030859300008FF
:10317000A407002070470000014816F060B800BFA7
:10318000A407002070B5264E264B274C3046274D0D
:103190002360FFF7A9FA284625F0FAFF24481EF01D
:1031A0001DF9244B00224FF4807123481A8683F8BE
:1031B00058205A6683F870205A67DC60C3E91212FF
:1031C0001E49C3E91A121E49C3E91E011D491E48C2
:1031D000C3F880101D490B604FF4F071C3E904225D
:1031E000C3E90622C3E90822C3E90A22C3E90E2281
:1031F000C3E91022C3E91422C3E91722C3E9016518
:103200000180134883F8342001804FF488711148FD
:1032100001801148018011490A70114A1A6070BD7D
:10322000D4080020E090030874160020480800200D
:103230002C080020A407002000000101010000016B
:1032400000044400160014007C75012088750120DC
:10325000827501207E750120847501208075012012
:10326000F89003080148FFF7F7B800BFD408002022
:103270000020704781807047C1807047018170478E
:10328000418170477047704770477047704710B46E
:10329000C4880368121B84885B6D091B12B25DF839
:1032A000044B09B218474FF6FF7383814FF0FF3389
:1032B00003621368C36110607047002070478B88F9
:1032C000838001207047704780F82610704790F87F
:1032D0002600704710B50022B1F90840B1F90A1074
:1032E000028042808480C18010BD00220280428022
:1032F0008280C28070470177704780ED080A70476E
:1033000080F82410704780F825107047012070471E
:10331000983070478C3070478430704770477047E2
:1033200070470000034B902283F85A2383F85823F8
:10333000704700BF00E100E0094A0A49D3680A4823
:10334000C3F30A03013B9BB20B801169C1F30A016D
:10335000013901801364536B43F0010353637047D9
:10336000006801408639002084390020014BD3F8E1
:10337000AC00704700680140024B0122C3F8AC105A
:103380005A62704700680140124A5369DB0370B506
:103390001ED50023C2F88430BFF34F8FD2F880309F
:1033A00043F6E074C3F3C900C3F34E335B0103EA91
:1033B0000406014646EA81750139C2F87452F9D211
:1033C000203B13F1200FF2D1BFF34F8FBFF36F8F6C
:1033D00070BD00BF00ED00E070473823002201FB04
:1033E0000333C25490F838300BB9036C83647047D0
:1033F000704780F84C10704710B504462C212FF010
:1034000079FE204610BD10B5044658212FF072FEFB
:10341000204610BD10B50446BC212FF06BFE20469F
:1034200010BD000038B5044615F0F5FE23689D6E0A
:103430001CF066FD01462046A8472368084A20463E
:10344000D3F88C500023A2F57F31A847054B064ADC
:103450005A60064A1A649A644FF4FF225A6438BDCF
:1034600000F807C0483A0020A03A002000F40BC042
:1034700015F0B8BE15F0C2BE15F07DBE15F0FFBF49
:1034800090F8252012B103685B6918477047000067
:1034900008B531B1044B40F29711044A044831F0A9
:1034A000A7FA90F8390008BD5F6503087365030843
:1034B0000067030810B531B1064B40F29111064A7E
:1034C000064831F095FA406811460368BDE810409F
:1034D0001B6B18475F650308426703080067030812
:1034E00008B529B1034B7A21034A044831F080FA28
:1034F000006908BD5F650308F368030800670308F7
:1035000008B529B1054B8321054A064831F070FA08
:1035100041618160C0E9063208BD00BF5F650308F4
:10352000AB6A03080067030810B5044629B1274BAE
:10353000A421274A274831F05BFA052A34D8DFE86E
:1035400002F003292F34393E406803681B6998470D
:1035500050B34FF0FF31606D05F014FE00230122DF
:1035600094F83E1084F83B3084F83920A3606361FE
:1035700001B1226284F83E306362E36A2BB9012311
:10358000206D84F83A3005F0EDFE606DBDE8104026
:1035900005F028BE002380F8393084F83E3003E07F
:1035A000036200238360436110BD036200238360D4
:1035B0004361F2E7002380F839300123EDE7003B57
:1035C00018BF012380F83D30EEE700BF5F650308B8
:1035D0006A6C03080067030890F825201AB190F878
:1035E000242002B11860704770B50446164629B110
:1035F000314BE721314A324831F0FAF990F839304D
:1036000033B1304B1B6893F86B204369134443611B
:10361000E36A002B4DD0E169D4E905325343A26837
:103620004A43934220D2236A002B42D04FF0FF310D
:10363000606D05F0A7FD236A0BB10023E362E36A26
:10364000FBB90125606D05F0CDFD94F839300BB95B
:10365000236A3BB1E36A2BB90123206D84F83A3029
:1036600005F080FE284670BD94F84C000028DDD09F
:103670009B1AB3FBF1F2994298BF02F1FF326262EA
:10368000D4E7002294F83C50A3623046E262E2683C
:103690002261A2680132A260336333685B69984794
:1036A000002DCED194F83D30002BCBD184F8395089
:1036B000C8E70125C9E700BF5F650308416E03083D
:1036C0000067030888750120034B4FF080629A6001
:1036D0004FF080729A60704700E100E0084B4FF0B5
:1036E0008062C3F88820BFF34F8FBFF36F8F4FF016
:1036F0008072C3F88820BFF34F8FBFF36F8F70477E
:1037000000E100E038B5034690F8380038BB0122EC
:103710009860D8609A634FF4807258619A874FF42A
:10372000F0729861D861186258629862D862186322
:10373000586383F83E00CA864FF4887281F83400DB
:103740000A8708639A6C186102F5FF24D3E9101503
:1037500029448C420AD9084B5821084A03E0084BF7
:1037600040F2F511074A084831F042F91A6302F5B0
:103770007F329C645A6338BD9F710308DF71030870
:10378000E56F03081570030800670308002370B590
:10379000124E05468380124B0360336893F858201D
:1037A0000AB1D86C00B998680368DB6A9847336837
:1037B000B0FA80F4D86C640930B10368DB6A9847CA
:1037C000002808BF44F001042CB9064B2C21064AFE
:1037D000064831F00DF9284670BD00BF88750120FC
:1037E0002493030885730308E37303081C74030818
:1037F00070B5254E3568BFF35B8F15F0010540D1DC
:1038000030462FF079FC00283BD0204C204B04F1AF
:1038100034002561E584A562A585C4E90035C4E9C5
:1038200002551EF0C0F804F1580018F0A9F8194B21
:103830002046A365184B40F8843BFFF7A7FF174BC2
:103840001748C4F884302433C4F89050C4F88C303E
:103850004FF4C803C4F89C50C4F8A850C4E92835F4
:103860000023C4F8AC30C4F8B030C4F8B430C4F8A5
:10387000B8300C4BC4F8983031F0D8F830462FF0FF
:1038800047FC024870BD00BF883900208C390020F9
:1038900068AF030844930308BC9303081CAF0308F4
:1038A00021330008FCAE030838B5184C23685BB31D
:1038B000174B184A1B6C11888B4216D1164B0025EA
:1038C000198804F03FF9236893F86A2083F87C5044
:1038D000013283F86A20FEF769FD206816F02AFAA3
:1038E0002846BDE83840FEF763BB04F02BF9246896
:1038F000236820461B6A98470123002084F87C3007
:10390000BDE83840FEF784BB38BD00BF8875012094
:103910000068014086390020843900202DE9F743F2
:1039200004464FF4707894F83A304FF0FF31002B92
:1039300031D0606D05F026FC276BA36ABB4200D135
:10394000676B266A656856B32B68314628465B6A02
:1039500098470023236284F83B30606D05F042FCF9
:103960002B684FF4F0723946CDF8008028465E6926
:103970004FF48873B0474FF0FF310646606D05F095
:1039800001FC94F83B30E3B1002384F83B30606DD8
:1039900005F028FCC7E7206D05F0A8FCC3E7636AC3
:1039A000002BDAD02B682846D3E909939847616A3F
:1039B00001442846C847A368626A66621344A3604C
:1039C000CBE7E7625EB12B6828469B6A98470138CF
:1039D0000023E06084F83C6084F83A30D7E70120A7
:1039E000F6E70000014808B5FFF798FF483A0020C5
:1039F0000368042270B504465E6A00230D46B04792
:103A00004FF0FF31606D05F0BDFB382303FB05422D
:103A1000D16A09B10021D16203FB0545012385F874
:103A20003B30002385F83930606DBDE8704005F00B
:103A3000D9BB38B500EB810304460D4611465868E2
:103A40000368DB68984729462046FFF7D1FF38BD59
:103A500070B50D461146044600EB850250680268B9
:103A600096681A46B04729462046FFF7C1FF70BD49
:103A700038B5164900251648FEF76EFF154C164B53
:103A800001202A46294623604FF48073A564A3874A
:103A900084F84C0084F83E50C4E91055C4E914552C
:103AA000C4E90155C4E90355C4E90555C4E90755FE
:103AB000C4E90955C4E90B55C4E90D5505F0BEFB31
:103AC0002065284605F01AFB606538BDE83A0020FD
:103AD000A03A0020483A002008940308704710B527
:103AE000044604212FF006FB204610BD08B503292B
:103AF0000FD8DFE801F00A02060A02F0D9FB40689D
:103B000008BD02F0D5FB8068FAE702F0D1FB00683F
:103B1000F6E70020F4E700000048704754940308DB
:103B20000920704713B5002451B1036801AA01941C
:103B30008DF803409C680DF10303A04702B010BD4F
:103B40000846FBE7C0897047008A7047C088704705
:103B500080887047807A00F07F007047807AC009C3
:103B600070470020704700009FED010A704700BFBA
:103B700000000000704710B5044608212FF0BAFA83
:103B8000204610BD7047704700F598730868496873
:103B900003C3704770477047416070477047704774
:103BA000064BC0F84801C0F84C310023C0F8503132
:103BB00000F5A273C0F84031704700BFDD3F000838
:103BC000012303727047704710B441680346C2680E
:103BD0009B68541001EB6200D20748BF0A595DF898
:103BE000044B48BFD35818470346406830B19A6821
:103BF0001AB9D86800F0010070470120704710B56D
:103C000004460C212FF076FA204610BD10B504466C
:103C100010212FF06FFA204610BD10B504464FF466
:103C2000AE712FF067FA204610BD10B51CF068F990
:103C30000368BDE81040DB6B184710B50446D0F8A8
:103C4000400158B10368DB68984738B1D4F84001A7
:103C500003689B6898470023C4F8403110BD0000FA
:103C6000044B1B6893F858200AB1D86C00B99868C7
:103C7000704700BF88750120F8B5174604460E4608
:103C80001CF004FA124B00251C602946114B2360DE
:103C9000114BC4E95135114B1868C4E953550368F9
:103CA000C4E94F559B68C4E955769847284602F009
:103CB000B3FAFFF7D5FF27F016F9FFF7D1FF27F08A
:103CC0008DF9FFF7CDFF27F095F92046F8BD00BF2D
:103CD000DC750120389503082095030888750120BC
:103CE000064BC0F84801C0F84C310023C0F85031F1
:103CF00000F5A273C0F84031704700BFDD3F0008F7
:103D0000064BC0F84801C0F84C310023C0F85031D0
:103D100000F5A273C0F84031704700BF953E00081F
:103D2000064BC0F84801C0F84C310023C0F85031B0
:103D300000F5A273C0F84031704700BF493D00084C
:103D400003685B6A184700002DE9F14FD0E9556A16
:103D50000746B06803681B6A984742F25F139842AF
:103D600005D8444BA321444A444830F041FE7068D2
:103D700003681B6A98470F2803D8414BA4213E4A89
:103D8000F2E7F06803681B6A98470B2803D83D4B9D
:103D9000A521394AE8E7DFF8F4901CF0B1F80430C7
:103DA0001CF0D3F8D9F8000010B10368DB6898471D
:103DB000D9F8000010B103681B689847DFF8D0807D
:103DC000D8F8000010B103685B699847D7F83C0148
:103DD00010B103685B689847D8F8000010B1036819
:103DE0001B689847D7F83C0110B103689B68984757
:103DF0000021F068FFF7A4FF4FF0000B224B0446B0
:103E0000C0F804B0594680F808B00360B068036891
:103E10005B6A9847054602F073FC70685946036870
:103E20005B6A98470646294602F048FC331DC7F8EE
:103E30003C612846C9F80040C8F80050CAF8003074
:103E40002B68C6F808A0DB68EE63984733683046F5
:103E50001B689847214628461EF0D6FA236820465C
:103E60001B699847236820465B6901B0BDE8F04FA5
:103E7000184700BF7E7403080C750308DE7503083D
:103E800025760308C87603088C950308D0750120B1
:103E9000CC7501202DE9F14FD0E9556A0746B0688D
:103EA00003681B6A9847B0F5BE6F05D2434BA32148
:103EB000434A444830F09CFD706803681B6A984789
:103EC0000F2803D8404BA4213D4AF2E7F06803686D
:103ED0001B6A98470B2803D83C4BA521384AE8E7D2
:103EE000DFF8F0901CF00CF804301CF02EF8D9F834
:103EF000000010B10368DB689847D9F8000010B1E2
:103F000003681B689847DFF8D080D8F8000010B12C
:103F100003685B699847D7F83C0110B103685B6898
:103F20009847D8F8000010B103681B689847D7F885
:103F30003C0110B103689B6898470021F068FFF7C7
:103F4000FFFE4FF0000B224B0446C0F804B0594668
:103F500080F808B00360B06803685B6A984705465C
:103F600002F03EFB7068594603685B6A9847064654
:103F7000294602F0BBFA331DC7F83C612846C9F850
:103F80000040C8F80050CAF800302B68C6F808A0F6
:103F9000DB68EE639847336830461B6898472146D4
:103FA00028461EF031FA236820461B69984723688B
:103FB00020465B6901B0BDE8F04F18477E740308E6
:103FC0006B770308DE75030825760308C8760308B7
:103FD0008C950308D0750120CC7501202DE9F14F97
:103FE000D0E9556A0746B06803681B6A984740F2F3
:103FF000A373984205D8444BA321444A444830F067
:10400000F7FC706803681B6A98470F2803D8414B78
:10401000A4213E4AF2E7F06803681B6A98470B2820
:1040200003D83D4BA521394AE8E7DFF8F4901BF0AF
:1040300067FF04301BF089FFD9F8000010B1036856
:10404000DB689847D9F8000010B103681B689847EF
:10405000DFF8D080D8F8000010B103685B6998479A
:10406000D7F83C0110B103685B689847D8F80000A6
:1040700010B103681B689847D7F83C0110B103687A
:104080009B6898470021F068FFF75AFE4FF0000B3D
:10409000224B0446C0F804B0594680F808B00360CB
:1040A000B06803685B6A9847054602F085F9706856
:1040B000594603685B6A98470646294602F05AF952
:1040C000331DC7F83C612846C9F80040C8F80050C5
:1040D000CAF800302B68C6F808A0DB68EE63984782
:1040E000336830461B689847214628461EF08CF9F5
:1040F000236820461B699847236820465B6901B006
:10410000BDE8F04F184700BF7E7403083D780308F0
:10411000DE75030825760308C87603088C95030826
:10412000D0750120CC750120406A7047806A7047C5
:1041300070470B888A889BB2D20A10B54C88C16937
:1041400043EA044351F82200184410BD10B5044658
:10415000BAB1107B68B1537BD27A1B0203F4E063DF
:104160001A43236A03EB82031A888A4202D193F925
:10417000020010BD05D80138043380B20028F3D105
:10418000F7E70020F5E710B504462C212EF0B2FF2A
:10419000204610BD30B58BB00446BDF86050089580
:1041A000BDF85C5007959DF8505006959DF84C5011
:1041B00005959DF8485004959DF8445003959DF849
:1041C000405002959DF83C500195BDF8385000953F
:1041D0001DF0A6FC064B20462360159BE361169B51
:1041E0002362199B63621A9BA3620BB030BD00BFB0
:1041F000B0950308806A70477047704770477047F2
:10420000704780F82C10704710B40368046BD3F823
:10421000A430624361435DF8044B1847D0ED0C7A3B
:104220000368F8EEE77A10B420EE270AD3F8A4402A
:10423000B5EEC00AF1EE10FA1ADBB6EE007A30EEF7
:10424000070ABDEEC07A17EE101A60EEA70AF5EE67
:10425000C00AF1EE10FA1EDBF6EE007A70EEA70A45
:10426000FDEEE07A17EE902A23465DF8044B1847DE
:10427000BDEEC07AF8EEC76A17EE103A013B30EE99
:10428000660AF7EE086A30EE260ABDEEC00A10EEA6
:10429000101A1944D9E7FDEEE07AB8EEE77A17EE86
:1042A000903A013B70EEC70AB7EE087A70EE870AC3
:1042B000FDEEE00A10EE902A1A44D5E710B4036828
:1042C000046BD3F8B03062435DF8044B1847D0ED6F
:1042D0000C7A0368F8EEE77A10B427EE800AD3F878
:1042E000B040B5EEC00AF1EE10FA0BDBF6EE007A44
:1042F00030EE270AFDEEC07A17EE902A23465DF8CD
:10430000044B1847FDEEC07AB8EEE77A17EE903A04
:10431000013B30EE470AB7EE087A30EE070ABDEEF1
:10432000C00A10EE102A1A44E8E710B40368446B80
:10433000D3F8BC30624361435DF8044B1847D0EDBD
:104340000D7A0368F8EEE77A10B420EE270AD3F866
:10435000BC40B5EEC00AF1EE10FA1ADBB6EE007AF8
:1043600030EE070ABDEEC07A17EE101A60EEA70A0B
:10437000F5EEC00AF1EE10FA1EDBF6EE007A70EEF2
:10438000A70AFDEEE07A17EE902A23465DF8044B6B
:104390001847BDEEC07AF8EEC76A17EE103A013B37
:1043A00030EE660AF7EE086A30EE260ABDEEC00A65
:1043B00010EE101A1944D9E7FDEEE07AB8EEE77A6C
:1043C00017EE903A013B70EEC70AB7EE087A70EE2E
:1043D000870AFDEEE00A10EE902A1A44D5E710B4E1
:1043E0000368446BD3F8C03062435DF8044B184750
:1043F000D0ED0D7A0368F8EEE77A10B427EE800A64
:10440000D3F8C040B5EEC00AF1EE10FA0BDBF6EEC1
:10441000007A30EE270AFDEEC07A17EE902A234686
:104420005DF8044B1847FDEEC07AB8EEE77A17EE58
:10443000903A013B30EE470AB7EE087A30EE070AB1
:10444000BDEEC00A10EE102A1A44E8E7D0F82C316D
:10445000026B002B07DB02EB430090FBF2F000EB5A
:10446000D070401070476FF0010101FB032001384C
:1044700090FBF2F000EBD070401040427047D0ED5E
:104480004B7A90ED0C0AF8EEE77AB8EEC00A87EEA8
:10449000800A7047D0F82C017047D0F83031026B99
:1044A000002B07DB02EB430090FBF2F000EBD07037
:1044B000401070476FF0010101FB0320013890FBB1
:1044C000F2F000EBD070401040427047D0ED4C7AD3
:1044D00090ED0C0AF8EEE77AB8EEC00A87EE800A93
:1044E0007047D0F830017047D0F83431426B002B60
:1044F00007DB02EB430090FBF2F000EBD0704010C2
:1045000070476FF0010101FB0320013890FBF2F0CE
:1045100000EBD070401040427047D0ED4D7A90EDE6
:104520000D0AF8EEE77AB8EEC00A87EE800A704707
:10453000D0F834017047D0F83831426B002B07DBDC
:1045400002EB430090FBF2F000EBD070401070479C
:104550006FF0010101FB0320013890FBF2F000EB4A
:10456000D070401040427047D0ED4E7A90ED0D0A69
:10457000F8EEE77AB8EEC00A87EE800A7047D0F806
:1045800038017047036870B50446D3F888300D468B
:10459000164698472368324629462046D3F890307D
:1045A000BDE8704018470368D3F894301847036893
:1045B000D3F8D43018470368D3F8E03018470368BD
:1045C000002A10B4D3F8A430046B0EDB04EB4202D3
:1045D00092FBF4F101EBD1714910B0F91E215DF8A5
:1045E000044B013A0A44494218476FF0010101FBAC
:1045F0000241013991FBF4F101EBD17149104942BB
:10460000EBE70368D3F83C311847026B036851436A
:10461000D3F8483118470368D3F844311847D0ED30
:104620000C7A0368F8EEE77AD3F8482127EE800A7F
:10463000B5EEC00AF1EE10FA08DBF6EE007A30EEC5
:10464000270AFDEEC07A17EE901A1047FDEEC07AE9
:10465000B8EEE77A17EE903A013B30EE470AB7EE34
:10466000087A30EE070ABDEEC00A10EE101A19449F
:10467000EBE7C0F83C1170470368D3F85031184796
:10468000036810B5D3F85C31044698470028236BC3
:1046900007DB03EB400090FBF3F000EBD070401021
:1046A00010BD6FF0010202FB0030013890FBF3F007
:1046B00000EBD07040104042F2E70368D3F8583165
:1046C0001847036810B50446D3F85C31984707EEE5
:1046D000900A94ED0C0AF8EEE77AB8EEC00A87EE7D
:1046E000800A10BDD0F83C017047026B036851434B
:1046F000D3F868311847D0ED0C7A0368F8EEE77A02
:10470000D3F8682127EE800AB5EEC00AF1EE10FA60
:1047100008DBF6EE007A30EE270AFDEEC07A17EEDF
:10472000901A1047FDEEC07AB8EEE77A17EE903A8D
:10473000013B30EE470AB7EE087A30EE070ABDEECD
:10474000C00A10EE101A1944EBE7C0F84011704788
:10475000036810B5D3F87431044698470028236BDA
:1047600007DB03EB400090FBF3F000EBD070401050
:1047700010BD6FF0010202FB0030013890FBF3F036
:1047800000EBD07040104042F2E7036810B50446D9
:10479000D3F87431984707EE900A94ED0C0AF8EEBE
:1047A000E77AB8EEC00A87EE800A10BDD0F8400163
:1047B00070470846704703680029026BD3F88431BC
:1047C00010B504460EDB02EB410191FBF2F101EB67
:1047D000D171491009B220469847D4E94F2302FB12
:1047E000003010BD6FF0010000FB0121013991FB89
:1047F000F2F101EBD17149104942EBE7006B7047D0
:10480000406B70470368D3F8483118470368D3F802
:104810005C311847026B03685143D3F814311847D1
:10482000036870B5D3F818510446D0F84461D3F842
:10483000803198472B4656F820102046BDE870403E
:104840001847D0F84831B0F91E011944081A7047CA
:10485000C1627047C06A7047012070477047704757
:10486000C06B18B10368D3F880301847704730B573
:10487000B2F81A11B2F91441B2F940502144B2F819
:1048800042204480521A002185800180C28030BDC0
:1048900010B54280BDF90840BDF90C20048082802B
:1048A000C38010BD0B680846D3F8D43018470B6896
:1048B0000846D3F8E0301847B1F914017047B1F851
:1048C0001431B1F81A21B1F842001344C01A00B2F1
:1048D0007047B1F916017047B1F81631B1F81821D7
:1048E000B1F840001344C01A00B270470B68084684
:1048F0001146D3F81431184730B5B2F91651B2F851
:104900001841B2F840102C44B2F942200580091B2E
:104910000024C2804480818030BD02808380BDF944
:104920000020BDF904304280C38070470B68084600
:10493000D3F8EC3018470B680846D3F8F83018471E
:10494000B1F916017047B1F81631B1F81821B1F874
:1049500040001344C01A00B27047B1F91401704707
:10496000B1F81431B1F81A21B1F842001344C01A59
:1049700000B270470B6808461146D3F81831184743
:1049800030B585B00368044601816D460146D3F811
:1049900084303C342846984795E8070084E80700AF
:1049A00005B030BD30B585B00368044641816D4621
:1049B0000146D3F884303C342846984795E80700F0
:1049C00084E8070005B030BD00220280428082806A
:1049D000C280704780F836107047036870B504468F
:1049E0001B6B154698472368204629465B6EBDE839
:1049F0007040184700207047806C704770477047C0
:104A00007047704770477047704730B4446803463A
:104A1000C2689B68551004EB6200D20748BF625918
:104A200030BC48BFD35818470346406830B19A6835
:104A30001AB9D86800F0010070470120704710B51E
:104A400004464C212EF056FB204610BD10B50446FE
:104A500040F26C412EF04EFB204610BD10B50446CE
:104A600040212EF047FB204610BD10B504464021E2
:104A70002EF040FB204610BD10B5044610212EF04C
:104A800039FB204610BD10B5044640F2A4712EF04B
:104A900031FB204610BD38B503460846D3E90C5417
:104AA0000B68D3F88C309847294602462046BDE86B
:104AB000384017F069BB38B503460846D3E90C54B3
:104AC0000B68D3F894309847294602462046BDE843
:104AD000384017F059BB08B590F82C300BB1FEF7F1
:104AE000CFFC08BD08B5FEF7CBFC08BD0A1E10B50B
:104AF00003DBB0F91E41944206DC084B40F23961F9
:104B0000074A08482FF074FF0368D0F84441D3F8EF
:104B10008031984754F8200010BD00BF0F7903087A
:104B200032790308817903080B1E10B5044603DBB4
:104B3000B0F91E219A4206DC074B40F23361074A66
:104B400007482FF055FF0368D3F884319847D4E91C
:104B50004F2302FB003010BD0F790308DE790308F4
:104B600081790308036870B55E6B0446114B8DB202
:104B70001B682BB9104B6C21104A11482FF038FFDD
:104B80001049828D0988914203D80F4B6D210B4A41
:104B9000F3E713F812200D4B1B6853F8220003684B
:104BA0001B6B9847291A3346204609B2BDE870406E
:104BB000184700BFE07501202D7A03086F7A0308BB
:104BC000AA7A0308E4750120F17A0308E875012048
:104BD00038B500F5B76304460D46994203D11BF082
:104BE0008FF9FFF78DF804F2EC54A54205D11BF0C4
:104BF00087F9BDE83840FFF793B838BD00224FF081
:104C0000FF318260C0E900217047036870B5044637
:104C10001B6B154698472368204629465B6BBDE809
:104C20007040184770B504461D46BDF91060FFF787
:104C3000ECFF2368294620469B6B98472368314642
:104C40002046DB6BBDE87040184700000022C0E939
:104C50000122C0E90322C0E90522C0E907224FF47E
:104C600080728284014A0260704700BF1896030870
:104C700010B504462622002130F078F92046FFF7CF
:104C8000E5FF044B20462360FF2384F826300023F1
:104C9000A36210BD88B4030837B501AB15461DF0FB
:104CA0003DF800282A4601994FEA40144FF02000B1
:104CB00004DB1DF052F8204403B030BD1DF04DF868
:104CC000201AF9E770B5B0F81A310E46B0F9144160
:104CD000B0F842502344ED1A2DB22C44691ED0E99D
:104CE0004D32013CD21AF01AFFF7D6FFC0EB441048
:104CF00070BD38B504460D46B4F81631B4F8181135
:104D00000B44B4F84010C91AD0E94B0209B2121A88
:104D1000281A0139FFF7C0FFB4F9163100EB431030
:104D200038BD000010B504462622002130F01EF9DF
:104D30002046FFF78BFF00232046A36284F82C3027
:104D4000012384F82430044B23604FF6FF73E3857E
:104D5000238684F8323010BDF0B4030810B5044641
:104D60002622002130F002F92046FFF76FFF0A4BA0
:104D70004FF47F0220462360084BA3624FF6FF7377
:104D8000A3850023C4E90C324FF0FF322387E3638D
:104D9000C4E9102310BD00BFF8B303081095030841
:104DA0002DE9F04F044695B000251DF081F9A1468C
:104DB000DD4B04F16C0B04F19807E563012649F81B
:104DC000403B4846FFF754FF5846FFF751FFC821C4
:104DD00038464FF00A0A17F073F9D44B2946C72218
:104DE000C4F8983004F5F2733846DFF86883C4E9F4
:104DF0007565C4E97735FFF707FACD4BC4F89830ED
:104E000004F204531846099316F0BAFDC94BC4F8CE
:104E10003465C4F8043504F24453C4F838A5184680
:104E200084F83C65C4F83055C4F840550A9316F030
:104E3000A7FDC14BC4F87465C4F8443504F284532B
:104E4000C4F878A5184684F87C65C4F87055C4F891
:104E500080550B9316F094FDB84B04F5B762C4F877
:104E6000B055C4F884354FF0020310460792A4F8F9
:104E7000B435FFF757FF04F2EC5210460892FFF7E3
:104E800051FF04F5C46210460592FFF767FF04F571
:104E9000CD6210460692FFF761FF04F5D662104618
:104EA0000292FFF75BFF04F2FC62C4F8B086104682
:104EB000C4F8F8560392FFF751FF04F5E962C4F80D
:104EC000FC86C4F8445710460492FFF747FF9C4BFA
:104ED0004FF488724846C4F894372946994BC4F871
:104EE000488704F10408C4F89C374FF4F073C4F801
:104EF0009057C4F89847C4F8A05700922A46FFF785
:104F000091FE4FF07F4249464046A2664FF0FF397E
:104F100013F0CCFB4FF488724FF4F07358462946D7
:104F200000922A46FFF77EFE4FF07F4259464046E8
:104F3000C4F894204FF0030B13F0B8FBC82352467B
:104F400038460F2100934FF4E1734FF0460AFFF704
:104F500069FE314638462A46FFF714FB38462B4691
:104F60002A462946009517F05CF82B4638462A4613
:104F70002946009516F07CFF38464FF48272294688
:104F8000FFF7D3F9D4F834152820324684F83C656D
:104F9000484384F82AA50028C4F83095B8BF404299
:104FA000C4F8380517F0F0F80999C4F83805384600
:104FB000C4F8346516F067FFD4F87415324684F8E7
:104FC0007C65480184F86AA5C4F870954FF0050A1D
:104FD0000028B8BF4042C4F8780517F0D5F80A9900
:104FE000C4F878053846C4F8746504F2947616F06F
:104FF0004AFF554B38460B99C4F8B0354FF00203C1
:10500000A4F8B43516F03FFF39464046CD2713F0DB
:105010004DFBDC220F210798FFF7F7FD12AA11A91B
:105020000798ADF844B0ADF848A018F079FA0799A0
:10503000404684F8EA75C4F8E06513F037FBDB22DC
:105040007D210898FFF7E1FD12AA11A90898ADF893
:1050500044B0ADF848A018F063FA0899404684F8C7
:105060001E76C4F814660CAE84F8115613F01EFBBD
:10507000E1222C210598FFF7C8FD05993046C4F8B8
:105080005096A4F8545617F053FF04F25C632F4F68
:1050900096E8070083E80700162312A90598ADF8E3
:1050A0004C30129718F0DEF90599404613F0FEFADD
:1050B000E12297210698FFF7A8FD06993046C4F82B
:1050C0009896A4F89C5617F033FF04F2A46396E870
:1050D000070083E80700042312A90698ADF84C30B6
:1050E000129718F0BFF90699404684F88D5613F0D0
:1050F000DDFAE12296210298FFF787FDD4F8B03659
:1051000002993046D3F88430C4F8E096A4F8E45607
:10511000984704F2EC6396E8070083E807000C4B1D
:105120001A68FAB918E000BF309A03082CB00308D7
:1051300080980308809603083897030870B3030823
:10514000189A0308D14B000816BCC4FF1095030839
:10515000E0750120F09703084C4B60214C4A4D4804
:105160002FF046FCDFF838B1BBF80020142A03D832
:10517000494B6121464AF2E7DFF828A11421DAF809
:10518000000001F085F8C4F8F806029818F04AF912
:10519000152212A90298ADF84C20129718F062F966
:1051A0000299404684F8D55613F080FAE1224FF474
:1051B00087710398FFF729FDD4F8FC260399304640
:1051C000D2F88420C4F82C97A4F83057904704F5FF
:1051D000E76C324B96E807008CE807001A68002A53
:1051E000BAD0BBF80020122AC2D91221DAF8000086
:1051F00001F04EF8C4F84407039818F013F913228D
:1052000012A90398ADF84C20129718F02BF90399C6
:10521000404684F8215713F049FAE2224FF4BD7159
:105220000498FFF7F2FCD4F8482704993046D2F8E6
:105230008420A4F87C5704F28475C4F878979047CA
:10524000164B96E807001B6885E80700002B83D003
:10525000BBF800300E2B8BD90E21DAF8000001F0DC
:1052600017F8C4F89007049818F0DCF80F2312A977
:105270000498ADF84C30129718F0F4F840460499B1
:1052800013F014FA204615B0BDE8F08F2D7A03080C
:105290002F7B0308AA7A0308F17A0308E07501203E
:1052A000E4750120EC750120704770477047704726
:1052B000704770477047704770477047704770B4C9
:1052C00045680346C4689B68661005EB6400E40704
:1052D00044BFAC59E35870BC18470346406830B12E
:1052E0009A681AB9D86800F0010070470120704729
:1052F00030B444680346C2689B68551004EB6200F2
:10530000D20748BF625930BC48BFD358184703463C
:10531000406830B19A681AB9D86800F00100704747
:105320000120704730B444680346C2689B6855103A
:1053300004EB6200D20748BF625930BC48BFD35863
:1053400018470346406830B19A681AB9D86800F027
:10535000010070470120704790F82D3080F85C30D4
:10536000704710B5044664212DF0C4FE204610BDE0
:1053700010B5044610212DF0BDFE204610BD10B51D
:10538000044610212DF0B6FE204610BD10B504468F
:1053900010212DF0AFFE204610BD10B504464FF48D
:1053A000BE612DF0A7FE204610BD0146343091F8B5
:1053B0002C3013B1623118F0ECB96031FBE710B555
:1053C0000446006B50B10368DB68984730B1206B2E
:1053D00021460368BDE810409B68184710BD00F5E2
:1053E000C8728A4202D10368DB6A1847704700F529
:1053F0004673994270B504460E46154603D10368BC
:1054000011461B6B984704F20C439E4206D1236859
:10541000294620469B6BBDE87040184770BD00F5DB
:105420004673994270B504460E46154603D103688B
:1054300011465B6B984704F20C439E4206D12368E9
:1054400029462046DB6BBDE87040184770BD0B79DC
:1054500070B504460D4690F82C600BB916B170BDBE
:10546000002EFCD0B3FA83F320465B0984F82C307D
:105470002368D3F88C309847236820465B699847A7
:10548000002EECD02B79012BE9D123682046D3F8EC
:105490008830BDE87040184738B500F198030446DD
:1054A0000D46994203D11AF02BFDFEF719FCCC34BE
:1054B000A54205D11AF024FDBDE83840FEF730BC06
:1054C00038BD036870B504469B6B15469847236842
:1054D00020462946DB6BBDE8704018470B8870B545
:1054E0000546A0F860301388044625F8623F284638
:1054F0001EF050FD064628461EF080FD314602464D
:105500002046FFF7DEFF23682046D3F88C30BDE845
:10551000704018474FF47F43F7B5838540F201137D
:105520000025064683844FF6FF771A4B0446262251
:10553000294685620563ADF80470C0E90155C0E9EC
:105540000355C0E90555C0E9075546F8343B3046D8
:105550002FF00CFD3046FFF779FB0F4B01A93046C9
:105560006363BDF8043084F85C70A4F85A3018F016
:1055700010F92A4629463046A4F86070A4F86270F3
:10558000FFF743FB2046314613F090F8204603B066
:10559000F0BD00BF649A030864B503082DE9F04F1D
:1055A000044697B000251CF083FD2746DF4B04F12D
:1055B0006C0904F19808E56304F1CC0B47F8403B13
:1055C0003846FFF755FB4846FFF752FB4046FFF7CA
:1055D000A9FB5846FFF7A6FB04F58073D44E4FF0A5
:1055E0007F4A18460693FFF7B9FB04F5A4731846E3
:1055F0000793FFF7B3FB04F5C87318460B93FFF747
:1056000089FF04F5FA7318460893FFF7A7FB04F522
:105610000F7318460993FFF7A1FB04F52173184691
:105620000A93FFF79BFB04F5337318460593FFF7C6
:1056300095FB04F54673C4F8CC621846C4F81453BD
:10564000039313F0F9FC04F20C431846049313F08F
:10565000F3FC04F5A06318460C93FFF77FFB04F2FC
:105660004C53C4F800651846C4F848550D93FFF72D
:1056700075FBB04B3846B04A2946C4F8B035AF4B3D
:10568000C4F84C65261DC4F8B835AD4BC4F8D82510
:105690002A46C4F8C035AB4BC4F89455C4F8C83595
:1056A000A94BC4F8B445C4F8D035C4F8E035A74BCD
:1056B000C4F8BC55C4F8E8354FF48873C4F8C44541
:1056C000C4F8CC55C4F8D445C4F8DC55C4F8E44556
:1056D000C4F8EC5500934FF4F073FFF7A3FA394682
:1056E0003046C4F868A012F0E1FF4FF488732A46F0
:1056F0004846294600934FF4F0730327FFF792FAC8
:1057000049463046C4F894A012F0D0FF4046DC224F
:105710000F21FFF77AFA4FF0CD0A4FF0050304F599
:10572000B66914AA404613A9ADF85030ADF84C70D4
:1057300017F0F6FE4146304684F8CAA00DF138084D
:10574000C4F8C09012F0B2FF5846DC227D21FFF76A
:105750005CFA4FF0050314AA584613A9ADF850306F
:10576000ADF84C7017F0DCFE5946304684F8FEA0C8
:105770004FF0100AC4F8F4904FF0FF3912F096FF82
:10578000E1222C210698FFF740FA40460699C4F81A
:105790003091A4F8345117F0CBFB04F59E73DFF879
:1057A000B0B198E8070083E8070014A90698CDF87F
:1057B00050B0ADF854A017F055FE0699304612F0DF
:1057C00075FFE12297210798FFF71FFA40460799D6
:1057D000C4F87891A4F87C5117F0AAFB04F5C273C1
:1057E00098E8070083E8070014A90798CDF850B09F
:1057F000ADF8547017F036FE0799304612F056FF98
:10580000042314AA13A9ADF84C304FF005030B98EC
:10581000ADF85030FFF762FE2A46294604F5E270E3
:10582000FFF7F3F904F5B86312225921C4F8C03127
:1058300026230B9800936623FFF7F4F90B99304663
:1058400012F034FF192208981146FFF7DEF940469E
:105850000899C4F82492A4F8285217F069FB04F5BB
:105860000C7398E8070083E807000D2314A9089833
:10587000ADF85430CDF850B017F0F4FD089930462B
:1058800012F014FF452219210998FFF7BEF940468E
:105890000999C4F86C92A4F8705217F049FB04F50A
:1058A0001E7398E8070083E807000A2314A90998E3
:1058B000ADF85430CDF850B017F0D4FD099930460A
:1058C00012F0F4FE8E2219210A98FFF79EF9404645
:1058D0000A99C4F8B492A4F8B85217F029FB04F559
:1058E000307398E8070083E80700092314A90A9891
:1058F000ADF85430CDF850B017F0B4FD0A993046E9
:1059000012F0D4FE162274210598FFF77EF9D4F820
:10591000CC3240460599D3F88430C4F8FC92A4F800
:105920000053984704F5427314E000BF4C9B0308F2
:10593000F0970308049B0308EF53000899540008EC
:105940001C9B0308DF530008349B03081F54000806
:105950001095030898E80700DFF8408283E8070005
:10596000D8F800302BB9864B6021864A86482FF044
:105970003FF8864B1B880B2B03D8854B6121814A4E
:10598000F4E7844B0B210627186800F081FCC4F86B
:105990001403059817F046FD0C2314A90598ADF8DB
:1059A0005430CDF850B017F05DFD0599304612F037
:1059B0007DFE632257210398FFF727F90DF1500C64
:1059C0004FF008024FF0070163460DF14C0C0398AD
:1059D000ADF848206246ADF8501012A9ADF84C70F1
:1059E00013F084FB4FF4967C2B4651460B22039810
:1059F000CDE9005C13F081FA4FF4FA62294603986E
:105A000013F021F92946039813F0E5F804F5BA6C70
:105A100003993046CDF814C0C4F804C404F5BC6C36
:105A2000C4F808C4CDF818C012F040FEAC225721CB
:105A30000498FFF7EAF84FF007004FF0080212A9A8
:105A4000ADF8500014A8ADF84820034613A8ADF8EF
:105A50004C700246049813F049FB4FF496702B46A5
:105A600051460B2204F5B36ACDE90050049813F0B7
:105A700044FA4FF4FA622946049813F0E4F82946F0
:105A8000049813F0A8F8059A04993046C4F8F8244D
:105A9000069AC4F8FC2412F009FE18206823452257
:105AA000009057210C98FFF7BDF8D8F80030C4F8E3
:105AB0003095A4F83455C4F83C55C4F84095C4F862
:105AC0004455002B3FF44FAF304A1388072B7FF625
:105AD00054AF304B0721186800F0DAFB2E4A03461A
